:020000040800F2
:100000007811002005010008931D0008AB1B0008B3
:10001000911D00085F030008133B0008000000006A
:10002000000000000000000000000000AB200008FD
:100030002504000800000000A9200008AD200008E9
:100040001F0100081F0100081F0100081F01000810
:100050001F0100081F0100081F0100081F01000800
:100060001F0100081F0100081F0100081F010008F0
:100070001F0100081F0100081F0100081F010008E0
:100080001F0100081F0100081F0100081F010008D0
:100090009D3A00081F0100081F0100081F01000809
:1000A0001F0100081F0100081F0100081F010008B0
:1000B0001F0100081F0100081F0100081F010008A0
:1000C0001F0100081F0100081F0100081F01000890
:1000D0001F0100081F0100081F010008112300086C
:1000E0001F0100081F0100081F010008DFF810D0E1
:1000F00000F0EAF800480047693C0008AFF30080D0
:10010000781100200648804706480047FEE7FEE7D2
:10011000FEE7FEE7FEE7FEE7FEE7FEE7FEE7FEE7B7
:1001200027210008ED00000840EA01039B0703D0E7
:1001300009E008C9121F08C0042AFAD203E011F826
:10014000013B00F8013B521EF9D27047D2B201E0E8
:1001500000F8012B491EFBD270470022F6E710B5CC
:1001600013460A4604461946FFF7F0FF204610BD25
:10017000421C10F8011B0029FBD1801A704710B5F2
:100180000346002004E0401C491C03F8014B521EAA
:10019000012A02D90C78002CF5D122B100221A7064
:1001A00001E0401C491C0A78002AFAD110BD2DE953
:1001B000F04791460F4680460446002614F8015B3E
:1001C0002DB100F02DF80068405DC007F6D12B2D51
:1001D00002D02D2D18D0641E4A463946204600F024
:1001E00023F827B13968A14201D1C7F80080710511
:1001F0004FF002040BD54042002803DD03F09AFCC7
:100200000460A007BDE8F08746F48066E4E70028B4
:10021000F8DA03F08FFC04606FF00040F2E70000B2
:1002200000487047283E00082DE9F05F82460078BC
:10023000002715468B460AF10104B946302801D043
:100240009DB113E014F8010B0127782803D058283A
:1002500001D045B10AE00DB1102D07D100271025BE
:1002600014F8010B02E0082500E00A250026B0463C
:100270000EE005FB080005FB06F1012701EB104627
:100280001FFA80F8B6F5803F00D3B94614F8010B89
:10029000294600F02BF80028EBDABBF1000F05D05F
:1002A0000FB1641E00E05446CBF80040B9F1000FD6
:1002B00006D003F03FFC02210160C81EBDE8F09F9C
:1002C00048EA0640FAE70000064C074D06E0E06801
:1002D00040F0010394E8070098471034AC42F6D38D
:1002E000FFF708FF2C3E00084C3E00083A2800D2D9
:1002F000303820F02002412A01D3A2F13700884291
:1003000001D34FF0FF30704770B58C1810F8015BC7
:1003100015F0070301D110F8013B2A1106D110F89E
:10032000012B03E010F8016B01F8016B5B1EF9D1A2
:100330002B0705D40023521E0DD401F8013BFAE728
:1003400010F8013BCB1A921C03E013F8015B01F893
:10035000015B521EF9D5A142D8D3002070BDFEE743
:10036000002070470020704710B50022054906485C
:1003700002F0C6F803490448403902F0BBF80020F7
:1003800010BD00002A0800201C03002070B50C4698
:1003900005460146154802F0ADF8144802F08EF803
:1003A000226829461248521CFFF7E9FE10480178DE
:1003B0004C2915D181790D2902D0C1790D290FD190
:1003C000C17843790B4830394FF48072462B08D0FE
:1003D0004E2B05D1491E8A4091B2012200F096F9B8
:1003E00070BD491E8A4091B20022F7E71C0300202D
:1003F000E0070020000C0140094A10B5D2F8B822ED
:10040000D2F814220AB1012010BD0A460146044860
:1004100002F076F8BDE81040014802F0CFB80000C5
:100420001C030020704772B6FEE710B590F821104B
:100430000022022905D00421816380F820200120B8
:1004400010BD01680B6823F00E030B6001680B6898
:1004500023F001030B6090F84030C46B012101FAD6
:1004600003F3636080F8211080F82020104610BD4F
:1004700010B590F821100024022903D004218163D3
:1004800001243DE001680A6822F00E020A6001685A
:100490000A6822F001020A601A4A0168914201D1F9
:1004A000012121E0174A1432914201D110211BE0B1
:1004B000144A2832914201D1891515E0114A3C3283
:1004C000914201D189140FE00E4A5032914202D17B
:1004D0004FF4803108E00B4A6432914202D14FF46C
:1004E000801101E04FF08071064A083A5160012105
:1004F00080F82110002180F82010416B01B188475D
:10050000204610BD0800024070B5044600F004F912
:100510000546601C02D004480078044400F0FCF852
:10052000401BA042FAD370BD380000202DE9F84FDF
:10053000DFF8B891002409F1040A0AF1040B2346FC
:100540000F270BF1040EC9E00125A5402A40AA425D
:100550007DD1674ED1F804C0ACEB0608B44532D06B
:1005600014DCBCF1030F3AD009DCBCF1000F2AD037
:10057000BCF1010F1CD0BCF1020F31D11DE0BCF168
:10058000110F17D0BCF1120F2AD119E0B8F5881F4E
:1005900019D006DCB8F5803F15D0B8F5801F1FD103
:1005A00011E0B8F5001F0ED0B8F5041F18D10AE00D
:1005B000CB6815E0CB681B1D12E0CB6808330FE059
:1005C000CB680C330CE08B682BB1012B4FF0080388
:1005D00003D0456104E0042302E0056100E000234C
:1005E000FF2A01D8064601E000F104064FEA84051F
:1005F00001D9A5F12005D6F8008007FA05FC28EA04
:100600000C0803FA05F548EA0508C6F800804D68AD
:10061000ED0062D5374DAE6946F00106AE61AD69B9
:1006200024F0030605F001050095334D06EB050C9B
:10063000DCF80850A607360F07FA06F825EA080581
:10064000DFF8B880404503D14FF0000817E044E0E0
:10065000DFF8AC80404502D14FF001080FE0DFF831
:10066000A480404502D14FF0020808E0DFF89880EE
:10067000404502D14FF0030801E04FF0040808FAAA
:1006800006F848EA0508CCF808804D68D9F80060FB
:10069000ED034D4601D5164300E096432E604D68AC
:1006A000DAF80060AD03554601D5164300E09643E5
:1006B0002E604D68DBF80060ED025D4601D5164303
:1006C00000E096432E604D68DEF80060AD0275468E
:1006D00001D5164300E096432E60641C0D682A463F
:1006E000E5407FF431AFBDE8F88F00000004014021
:1006F00000001110001002400000014000080140FD
:10070000000C014000100140001401400AB10161D9
:1007100070470904FBE7000001488068704700004B
:1007200038000020024881680278114481607047D7
:1007300038000020074810B5016841F01001016041
:10074000032000F073F80F2000F006F800F024F802
:10075000002010BD0020024070B50D4D04464FF43E
:100760007A712878B1FBF0F00A490968B1FBF0F022
:1007700001F02EF848B9102C07D200222146501E55
:1007800000F034F800206C6070BD012070BD0000E6
:1007900038000020440000200B4808B5816941F072
:1007A00001018161816901F001010091C16941F09C
:1007B0008051C161C06900F08050009003484168D9
:1007C00021F0E061416008BD0010024000000140DE
:1007D000002809DB00F01F02012191404009800040
:1007E00000F1E020C0F8001170470000F0B40E4B9B
:1007F0001B680C46C3F30223C3F10705042D00D97F
:100800000425191D072901D2002300E0DB1E012663
:1008100006FA05F1491E214099409E40761E164079
:100820003143F0BC03F076B90CED00E0064900F06E
:10083000070208684FF6FF03184040EA0220034A07
:1008400010430860704700000CED00E00000FA055E
:1008500010B50C0607D501F0070101EB810100EB93
:10086000C100283005E001EB810100EBC10000F57B
:10087000B47099B232B1012202730181190C418125
:10088000002010BD00220273C180F9E7704701EB20
:10089000810200EBC202D0F8E802D26B02F03DB850
:1008A00001EB810200EBC202D0F8E802D2F87C2111
:1008B00002F096B870B504460B0601F0070000EB95
:1008C000800104EBC1014FF001024FF0000503D598
:1008D00081F82920283103E081F8695101F5B471CC
:1008E000087094F8A802012808D084F8A82220688B
:1008F00002F0D2FC84F8A852002070BD022070BD26
:1009000070B5044601F00F006268904201D90120E1
:1009100070BD0B0601F0070000EB800104EBC10184
:100920004FF001024FF0000503D581F8292028314E
:1009300003E081F8695101F5B4718D70087094F885
:10094000A802012808D084F8A822206802F041FDFE
:1009500084F8A852002070BD022070BD2DE9F05F20
:1009600004685FEA424C0B788D69B4F850C04FF0D0
:1009700000064BF68F7948F2800A48F68F7B48F2E2
:10098000C00E4FF480672AD54FF0020808EBC30869
:10099000C44407EB4C07E45BC4F30904A54203D34A
:1009A0002D1B8D6101D00BE08E61066836F8235057
:1009B00005EA090585F4005545EA0A0526F823509D
:1009C000520609D50D78036833F8252002EA0B0298
:1009D00042EA0E0223F8252084B30A8929E04FF069
:1009E000060808EBC308C44407EB4C07E45BC4F3F8
:1009F0000904A54203D32D1B8D6101D00BE08E614C
:100A0000066836F8235005EA090585F4005545EADD
:100A10000A0526F82350520609D40B78056835F8E4
:100A2000232002EA0B0242EA0E0225F823202CB111
:100A30004A8949690068234603F03AF82046BDE830
:100A4000F09F2DE9F05F054600680C465FEA426CB6
:100A500016468B692278B0F850C048F68F774CF272
:100A600080094FF6FF7B4FF4004E4FF4806A4FF041
:100A700000017BD54FF0020808EBC208E0440AEB06
:100A8000480C30F80C00C0F30900834211D91B1A3E
:100A9000A3610FD0730407D52E6836F822303B408F
:100AA00043EA090326F8223094F82420012A50D082
:100AB0004EE1A161607810B1012813D01AE02868D6
:100AC000B0F85030184400EB0210B0F8042422F4BF
:100AD000F842A0F80424B0F8042442F40042A0F83C
:100AE000042407E02868B0F85030184400EB0210E6
:100AF000A0F804146278286812B1012A11D018E015
:100B0000B0F850100844217800EB0110B0F80C1434
:100B100021F4F841A0F80C14B0F80C1441F4004191
:100B200005E0B0F850201044227800EB0210A0F845
:100B30000C1421782846FFF7AAFE7004B8D5217856
:100B40002A6832F82100384040EA090022F82100E2
:100B5000FEE0626902446261E2690244E261236983
:100B6000226A9A4203D31846111A04E038E084F846
:100B700024100AB110462162617811B1012923D0F5
:100B80002BE02968B1F850201144227801EB0211C2
:100B900001F2044148B13E280FD84208C30700D0F3
:100BA000521C0BEA82220A8017E00A8822F4F842DB
:100BB0000A800A8842F40042F5E74209C30600D1E0
:100BC000521E4EEA8222EEE72968B1F85020114405
:100BD000227801EB0211A1F8040483B22289B3E068
:100BE0004FF0060808EBC208E0440AEB480C30F866
:100BF0000C00C0F30900834211D31B1AA3610FD06C
:100C0000730407D42E6836F822303B4043EA0903C8
:100C100026F8223094F82420012A50D098E0A161CF
:100C2000607810B1012813D01AE02868B0F850306D
:100C3000184400EB0210B0F8042422F4F842A0F8A3
:100C40000424B0F8042442F40042A0F8042407E08D
:100C50002868B0F85030184400EB0210A0F80414D3
:100C60006278286812B1012A11D018E0B0F850104B
:100C70000844217800EB0110B0F80C1421F4F8417D
:100C8000A0F80C14B0F80C1441F4004105E0B0F8E1
:100C900050201044227800EB0210A0F80C142178A8
:100CA0002846FFF7F4FD700452D42278296831F801
:100CB0002200384040EA090021F8220048E0626939
:100CC00002446261E2690244E2612369226A9A4253
:100CD00003D31846111A216204E00AB110462162BA
:100CE00084F824106278296812B1012A22D029E000
:100CF000B1F850201144227801EB021101F20C41AD
:100D000048B13E280FD84208C30700D0521C0BEA56
:100D100082220A8016E00A8822F4F8420A800A88B1
:100D200042F40042F5E74209C30600D1521E4EEAE2
:100D30008222EEE7B1F850201144227801EB021133
:100D4000A1F80C04628983B26169286802F0CEFEC2
:100D500021782A6832F8210048F6BF73184080F0E5
:100D6000300048F28003184322F821000020BDE83B
:100D7000F09F01F0070101EB810100EBC100D0F809
:100D8000840170472DE9F04104460F0601F0070089
:100D900000EB800104EBC1014FF001064FF00005AC
:100DA00003D581F82960283103E081F8695101F504
:100DB000B47108700A61CB704A7802B1C881022B05
:100DC00000D10D7194F8A802012809D084F8A86216
:100DD000206802F017F9284684F8A852BDE8F0818F
:100DE0000220FBE770B50C4601F0070505EB850115
:100DF00000EBC101C1E95F230022C1F8842181F821
:100E0000692181F8685101F5B4716207006802F048
:100E100035FB002070BD70B504460D4601F007009B
:100E20006168884201D9012070BD29064FF0000693
:100E30004FF0010207D500EB800104EBC10181F8FE
:100E40002920283107E005EB850104EBC10181F879
:100E5000696101F5B4718A70087094F8A8020128DC
:100E600007D084F8A822206802F0EFFA680702D0C1
:100E700006E0022070BD04F52C71206802F0A7FA8C
:100E800084F8A862002070BD70B50C4601F007051B
:100E900005EB850100EBC101C1E90F23012281F8B7
:100EA0004C208B6400234B6481F8292001F8285FD3
:100EB0006207006802F0E2FA002070BD1FB5044628
:100EC000006802F0F1FD000402D5204600F062FF48
:100ED000206802F0E9FD40050CD5206830F8441F79
:100EE00021F480610180204600F01EF90021204697
:100EF00000F035F9206802F0D7FD400405D52068E0
:100F000030F8441F21F480410180206802F0CCFDBC
:100F1000800405D5206830F8441F21F40051018079
:100F2000206802F0C1FDC00414D5206830F8401FCD
:100F300021F004010180206830F8401F21F00801F1
:100F40000180204600F003F9206830F8441F21F4A6
:100F500080510180206802F0A7FD00053ED522687F
:100F60000020694632F8203021F81030401CC0B211
:100F70000828F7D332F8400F40F0010010802068B5
:100F800030F8402F22F0010202802068B0F844209F
:100F90005205FBD530F8442F22F4806202800020F5
:100FA000236831F8102023F82020401CC0B2082804
:100FB000F6D3206830F8401F41F008010180206816
:100FC00030F8441F21F400610180206830F8401F90
:100FD00041F004010180204600F0F6F8206802F09C
:100FE00063FD800508D5206830F8441F21F40071A6
:100FF0000180204600F0AFF8206802F055FDC005E2
:1010000005D5206830F8441F21F4807101801FBD90
:101010002DE9F04186B0040004D094F8A90200251F
:1010200020B108E0012006B0BDE8F08184F8A852A4
:10103000204600F05BF8032084F8A902206802F043
:10104000BFF904F11001142288466846FFF76CF8D6
:1010500094E80F0002F002F90226D0BB00212068BC
:1010600002F03CFD002001270FE000BF00EB8001F3
:1010700004EBC10181F8297001F8280FC881CD70F7
:101080000D614D61401CC0B28D6161688142EDD837
:10109000002011E000EB800104EBC10181F86951EF
:1010A00081F8680181F86B51C1F87851C1F87C5121
:1010B000401CC0B2C1F8805161688142EAD8142254
:1010C00041466846FFF730F894E80F0002F06FF9E8
:1010D00010B184F8A962A5E784F8245084F8A972B5
:1010E000206802F062F900209DE7000008B5006862
:1010F0000B49884212D10B48C16941F40001C1611A
:10110000C069002200F40000009011461420FFF78F
:101110006DFBBDE808401420FFF75ABB08BD000076
:10112000005C00400010024070B504468068012554
:10113000022801D0FFF777F92946D4F8E80201F038
:1011400038FDD4F8E802BDE8704001F0F4BCD0F8F6
:10115000E80201F018BDD0F8E80201F01EBD10B59C
:10116000044690F8A80201280BD0012084F8A802B8
:1011700084F82410206802F0B3FC002084F8A80250
:1011800010BD022010BDD0F8E82200F52C711046E9
:1011900001F01BBD10B5044690F8A802012810D03C
:1011A000012084F8A802206802F06EFC012120468C
:1011B000FFF76CFB206802F0F6F8002084F8A80224
:1011C00010BD022010BD000010B50446D0F8E802A2
:1011D00001F03AFDA069002804D00348016841F0FD
:1011E0000601016010BD000010ED00E02DE9F8439C
:1011F00005460078354CC00754D0E0690026C00091
:1012000008D4E06940F08050E061E069012600F018
:10121000805000902E480168C90512D401688046AC
:1012200041F480710160FFF777FA074605E000BFDF
:10123000FFF772FAC01B642823D8D8F80000C00555
:10124000F6D5206A10F4407021D0A98801F44071CD
:1012500081421CD0206A1F49012220F440700A609C
:1012600000220A602062C00711D0FFF755FA074636
:1012700041F2883808E000BFFFF74EFAC11B414534
:1012800002D90320BDE8F883206A8007F4D5206ADC
:10129000696820F44070084320621EB1E06920F0C4
:1012A0008050E0612878800705D56068A96820F43F
:1012B0004040084360602878C00605D56068E9684A
:1012C00020F48000084360600020DBE7001002404B
:1012D00000700040400442422DE9F0470F460500EF
:1012E00061D0434E306800F00700B84209D2306840
:1012F00020F0070038433060306800F00700B84243
:1013000051D128683B4C810712D5400703D560684E
:1013100040F4E06060602878000703D5606840F41E
:10132000605060606068A96820F0F0000843606069
:101330002878C00728D06868012810D021680228C2
:1013400010D0890700292EDA616821F003010143DA
:101350006160FFF7E1F9804641F288390DE02168CC
:101360008903EFE78901EDE7FFF7D6F9A0EB080164
:10137000494502D90320BDE8F0876068696800F03C
:101380000C00B0EB810FEFD1306800F00700B842DD
:101390000BD9306820F0070038433060306800F027
:1013A0000700B84201D00120E5E72878400705D5BD
:1013B0006068E96820F4E06008436060287800070E
:1013C00006D56068296920F4605040EAC100606079
:1013D00000F038F86168084AC1F30311515CC84055
:1013E0000649086006480068FFF7B6F90020C2E722
:1013F00000200240001002408C3D00084400002004
:101400003C0000200448054900684968044AC1F3CB
:101410000221515CC8407047440000200010024087
:101420009C3D00080448054900684968044AC1F326
:10143000C221515CC84070474400002000100240A7
:101440009C3D000812A185B00FC98DE80F0014A0C3
:10145000144A006804905168134801F00C03042BEF
:1014600010D0082B0ED1C1F38343C9031DF803002C
:101470000AD5516804AAC1F34041515C0A4A50435D
:10148000B0FBF1F005B0704708494843FAE70000A7
:1014900002030405060708090A0B0C0D0E0F1010B5
:1014A000010200000010024000127A0000093D0015
:1014B0002DE9F84F040070D02078C04DC00749D006
:1014C0006868C0F38100012807D06868C0F3810014
:1014D000022809D16868C00306D52868800339D579
:1014E00060680028E7D035E06068B0F5803F0BD039
:1014F00010B1B0F5A02F11D0286820F480302860FA
:10150000286820F4802002E0286840F480302860B9
:10151000606890B1FFF700F906460AE0286840F4D9
:1015200080202860F0E700BFFFF7F6F8801B6428F2
:1015300073D828688003F7D50CE0FFF7EDF806466E
:1015400005E000BFFFF7E8F8801B6428F0D82868A2
:101550008003F7D420789A4E80074FF001094FF0AE
:10156000000839D5686810F00C0F07D06868C0F320
:101570008100022809D16868C00306D42868800762
:1015800014D52069012808D110E02069B0B1C6F84F
:101590000090FFF7C1F8074605E00AE1FFF7BCF845
:1015A000C01B0228C4D828688007F7D5286861695D
:1015B00020F0F80040EAC10028600DE0C6F8008085
:1015C000FFF7AAF8074604E0FFF7A6F8C01B0228B9
:1015D00023D828688007F7D4207800072CD57948CD
:1015E000A169D9B1C0F80090FFF796F8074604E06A
:1015F000FFF792F8C01B02280FD8686A8007F7D55A
:1016000071484FF4FA510068B0FBF1F0009000BF50
:101610000098411E0091FAD20EE080E0C0F80080F0
:10162000FFF77AF8074604E0FFF776F8C01B0228B8
:1016300075D8686A8007F7D42078400760D5E869D4
:101640000027C00008D4E86940F08050E861E869EC
:10165000012700F0805000905C480168C90513D450
:101660000168834641F480710160FFF755F88246B6
:1016700006E000BFFFF750F8A0EB0A0064284ED840
:10168000DBF80000C005F5D5E06801280AD008B1F4
:10169000052813D0286A20F001002862286A20F06B
:1016A000040002E0286A40F001002862E06841F28C
:1016B000883B98B1FFF730F882460BE0286A40F08B
:1016C00004002862EEE700BFFFF726F8A0EB0A014E
:1016D00059455AD8286A8007F6D50CE0FFF71CF860
:1016E000824605E0FFF718F8A0EB0A0159454CD8EF
:1016F000286A8007F6D41FB1E86920F08050E861BD
:10170000E06988B36968C1F38101022944D00228E5
:10171000C6F8608004D0FEF7FFFF044638E034E0EE
:10172000FEF7FAFF074604E0FEF7F6FFC01B0228AB
:101730002BD828688001F7D4206AB0F5803F05D106
:101740006868A16820F4003008436860D4E90801A3
:101750000843696821F4741108436860C6F8609012
:10176000FEF7DAFF044606E025E000BFFEF7D4FFEF
:10177000001B022809D828688001F7D51BE000BFAC
:10178000FEF7CAFF001B022802D90320BDE8F88F2C
:1017900028688001F4D40EE00128F7D06868226A36
:1017A00000F48031914204D1616A00F470108842E3
:1017B00001D00120EAE70020E8E700000010024025
:1017C0000000424280044242440000200070004079
:1017D00010B5401EB0F1807F01D3012010BD4FF045
:1017E000E02460610F21601702F094F90020A061ED
:1017F00007202061002010BD70477047F8B50268CF
:1018000004461068D168536910F00F0F4FF00005BF
:1018100053D003F0010601F4907737435FD0C2073D
:1018200005D0CA0503D5226C42F0010222644207AA
:1018300005D5DA0703D0226C42F002022264820747
:1018400005D5DA0703D0226C42F0040222640207B5
:1018500007D501F02002324303D0226C42F0080287
:101860002264226C002A34D0800604D5880602D572
:10187000204600F079FC20684069216CC0F380109C
:10188000090700D430B3204600F056FC20684169B7
:1018900049061BD5416921F040014161A06BA8B107
:1018A00058494163A06BFEF7E3FD002811D0A06BFF
:1018B000416B01B0BDE8F040084783060FD58B06A9
:1018C0000DD52046BDE8F84000F04EBC2046FFF79D
:1018D00094FFF8BD2046FFF790FF2564F8BD266B06
:1018E0002023012E52D1C60650D5CE064ED5106803
:1018F00050680090506940062AD5A16B086840687E
:101900000004000CEAD0A68D8642E7D9E0858869FC
:10191000202818D0D06820F48070D06020684169F9
:1019200021F0010141612068416921F040014161DC
:1019300084F83E3025632068C16821F01001C16041
:10194000A06BFEF772FDA08DE18D401A81B219E007
:10195000A08DE18D401A81B2E08D0028BED0002913
:10196000BCD0D06820F49070D0602068426922F02A
:101970000102426184F83E3025632068C26822F08B
:101980001002C2602046FFF737FFF8BD05062BD5D1
:101990000D0629D594F83D002128F6D1A068B0F5B0
:1019A000805F01D12069B0B1206A411C21622168A9
:1019B00000784860E08C401E0004000CE084E4D114
:1019C0002068C16821F08001C1602068C16841F0D1
:1019D0004001C160F8BD206A0088C0F30800506073
:1019E000206A801C2062E5E74006F3D54806F1D561
:1019F000D168204621F04001D16084F83D3000F0EC
:101A0000D3F8F8BD2921000870B5040004D094F87B
:101A10003D00002510B106E0012070BD84F83C5067
:101A2000204600F023F8242084F83D002068C16897
:101A300021F40051C160204600F0F2FB20680169EA
:101A400021F4904101612068416921F02A0141613E
:101A50002068C16841F40051C1602564202084F8E9
:101A60003D0084F83E00002070BD000030B585B018
:101A70000024009401940294039400681D49884254
:101A800035D11D48C16941F48021C161C16901F4AA
:101A900080210491816941F0200181618069174DA5
:101AA00000F0200004904FF480700090022001901C
:101AB0000320039069462846FEF738FD6815CDE9F6
:101AC0000004694628460294FEF730FD0C48416840
:101AD00021F0300141F0E06141F03001416000222D
:101AE00011462720FEF782FE2720FEF771FE05B083
:101AF00030BD0000004800400010024000140140CA
:101B00000000014090F83E30202B0ED159B152B167
:101B100090F83C30012B08D0012380F83C300023A2
:101B2000036300F0D9BB012070470220704700001A
:101B300070B51B4D01262846A9680078002441B1E4
:101B400029460D28C9680DD0D9B10A280FD0EC60FC
:101B500009E0242803D12C61C5E9014618E02C6175
:101B60006C6015E009B1AC60F9E7EE6010E001F0DF
:101B7000F5FF08B12E6101E02C616C60AC60EC6097
:101B800006E06968074A491C6960114401F8010CC4
:101B9000BDE870400348012201495C38FFF7B2BF3D
:101BA000000000201C0200207047FEE7F0B5002373
:101BB0000A24302537261F4611E000BFB4EB107F02
:101BC00002D905EB107C01E006EB107C01F813C094
:101BD00001EB430C00015B1C8CF80170DBB29342FB
:101BE000ECD3F0BDF0B587B00DF1300C04469CE8A5
:101BF000E1008DF81670ADF80C00ADF81460049596
:101C00008DE80E00684600F007F818226946204665
:101C1000FEF78AFA07B0F0BD10B50446807D88B1A2
:101C20003821204601F0ECFF0121204601F0E8FFB9
:101C30000C21204601F0E4FF2046BDE810400621BB
:101C400001F0DEBF3321204601F0DAFF32212046C9
:101C500001F0D6FF2821E4E770B50D4606460024C2
:101C600005E0295D304601F0E5FF641CE4B228463A
:101C7000FEF77EFAA042F4D870BD00002DE9F043D3
:101C800085B000242948009401940294039481694A
:101C900041F010018161816901F0100104918169B5
:101CA00041F004018161816901F0040104918169BD
:101CB00041F008018161816901F0080104918169A5
:101CC00041F0200181618069DFF8648000F020002C
:101CD00041F60F450490002229464046FEF716FDC6
:101CE000DFF850904FF47F47002239464846FEF710
:101CF0000DFD0095022601250396CDE901546946A4
:101D00004046FEF713FC0F20CDE9000469460A485F
:101D10000294FEF70BFC00970396CDE90154694647
:101D20004846FEF703FC05B0BDE8F0830010024012
:101D300000100140000C01400008014010B50022D5
:101D40000F49104800F0C2FD08B1FEF76CFB0E49C8
:101D50000C4800F09FFF08B1FEF765FB0B490948EE
:101D600000F0C0FB08B1FEF75EFB064800F0E8FF9C
:101D7000002803D0BDE81040FEF755BB10BD0000A1
:101D8000480000201C03002084010020980000204F
:101D9000FEE7FEE72DE9F84F044640F68F7B48F654
:101DA0000F7A4FF002094FF4806874E1B0F84410E4
:101DB00011F00F063AD030F8267039047DD530F88E
:101DC000261001EA0B0141F0800120F8261006EBF5
:101DD000860004EBC00595F8740105F5B47500287C
:101DE0006CD0E87802286AD02878226832F820106F
:101DF00048F68F73194048F2C003194322F82010A7
:101E00002878D4F800C03CF82010BCF850204904D1
:101E10007ED509EBC000111808EB41003CF800002A
:101E20008005800D009074D02A89D8E0C9062DD491
:101E3000018801EA0A0141F400410180216804F1AE
:101E40002805B1F850202B7809EBC300024408EBB9
:101E50004200085AC0F309006064E16B0844E06383
:101E600000212046FEF713FD94F8240000289CD0A2
:101E7000A869002899D194F82400216840F08000D6
:101E8000A1F84C00002084F8240004E1018804F546
:101E9000B4750A0521D5B0F850202B78062101EB46
:101EA000C3010A4408EB4201405A04F52C71C0F307
:101EB0000903EB61EA88206802E0ACE068E07AE0C0
:101EC00001F0F6FD2168088800EA0B0040F0800070
:101ED00008802046FFF757F9DDE00904D5D50188D1
:101EE00001EA0B0141F0800101802068B0F8502028
:101EF0002B78062101EBC3010A4408EB4201405A4A
:101F000083059B0DEB6110D0696971B1EA8801E02E
:101F100058E056E0206801F0CBFDE96968690844A3
:101F2000686100212046FEF7BBFC20680188090596
:101F30002DD4B0F850100844296900F20C4051B17A
:101F40003E2910D84A08C90700D0521C4FF6FF712D
:101F500001EA82210FE0018821F4F8410180018823
:101F600041F4004107E04A09C90600D1521E4FF46E
:101F7000004141EA82210180206801884BF68F727E
:101F8000114081F4405148F280021143018082E007
:101F9000D4F800C0BCF850102A78062000EBC2002C
:101FA000014408EB41003CF800008005800D0090E2
:101FB0001AD0EA8813E03A4629462046FEF7CEFCBE
:101FC000009011E0062101EBC000111808EB410060
:101FD0003CF800008005800D009005D06A8903461A
:101FE0006046696901F064FDE96900980844E861A8
:101FF0006969009808446861A86918B1296900985E
:10200000814204D929782046FEF74AFC03E029469C
:10201000206801F033FA38063DD506EB860004EB64
:10202000C001206830F8262002EA0A0242F4004289
:1020300020F8262091F82B002831032804D018B16D
:10204000022824D1F80522D42368B3F850200D7853
:1020500009EBC500024408EB4200185A8A69C0F334
:10206000090082420CD9121A8A610BD04A690244D3
:102070004A61CA691044C861206801F0FFF90AE0AA
:1020800000208861E9B22046FEF701FC03E03A46F1
:102090002046FEF7D6FC2068B0F8441009043FF54E
:1020A00085AE0020BDE8F88F70477047FEF73ABB59
:1020B00030B593B028216846FEF74FF814210AA8DE
:1020C000FEF74BF8002401200F94109411940104A2
:1020D00012948DE8130004904FF4E010CDE908103D
:1020E000022507956846FFF7E3F908B172B6FEE7E7
:1020F0000F20CDE90A054FF48060CDE90C400221A4
:102100000AA80E94FFF7E8F808B172B6FEE71020AF
:102110000F9012940FA8FFF769F8002801D072B64B
:10212000FEE713B030BD704710B5406A0021C1858D
:10213000C184FFF762FB10BD0168CA6822F4907287
:10214000CA6001684A6922F001024A61016B0129F3
:1021500004D10168CA6822F01002CA60202180F808
:102160003E1000210163704708B590F83E10222907
:1021700001D0022008BD82684FF480539A4201D1F9
:10218000016921B1816A9A421BD04AB10AE0026812
:10219000816A5268C2F308020A80816A891C08E0D9
:1021A000026972B10268526802F07F020A70816AA5
:1021B000491C8162C18D491E0904090CC18503D0E7
:1021C00019E002685268F1E70168CA6822F020024B
:1021D000CA600168CA6822F48072CA6001684A69EC
:1021E00022F001024A61202180F83E10016B012992
:1021F00003D0FFF79DFC002008BD002101630168AA
:10220000CA6822F01002CA6001680A68D20602D5C4
:102210000A6849680091818DFFF7EEFAEBE700004C
:1022200070B5044600680169E26821F44051114329
:1022300001612169A0680843616908432168CA688F
:1022400041F20C639A430243CA6020684169A26963
:1022500021F44071114341611E492068884202D136
:10226000FFF7E0F801E0FFF7CDF800EBC00101EB6C
:102270000012606864218000B2FBF0F3B3FBF1F35D
:102280006FF018067343B2FBF0F5B2FBF0F605EB06
:102290008305322303EB0515B5FBF1F5B6FBF1F62B
:1022A00005F0F00505EB0615B2FBF0F6B2FBF0F019
:1022B000B0FBF1F06FF01802504306EB800003EB27
:1022C0000010B0FBF1F0216800F00F002844886096
:1022D00070BD00000038014081628285C285002106
:1022E0000164222280F83E2080F83C100168CA6810
:1022F00042F48072CA6001684A6942F001024A6190
:102300000068C16841F02001C160002070470000F2
:102310000148FFF773BA0000C00100202DE9F04129
:10232000D0F8C032D0F8B822CAB101EB810500EB79
:1023300085040026E7693FB103EBC5039B6BB7FB40
:10234000F3F503FB157323B1C2F814620020BDE856
:10235000F08100231A46E66100F07FFCF6E70220D8
:10236000F5E770B50546D0F8B84200F07AFBC4F83E
:102370000C02D5F8B80248B1D5F8BC12D4F8040262
:10238000CA6804F503719047002070BD022070BD3B
:1023900070B504460026812100F0B6FA002501211F
:1023A0002046E56200F0B0FA82212046C4F86C5164
:1023B00000F0AAFA2564D4F8B80248B1D4F8BC02F7
:1023C00004F52E7440688047206800F016FE2560F2
:1023D000304670BD10B5D0E9AE4159B194F8000255
:1023E000FF2807D08B6894F8012221469847FF20E8
:1023F00084F80002002010BD0A21018000487047C7
:10240000AC0000204321018000487047FC00002000
:102410004321018000487047B8000020432101801B
:1024200000487047400100202DE9F0410446002695
:10243000007C4FF40077012590B3402302228121D4
:10244000204600F063FB4023E56202220121204682
:1024500000F05CFB0823032282212046C4F86C5163
:1024600000F054FB4FF40770256400F0C7FDC4F87A
:10247000B802F8B10546D4F8BC02006880470020D5
:10248000C5F81402C5F81802207CD5F8042298B1CA
:1024900040230121204600F045FB3046BDE8F08195
:1024A000FFE73B4602228121204600F02FFB3B46FE
:1024B000E562CAE70126F0E73B46EAE710B5D0F847
:1024C000B81269B1027C002AD1F8042205D0402359
:1024D000012100F027FB002010BD4FF40073F7E747
:1024E000022010BD02460220002902D00020C2F8BE
:1024F000BC127047D0F8B802C0F804120020704730
:10250000D0F8B802C0F81022C0F8081200207047B6
:102510002DE9FC410546D0F8B87200208DF8000086
:10252000ADF80400064608780C4610F0600121D092
:1025300020293BD1E288AAB10006607807D5D5F8FA
:10254000BC128B6839469847E288394626E087F8FE
:102550000002A07987F80102E2883946284600F097
:102560006AF828E0D5F8BC12607800228B68214612
:10257000984720E0607820B10A2809D00B2815D1AF
:1025800010E095F89C02032810D1022201A905E071
:1025900095F89C02032809D101226946284600F0DB
:1025A00064F808E095F89C02032804D021462846E8
:1025B00000F036F802263046BDE8FC8110B5D0F8B0
:1025C000B812A1B1D1F814220AB1012010BD012224
:1025D000C1F81422D1F810220263B1F8102293B28C
:1025E000D1F80822812100F038FB002010BD022024
:1025F00010BD10B5D0F8B42252689047002010BD2D
:10260000134610B50A46002100F08CFA002010BDD8
:10261000134610B50A46002100F01FFB002010BD34
:1026200010B50446802100F0FDFA2046BDE81040B8
:10263000002100F0F7BA10B50323C0F85C21C0F800
:102640009432C0F8602113460A46002100F06AFA6D
:10265000002010BD10B505210023C0F894121A46C1
:10266000194600F05FFA002010BD10B50223C261C8
:10267000C0F89432026213460A46002100F0EDFAD7
:10268000002010BD10B504210023C0F894121A4692
:10269000194600F0E2FA002010BD000010B50A460D
:1026A000024903A000F0E2F8004810BDE005002058
:1026B00043444320436F6E66696700001220088020
:1026C000004870476800002010B50A46024903A080
:1026D00000F0CCF8004810BDE00500204344432042
:1026E000496E7465726661636500000004200880AD
:1026F000004870476400002010B50A46024903A054
:1027000000F0B4F8004810BDE005002053544D69B6
:1027100063726F656C656374726F6E6963730000DA
:1027200010B50A46024903A000F0A0F8004810BD09
:10273000E005002053544D333220566972747561A0
:102740006C20436F6D506F727400000010B51A203A
:1027500008800A480168001D0468001D0068081808
:1027600009D008220649FFF721FA05490422103151
:102770002046FFF71BFA0248801E10BDE8F7FF1F36
:102780007E000020F8B504460020ADF8000048881F
:102790000D46010A082948D2DFE801F0470409176D
:1027A00047473C45D4F8B012207C0A6819E0207CE9
:1027B00002260028D4F8B40205D0C16A68468847CA
:1027C000014646703EE0816AF8E7C0B206282CD286
:1027D000DFE800F0030A1014181CD4F8B0024268B5
:1027E00005E0694690471CE0D4F8B0028268E2B187
:1027F000207CF6E7D4F8B002C268F8E7D4F8B0025B
:102800000269F4E7D4F8B0024269F0E7D4F8B00204
:102810008269ECE7207C40B9D4F8B402416B684689
:10282000884701460EE0207C20B129462046FFF76C
:10283000F7FEF8BDD4F8B402016B6846884701463C
:1028400007204870BDF8000048B1EA8852B18242C2
:1028500000D90246ADF800202046FFF706FFE888C1
:102860000028E6D12046FFF70DFFF8BD70B5002324
:1028700000281ED00446002502E06D1CEDB2641C49
:102880002678002EF9D1022404EB45041480127836
:10289000CA545B1C0322CA5400245B1C06E0CA54C1
:1028A0005B1CDAB28C54521CD3B2401C0278002A52
:1028B000F5D170BD01004FF0000004D0012901D016
:1028C000022901D0022070470120704710B580B165
:1028D000D0F8B43213B10023C0F8B43209B1C0F853
:1028E000B012012180F89C12027000F0BFF80020A5
:1028F00010BD022010BD10B5D0F8C002FEF700F8E0
:10290000BDE81040FFF7D6BF10B5D0F8C002FDF704
:10291000D1FFBDE81040FFF7CDBF2DE9F0411746CC
:10292000044651B1D4F8B40242691AB194F89C0239
:10293000032851D00220BDE8F081D4F8943200255C
:1029400004F11400022B03D0042B3AD0C3B33CE0B3
:10295000D0E903639E4207D9F11AC1608AB23946B1
:102960002046FFF755FE12E08068B0FBF3F103FB51
:10297000110199B9984211D3D4F8981288420DD216
:10298000002211462046FFF743FEC4F89852002368
:102990001A461946204600F0C5F816E0D4F8B402ED
:1029A000C16829B194F89C02032801D120468847C8
:1029B0008021204600F036F92046FFF74BFE04E068
:1029C000FFE78021204600F02DF994F8A0020128AD
:1029D00004D184F8A05201E0204690470020AAE7E5
:1029E00070B51546044649B1D4F8B40282691AB1EB
:1029F00094F89C02032830D0022070BDD4F89412C1
:102A000004F5AA70032902D005291ED027E0D0E9D9
:102A100003218A420BD9531AC3600846834200D36C
:102A200003469AB229462046FFF7EAFD17E0D4F89C
:102A3000B402016929B194F89C02032801D120460F
:102A400088472046FFF71EFE09E000200146C4F833
:102A50009402204600F0E6F801E02046904700206E
:102A600070BDD0F8C002FEF784B9000010B504466E
:102A70001C481D49C0F8E842C4F8C00201600821A2
:102A800041600221816000218161C1610162FEF724
:102A9000BFFA08B1FDF7C7FC0022D4F8C002182322
:102AA000114604F53074FDF7D3FE5823002280212F
:102AB0002068FDF7CDFEC023002281212068FDF7AC
:102AC000C7FE4FF48873002201212068FDF7C0FE85
:102AD0004FF48073002282212068FDF7B9FE0020A8
:102AE00010BD00008C0A0020005C00400A0601F0C6
:102AF0007F01D0F8C00201EB810100EBC10002D5DB
:102B000090F82A00704790F86A01704710B51C468B
:102B10001346D0F8C0022246FEF734F9BDE8104053
:102B2000FFF7C8BE10B5D0F8C002FEF75BF9BDE8EC
:102B30001040FFF7BFBE70B5002204464023114687
:102B4000FFF7E4FF40260125C4F864613346002204
:102B500080212046C4F85851FFF7D8FF6662A5616E
:102B600084F89C520020C4F894026060C4F8A40267
:102B7000D4F8B80228B1D4F8B40200214268204643
:102B80009047002070BD90F89C12042903D190F862
:102B90009D1280F89C120020704710B590F89C128E
:102BA000032904D1D0F8B412C96901B188470020C3
:102BB00010BD01740020704710B5D0F8C002FEF7B8
:102BC000CEFABDE81040FFF775BE70B5044600F5BB
:102BD0002A70054600F04AF80120C4F89402B4F8BF
:102BE000AE02C4F8980294F8A80210F01F010AD0AF
:102BF00001290DD0022910D000F08001204600F0FC
:102C000011F8002070BD2946204600F09EF8F8E734
:102C10002946204600F0CAF9F3E72946204600F08D
:102C20001DF9EEE710B5D0F8C002FEF7F4F8BDE8E4
:102C30001040FFF73FBE10B5D0F8C002FEF7AAFA69
:102C4000BDE81040FFF736BE90F89C1280F89D1248
:102C5000042180F89C120020704710B5D0F8C00203
:102C6000FEF712F9BDE81040FFF724BE0A780270A3
:102C70004A7842708A78CB7802EB032242800A7944
:102C80004B7902EB032282808A79C97902EB012118
:102C9000C18070470246002011B1C2F8B4127047DB
:102CA0000220704710B5D0F8B42202241AB112687D
:102CB000904700B90024204610BD000070B50E46B4
:102CC0001E4D897804462970012931D894F89C0258
:102CD00002280BD003280FD031462046FFF7A0FC76
:102CE00029782046BDE87040FFF783BCD9B10320A6
:102CF000616084F89C0209E071B16068884212D07A
:102D0000C1B22046FFF775FC297861602046FFF7C5
:102D1000C9FF02280CD006E0022084F89C0220465D
:102D20006160FFF766FC2046BDE87040FFF7AABC73
:102D300031462046BDE87040FFF772BCA800002075
:102D400010B5FFF778FF002010BD2DE9F0410A789B
:102D5000002612F0600208D0202A01D0402A70D14B
:102D6000D0F8B422926890476DE04B78002201259C
:102D70000A2B66D2DFE803F0405D655765080565FC
:102D80002C29FFF7FFFC5EE004468888D8B9C88884
:102D9000C8B94888802816D200F07F0794F89C02B2
:102DA000032810D084F89E7239462046FFF704FFAE
:102DB0002046FFF767FC1FB1022084F89C0242E026
:102DC00084F89C523FE020463BE0FFF777FF3AE073
:102DD000CB88012B35D190F89C32012B04D0022BEB
:102DE00002D0032B2DD104E08260012200F1080102
:102DF00016E00122011D13E090F89C22012A03D065
:102E0000022A01D0032A1CD1CA88022A19D1C5601E
:102E1000D0F8A41209B10321C160022200F10C0113
:102E2000FFF723FC0FE0498801290CD1C0F8A45218
:102E300011E090F89C32012B08D0022B06D0032B16
:102E400004D0FFF7EDFB3046BDE8F0814988012949
:102E5000F9D1C0F8A422FFF715FCF4E72DE9F04101
:102E60000A46044610780027097910F060030AD05A
:102E7000202B01D0402B50D1D4F8B40211468368E6
:102E8000204698478FE0C0F34110012806D05078C3
:102E9000D0B301282AD003283FD107E0D4F8B402E8
:102EA000114683682046BDE8F041184794F89C021B
:102EB000022802D0032872D10AE071B380296ED0B3
:102EC0002046FFF7AFFE80212046FFF7ABFE6AE009
:102ED000508838B931B1802904D0D08810B9204643
:102EE000FFF7A0FE2046FFF7CDFB5CE094F89C02C4
:102EF0000228E2D0032852D1508898BB4806F1D06E
:102F00002046FFF7F8FCEDE7FFE794F89C02002667
:102F1000022803D0032842D112E040E009B1802901
:102F20003DD1080601F07F0000EB800004EB80013A
:102F300001D5143101E001F5AA7102220E602AE0E8
:102F4000080601F00F0000EB800004EB80000AD5BA
:102F5000806920B301F07F0000EB800004EB800566
:102F600014350BE01FE0D0F85801C0B101F07F002C
:102F700000EB800004EB800505F5AA7541B18029BE
:102F800006D02046FFF7B2FD10B10120286000E016
:102F90002E60022229462046FFF767FB03E0114618
:102FA0002046FFF73DFB3846BDE8F08170B5054689
:102FB00008780C4610F0600003D0202801D040288B
:102FC00016D195F89C02012803D0022801D00328CD
:102FD0000ED1207901280BD8D5F8B4028268284692
:102FE0009047E188014306D12846FFF74BFB02E0FA
:102FF0002846FFF715FB002070BD7047004870475A
:103000006C0800202DE9F0470C78002630F82430B9
:1030100048F68F121340CA78002A7DD0012A7CD04E
:10302000022A02D0032A7FD0012648F280021343ED
:1030300020F824300D7830F8254048F68F731C4076
:103040002C43144320F825400D7B48F2C00C48F671
:10305000BF744CF280074BF68F79EDB391F8008086
:10306000C24630F8285048F280181D4045EA08054D
:1030700020F82A50B0F8505091F80080054405EB34
:103080000815B1F8088028F00108A5F80084B0F808
:10309000505091F80080054405EB0815B1F80A80FE
:1030A00028F00108A5F808844D78002D0D7830F837
:1030B00025804FEA48487DD0B8F1000F07DA30F894
:1030C000258008EA030848EA070820F825800F78D9
:1030D00030F827506D0600E02CE006D530F8275078
:1030E0001D4045EA0C0520F82750CB780D78012BC0
:1030F00030F8253003EA040301D083F020031343A2
:1031000020F825300B7830F8231001EA090111432B
:1031100020F82310304602E003E008E004E0BDE8B8
:10312000F08743F4007380E743F4C0637DE743F422
:1031300080637AE74D782DB3B0F850500F7805448E
:1031400005EB0715CF8827F00107A5F800740F7865
:1031500030F827506D0606D530F827501D4045EA57
:103160000C0520F82750CB78012B06D00B7830F8CF
:103170002310214081F02001C9E70B7830F823109B
:103180002140C4E7B0F850400D78044404EB051426
:10319000CD8825F00105A4F80854B0F850400D780A
:1031A000044404EB05140D6904F20C4475B13E2D82
:1031B00014D800E030E04FEA550CED0701D00CF1D7
:1031C000010C4FF6FF7505EA8C2511E0258825F4E2
:1031D000F8452580258845F4004509E04FEA551C4F
:1031E000ED0601D1ACF1010C4FF4004545EA8C2508
:1031F00025800D7830F82540640405D530F8254049
:103200001C403C4320F825400B7830F8231001EA9D
:10321000090181F440517AE7B8F1000F07DA30F87C
:10322000258008EA030848EA070820F825800F7877
:1032300030F827506D0606D530F827501D4045EA76
:103240000C0520F827500D7830F8253003EA0903E3
:1032500083F44053134320F825308EE70020704755
:103260007FB54FF480540120CDE900400220029048
:103270000320084D039069462846FDF757F90022C0
:1032800021462846FDF742FA4FF47A70FDF73CF9E3
:103290007FBD0000000801402DE9F04391F80C804B
:1032A0004F780A7848F6BF7C4BF68F7948F2800356
:1032B00048F2C0054CF2800648F68F74B8F1000F52
:1032C00028D0002F30F822704FEA474748D0002F0F
:1032D00005DA30F822702740374320F822700A7848
:1032E00030F822707F0605D530F8227027402F4332
:1032F00020F822700D7830F825202240324320F843
:1033000025200C7830F8242002EA0C021A4320F819
:1033100024201AE07FB130F82260760605D530F817
:10332000226026402E4320F822600A7830F82210CE
:1033300001EA0C010EE030F822506D0405D530F89A
:1033400022502540354320F822500A7830F82210C8
:1033500001EA0901194320F822100020BDE8F0839A
:10336000002F05DA30F822702740374320F822700A
:103370000A7830F82260760605D530F822602640BB
:103380002E4320F822600E7830F8262022402A436F
:1033900020F826200C7830F8242002EA09021A438B
:1033A00020F82420C1E70020704700207047012149
:1033B00020F8401F0021018081800182084670476B
:1033C00030F8401F21F43F41018000207047002069
:1033D000704730B50A7BB2BB4A7848F68F7548F221
:1033E0008004C2B10B7830F82320520607D530F89C
:1033F00023202A4048F2C0052A4320F82320CA7817
:10340000012A20D00A7830F8221048F6BF731940FC
:1034100081F0200114E00A7830F822305B0407D5EF
:1034200030F822302B404CF280052B4320F822301C
:103430000A7830F822104BF68F73194081F440510E
:10344000214320F82210002030BD10B54A780978B9
:10345000002A48F2800330F8212005D048F6BF74D6
:10346000224082F0100204E04BF68F74224082F476
:1034700080521A4320F82120002010BD2DE9F0478A
:103480000E464B78097B04464FF0000948F68F72D0
:1034900048F2800A4FF6FF774FF40048012B09D01D
:1034A00000296ED0F07802286CD001286BD0012062
:1034B000BDE8F087B5693069854200D90546C9B1D4
:1034C000F17848F28013022923D0317834F82100B2
:1034D0001040184324F82100306A401B30623078D5
:1034E00034F82010490671787ED500297DD0012955
:1034F0007CD03FE1ABB2F2882046716900F0F6FA69
:10350000B4F850003178204400EB0110A0F80454C6
:10351000EAE0316A81426AD9317834F821001040FA
:10352000184324F82100306A401B3062307834F8A8
:103530002010490671786CD511B1012924D02AE0F8
:10354000B4F85010214401EB001000F20C404DB1D2
:103550003E2D0FD86908EA0700D0491C07EA8121EF
:10356000018018E0018821F4F8410180018841F4CC
:103570000041F5E76909EA0600D1491E48EA8121C0
:10358000EEE79CE1BCE126E2B4F85020111901EB12
:103590000010A0F80C547289ABB22046716900F09B
:1035A000A5FA7069284470613169306A884202D98D
:1035B000401B306202E00546C6F820907078002873
:1035C0007CD1B4F850003178204400EB011000F2B7
:1035D00004406DB13E2D13D86908EA0700D0491C9C
:1035E00007EA8121018012E001E19BE0BBE084E079
:1035F000018821F4F8410180018841F40041F1E79C
:103600006909EA0600D1491E48EA8121EAE73289C0
:1036100065E011B1012921D027E0B4F85010214410
:1036200001EB001000F204404DB13E2D0FD86908A7
:10363000EA0700D0491C07EA8121018015E00188D2
:1036400021F4F8410180018841F40041F5E769095E
:10365000EA0600D1491E48EA8121EEE7B4F850108D
:10366000214401EB0010A0F804543289ABB220468B
:10367000716900F03BFA7069284470613169306A01
:10368000884202D9401B306202E00546C6F820900D
:10369000707800287ED1B4F850003178204400EBD7
:1036A000011000F20C4055B13E2D10D86908EA0710
:1036B00000D0491C07EA812101800FE072E00188F7
:1036C00021F4F8410180018841F40041F4E76909DF
:1036D000EA0600D1491E48EA8121EDE77289ABB2C2
:1036E0002046716900F002FA317834F8210048F67A
:1036F000BF72104080F03000C0E1327834F8220010
:1037000048F68F63184040EA0A0024F82200B4F813
:1037100050003278204400EB02108BB2A0F8043441
:103720003289DDE7B4F85010214401EB001000F2BB
:103730000C404DB13E2D0FD86908EA0700D0491C56
:1037400007EA8121018015E0018821F4F841018018
:10375000018841F40041F5E76909EA0600D1491EF4
:1037600048EA8121EEE7B4F85020111901EB00106E
:10377000A0F80C547289ABB22046716900F0B6F91A
:103780007069284470613169306A884203D9401BEE
:10379000306203E06EE00546C6F82090002DA3D00D
:1037A000707858B101287FF41EAFB4F8500031781A
:1037B000204400EB0110A0F8045428E7B4F85000AE
:1037C0003178204400EB011101F204413E2D06D86E
:1037D0006808EA0700D0401C07EA802005E0680975
:1037E000EA0600D1401E48EA802008800FE711B1A8
:1037F000012921D027E0B4F85010214401EB00103A
:1038000000F204404DB13E2D0FD86908EA0700D000
:10381000491C07EA8121018015E0018821F4F84163
:103820000180018841F40041F5E76909EA0600D109
:10383000491E48EA8121EEE7B4F85010214401EB1B
:103840000010A0F804543289ABB22046716900F030
:103850004DF97069284470613169306A884202D933
:10386000401B306202E00546C6F82090002D96D03D
:10387000707858B101287FF420AFB4F850100819BF
:10388000317800EB0110A0F80C5427E7B4F8500091
:103890003178204400EB011101F20C413E2D06D895
:1038A0006808EA0700D0401C07EA802005E06809A4
:1038B000EA0600D1401E48EA802008800EE7B16980
:1038C0003069814202D9091AB161B5E00846C6F8EB
:1038D0001890B1E0088820F4F8400880088840F487
:1038E00000400BE03E2875D84208C00700D0521CAB
:1038F00007EA822002E000BF48EA82200880B5E0A3
:1039000093B9B4F850003178204400EB01103169CC
:1039100000F2044069B13E2913D84B08C90700D012
:103920005B1C07EA83210180707888B1012832D0BE
:103930003AE0018821F4F8410180018841F4004116
:10394000F1E74B09C90600D15B1E48EA8321EAE78B
:10395000B4F850003178204400EB0110316900F2D6
:103960000C4049B13E290FD84B08C90700D05B1C59
:1039700007EA8321018017E0018821F4F8410180E2
:10398000018841F40041F5E74B09C90600D15B1EEF
:1039900048EA8321EEE7B4F850100819317800EBBB
:1039A0000110318AA0F80C14F069A8B3317834F80A
:1039B0002100430401D5430603D444F240031842D6
:1039C00054D134F82100104048F2C002104324F8CA
:1039D00021004BE03CE0B1693069814202D9091A0B
:1039E000B16102E00846C6F818908BB9B4F85010DF
:1039F0003278214401EB021101F2044168B13E2802
:103A000013D84208C30700D0521C07EA82220A805A
:103A1000717889B1012921D028E00A8822F4F8427E
:103A20000A800A8842F40042F1E74209C30600D145
:103A3000521E48EA8222EAE7B4F850103278214454
:103A400001EB021101F20C4100287FF44BAF41E77A
:103A50004209C0067FF450AF521E4DE7B4F8502023
:103A60001119327801EB0211A1F80C04317834F805
:103A700021004BF68F72104080F4405040EA0A005B
:103A800024F82100002013E50021A0F844104FF491
:103A90003F41A0F840100020704700000148FDF7AA
:103AA0000DBA00008C0A0020B0F8440070470000F6
:103AB00010B500EB42005C0800F5806009D000BF43
:103AC00030F8042B01F8012B120A01F8012B641EB7
:103AD000F6D1DA0701D00088087010BD00207047C9
:103AE00011B98021A0F84C100020704710B55B1C64
:103AF00000EB42005B0800F5806009D011F8012B53
:103B000011F8014B42EA042220F8042B5B1EF5D188
:103B100010BDFEE70907090E002804DB00F1E020D4
:103B200080F80014704700F00F0000F1E02080F8EA
:103B3000141D704700487047BC01002002E008C80F
:103B4000121F08C1002AFAD170477047002001E017
:103B500001C1121F002AFBD170470000F8B5144EB6
:103B600000200090114D7068284410F8031C2A2989
:103B700019D110F8021D8DF8001040788DF8010061
:103B80000024102221466846FCF711FB72680021D0
:103B9000D21E02E06B5C5C40491C9142FADB84421D
:103BA00001D10120F8BD0020F8BD00001C0200205A
:103BB000000000202DE9F04117460E46054600247E
:103BC0000DE0686826FA04F202F0010230F81410E1
:103BD000286850F82400FCF799FD641CE4B2BC424C
:103BE000EFD3A98A01222869FCF790FD0120FCF798
:103BF0008BFCA98A2869BDE8F0410022FCF786BD4C
:103C000070B50D460446818980680022FCF77EFD70
:103C1000A07D30B1082229462046BDE87040FFF75C
:103C2000C9BF290904222046FFF7C4FF05F00F0190
:103C30000422F1E770B50D460446818980680122AF
:103C4000FCF764FDA07D30B1082229462046BDE87E
:103C50007040FFF7AFBF290904222046FFF7AAFFF3
:103C600005F00F010422F1E78AB0FCF763FDFEF7CF
:103C70001FFAFEF703F83F483D49002401604FF466
:103C80001651C0E901140C21C460C0E904418461EB
:103C9000C461FDF7B9FE08B172B6FEE7FFF7E0FABE
:103CA000FEF74CF84FF48060334B8100CDE90013F0
:103CB000CDE90204314A04A802F11401FDF792FF94
:103CC0002C48182204A94430FCF72EFA29482CA1CC
:103CD0004430FDF7C1FF2949012214392548FDF779
:103CE00011FF264D284C08350D2600BFD4F80001E1
:103CF00060B93020E87021482E7105210830FCF7AA
:103D00007BFB00BFD4F800010028FBD0D4F80401ED
:103D100060B93120E87019482E7105210830FCF790
:103D20006BFB00BFD4F804010028FBD0D4F80801D5
:103D300060B93220E87011482E7105210830FCF777
:103D40005BFB00BFD4F808010028FBD0D4F80C01BD
:103D50000028CBD13320E87008482E7105210830A7
:103D6000FCF74AFBD4F80C010028FBD0BEE70000AA
:103D700000480040C0010020001001401400002055
:103D800048656C6C6F2100000000214200000000BB
:103D900000000000010203040607080900000000FB
:103DA0000102030400404040404040404040414147
:103DB0004141414040404040404040404040404000
:103DC000404040404005020202020202020202029A
:103DD0000202020202202020202020202020200297
:103DE0000202020202029090909090901010101027
:103DF00010101010101010101010101010101010C3
:103E00000202020202028888888888880808080856
:103E10000808080808080808080808080808080822
:103E20000202020240000000A53D00084C3E0008CE
:103E300000000020C0010000080300081C3F00082B
:103E4000C0010020B80F00004C3B0008011412080C
:103E50001204120212019553575F30AC1001400456
:103E60002A0113811324F413BD261B08ED041AF94B
:103E7000041321271B084D041A9D0C1AC9041704AA
:103E80000309041201140202021640830440571D64
:103E90000201020341031A1A031369031B08650494
:103EA0001A61041A8D04411B0A069721397C1C09EA
:103EB0000243471125C03209041B01020B1B0524D4
:103EC0009814052401100901042402020524061790
:103ED0000107058203081C1009047D320A1D07052D
:103EE0000102432C070581070938442A40072A812B
:103EF00007112B0907440A3B044413292414089191
:103F0000234C081125E81AD50C1A1D041A6304C1A4
:0C3F10001A1128195E1B081D045AF91C28
:04000005080000ED02
:00000001FF
