:020000040800F2
:10000000E80B0020A9010008D3230008992100086B
:10001000D1230008B71400087D2500080000000067
:100020000000000000000000000000000D25000896
:10003000B914000800000000D52300080F250008AF
:10004000C3010008C3010008C3010008C301000880
:10005000C3010008C3010008C3010008C301000870
:10006000C3010008C3010008C3010008C301000860
:10007000C3010008C3010008C3010008C301000850
:10008000C3010008C3010008C3010008C301000840
:10009000C3010008C3010008C3010008C301000830
:1000A000C3010008C3010008C3010008C301000820
:1000B000C3010008C3010008C3010008C301000810
:1000C000C3010008C3010008C3010008C301000800
:1000D000C3010008C3010008C3010008C3010008F0
:1000E000C3010008C3010008C301000800F002F8C2
:1000F00000F04AF80AA090E8000C82448344AAF178
:100100000107DA4501D100F03FF8AFF2090EBAE875
:100110000F0013F0010F18BFFB1A43F0010318473B
:100120007845000098450000103A24BF78C878C18F
:10013000FAD8520724BF30C830C144BF04680C60ED
:10014000704700000023002400250026103A28BF35
:1001500078C1FBD8520728BF30C148BF0B60704739
:10016000662904F08B81642900F07A8000207047B2
:100170001FB500F063FC04000020002104F050F8DB
:10018000E0601FBD10B510BD00F058FD1146FFF72F
:10019000EFFF03F0FDFB00F076FD03B4FFF7F2FF85
:1001A00003BC00F0B9FD000009488047094800473A
:1001B000FEE7FEE7FEE7FEE7FEE7FEE7FEE7FEE717
:1001C000FEE7FEE704480549054A064B7047000074
:1001D0007B250008ED000008E8050020E80B002062
:1001E000E8070020E80700200FB41CB5074B06AA5B
:1001F0007B4469460090059800F007FC00206946A2
:1002000000F016FC1CBC5DF814FB00003D0800006B
:1002100070B5044685690068C10601D5302600E046
:100220002026C00707D070BDD4E901213046904791
:10023000206A401C20626D1EF6D570BD70B5044664
:1002400085690078C00707D170BDD4E9012120205D
:100250009047206A401C20626D1EF6D570BD0000DC
:100260002DE9F0410646002410687529314616A58F
:1002700010D0AFF30080002802DA404213A507E057
:1002800031688A0701D512A502E0490704D511A5F6
:10029000012401E0AFF3008000210A2206F12407C7
:1002A00009E0B0FBF2FCB0FBF2F302FB1C003030C3
:1002B00078541846491C0028F3D123462A46304674
:1002C000BDE8F04100F033B9000000002D0000004F
:1002D0002B000000200000002DE9F0474FF0000A3D
:1002E00089460446C0F820A02046E16888470028D7
:1002F00076D0252806D0D4E901219047206A401CF9
:100300002062F1E7E168204600268847C4F81CA077
:1003100005460027C4F818A02A2D09D0284602F067
:1003200052F938B304EB8708303DC8F8185019E08B
:1003300059F8041B204604EB87029161E168884765
:10034000012F054618D1E069002820DA26F02006A2
:100350001DE0D8F8180000EB800005EB40003038B5
:10036000C8F818002046E1688847054602F02BF9D6
:100370000028EED1012F0AD02E2D08D12046E168A9
:1003800088477F1C0546022F46F02006C4DBA06983
:10039000002803DA404246F00106A061F00701D0D0
:1003A00026F010066C2D0AD0682D08D04C2D39D0BF
:1003B0006A2D35D0742D35D07A2D33D016E0E16812
:1003C0002F4620468847B84205460AD16C2F27D0D1
:1003D0004FF48060E168064320468847054605E003
:1003E00027E06C2F1AD04FF4807006430DB3A5F1AF
:1003F0004100192802D8203546F400664A462946AD
:10040000204626604E46FFF7ABFE80B101280BD098
:10041000F61D26F0070000F1080965E74020E4E733
:100420008020D7E70020D5E706F104095CE72846DD
:1004300061E7206ABDE8F08710B5431C02E010F8C0
:10044000011B71B18107FAD14FF0013202C88C1A39
:100450008C4314EAC211F9D0C01A0A0603D0C01E98
:1004600010BDC01A10BD0A0401D0801E10BD0902C3
:10047000FCD0401E10BD10B5203AC0F00B80B1E892
:100480001850203AA0E81850B1E81850A0E81850C9
:10049000BFF4F5AF5FEA027C24BFB1E81850A0E8D2
:1004A000185044BF18C918C0BDE810405FEA827CEC
:1004B00024BF51F8043B40F8043B08BF7047D20703
:1004C00028BF31F8023B48BF11F8012B28BF20F8A4
:1004D000023B48BF00F8012B70474FF0000200B507
:1004E000134694469646203922BFA0E80C50A0E857
:1004F0000C50B1F12001BFF4F7AF090728BFA0E805
:100500000C5048BF0CC05DF804EB890028BF40F8D0
:10051000042B08BF704748BF20F8022B11F0804F12
:1005200018BF00F8012B70477047704770472DE9DE
:10053000F0470D4699469246044600F124080168AA
:10054000880604D5E06921F01001216000E0012057
:10055000A84201DD471B00E00027A1697A1902EBE0
:100560000900081AA0612078C00602D42046FFF7CF
:100570004FFE002608E0D4E901211AF80600904752
:10058000206A401C761C20624E45F4DB2078C006B1
:100590000AD52046FFF73CFE06E0D4E901213020D1
:1005A0009047206A401C2062381EA7F10107F4DC46
:1005B00007E0D4E9012118F805009047206A401CA3
:1005C0002062281EA5F10105F3DC2046FFF736FE68
:1005D0002078000602D50220BDE8F0870120FBE765
:1005E00070472DE9FF4F0C461E464FF0FF378BB08A
:1005F000D2E90001DDF860800A908A46C1F30A550D
:1006000005B93D46002108464FF00000BAF1000F41
:1006100000F4400005DA00EB80004FF4400101EAED
:1006200050004FEA9059B9F1010F00DDB9460A9820
:1006300050EA4A000ED044F61050A5F2FF3545436B
:100640002F14B8F1000F1ED07542291E1EDDC9F10E
:1006500000021CE0B8F1010F4FF0000001D0302182
:1006600003E0F24305E02154401CB042FBDB30467E
:100670000022002121540B99C1F80880C1E9002013
:100680000FB0BDE8F08FBD1B6D1CDEE74A4600DAF7
:10069000694206A800F05CFA06AB93E8070003ABDA
:1006A00083E8070050460A9900F03DFB8DE80700FB
:1006B000A0F500501F3800900398002D0ADD42F28B
:1006C0001F014A460844002303A90390684600F02E
:1006D000A6FD09E0A0F500504A461F38002303A9F3
:1006E0000390684600F0B0FD8DE807000004000CA0
:1006F00003D04FF0FF30410800E01046B8F1000F82
:1007000003D00022009215461EE0751E05D400F0AD
:1007100099F9303262556D1EF9D5B346012208436E
:1007200002D000227F1C04E02078302801D1002272
:100730007F1E002A099784D01DE0112D07DA00F0F2
:1007400081F9303262556D1C50EA0102F5D108433F
:1007500002D00098C8B10EE00021681E05E0235CBD
:10076000625C63542254401E491C8142F7DBAB4655
:10077000A81B401E0990002004F80B000B98099A52
:10078000C0F80880C0E9002B7AE711264FF0000876
:1007900057E72DE9F04F88460446D21D22F00701A5
:1007A00091B0D1E90001CDE90A0101F0E8FE02466D
:1007B0000B98C00F01D02D2007E02068810701D5DC
:1007C0002B2002E0202101EAC000032A099001D079
:1007D000072A05DB03464146204600F079F90BE184
:1007E0002078800601D5E06900E00620B8F1650FA9
:1007F000814606D0B8F1660F18D0B8F1670F70D1F6
:1008000031E00020B9F1110F009001DB112301E06C
:1008100009F101030AAA01A90CA8FFF7E2FEDDE92C
:100820000C70002609F10105834647E001204B4684
:1008300000904FF000470AAA01A90CA8FFF7D1FECB
:10084000DDE90DB00C995D46002610B909F10100F3
:100850000D18B9EB050003D4C0F1FF3609F101050D
:10086000A5EB09002BE0B9F1010F01DA4FF0010906
:100870000020B9F1110F0090484601DD112300E07E
:1008800003460AAA01A90CA8FFF7ABFEDDE90C702C
:100890004D4600268346207800070AD4AB4500DA8F
:1008A0005D4601A8012D04DD411911F8011C302914
:1008B00007D04F4502DA17F1040F04DA012082460F
:1008C0000FE06D1EEEE7002F02DCED1B3E4403E05F
:1008D000781CA84200DD7D1CB81B00F1010A4FF016
:1008E00000472078000703D4AA4501DB4FF0FF3A08
:1008F0000021B7F1004F0DF143088DF8431024D0CB
:1009000002202B23002F01DA7F422D230A21021E11
:10091000A0F1010000DC5FB197FBF1FC97FBF1F265
:1009200001FB1C7C17460CF1300C08F801CDEEE7FA
:10093000A8F1010003702188090501D5452100E0D7
:100940006521A0F1010800F8011C09980FA9A1EB8D
:100950000807FF1D00B10120411901EBEA70A169F0
:100960003844081A401EA0612078C00602D42046F0
:10097000FFF74EFC099828B1D4E901219047206A7D
:10098000401C20622078C00622D52046FFF740FC9C
:100990001EE0002E04DBB34502DD01A8805D00E00F
:1009A0003020D4E901219047206A401C2062761C47
:1009B000AAF101005FEA000A0AD100F03FF8C0681E
:1009C0000168405CD4E901219047206A401C206204
:1009D000281EA5F10105DCDC07E0D4E9012118F8A7
:1009E000010B9047206A401C2062381EA7F10107C6
:1009F000F3DC2046FFF722FC032011B041E60000A3
:100A000001694A1C02610878704700B58FB0CDE9D2
:100A100001310021059105497944CDE903101146C2
:100A20006846FFF759FC0FB000BD0000E5FFFFFF6F
:100A30000A6802F8010B0A6070470000004870471E
:100A4000A805002030B5B0F10A024FEA900E71F10E
:100A500000034EEA817EB0EB0E0061EB91014FEA9C
:100A6000101E4EEA017E10EB0E0041EB11114FEA11
:100A7000102E4EEA016E10EB0E0041EB11214FEAF1
:100A8000104E4EEA014E10EB0E0041EB11414018A2
:100A900041F100014FEAD00040EA41704FEAD10134
:100AA00010EB80054FEA810444EA907444EB0104A2
:100AB0006D1944EB0404521BA3414FF0000348BFDF
:100AC0000A3200D530BD401C41F1000130BD0000AC
:100AD0002DE9F0411F46044603260168072A01F468
:100AE000006004DB08B116A505E016A503E008B117
:100AF00015A500E015A521F010002060A069C01E1A
:100B0000A0610FB1401EA0612046FFF781FB4FB1ED
:100B1000D4E9012138469047206A401C2062C01C5D
:100B2000206206E0206AFAE7D4E9012115F8010BFA
:100B30009047761EF8D22046FFF780FBBDE8F08193
:100B40004E414E006E616E00494E4600696E660071
:100B50002DE9F047814616468AB0354878440DC8DD
:100B60008DE80D0032487844801C03AC0DC884E841
:100B70000D0041F69B300844372190FBF1F290FBC9
:100B8000F1F5A5F1800501FB12041B3C02D564427E
:100B9000012000E00020DFF898A080460027FA44FA
:100BA000AAF1BE0A0EE0E0070AD03246684607EB1B
:100BB000470101230AEB810100F046FB8DE80700A5
:100BC00064107F1C002CEED1194F7F44AE3F19E01A
:100BD000E80715D007EB04100DF1180A90E80E0095
:100BE0008AE80E00C068F04201D198190890324698
:100BF000012306A903A800F027FB03AB83E8070045
:100C00006D10641C002DE3D14FF00103324669469C
:100C1000B8F1000F03A802D000F001FB01E000F0E2
:100C200013FBC9E90001C9F808200AB0BDE8F08744
:100C3000203B000000487047880500207546FFF7FC
:100C4000F9FFAE4605006946534620F00700854689
:100C500018B020B5FFF7B6FABDE820404FF0000607
:100C60004FF000074FF000084FF0000B21F0070194
:100C7000AC46ACE8C009ACE8C009ACE8C009ACE8D7
:100C8000C0098D46704710B50446AFF3008020467A
:100C9000BDE81040FFF781BA4FF0013C50F8042B3B
:100CA00051F8043B9A4221D1A2EB0C03934313EA7F
:100CB000CC1317D150F8042B51F8043B9A4215D1AC
:100CC000A2EB0C03934313EACC130BD150F8042B83
:100CD00051F8043B9A4209D1A2EB0C03934313EA67
:100CE000CC13DBD04FF00000704700BFD01A01BA20
:100CF000B1FA81F101F0180122FA01F0CB40C1F103
:100D00002001DBB2C0B2C01A2CFA01F3D11A914310
:100D100011EAC311E6D1704701491820ABBEFEE7C6
:100D20002600020070475FEA400C08BF91F0000FF8
:100D30004FEA8C234FEAC12243EA51514FEA1C503B
:100D400018BF00F5F0404FEA300018BF41F00041F5
:100D50005FEA6C5C00F02980BCF1FF3F08BF40F007
:100D600080407047130C06BF12044FF0100C4FF078
:100D7000000C130E04BF12020CF1080C130F04BF79
:100D800012010CF1040C930F04BF92000CF1020C41
:100D9000D30F04BF52000CF1010C11464FF00002BA
:100DA000A0F11F00A0EB0C00704711F0004F08BF2E
:100DB000704731F000413FF4D5AF0B0C06BF09047A
:100DC0004FF0100C4FF0000C0B0E04BF09020CF199
:100DD000080C0B0F04BF09010CF1040C8B0F04BFAE
:100DE00089000CF1020CCB0F04BF49000CF1010C7F
:100DF000CCF12003A0EB0C0022FA03F302FA0CF270
:100E000041EA030100F10100704720F07F4C80EAC5
:100E1000030023F07F47ACEB070303F57C5300F09E
:100E2000004003F1FF032DE980494FEA154B09B457
:100E30004FEA144325EA0B4E24EA03480FF2042636
:100E400006EB132749083E785FEA320203FB066788
:100E5000C7F5000707FB06F64FEA54374FEAD646B8
:100E600006F1020607FB066CCCF1005C4FEA1C475A
:100E70002CEA074C07FB06F40CFB06F504EB1546C1
:100E80004FEA961634BF00204FF000404FEAD137AA
:100E900006FB07FC4FEA1C4C0CFB0BF7D21B03FBB9
:100EA0000CF761EB07010CFB0EF7B0EB074072EBA0
:100EB00017420CFB08F734BFA2EB0742B2EB074224
:100EC00061EB17414FEA0C444FEA910706FB07FC20
:100ED0004FEA1C4C0CFB0BF7B0EBC74072EB5732E0
:100EE00003FB0CF734BFA2EBC742B2EBC74261EB86
:100EF00057310CFB0EF7B0EBC70072EB57720CFBCF
:100F000008F734BFA2EBC702B2EBC70261EB57711F
:100F1000039F4FEA816141EA921104EBCC044FEA4E
:100F2000D1374FEA826206FB07FC42EA90124FEA91
:100F300080604FEA1C4C0CFB0BF7D21B03FB0CF739
:100F400061EB07010CFB0EF7B0EB074072EB1742A9
:100F50000CFB08F734BFA2EB0742B2EB074261EB90
:100F600017414FEA8C554FEA910704EB9C2406FB8E
:100F700007FC4FEA1C4C0CFB0BF7B0EBC74072EBC5
:100F8000573203FB0CF734BFA2EBC742B2EBC742A8
:100F900061EB57310CFB0EF7B0EBC70072EB5772E9
:100FA0000CFB08F734BFA2EBC702B2EBC70261EB40
:100FB000577115EB4C254FEA816141EA92114FEAD6
:100FC00082624FEAD13742EA901206FB07FC44F1F5
:100FD00000044FEA80604FEA1C4C0CFB0BF7D21B5D
:100FE00003FB0CF761EB07010CFB0EF7B0EB0740BE
:100FF00072EB17420CFB08F734BFA2EB0742B2EBCF
:10100000074261EB174115EB1C154FEA813141EAAC
:1010100092414FEA823242EA90424FEA80304FEAF0
:101020000C7644F1000448EA03434EEA0B484FF0C3
:10103000000EB2EB080C71EB030724BF6246394681
:101040004EEB0E0E4FF0000B0018524149414BEB96
:101050000B0BB2EB080C71EB03077BF1000B24BF09
:10106000624639464EEB0E0E4FF0000B001852410F
:1010700049414BEB0B0BB2EB080C71EB03077BF117
:10108000000B24BF624639464EEB0E0E51EA0207B2
:1010900018BF46F0010616EB0E7655F1000254F12A
:1010A000000103D5BDE88901BDE80088BDE88901DC
:1010B000BDE80048B619524141EB0101A3F101031B
:1010C000704780807F7E7D7C7B7A797877767675B5
:1010D0007473727171706F6E6E6D6C6C6B6A6A692D
:1010E0006868676666656464636362616160605FC7
:1010F0005F5E5E5D5D5C5C5B5B5A5A595958585740
:1011000057565655555554545353525252515150A7
:1011100050504F4F4F4E4E4D4D4D4C4C4C4B4B4BFA
:101120004A4A4A4949494848484747474746464640
:10113000454545444444444343434342424242417B
:101140004141002B9C4630D477002BD01CB54FEA90
:10115000370703B44FF010004FF01001BAF1000F41
:1011600006D0BCF1000FDCBF40F0080040F00801E1
:101170004FF000000FBCBDE810400BF1010BBBF1BC
:10118000010F08BF5FEA170722BF12F1010211F138
:1011900001014FF0004143F1000300F0004043EA39
:1011A00000007047F9D35708D0E746EA064613F126
:1011B000400F4FEA16461FDD13F1200FDFBF164325
:1011C0000A46002120335B42BED0C3F1200746EA25
:1011D000064602FA07F74FEA164646EA0706C3F143
:1011E000200722FA03F201FA07F721FA03F14FF080
:1011F000000342EA0702A7E746EA020646EA064675
:101200004FEA164646EA0106BCBF46EA0646360CD9
:101210004FF000034FF000024FF0000194E72DE97A
:10122000804C9A46934670B491E8380007C831EA7A
:10123000400C48BF34EA430C03D5FFF7E6FDFFF747
:1012400080FFF0BCBDE8008C2DE9804C9A469346A7
:1012500070B491E8380007C810F0804F08BF13F051
:10126000804F03D100F005F8FFF76BFFF0BCBDE83D
:10127000008C20F07F4780EA030023F07F4C07EBCF
:101280000C03A3F57C5300F00040A3F1FE0392F0A1
:10129000000F00F0B38095F0000F00F077802DE98B
:1012A00001494FEA11404FEA144621EA004800FB89
:1012B00006FC24EA064708FB06F607FB08F800FBD5
:1012C00007F718EB06484CEB164C4FEA124B18EB9D
:1012D00007484FEA15464CEB174022EA0B4E0BFB32
:1012E00006FC25EA06470EFB06F607FB0EFE0BFB87
:1012F00007F71EEB064E4CEB164C4FF000061EEBAC
:10130000074E4CEB174B18EB0B0840F1000018EBA5
:101310000E0B58EB000840F100008F1A4FF000014F
:101320003CBFC943661B14BFB5EB040C00213CBF96
:10133000C943F61B4FEA17444EEA8E0E27EA0445CE
:101340004FEA1C4704FB07622CEA074C05FB07F732
:101350000CFB05F604FB0CFC16EB074642EB1742B0
:1013600016EB0C4642EB1C421BEB060658EB020246
:10137000414146EA9E0601D5BDE80189B6195241B0
:1013800041EB0101A3F10103BDE801894FEA1445D6
:101390004FEA114724EA054621EA074C05FB07F40A
:1013A00006FB07F70CFB06F105FB0CFC11EB0741F4
:1013B00044EB17444FEA124711EB0C4144EB1C4439
:1013C00022EA074C05FB07F206FB07F70CFB06F6C3
:1013D00005FB0CFC16EB074642EB174216EB0C46DE
:1013E00042EB1C456A1854F1000148BF7047B6191A
:1013F000524141EB0101A3F10103704795F0000F49
:1014000037D04FEA11424FEA144721EA024624EA54
:10141000074C02FB07F106FB07F70CFB06F402FB87
:101420000CFC14EB074441EB17414FEA154714EB52
:101430000C4441EB1C4125EA074C02FB07F506FB77
:1014400007F70CFB06F602FB0CFC16EB074645EB18
:10145000174516EB0C4645EB1C42121951F10001E1
:1014600048BF7047B619524141EB0101A3F1010396
:1014700070474FEA14454FEA114724EA054621EA2E
:10148000074C05FB07F106FB07F70CFB06F24FF0D4
:10149000000605FB0CFC12EB074241EB174112EB77
:1014A0000C4251EB1C4148BF7047921841EB0101BF
:1014B000A3F101037047FEE77047000070B50446D2
:1014C00000F008F90546601C02D004480078044486
:1014D00000F000F9401BA042FAD370BD3800002094
:1014E0002DE9F84FDFF8B891002409F1040A0AF158
:1014F000040B23460F270BF1040EC9E00125A5407C
:101500002A40AA427DD1674ED1F804C0ACEB060850
:10151000B44532D014DCBCF1030F3AD009DCBCF185
:10152000000F2AD0BCF1010F1CD0BCF1020F31D149
:101530001DE0BCF1110F17D0BCF1120F2AD119E038
:10154000B8F5881F19D006DCB8F5803F15D0B8F57E
:10155000801F1FD111E0B8F5001F0ED0B8F5041F91
:1015600018D10AE0CB6815E0CB681B1D12E0CB68F0
:1015700008330FE0CB680C330CE08B682BB1012BE8
:101580004FF0080303D0456104E0042302E0056145
:1015900000E00023FF2A01D8064601E000F104061E
:1015A0004FEA840501D9A5F12005D6F8008007FA95
:1015B00005FC28EA0C0803FA05F548EA0508C6F810
:1015C00000804D68ED0062D5374DAE6946F00106EA
:1015D000AE61AD6924F0030605F001050095334DB9
:1015E00006EB050CDCF80850A607360F07FA06F8DC
:1015F00025EA0805DFF8B880404503D14FF0000820
:1016000017E044E0DFF8AC80404502D14FF001081C
:101610000FE0DFF8A480404502D14FF0020808E057
:10162000DFF89880404502D14FF0030801E04FF009
:10163000040808FA06F848EA0508CCF808804D685E
:10164000D9F80060ED034D4601D5164300E09643FE
:101650002E604D68DAF80060AD03554601D516439B
:1016600000E096432E604D68DBF80060ED025D46B9
:1016700001D5164300E096432E604D68DEF8006009
:10168000AD02754601D5164300E096432E60641CFA
:101690000D682A46E5407FF431AFBDE8F88F0000C1
:1016A0000004014000001110001002400000014041
:1016B00000080140000C01400010014000140140EE
:1016C0008068084000D0012070470AB1016170476E
:1016D0000904FBE7014880687047000038000020DB
:1016E0000248816802781144816070473800002008
:1016F000074810B5016841F010010160032000F0B7
:1017000065F80F2000F006F800F024F8002010BD66
:101710000020024070B50D4D04464FF47A712878D0
:10172000B1FBF0F00A490968B1FBF0F000F01CFDD4
:1017300048B9102C07D200222146501E00F026F88E
:1017400000206C6070BD012070BD000038000020DA
:10175000440000200B4808B5816941F00101816116
:10176000816901F001010091C16941F08051C161BD
:10177000C06900F0805000900348416821F0E061AA
:10178000416008BD0010024000000140F0B40E4B63
:101790001B680C46C3F30223C3F10705042D00D9CF
:1017A0000425191D072901D2002300E0DB1E0126B4
:1017B00006FA05F1491E214099409E40761E1640CA
:1017C0003143F0BC00F0EFBE0CED00E0064900F044
:1017D000070208684FF6FF03184040EA0220034A58
:1017E00010430860704700000CED00E00000FA05AF
:1017F0002DE9F0470F46050061D0434E306800F0F8
:101800000700B84209D2306820F007003843306042
:10181000306800F00700B84251D128683B4C81077E
:1018200012D5400703D5606840F4E0606060287816
:10183000000703D5606840F4605060606068A96884
:1018400020F0F000084360602878C00728D068685E
:10185000012810D02168022810D0890700292EDA2B
:10186000616821F0030101436160FFF733FF8046A7
:1018700041F288390DE021688903EFE78901EDE73E
:10188000FFF728FFA0EB0801494502D90320BDE876
:10189000F0876068696800F00C00B0EB810FEFD151
:1018A000306800F00700B8420BD9306820F007001C
:1018B00038433060306800F00700B84201D00120A2
:1018C000E5E72878400705D56068E96820F4E0601E
:1018D000084360602878000706D56068296920F40D
:1018E000605040EAC100606000F018F86168084A82
:1018F000C1F30311515CC8400649086006480068FE
:10190000FFF708FF0020C2E700200240001002405D
:1019100074450008440000203C00002012A185B05E
:101920000FC98DE80F0014A0144A00680490516894
:10193000134801F00C03042B10D0082B0ED1C1F377
:101940008343C9031DF803000AD5516804AAC1F3F3
:101950004041515C0A4A5043B0FBF1F005B070477A
:1019600008494843FAE7000002030405060708098E
:101970000A0B0C0D0E0F10100102000000100240A7
:1019800000127A0000093D002DE9F84F040070D0E4
:101990002078C04DC00749D06868C0F38100012895
:1019A00007D06868C0F38100022809D16868C003C5
:1019B00006D52868800339D560680028E7D035E06F
:1019C0006068B0F5803F0BD010B1B0F5A02F11D0FA
:1019D000286820F480302860286820F4802002E005
:1019E000286840F480302860606890B1FFF772FE8C
:1019F00006460AE0286840F480202860F0E700BF2F
:101A0000FFF768FE801B642873D828688003F7D529
:101A10000CE0FFF75FFE064605E000BFFFF75AFE49
:101A2000801B6428F0D828688003F7D420789A4E69
:101A300080074FF001094FF0000839D5686810F0B1
:101A40000C0F07D06868C0F38100022809D16868CC
:101A5000C00306D42868800714D52069012808D15E
:101A600010E02069B0B1C6F80090FFF733FE0746DA
:101A700005E00AE1FFF72EFEC01B0228C4D8286843
:101A80008007F7D52868616920F0F80040EAC100B6
:101A900028600DE0C6F80080FFF71CFE074604E052
:101AA000FFF718FEC01B022823D828688007F7D448
:101AB000207800072CD57948A169D9B1C0F80090E9
:101AC000FFF708FE074604E0FFF704FEC01B0228EC
:101AD0000FD8686A8007F7D571484FF4FA5100684B
:101AE000B0FBF1F0009000BF0098411E0091FAD2C7
:101AF0000EE080E0C0F80080FFF7ECFD074604E050
:101B0000FFF7E8FDC01B022875D8686A8007F7D484
:101B10002078400760D5E8690027C00008D4E8694C
:101B200040F08050E861E869012700F080500090A3
:101B30005C480168C90513D40168834641F480718B
:101B40000160FFF7C7FD824606E000BFFFF7C2FD58
:101B5000A0EB0A0064284ED8DBF80000C005F5D5DC
:101B6000E06801280AD008B1052813D0286A20F0BF
:101B700001002862286A20F0040002E0286A40F090
:101B800001002862E06841F2883B98B1FFF7A2FDAE
:101B900082460BE0286A40F004002862EEE700BFAE
:101BA000FFF798FDA0EB0A0159455AD8286A80072B
:101BB000F6D50CE0FFF78EFD824605E0FFF78AFDC3
:101BC000A0EB0A0159454CD8286A8007F6D41FB10A
:101BD000E86920F08050E861E06988B36968C1F382
:101BE0008101022944D00228C6F8608004D0FFF7A2
:101BF00071FD044638E034E0FFF76CFD074604E071
:101C0000FFF768FDC01B02282BD828688001F7D495
:101C1000206AB0F5803F05D16868A16820F40030E3
:101C200008436860D4E908010843696821F4741125
:101C300008436860C6F86090FFF74CFD044606E074
:101C400025E000BFFFF746FD001B022809D82868E1
:101C50008001F7D51BE000BFFFF73CFD001B022809
:101C600002D90320BDE8F88F28688001F4D40EE083
:101C70000128F7D06868226A00F48031914204D1CB
:101C8000616A00F47010884201D00120EAE7002068
:101C9000E8E7000000100240000042428004424297
:101CA000440000200070004070B5040009D0606A54
:101CB000002540B125616561A56294F8510040B1ED
:101CC0000CE0012070BD6068B0F5827FF4D0E56162
:101CD000F2E784F85050204600F040F8022084F8E3
:101CE00051002068016821F040010160A08821892D
:101CF00000F4827001F404410843A18901F40061F9
:101D00000843217C01F002010843217D01F001011B
:101D10000843218B01F400710843217F01F0380151
:101D2000084394F8201001F080010843218D01F44C
:101D30000051084321680860A069042101EA1040AD
:101D4000216848602068C16921F40061C16165654E
:101D5000012084F85100002070BD000030B585B02E
:101D600000240094019402940394224D03682248B5
:101D700002210322AB421FD1836943F48053836164
:101D8000836903F480530493836943F004038361FC
:101D900080691A4D00F004000490A020CDE90001F4
:101DA000039269462846FFF79BFB4020CDE90004DB
:101DB00069462846029419E0114CA34218D1C36920
:101DC00043F48043C361C36903F48043049383698C
:101DD00043F0080383618069039200F008000490D7
:101DE0004FF42040CDE9000169460648FFF778FB33
:101DF00005B030BD00300140001002400008014035
:101E000000380040000C01402DE9F84F04464068BE
:101E10000025984616460F464FF0040BB0F5827F1A
:101E200001D1A06888B194F85000012818D0012091
:101E300084F85000FFF74EFC814694F851004FF0B3
:101E4000000A01280ED0022582E084F851B0134622
:101E50000A462046CDF8008000F083F8BDE8F88FF0
:101E60000220FBE7002F72D0002E70D084F851B012
:101E7000C4F854A0A763A687E687C4F830A0A4F8E6
:101E800034A0A4F836A0C4F840A0C4F844A0A068C8
:101E9000B0F5004F09D12068016821F040010160D0
:101EA0002068016821F480410160206801684906CA
:101EB00003D4016841F040010160E068D8B139E025
:101EC00020688168C90709D0007BA16B0870A06BEE
:101ED000401CA063E08F401EE0870CE0FFF7FAFB98
:101EE000A0EB0901414503D3B8F1FF3F03D036E031
:101EF000B8F1000F33D0E08F0028E1D11DE0206859
:101F00008168C90709D0C068A16B0880A06B801CDC
:101F1000A063E08F401EE0870CE0FFF7DBFBA0EB47
:101F20000901414503D3B8F1FF3F03D017E0B8F1F1
:101F3000000F14D0E08F0028E1D14A4641462046E8
:101F400000F049FA08B120206065606D00B10125FC
:101F5000012084F8510084F850A028467EE703252C
:101F6000F6E72DE9F84F044690F8500000270A9E46
:101F70001D4692468B464FF0010901280ED00120E4
:101F800084F85000FFF7A6FB804694F85100616882
:101F900001280CD0B1F5827F07D102E00220BDE814
:101FA000F88FA16809B9042801D00227C2E0BBF16B
:101FB000000F27D0BAF1000F24D01DB394F85100C0
:101FC000042802D0052084F8510000206065C4F880
:101FD00038A0E587A587C4F830B0E586A5862064DB
:101FE000606420680168490603D4016841F040013B
:101FF0000160E068B0F5006F606805D0E8B3012DBE
:1020000046D07FE0012795E008B1012D39D1206B42
:1020100021680088C860206B801C2063E08E401E11
:10202000E0862EE02068816889070FD5E18E69B1CE
:10203000B9F1010F0AD1216B0988C160206B801CA6
:102040002063E08E401EE0864FF000092068816822
:10205000C9070CD0E18F51B1C068A16B0880A06B9B
:10206000801CA063E08F401EE0874FF00109FFF75E
:1020700031FBA0EB0800B04200E009E001D3701C86
:1020800050D1E08E0028CDD1E08F0028CAD13FE0AA
:10209000206B216800780873206B401C2063E08E61
:1020A000401EE0862EE02068816889070FD5E18E0A
:1020B00069B1B9F1010F0AD1216B09780173206B65
:1020C000401C2063E08E401EE0864FF0000920682F
:1020D0008168C9070CD0E18F51B1C068A16B08704D
:1020E000A06B401CA063E08F401EE0874FF0010909
:1020F000FFF7F0FAA0EB0800B04202D3701C01D049
:1021000010E07EB1E08E0028CDD1E08F0028CAD14A
:1021100042463146204600F08CF928B101272020A4
:10212000606507E0032705E0A06818B92068C1686A
:1021300080680090012084F85100002084F850004D
:1021400038462CE710B500F02FFE06480169491CFF
:102150000161B1F57A7F03D1012141700021016154
:1021600010BD00000000002010B5401EB0F1807FBF
:1021700001D3012010BD4FF0E02460610F216017F2
:1021800000F011FA0020A06107202061002010BD9E
:1021900010B5FFF7D7FF10BDFEE7F0B587B00DF122
:1021A000300C04469CE8E1008DF81670ADF80C0088
:1021B000ADF8146004958DE80E00684600F012F842
:1021C000182269462046FEF756F907B0F0BD000018
:1021D000034B8032595C1144C9B201F081BB00004D
:1021E0007045000810B50446807D88B1382120462E
:1021F00001F076FB0121204601F072FB0C21204604
:1022000001F06EFB2046BDE81040062101F068BBDE
:102210003321204601F064FB3221204601F060FBAF
:102220002821E4E770B50D460646002405E0295D47
:10223000304601F06FFB641CE4B22846FEF7FCF860
:10224000A042F4D870BD00002DE9F04385B0002411
:1022500037480094019402940394816941F010017D
:102260008161816901F010010491816941F00401EB
:102270008161816901F004010491816941F00801E3
:10228000816180692B4F00F0080041F60F450490F2
:10229000002229463846FFF718FADFF89C80002212
:1022A00010214046FFF711FADFF8909000224FF41A
:1022B000BE414846FFF709FA0126CDE9005602253E
:1022C00069463846CDE90245FFF70AF940F20B109E
:1022D000CDE90004694640460294FFF701F9042065
:1022E00000901748CDE9010469464046FFF7F8F829
:1022F00010201127CDE9000769464046CDE9024587
:10230000FFF7EEF84FF4F850CDE90006694648466D
:10231000CDE90245FFF7E4F86803CDE90007694617
:102320004846CDE90245FFF7DBF805B0BDE8F0838C
:10233000001002400010014000080140000C014064
:10234000000011100F4810B50D4901604FF4827163
:102350004160002102228160C0E903120122426132
:10236000520282610822C0E90721416281620A218A
:10237000C162FFF799FC002801D072B6FEE710BDDC
:10238000003001405C000020104810B50E4901608B
:102390004FF4827141604FF4004181600911C160C6
:1023A00000214FF400720161C0E905121022C0E95A
:1023B0000721416281620A21C162FFF775FC002892
:1023C00001D072B6FEE710BD00380040B400002016
:1023D000FEE7FEE77047F8B5044640684FF48273A5
:1023E000984217D1A0684FF48065B0F5004F01D036
:1023F000A8420FD12068066826F040060660606893
:10240000984207D1A068A84204D100920B4600224E
:10241000012103E000920B4600228021204600F0BB
:1024200019F8002804D0606D40F02000606503209A
:10243000F8BD38B50B46009204460022802100F01A
:1024400009F8002804D0606D40F02000606503208A
:1024500038BD00002DE9F8431E46914688460446E3
:10246000089DFFF737F9401B351AFFF733F9074688
:1024700025480068C0F3CB30684338E0701C37D083
:10248000FFF728F9C01BA84203D215B1009860B32A
:102490002CE02068416821F0E00141606068B0F5FF
:1024A000827F0BD1A068B0F5004F02D0B0F5806FED
:1024B00004D12068016821F040010160A06AB0F5F4
:1024C000005F09D12068016821F400510160206893
:1024D000016841F400510160012084F8510000209E
:1024E00084F850000320BDE8F8830025401E0090CA
:1024F0002068816838EA010004D000214945BDD137
:102500000020F0E70121F9E744000020704710B5F2
:10251000FFF7E6F8BDE81040FFF73ABE30B58FB0E0
:1025200028216846FDF7D9FF14210AA8FDF7D5FF39
:1025300001210804CDE90010002402940225049131
:10254000CDE907504FF4E01009906846FFF71CFAF8
:1025500008B172B6FEE70F20CDE90A054FF480609E
:10256000CDE90C4002210AA80E94FFF741F900289A
:1025700001D072B6FEE70FB030BD7047FEE74900EC
:1025800050EAC12018BF04204A0D18BF40F00100D6
:1025900040F2FF72B2EB515F08BF40F00200012829
:1025A00008BF052070470907090E002804DB00F169
:1025B000E02080F80014704700F00F0000F1E020E8
:1025C00080F8141D704730380A2801D20120704766
:1025D0000020704710B504460020E070401EE06205
:1025E000204601F098FB08B1042010BD04F22E2013
:1025F00001F0C8F9A0F52A41553901D0032010BDDA
:1026000094F83000E92803D0EB2801D0E8280FD156
:10261000032208A104F1660001F060FB0028EED05F
:10262000052205A104F1820001F058FB0028E6D044
:10263000022010BD46415400464154333200000090
:102640004269891E921E8A4201D800207047826A20
:10265000408900FB012070472DE9F04106680F001A
:10266000804606D001F097F8022809D20120BDE883
:10267000F081F46814B17069A04207D8012405E024
:10268000411CF4D071698142F1D83C463069002880
:10269000EDD0BC4216D17069651CA84200D8022555
:1026A0002946404601F077F80128E0D0411CDED0F1
:1026B00038B1F068022805D37169814202D9044615
:1026C00000E0A5B9254670696D1CA84202D8022514
:1026D000022C0AD32946404601F05DF838B10128A2
:1026E000C5D0411CC3D0A542EDD10020BFE74FF0BB
:1026F000FF3422462946304601F026FB30B95FB14F
:102700002A463946304601F01FFB28B1012800D087
:10271000012425462846AAE7F560D6E90401891E6A
:10272000884201D8401E3061307940F0010030719C
:10273000F0E700002DE9F0410E4620300D68044618
:102740000B22202101F0E0FA0020014608272A5C34
:10275000401C202A12D92F2A0BD05C2A09D02E2AFD
:1027600001D0B94214D30B2F22D02E2A20D10CE055
:10277000401C2B5C2F2BFBD05C2BF9D02844306005
:10278000B1B12078E5281FD020E008210B27DEE733
:10279000802A03D3114B02F07F029A5C10A300E061
:1027A0005B1C93F800C0BCF1000F04D09445F7D136
:1027B0000620BDE8F081A2F16103192B01D8203A6F
:1027C000D2B26254491CC2E705202070202A01D8E9
:1027D000042000E00020E0720020EAE784450008C1
:1027E000222A2B2C3A3B3C3D3E3F5B5D7C7F000028
:1027F000024910200860FF2001F0B4BC100801401D
:102800002DE9F0410C46054601F05EFC00BB214677
:102810002846FFF715FF0646E86205F130004FF441
:1028200000720021044601F06FFAA046012700243F
:1028300000E03C446889A04207D9321968783B46D9
:10284000414600F0D3FA0028F3D06889A04202D0B4
:102850000120BDE8F0810020FBE72DE9F047066983
:1028600007682036894604464FF00008B6F5001F79
:1028700035D2A06910B1F10503D03DE00420BDE8D8
:10288000F087401CA061616929B17889401E10EA77
:10289000562F05D030E03889B0EB561F1FD92BE0FA
:1028A000204600F078FF054601281DD9681C14D089
:1028B0007869A8421AD8B9F1000F10D02046616992
:1028C000FFF7CAFE05000DD0012D0DD0681C04D005
:1028D00029463846FFF794FF40B10120CFE7C4F8FE
:1028E0001880CBE70720CAE70220C8E72946384608
:1028F0006561FFF7A5FEA061C6F3080038443030DB
:102900002661E0610020BAE770B504460021066840
:1029100000F02DF80DE03046A16901F0FCF950B946
:10292000E0690078E52809D040B101212046FFF791
:1029300094FF0028EFD0042807D007E03046A169B3
:1029400001F0E9F9050003D00FE0072005460CE08F
:1029500020220021E06901F0D7F90B2204F12001C7
:10296000E06901F0C8F90120F070284670BD2DE93A
:10297000F04107680E460546B1F5001F36D2F00655
:1029800034D12E61AC6824B93878032805D37C6A29
:102990001CB178894FEA402812E03889B0EB561F05
:1029A00024D9786A12E0284600F0F5FE0446401C5F
:1029B0001AD0022C1AD37869A04217D9A6EB0806C0
:1029C00046452146EFD23846FFF73AFEC5E90540B5
:1029D00060B100EB5620A861C6F3080038443030DF
:1029E000E8610020BDE8F0810120FBE70220F9E763
:1029F0002DE9F84310B10120BDE8F8835148016882
:102A0000514A89B211430160001D016821F00F0194
:102A1000091D01604D48816941F4805181614C4834
:102A20004FF453710160474A102110321160494D33
:102A30000A21696069680029FCD1297889077ED458
:102A40000168804621F0380141F0280101600A2424
:102A5000FF2001F087FB641E14F0FF04F8D100266C
:102A60003146304601F088FA012857D14FF47A7088
:102A700068604FF4D571082001F07EFA012808D073
:102A80000021A92001F078FA012834D80226A924CF
:102A900033E06F46FF2001F065FB3855641CE4B25B
:102AA000042CF7D39DF80200012837D19DF80300CC
:102AB000AA2833D14407686828B12146A92001F02B
:102AC0005BFA0028F7D1686840B300213A2001F092
:102AD00053FA18BB0024FF2001F044FB3855641C56
:102AE000E4B2042CF7D39DF80000400601D50C2673
:102AF00014E0042612E001263446686828B100215B
:102B0000204601F039FA0028F7D1686828B14FF45F
:102B10000071102001F030FA00B100266E70FFF74E
:102B200067FE56B1D8F8001021F03801C8F800103F
:102B3000287820F0010001E001E0012028702878C9
:102B40005AE70000000801400000B3B40010024042
:102B500000300140500000207FB51446030002D031
:102B6000042004B070BD6B4E3078C00701D0032044
:102B7000F7E7012561B101290DD0664803294078A6
:102B800048D004297ED00425FFF732FE2846E8E726
:102B900001F0DCF9BAE00021092001F0EDF900288C
:102BA000F2D11021684601F045F90028ECD09DF8DB
:102BB00000100120B0EB911F0CD19DF809109DF879
:102BC000082001EB02229DF8071000EB01401044A1
:102BD00080021DE09DF805009DF80A1000F00F002E
:102BE00000EBD1109DF809109DF8072001F00301BA
:102BF00000EB41019DF80800800900EB82009DF880
:102C0000062002F0030200EB8220401CC91F3EE0B8
:102C100020607DE040074FF000011AD58D2001F0C3
:102C2000ABF90028B0D1FF2001F09CFA10216846D2
:102C300001F000F90028A7D03025FF2001F092FA1A
:102C40006D1E15F0FF05F8D19DF80A00010910204E
:102C50001DE0092001F090F9002895D11021684667
:102C600001F0E8F800288FD07078800711D59DF822
:102C70000A009DF80B108006400E00EBD1109DF865
:102C80000D1000E013E0FF2202EB9111401C884080
:102C9000BEE79DF80B008107C90E01EB50109DF8AF
:102CA0000A10401CC1F38401491C4843B0E710F0EE
:102CB000060FC0D06A460B211846FFF74DFF0028CB
:102CC000B0D19DF80000800904D19DF80A004006AB
:102CD0007FF55AAFD4E900147078000701D4490297
:102CE0006402202001F048F900289BD121462120D0
:102CF00001F042F9002895D10021262001F03CF98D
:102D000000288FD147F2305001F01CFA002892D0F1
:102D1000002539E75000002070B51C460D4630B93B
:102D20002CB11C480178C90703D0032070BD0420D2
:102D300070BD4078000700D452024FF40076012C99
:102D4000114604D0122001F017F960B118E01120EB
:102D500001F012F9C0B93146284601F06BF898B17C
:102D6000FFF746FD14E03146284601F063F818B13C
:102D7000641E05F50075F6D100210C2001F0FCF869
:102D8000FFF736FD14B903E0FFF732FD012070BDF7
:102D9000002070BD5000002008B10120704701489C
:102DA00000787047500000200E4841680904090C63
:102DB00002D0491E89B2416081680904090C02D021
:102DC000491E89B281600178074A21F00401126826
:102DD000D20502D421F0020101E041F003010170AB
:102DE00070470000500000200808014070B51C46E4
:102DF00015460E4630B92CB122490878C00703D0D9
:102E0000032070BD042070BD0878400701D5022062
:102E100070BD4878010700D45502012C0CD010F089
:102E2000060F03D01946972001F0A6F8294619206D
:102E300001F0A2F868B11AE02946182001F09CF8C8
:102E4000D0B9FE21304601F099F9A8B1FFF7D0FCC6
:102E500015E0FC21304601F091F918B1641E06F529
:102E60000076F6D1FD21002001F088F920B1FFF7AE
:102E7000BFFC24B1012070BDFFF7BAFCFAE70020C7
:102E800070BD00005000002038B5044600F09EF9E7
:102E9000002807D16946204601F039F9002801D100
:102EA0000021216038BD2DE9F84F0D4604466946E2
:102EB00001F02DF9070076D1677C002F73D1E0680F
:102EC000A84203D2217C890700D405464FF00008B0
:102ED00060694FF00109C4F814800DB300994FF0F8
:102EE000020A49894E0268B1691E401EB1FBF6F123
:102EF000B0FBF6F2914205D3711E884360612D1A32
:102F0000A1690CE0A16849B900212046FFF7A4FBA4
:102F10000146012848D0481C57D0A160A161D1B911
:102F200026E06069AD1B30446061207C800720464C
:102F300005D5FFF791FB010004D100250DE000F05D
:102F40002AFC0146481C40D001292DD9009840692F
:102F5000884229D9A161B542E3D8606928446061FB
:102F6000E80505D00098FFF76BFBE8B100EB5528AA
:102F7000E1686069884204D9E060217C41F0400149
:102F80002174C00527D0E269424524D0207C04F199
:102F90002805000611D50098012329464078FFF73F
:102FA00025FF90B905E016E084F811A00220BDE8E5
:102FB000F88F207C00F07F002074009801234246A7
:102FC00040782946FFF7A8FE18B184F81190012037
:102FD000EDE7C4F81C803846E9E7000017B581B07A
:102FE000144602980090684600F038FC002802DA87
:102FF0000B2004B010BD0A4A002352F8201001B182
:103000000B70019901B10B7042F820102CB1002215
:1030100001A902A800F032FAEBE70020E9E700007E
:103020004C0000202DE9F7438CB005000BD002F0D6
:103030003F06324669460DA800F020FA04004FF022
:10304000000804D0BCE009200FB0BDE8F083009870
:10305000019001A80D9900F03FFB040004D19DF8F8
:103060002F00000600D5062416F01C0F48D04CB1E6
:10307000042C03D101A8FFF747FC044646F00806DC
:103080005CB19DE09DF80A0010F0110F01D00724FB
:1030900096E0700701D5082492E030073FD50899E3
:1030A000009800F051FC074600F0D4FB0146089858
:1030B0000E3000F0B8FF089920200022C87208994D
:1030C000009800F09CFF089800211C3000F0ABFF36
:1030D00000990120C87007B3D1F82C90002239461E
:1030E00001A800F0F9FE04006AD14946009800F0FA
:1030F00012FE04000098A7F10107C7600BD05FE043
:10310000CCBB9DF80A00C10601D5042458E0B107E4
:1031100001D5C007BBD1300701D546F04006009865
:10312000C16A296208996962089900F00DFCA860DB
:1031300008981C3000F01BFCE8600098286000989C
:103140004FF400720021C088A8802E7485F8118089
:10315000C5F81C8005F128008146C5F8148000F0F0
:10316000D3FDB0062ED5EE6866B36E610098A968EF
:10317000408947020FE023E0284600F00CFB01469F
:10318000012800D80224481C02D0F61B1CB104E020
:103190000124F61B01E0BE42EED8A96184B9F00516
:1031A00010D00098FFF74CFA70B100EB5622EA619C
:1031B0000098012349464078FFF7AEFD10B1012485
:1031C000C5F8008020463FE70224F9E7F8B5044639
:1031D000694600F09CFF00280ED1217C4A060BD5E1
:1031E00008060ED50098E2690123407804F1280111
:1031F000FFF7FCFD08B10120F8BD207C00F07F0046
:10320000207400F027FB0646216A009800F083FD39
:103210000028F1D1656A2946E87A40F02000E8727A
:10322000A268206800F0EBFE05F11C00E16800F0E8
:10323000FAFE314605F1160000F0F5FE002105F119
:10324000120000F0F8FE00980121C17000F0F8FEB5
:10325000217C01F0BF012174F8BD38B504466946F0
:1032600000F055FF050042D1657CF5BB207C80074E
:1032700001D4072038BDE1686069884237D250B177
:103280002046A16900F087FA0146401C0CD00129B4
:103290000CD06DB115E000222046A16800F01CFEA4
:1032A00005460020A0600CE001250AE0022508E0A8
:1032B00000984069884204D92046A26900F00CFEBB
:1032C00005466069E060207C40F0400020745DB9F4
:1032D00000060CD50098E2690123407804F128012A
:1032E000FFF784FD28B1012500E000E06574284661
:1032F00038BD207C00F07F002074F8E72DE9FE4FF8
:1033000004460020884618609946154602A92046C2
:1033100000F0FDFE002806D1607C002803D1207C4F
:10332000800702D40720BDE8FE8F6069012742199B
:103330004FF0020A04F1280B824200D2C54394E008
:103340006069C1056ED102994989491E11EA50266A
:1033500012D108B1A16902E0A06828B90021204675
:10336000FFF77AF900287DD001282DD0411C54D0D8
:10337000A061A16801B9A060207C00060BD502986D
:10338000E269012340785946FFF730FDA0BB207C5D
:1033900000F07F002074A1690298FFF751F998B1FD
:1033A00030440190680A009027D032180298418971
:1033B0008A4201D9891B0091DDE9003240784146FB
:1033C000FFF714FDC0B903E084F811A00220AAE7BA
:1033D000E1690198081A009988420AD208EB402155
:1033E0004FF40072584600F086FC207C00F07F000D
:1033F00020740098460227E00FE0E16901988142BD
:103400000ED0E168606988420AD2029801235946C9
:103410004078019AFFF780FC10B16774012082E7C1
:103420000198E061A08AC0F30800C0F50076AE42C2
:1034300000D92E46204432464146283000F05BFC3D
:10344000207C40F080002074D9F80000AD1B811969
:10345000C9F800106069B04430446061E168884296
:1034600002D800E004E00846E060002D7FF468AF79
:10347000207C40F040002074002054E72DE9FF41FB
:10348000002790460E460F6000F0E8F9050003D5CE
:103490000B2004B0BDE8F0818B4850F825409CB16A
:1034A0003460207808F0FE0620B16078FFF774FCE5
:1034B000C1070BD02770E8B2B8466070FFF798FAE2
:1034C000C10708D00320E4E70C20E2E70EB1400773
:1034D00004D40020DDE71EB1400701D50A20D8E75B
:1034E000002739462046FFF775F8022822D100252B
:1034F0004FEA0D0604EB051090F8F21100F5F77095
:1035000019B1083000F033FA00E0002046F8250039
:103510006D1C042DEED3002556F8257037B13946C1
:103520002046FFF757F8022801D203E003206D1C64
:10353000042DF1D3042809D0022873D204F13B00F2
:1035400000F020FAB0F5007F6CD101E00120A0E787
:1035500004F1460000F016FA18B904F1540000F026
:1035600006FAA06194F84060A670012E01D0022EE8
:1035700058D1464394F83D006081B0B3411E0842E3
:1035800050D104F1410000F0FDF92081000749D13C
:1035900004F1430000F0F6F9050004D104F15000F5
:1035A00000F0E5F9054604F13E0000F0EBF90100FA
:1035B00038D02389881900EB1312954232D3A81A08
:1035C0006589B0FBF5F080B1DFF800C100256045EA
:1035D00000D803254FF6F57C604500D8022540F65B
:1035E000F57C604502D8012501E01BE0D5B1801CC7
:1035F0003A44A26239446061C4E90771032D13D0D3
:1036000083B131446162022D1FD000F0010100EB53
:10361000400001EB500000BFA16900F2FF10B1EBC8
:10362000502F14D20D2034E704F15A0000F0AAF90B
:103630000028F7D120890028F4D104F15C0000F0C3
:1036400096F9606260698000E6E74000E4E74FF0C9
:10365000FF302061E06080202071032D2CD104F127
:10366000600000F08FF9012826D1791C204600F077
:1036700052FB08BB84F8048004F22E2000F082F98B
:10368000A0F52A41553917D104F1300000F06FF947
:103690000F49884210D104F5057000F068F90D4912
:1036A000884209D104F5067000F061F9206104F543
:1036B000077000F05CF9E06003482570001F018886
:1036C000491C0180E18004E74C000020F5FFFF0F5A
:1036D00052526141727241612DE9F341054606681B
:1036E000019801E0401C019001782F29FAD05C2953
:1036F000F8D00020A86001980078202808D2802007
:1037000085F82B0000212846FFF731F9BDE8FC8140
:1037100001A92846FFF70EF80028F7D10021284616
:103720002F68FFF724F9E0B93846A96900F0F3FAE9
:10373000040015D1E8690178E1B1C17A01F03F02D6
:10374000AA71C17A090705D40B2205F1200100F006
:10375000C5FA28B100212846FFF77FF80400E3D01E
:10376000204695F82B1038B10428CFD14907CDD485
:103770000520CBE70424F3E74907C7D4A879C0069E
:10378000F6D5288AC0F3080081193046303100F0A0
:10379000DBF8A860BCE72DE9F04104680D4602297A
:1037A0000BD36069A84208D920784FF0FF36012872
:1037B00007D002282BD0032839D001263046BDE897
:1037C000F081206A05EB550700EB5721204600F0F9
:1037D000A2FA0028F2D1C7F3080020447F1C90F819
:1037E0003080206A00EB5721204600F094FA002830
:1037F000E4D1C7F30800204490F8301048EA0120D3
:10380000E90701D00609D9E7C0F30B06D6E7206A1D
:1038100000EB1521204600F07EFA0028CED1E8B258
:1038200004EB4000303000F0ADF80646C6E7206AF1
:1038300000EBD511204600F06EFA0028BED140F210
:10384000FF1000EA85002044303000F090F820F0AE
:103850007046B3E7004870470060214C10B504463D
:103860004FF0FF3021680A0011D000BF11F8013B72
:10387000212B0DD33A2BF9D11378303B092B06D8E5
:10388000921C8A4203D1012B01DA1846216010BD37
:10389000002010BD2DE9F04117460E4605460024D4
:1038A0000DE0686826FA04F202F0010230F8141004
:1038B000286850F82400FDF708FF641CE4B2BC42FD
:1038C000EFD3A98A01222869FDF7FFFE0120FDF749
:1038D000F5FDA98A2869BDE8F0410022FDF7F5BE93
:1038E00070B50D460446818980680022FDF7EDFE23
:1038F000A07D30B1082229462046BDE87040FFF780
:10390000C9BF290904222046FFF7C4FF05F00F01B3
:103910000422F1E770B50D460446818980680122D2
:10392000FDF7D3FEA07D30B1082229462046BDE830
:103930007040FFF7AFBF290904222046FFF7AAFF16
:1039400005F00F010422F1E770B506460D4601F1BE
:103950001A0000F017F804463078032805D105F165
:10396000140000F00FF844EA0044204670BDC1780E
:10397000827842EA01214278007842EA012140EA55
:10398000012070474178007840EA0120704700002C
:103990008AB0FDF7ADFEFEF7C1FDFEF755FCFEF760
:1039A000D1FCFEF7F1FCA94B00274FF4806A991473
:1039B00003978DE80A04A64A04A802F10801FEF75D
:1039C000ECFB182204A9A348FCF755FDA24E4FF4C6
:1039D00080713046FDF774FE9D4CC0F10100203C23
:1039E00020710520FDF76AFD9C4D4FF480484FF093
:1039F000080BB9460022474641462846FDF765FEBA
:103A000093494FF0FF3301221A399548FEF7FCF92C
:103A1000012239462846FDF758FEE088C00800F02C
:103A20004FFC6FF0030200F05DFD00F00FFC6061E1
:103A300000F0AEFC024687480B468AA10C38FCF722
:103A4000D3FB002211468348FEF7C2FB88A18148C0
:103A5000FEF7E8FB082200217E48FEF7B9FB7D490E
:103A60007C480C39FEF7DEFB2079E0704FF4807162
:103A70003046FDF725FE2071217809296AD2DFE85A
:103A800001F005136E526069698F7B00E17888420E
:103A900003D16420FDF712FD5EE0012800D109B1D9
:103AA000022065E0032063E0E178884236D164209B
:103AB000FDF704FD01213046FDF702FE18B9012093
:103AC000A070C4F80C9002213046FDF7F9FD98B1C2
:103AD000A07898B1002201215E48FEF779FB66A12B
:103AE0005C48FEF79FFB0122D1022846FDF7EDFD61
:103AF000607888B307203BE084F80290002201211F
:103B00005448FEF765FB5FA15248FEF78BFB00228D
:103B10004FF400612846FDF7D8FD1DE001281BD1B8
:103B20000029BFD018E0002201214A48FEF750FBCF
:103B300059A14848FEF776FB84F8009084F802907B
:103B4000E5E7002201214348FEF742FB55A1414829
:103B5000FEF768FB84F8009084F801904AE740483B
:103B6000012253A15830FFF739FA607110B10420D7
:103B70002070F1E70120FBE7002201213548FEF724
:103B800027FB4CA13348FEF74DFB4F4684F80290CB
:103B900000224FF400612846FDF797FD2770DBE710
:103BA0000122574651462846FDF78FFD122244A1B7
:103BB0004648FFF737FA607118B100BF84F800B0CB
:103BC000CAE7E06820B14148C168FFF76CF907E037
:103BD00000213E48FFF767F960713C48FFF73DFB65
:103BE00060711B483AA10838E268FCF7FDFA184BEF
:103BF0001849183B0A220C393448FFF77FFB6071E3
:103C00000028DBD1124B1349183B0A220C392F48EC
:103C1000FFF774FB60710028D0D10D4B0222183BD6
:103C20002DA12A48FFF76AFB60710028C6D12748FA
:103C3000FFF72AF96071002239462846FDF745FD55
:103C400001202070E068401CE06085E70010014022
:103C5000200000207005002000080140000C0140F9
:103C6000B400002025322E326620204300000000E0
:103C700054656D702E3A00005A6170697320706C43
:103C8000696B7500476F746F777920646F207A6174
:103C900070697375000000004272616B206B617285
:103CA00074790000426C6164206B61727479000069
:103CB0002F000000426C6164207A617069737500A6
:103CC00064616E652E747874000000003C0300206F
:103CD00025356C64202000000D0A00002DE91040FD
:103CE00010F8013B11F8014B1B1B521E01D0002B99
:103CF000F6D0184610BD002A05D011F8013B00F897
:103D0000013B521EF9D170475FFA81F100F8011BA7
:103D1000521EFBD1704770B50446C06A0D4600269E
:103D2000A8420FD0204600F0CFF906000AD16078F3
:103D300001232A4604F13001FEF7EEFF08B1751E9B
:103D40000126E562304670BD2DE9F0470226174690
:103D50000D460446022969D36069A84266D92078D5
:103D60004FF00109012804D0022836D003285DD184
:103D700043E0216A05EB550801EB58212046FFF787
:103D8000CAFF060052D1C8F308002044303008F1C1
:103D90000108E90704D00178FAB262F31F1100E0CC
:103DA0003946017084F80390216A204601EB5821BE
:103DB000FFF7B1FF060039D1C8F3080020443030C6
:103DC000E90702D0C7F3071105E00178C7F3032222
:103DD00001F0F0011143017026E0206A00EB15218B
:103DE0002046FFF798FF060020D1E8B204EB400020
:103DF000B9B2303000F01FF916E0206A00EBD5119F
:103E00002046FFF788FF060010D140F2FF1000EABD
:103E10008500204430300546FFF7A9FD67F31B00FD
:103E20000146284600F0FFF884F803903046BDE8CC
:103E3000F087000070B50F4C0646C8200D46606044
:103E4000FF2000F08FF9FF2803D0FE2805D00020C6
:103E500070BD60680028F3D1F9E72946304600F0CC
:103E60000BF8FF2000F07EF9FF2000F07BF9012025
:103E700070BD000050000020164A10B5136823F0F2
:103E800040031360136843F4046313604FF6FF7438
:103E9000D460891E936803F08303032BFAD1D3689F
:103EA000D46043701B0A00F8023B891EF2D191686E
:103EB00001F083010329FAD1D1684170090A017028
:103EC000106820F404601060106840F0400010603A
:103ED00010BD0000003001402DE9F0410568134697
:103EE0000E46074602292DD36869B0422AD93BB154
:103EF0004FF0FF3219462846FFF726FF00281FD152
:103F000031463846FFF747FC040018D0012C19D081
:103F1000601C19D0002231462846FFF715FF002803
:103F20000ED1D5E90410821E914205D2491C2961A7
:103F3000297941F0010129712646B042E0D80020DC
:103F4000BDE8F0810220FBE70120F9E7094910B53F
:103F50004FF480100860FF2000F004F94FF4FA706D
:103F600000F0F0F808B1012010BDFEF741FC002080
:103F700010BD00001008014070B504460D46000653
:103F800007D504F07F0400213720FFF7F5FF012853
:103F900022D80C2C04D0FEF72BFCFFF7D7FFD0B1B2
:103FA00044F0400000F0DEF8280E00F0DBF8C5F326
:103FB000074000F0D7F8C5F3072000F0D3F8E8B2C7
:103FC00000F0D0F8012044B1082C08D000F0CAF865
:103FD0000C2C12D006E0FF2070BD952000E0872059
:103FE00000F0C0F80A24FF2000F0BCF80106F3D569
:103FF000641E14F0FF04F6D170BDFF20F0E770B529
:104000000C460646154691B204F11A0000F013F86A
:104010003078032806D1290C04F11400BDE8704063
:1040200000F009B870BD0170090A4170090A817079
:10403000090AC17070470170090A41707047000099
:1040400070B5044600F040F8050036D1207803280A
:104050002CD12079012829D1420204F1300000211D
:104060000646FFF751FE4AF6552104F22E20FFF7CF
:10407000E2FF13493046FFF7D6FF124904F50570F9
:10408000FFF7D1FF04F506702169FFF7CCFF04F5B7
:104090000770E168FFF7C7FFE2690123521CE26283
:1040A00060783146FEF7A2FE002020710022607881
:1040B0001146FEF751FD00B10125284670BD0000F4
:1040C000525261417272416170B50446C078002558
:1040D00048B104F13001607801230E46E26AFEF730
:1040E00085FE10B10125284670BD0020E070E16A10
:1040F000206A0A1AA0698242F5D2A278022AF2D175
:104100000A18607801233146FEF770FEEBE770B5C0
:104110000E4604004FF009050CD0206850B101781C
:1041200041B1A188C288914204D14078FEF734FEA3
:10413000C00703D000203060284670BD00252068ED
:10414000F9E7000010B5064CA060FF2000F00AF867
:10415000FF2803D0A0680028F7D110BD012010BDB2
:10416000500000200449C860886800F083000328DC
:10417000FAD1C868C0B270470030014070B505463A
:104180000C464FF4FA70FFF7DDFF002817D02046E9
:10419000FFF7E8FFFD2C13D04FF40071284600F024
:1041A00011F8FF20FFF7DEFFFF20FFF7DBFFFF2006
:1041B000FFF7D8FF00F01F00052801D0002070BDD8
:1041C000012070BD154A10B5136823F04003136039
:1041D000136843F40463136030F8023B5BBAD360A6
:1041E000B1F1020130F8023B5BBA946804F0830439
:1041F000032CFAD1D468D360891EF3D1906800F003
:1042000083000328FAD1D068106820F4046010609D
:10421000106840F04000106010BD00000030014008
:1042200010B500290AD00878002807D0054878443E
:10423000FCF732FD002801D0002010BD0248784470
:1042400010BD00008A0400008204000021F000423A
:10425000A2F16052B2F5801F01F0004328BFD2F1F5
:104260007F6C0BD95FEA001C43EAC20242EB50703C
:1042700018BF704728BF20F001007047B2F5801FBB
:10428000BCBF184670474FEA410C1CF5001F02D214
:10429000084600F0EEB870B500F025F8000000897F
:1042A000FFF7F6BF4FF00040A0F580007047000018
:1042B00002494FF0000000F0E3B800BF0000F87FB3
:1042C000B0FA80F310FA03F10AD0C3F11D0303F52D
:1042D00080634FEA41504FEA035202EBD12170470D
:1042E0004FF0000070470EF1020E2EF0030E5EF844
:1042F000046B364205D4012A43EB030515F5001F74
:1043000012D8012841EB010C1CF5001F0CD80ED16E
:104310004FEAD17C15F5001F0CEB4C0C0CF1020C94
:1043200008BF4CEBD37C04E04FF0080C01E04FEAEF
:10433000D37C0CEB4C0526FA05F606F00706B6F121
:10434000040C06D20EEB860CBDE870404CF0010C5C
:104350006047DFE80CF0090B02024FF000414FF01C
:104360000000A1F5002170BD19461046012851EB4F
:10437000010418BFD4F5001484BF002001F00041EF
:1043800070BD0808A0F500114FEA31017047000028
:1043900043004FEAD30C4FEA3C0C43401FBF400799
:1043A0000CF1605113F0FE4F70471CF0006F03D109
:1043B00000200CF0004170470CF0004343EA5070BD
:1043C00010B540EACC0000F00EF800BF00000092EB
:1043D0004FEA0001FFF7D5BF4FF000414FF000005A
:1043E000A1F5002170470EF1020E2EF0030E5EF8CB
:1043F000044B244204D44FEA4102B2F17F4F11D85A
:104400004FEA4003B3F17F4F0CD80ED14FEAD07C76
:10441000B2F17F4F0CEB4C0C0CF1020C08BF4CEBD3
:10442000D17C04E04FF0080C01E04FEAD17C0CEBAA
:104430004C0324FA03F404F00704B4F1040C06D28C
:104440000EEB840CBDE810404CF0010C6047DFE837
:104450000CF0070802024FF00040A0F5800010BDEC
:104460000846420018BFD2F1807288BF00F00040B9
:1044700010BDFF2141EAD050C0057047FCF789B953
:104480000CF00F03092B08BF082000F059800A2BFD
:104490000BD0082B18BF704708BF1CF0400F0AD084
:1044A0004FF000004FF0000170471CF0400F18BFA4
:1044B0004FF0004070471CF0100F08D020F0704300
:1044C00000F07F4242EAD3014FEA4370704700F0A8
:1044D000604021F07F4242EA000201F07F4040EA62
:1044E000727070474FF0FF0C4CF4E06C1CEA1153F3
:1044F0001CBF9CEA030C9445C2BFDA4201EB025197
:104500007047002B0DD0BCF1000F0FD0002A01F036
:104510000041A4BF41F0E04141F07F614FF0000055
:10452000704701F000414FF00000704750EA01333E
:104530004FF09B0C18BF4CF0806C7FF4B9AE704705
:104540001CF4801F11D01CF4E02F03D06FEACC3193
:10455000490070474FF04050EFF3008222F0704264
:1045600042EA000282F3008870474FF00000704773
:104570000040105000000000000000000102030491
:1045800006070809809A90B68EDE8F809DD38A8AAE
:10459000D78D8E8F909191E29995959797999A9B47
:1045A0009B9D9EACB5D6E0E9A4A4A6A6A8A8AA8D1A
:1045B000ACB8AEAFB0B1B2B3B4B5B6B7B8B9BABBB8
:1045C000BCBDBDBFC0C1C2C3C4C5C6C6C8C9CACBB5
:1045D000CCCDCECFD1D1D2D3D2D5D6D7B7D9DADBC5
:1045E000DCDDDEDFE0E1E2E3E3D5E6E6E8E9E8EBA7
:1045F000EDEDDDEFF0F1F2F3F4F5F6F7F8F9FAEBA3
:10460000FCFCFEFF02400000000000A000000000D3
:1046100005400000000000C8000000000C40000041
:104620000000409C00000000194000000020BCBEBB
:104630000000000034400000BFC91B8E00000004D1
:10464000B5400000504BCFD06607E2CF010000001C
:104650006C4100003E8251AADFEEA7340100000049
:10466000D9420000DCB5A0E23A301F97FFFFFFFF00
:10467000B4450000FD25A0C8E9A3C14FFFFFFFFF1F
:10468000FF3F00000000008000000000FF3F00002E
:104690000000008000000000D44600080000002058
:1046A0005C00000028010008304700085C00002082
:1046B0008C0B0000440100081C00000043000000B7
:1046C000F8FFFFFF0C0000000E0000000F000000CC
:1046D0002E000000000000000000000000000000AC
:1046E000000000000000000000000000300000009A
:1046F000000000000800040002000100001001405A
:1047000000100140001001400010014001000000B5
:1047100010000000000000000024F4000000000071
:104720000000000001000000000000000000000088
:04000005080000ED02
:00000001FF
