:020000040800F2
:100000009007002091010008B3190008911700081B
:10001000B11900082F0500084F1E0008000000005D
:10002000000000000000000000000000B7190008F8
:100030006705000800000000B5190008B91900089C
:10004000AB010008AB010008AB010008AB010008E0
:10005000AB010008AB010008AB010008AB010008D0
:10006000AB010008AB010008AB010008AB010008C0
:10007000AB010008AB010008AB0100083105000826
:10008000AB010008AB010008AB010008AB010008A0
:10009000AB010008AB010008AB010008AB01000890
:1000A000AB010008AB010008AB010008AB01000880
:1000B000AB010008AB010008AB010008AB01000870
:1000C000AB010008AB010008AB010008AB01000860
:1000D000AB010008AB010008AB010008AB01000850
:1000E000AB010008AB010008AB01000800F002F80A
:1000F00000F03FF80AA090E8000C82448344AAF183
:100100000107DA4501D100F034F8AFF2090EBAE880
:100110000F0013F0010F18BFFB1A43F0010318473B
:100120000420000024200000103A24BF78C878C1C1
:10013000FAD8520724BF30C830C144BF04680C60ED
:10014000704700000023002400250026103A28BF35
:1001500078C1FBD8520728BF30C148BF0B60704739
:10016000642900F07D80002070471FB51FBD10B5C9
:1001700010BD00F0A2F91146FFF7F7FF01F0D2FE23
:1001800000F0C0F903B4FFF7F2FF03BC00F0C8F9B8
:100190000948804709480047FEE7FEE7FEE7FEE71B
:1001A000FEE7FEE7FEE7FEE7FEE7FEE70448054957
:1001B000054A064B704700001B1A0008ED000008B6
:1001C0009001002090070020900300209003002061
:1001D0000FB41CB5074B06AA7B44694600900598EE
:1001E00000F053F90020694600F062F91CBC5DF88C
:1001F00014FB0000D50200002DE9F0410E46044634
:10020000002020622046E168884730B3252805D0C9
:10021000D4E901219047206A401CF2E7E1682046BA
:1002200000278847050018D0A5F14100192802D8F9
:1002300020354FF400673246294620462760FFF7F5
:100240008FFF40B1012804D0F61D26F007060836BE
:10025000D8E7361DD6E72846DAE7206ABDE8F08100
:100260002DE9F0410646002410687529314616A58F
:1002700010D0AFF30080002802DA404213A507E057
:1002800031688A0701D512A502E0490704D511A5F6
:10029000012401E0AFF3008000210A2206F12407C7
:1002A00009E0B0FBF2FCB0FBF2F302FB1C003030C3
:1002B00078541846491C0028F3D123462A46304674
:1002C000BDE8F04100F083B8000000002D00000000
:1002D0002B0000002000000010B5431C02E010F8C5
:1002E000011B71B18107FAD14FF0013202C88C1A9B
:1002F0008C4314EAC211F9D0C01A0A0603D0C01EFA
:1003000010BDC01A10BD0A0401D0801E10BD090224
:10031000FCD0401E10BD10B5203AC0F00B80B1E8F3
:100320001850203AA0E81850B1E81850A0E818502A
:10033000BFF4F5AF5FEA027C24BFB1E81850A0E833
:10034000185044BF18C918C0BDE810405FEA827C4D
:1003500024BF51F8043B40F8043B08BF7047D20764
:1003600028BF31F8023B48BF11F8012B28BF20F805
:10037000023B48BF00F8012B70474FF0000200B568
:10038000134694469646203922BFA0E80C50A0E8B8
:100390000C50B1F12001BFF4F7AF090728BFA0E866
:1003A0000C5048BF0CC05DF804EB890028BF40F832
:1003B000042B08BF704748BF20F8022B11F0804F74
:1003C00018BF00F8012B70477047704770472DE940
:1003D000F0470D4699469246044600F1240801680C
:1003E000880604D5E06921F01001216000E00120B9
:1003F000A84201DD471B00E00027A1697A1902EB42
:100400000900081AA0612078C00602D42046AFF384
:100410000080002608E0D4E901211AF80600904780
:10042000206A401C761C20624E45F4DB2078C00612
:100430000AD52046AFF3008006E0D4E90121302040
:100440009047206A401C2062381EA7F10107F4DCA7
:1004500007E0D4E9012118F805009047206A401C04
:100460002062281EA5F10105F3DC2046AFF30080D1
:100470002078000602D50220BDE8F0870120FBE7C6
:1004800001694A1C02610878704700B58FB0CDE958
:1004900001310021059105497944CDE90310114648
:1004A0006846FFF7A9FE0FB000BD0000E5FFFFFFA3
:1004B0000A6802F8010B0A607047754600F02CF8D4
:1004C000AE4605006946534620F00700854618B041
:1004D00020B5FFF76BFEBDE820404FF000064FF05F
:1004E00000074FF000084FF0000B21F00701AC4669
:1004F000ACE8C009ACE8C009ACE8C009ACE8C00988
:100500008D46704710B50446AFF300802046BDE825
:100510001040FFF737BE0000004870473001002050
:1005200001491820ABBEFEE7260002007047FEE737
:10053000014800F01BB80000EC00002030B590F836
:1005400040500124AC40C56B6C6004686360436834
:10055000102B036803D099600068C26030BD9A60B8
:100560000068C16030BD704772B6FEE72DE9F05FEC
:10057000C16B0C6801680B68D0F840C0042202FA15
:100580000CF2494DDFF824A1494E4A4FDFF828B15B
:10059000DFF828E122422CD05A072AD50A689206B1
:1005A00003D40A6822F004020A600168A94201D15A
:1005B000042219E0514501D1402215E0B14202D197
:1005C0004FF4806210E0B94202D14FF480420BE058
:1005D000594502D14FF4802206E0714502D14FF413
:1005E000800201E04FF080622F4908394A60C16AF9
:1005F0003BE04FF0020808FA0CF818EA040F4FF03D
:1006000000094FF0010235D05FEA837832D50B68DC
:100610009B0605D40B6823F00A030B6080F82120A9
:100620000168A94201D1022219E0514501D12022DD
:1006300015E0B14202D14FF4007210E0B94202D18C
:100640004FF400520BE0594502D14FF4003206E05E
:10065000714502D14FF4001201E04FF000721249CF
:1006600008394A6080F82090816A00291AD0BDE8D4
:10067000F05F0847082505FA0CF5254212D01B0744
:1006800010D50B6823F00E030B6090F84010C36B7D
:1006900002FA01F15960826380F8212080F82090ED
:1006A000016BE2E7BDE8F09F080002401C00024039
:1006B0003000024044000240580002406C000240FA
:1006C00030B528B308C8134914221944B1FBF2F11C
:1006D0008900C16310498163022141771A6843F69A
:1006E000F0718A43D0E900142143D0E902452C433C
:1006F000214304692143446921438469214311430F
:10070000196000214163012242770177084630BD1C
:10071000012030BDF8FFFDBF0000024070B5044667
:1007200090F82000002501280CD0012084F820003A
:1007300094F821600020012E06D084F820000225C4
:10074000284670BD022070BD022684F82160A06397
:100750002068066826F0010606602046FFF7EEFED8
:10076000E06A00282068016802D041F00E0106E02E
:1007700021F0040101602068016841F00A01016074
:100780002068016841F001010160D9E770B50446B5
:1007900000F004F90546601C02D0044800780444C7
:1007A00000F0FCF8401BA042FAD370BD28000020E6
:1007B0002DE9F84FDFF8B891002409F1040A0AF195
:1007C000040B23460F270BF1040EC9E00125A540B9
:1007D0002A40AA427DD1674ED1F804C0ACEB06088E
:1007E000B44532D014DCBCF1030F3AD009DCBCF1C3
:1007F000000F2AD0BCF1010F1CD0BCF1020F31D187
:100800001DE0BCF1110F17D0BCF1120F2AD119E075
:10081000B8F5881F19D006DCB8F5803F15D0B8F5BB
:10082000801F1FD111E0B8F5001F0ED0B8F5041FCE
:1008300018D10AE0CB6815E0CB681B1D12E0CB682D
:1008400008330FE0CB680C330CE08B682BB1012B25
:100850004FF0080303D0456104E0042302E0056182
:1008600000E00023FF2A01D8064601E000F104065B
:100870004FEA840501D9A5F12005D6F8008007FAD2
:1008800005FC28EA0C0803FA05F548EA0508C6F84D
:1008900000804D68ED0062D5374DAE6946F0010627
:1008A000AE61AD6924F0030605F001050095334DF6
:1008B00006EB050CDCF80850A607360F07FA06F819
:1008C00025EA0805DFF8B880404503D14FF000085D
:1008D00017E044E0DFF8AC80404502D14FF001085A
:1008E0000FE0DFF8A480404502D14FF0020808E095
:1008F000DFF89880404502D14FF0030801E04FF047
:10090000040808FA06F848EA0508CCF808804D689B
:10091000D9F80060ED034D4601D5164300E096433B
:100920002E604D68DAF80060AD03554601D51643D8
:1009300000E096432E604D68DBF80060ED025D46F6
:1009400001D5164300E096432E604D68DEF8006046
:10095000AD02754601D5164300E096432E60641C37
:100960000D682A46E5407FF431AFBDE8F88F0000FE
:10097000000401400000111000100240000001407E
:1009800000080140000C014000100140001401402B
:100990000AB1016170470904FBE700000148806863
:1009A0007047000028000020024881680278114446
:1009B0008160704728000020074810B5016841F0A9
:1009C00010010160032000F073F80F2000F006F81A
:1009D00000F024F8002010BD0020024070B50D4D3D
:1009E00004464FF47A712878B1FBF0F00A4909689F
:1009F000B1FBF0F000F0CAFA48B9102C07D200227F
:100A00002146501E00F034F800206C6070BD0120BB
:100A100070BD000028000020340000200B4808B5FD
:100A2000816941F001018161816901F00101009159
:100A3000C16941F08051C161C06900F080500090EF
:100A40000348416821F0E061416008BD00100240A8
:100A500000000140002809DB00F01F020121914045
:100A60004009800000F1E020C0F80011704700004C
:100A7000F0B40E4B1B680C46C3F30223C3F1070509
:100A8000042D00D90425191D072901D2002300E0F7
:100A9000DB1E012606FA05F1491E214099409E40C1
:100AA000761E16403143F0BC01F0D2B90CED00E0E7
:100AB000064900F0070208684FF6FF03184040EAB5
:100AC0000220034A10430860704700000CED00E06C
:100AD0000000FA052DE9F0470F46050061D0434EAE
:100AE000306800F00700B84209D2306820F00700F3
:100AF00038433060306800F00700B84251D12868B0
:100B00003B4C810712D5400703D5606840F4E06094
:100B100060602878000703D5606840F4605060602A
:100B20006068A96820F0F000084360602878C0077A
:100B300028D06868012810D02168022810D08907C1
:100B400000292EDA616821F0030101436160FFF79B
:100B500025FF804641F288390DE021688903EFE7DF
:100B60008901EDE7FFF71AFFA0EB0801494502D91B
:100B70000320BDE8F0876068696800F00C00B0EB06
:100B8000810FEFD1306800F00700B8420BD9306810
:100B900020F0070038433060306800F00700B842AA
:100BA00001D00120E5E72878400705D56068E968AD
:100BB00020F4E060084360602878000706D560688C
:100BC000296920F4605040EAC100606000F018F824
:100BD0006168084AC1F30311515CC84006490860C6
:100BE00006480068FFF7FAFE0020C2E70020024036
:100BF0000010024014210008340000202C000020C6
:100C000012A185B00FC98DE80F0014A0144A006826
:100C100004905168134801F00C03042B10D0082BEA
:100C20000ED1C1F38343C9031DF803000AD55168EF
:100C300004AAC1F34041515C0A4A5043B0FBF1F0B1
:100C400005B0704708494843FAE70000020304056D
:100C5000060708090A0B0C0D0E0F10100102000008
:100C60000010024000127A0000093D002DE9F84F03
:100C7000040070D02078C04DC00749D06868C0F328
:100C80008100012807D06868C0F38100022809D1DB
:100C90006868C00306D52868800339D560680028D5
:100CA000E7D035E06068B0F5803F0BD010B1B0F50B
:100CB000A02F11D0286820F480302860286820F404
:100CC000802002E0286840F480302860606890B19D
:100CD000FFF764FE06460AE0286840F4802028609A
:100CE000F0E700BFFFF75AFE801B642873D828681E
:100CF0008003F7D50CE0FFF751FE064605E000BF84
:100D0000FFF74CFE801B6428F0D828688003F7D4D6
:100D100020789A4E80074FF001094FF0000839D52E
:100D2000686810F00C0F07D06868C0F381000228D3
:100D300009D16868C00306D42868800714D52069E3
:100D4000012808D110E02069B0B1C6F80090FFF783
:100D500025FE074605E00AE1FFF720FEC01B02283A
:100D6000C4D828688007F7D52868616920F0F800A2
:100D700040EAC10028600DE0C6F80080FFF70EFED3
:100D8000074604E0FFF70AFEC01B022823D82868A4
:100D90008007F7D4207800072CD57948A169D9B10C
:100DA000C0F80090FFF7FAFD074604E0FFF7F6FDF4
:100DB000C01B02280FD8686A8007F7D571484FF426
:100DC000FA510068B0FBF1F0009000BF0098411E9E
:100DD0000091FAD20EE080E0C0F80080FFF7DEFD5F
:100DE000074604E0FFF7DAFDC01B022875D8686AE1
:100DF0008007F7D42078400760D5E8690027C00055
:100E000008D4E86940F08050E861E869012700F003
:100E1000805000905C480168C90513D4016883467E
:100E200041F480710160FFF7B9FD824606E000BF22
:100E3000FFF7B4FDA0EB0A0064284ED8DBF80000F1
:100E4000C005F5D5E06801280AD008B1052813D0FF
:100E5000286A20F001002862286A20F0040002E0DD
:100E6000286A40F001002862E06841F2883B98B1AE
:100E7000FFF794FD82460BE0286A40F004002862E8
:100E8000EEE700BFFFF78AFDA0EB0A0159455AD8EB
:100E9000286A8007F6D50CE0FFF780FD824605E062
:100EA000FFF77CFDA0EB0A0159454CD8286A800762
:100EB000F6D41FB1E86920F08050E861E06988B39A
:100EC0006968C1F38101022944D00228C6F8608014
:100ED00004D0FFF763FD044638E034E0FFF75EFD21
:100EE000074604E0FFF75AFDC01B02282BD82868EC
:100EF0008001F7D4206AB0F5803F05D16868A16809
:100F000020F4003008436860D4E9080108436968A8
:100F100021F4741108436860C6F86090FFF73EFD45
:100F2000044606E025E000BFFFF738FD001B02285D
:100F300009D828688001F7D51BE000BFFFF72EFD18
:100F4000001B022802D90320BDE8F88F2868800121
:100F5000F4D40EE00128F7D06868226A00F48031EA
:100F6000914204D1616A00F47010884201D00120DE
:100F7000EAE70020E8E700000010024000004242DB
:100F800080044242340000200070004010B5401E32
:100F9000B0F1807F01D3012010BD4FF0E0246061EB
:100FA0000F21601700F054FF0020A061072020618E
:100FB000002010BD70B590F83C20012A26D00124F5
:100FC00080F83C40022280F83D2003685A689D6802
:100FD00022F070060A6832435A600D4B02689A424A
:100FE00008D0B2F1804F05D00A4B9A4202D00A4B8A
:100FF0009A4204D1496825F080031943916080F832
:101000003D40002180F83C10084670BD022070BDB4
:10101000002C0140000400400008004010B504000E
:1010200003D094F83D0010B107E0012010BD00206E
:1010300084F83C00204600F01FF8022084F83D00B0
:10104000211D206800F0EAFC012084F8460084F8A5
:101050003E0084F83F0084F8400084F8410084F8A2
:10106000420084F8430084F8440084F8450084F882
:101070003D00002010BD000030B585B000220546BF
:10108000009201920292039200681E4B1E49984200
:1010900017D1C86940F00200C861C86900F00200B9
:1010A0000490886940F0040088618869694600F00E
:1010B00004000490402000901448FFF779FB05B02D
:1010C00030BD134B9842FAD1C86940F00400C861A2
:1010D000C869114C00F0040004900E48C4E90002F5
:1010E0008015A260C4E90320800060612020C4E96B
:1010F00006022046FFF7E4FA08B1FFF735FAEC6282
:101100006562DCE700040040001002400008014076
:101110000008004058000240EC00002070B5044672
:1011200090F83C00012817D0012584F83C5002209B
:1011300084F83D002068826822F0770222F47F4222
:1011400082600868502830D00DDC20284DD005DCA6
:1011500098B310283BD148E0022070BD302844D01D
:10116000402834D139E0602828D0702806D0B0F566
:10117000805F2CD0B0F5005F29D10AE0CB68D1E9BF
:101180000121206800F002FD2068816841F07701AC
:1011900009E0CB68D1E90121206800F0F7FC206864
:1011A000816841F48041816011E0CA684968206823
:1011B00000F0E3FD5021206807E016E0CA684968A6
:1011C000206800F017FE6021206800F0E9FC84F838
:1011D0003D50002084F83C0070BDCA684968206812
:1011E00000F0CBFD40212068EFE722680146104661
:1011F000EBE770472DE9F041054690F83C000C46BE
:10120000012836D0012085F83C008AB3042A42D058
:101210002868082A51D0D4E90023E168066A26F438
:1012200080560662C669076A26F4407646EA0323BA
:101230004FF6FF7606EA013123F4704319434FF469
:10124000005627F4005306EA02321A43C1610262D3
:101250002868C16921F44061C1612868C169A26838
:1012600041EA0221C161002085F83C00BDE8F0811F
:1012700001E00220FAE7D4E90012E368286800F0F0
:101280008DFD2868816921F00C01816128688169E0
:10129000A26811430FE0D4E90012E368286800F067
:1012A000BBFD2868816921F44061816128688169FA
:1012B000A26841EA02218161D5E7D4E90027267BB3
:1012C000016A21F480710162C169036A21F003019E
:1012D000394321F0F00731074FF4007647EA1161F6
:1012E00023F4007306EA02221A43C16102622868ED
:1012F000C16921F00C01C1612868C169A26811436C
:10130000B0E710B5040003D094F83D0010B107E039
:10131000012010BD002084F83C00204600F01EF89B
:10132000022084F83D00211D206800F077FB012099
:1013300084F8460084F83E0084F83F0084F84000BA
:1013400084F8410084F8420084F8430084F84400A3
:1013500084F8450084F83D00002010BD704700006F
:1013600010B5044651B104290DD0082910D094F8C5
:10137000410094F84520012811D10EE094F83E0078
:1013800094F84220F7E794F83F0094F84320F2E7FE
:1013900094F8400094F84420EDE7012A01D00120A0
:1013A00010BD022019B3042926D0082929D084F8B9
:1013B000410084F845000122206800F065FB1349D4
:1013C0002068884208D0B0F1804F05D0104988428B
:1013D00002D01049884204D1816801F00701062932
:1013E00003D0016841F001010160002010BD84F8C4
:1013F0003E0084F84200DEE784F83F0084F84300B2
:10140000D9E784F8400084F84400D4E7002C014078
:10141000000400400008004000B585B000210091A4
:1014200001910291039100680B49884212D10B4847
:10143000816941F0080181618069694600F0080016
:1014400004904FF4807000900220019003900448B3
:10145000FFF7AEF905B000BD0008004000100240E3
:10146000000C014070B5044690F83C000D46012880
:101470000AD0012084F83C0042B1042A18D0082A7E
:101480002AD00C2A4DD139E0022070BD206800F02E
:101490008FFB2068816941F00801816120688169C2
:1014A00021F004018161206881692A69114311E0FA
:1014B000206800F0A5FB2068816941F4006181612A
:1014C0002068816921F480618161206881692A69CD
:1014D00041EA0221816124E0206800F0BDFB206820
:1014E000C16941F00801C1612068C16921F00401AE
:1014F000C1612068C1692A69114311E0206800F0C8
:10150000D7FB2068C16941F40061C1612068C169ED
:1015100021F48061C1612068C1692A6941EA022120
:10152000C161002084F83C0070BD10B5040003D0F8
:1015300094F83D0010B107E0012010BD002084F8B0
:101540003C00204600F01EF8022084F83D00211DDA
:10155000206800F063FA012084F8460084F83E0019
:1015600084F83F0084F8400084F8410084F8420089
:1015700084F8430084F8440084F8450084F83D0072
:10158000002010BD70477047704700002DE9F04102
:1015900017460D0004460CD0042D11D0082D16D08E
:1015A00094F84100022819D094F84100012818D07D
:1015B0009AE094F83E00022810D094F83E00F5E737
:1015C00094F83F00022809D094F83F00EEE794F821
:1015D0004000022802D094F84000E7E70220BDE86E
:1015E000F0810FB9002B7FD14349444E444A022079
:1015F00045B1042D16D0082D24D084F841000C2DBF
:101600003AD164E084F83E00606A8162606A3946DB
:10161000C662606A02632268606A3432FFF77EF84D
:10162000F0BB1FE084F83F00A06A8162A06A3946DF
:10163000C662A06A02632268A06A3832FFF76EF8B9
:1016400070BB14E084F84000E06A8162E06A3946C9
:10165000C662E06A02632268E06A3C32FFF75EF825
:10166000F0B92FE02068C16841F4007103E0206800
:10167000C16841F48061C16001222946206800F000
:1016800003FA20492068884203D1426C42F40042A8
:101690004264206888420AD0B0F1804F07D000E051
:1016A00022E01949884202D01849884204D1816851
:1016B00001F00701062903D0016841F00101016032
:1016C00000208CE72068C16841F40061D3E7206BFB
:1016D0008162206B3946C662206B02632268206BF0
:1016E0004032FFF71BF808B1012078E72068C16895
:1016F00041F48051BFE70000A31A0008011B000855
:10170000391B0008002C0140000400400008004084
:101710000246002041B1042909D008290AD00C2929
:1017200001D11068006C70471068406B70471068FA
:10173000806B70471068C06B704770B5044690F8B6
:101740003C00012812D0012584F83C50022084F886
:101750003D00204600F0CEFA01004FF0000007D017
:1017600084F83D5084F83C00012070BD022070BD1B
:101770002168CA6822F04002CA602168CA6822F45F
:101780008042CA6084F83D5084F83C00002070BD5F
:10179000FEE7F0B587B00DF1300C04469CE8E1009F
:1017A0008DF81670ADF80C00ADF8146004958DE856
:1017B0000E00684600F012F8182269462046FEF72F
:1017C000AAFD07B0F0BD0000034B8032595C114404
:1017D000C9B200F073BB00001021000810B5044628
:1017E000807D88B13821204600F068FB0121204629
:1017F00000F064FB0C21204600F060FB2046BDE8B1
:101800001040062100F05ABB3321204600F056FB61
:101810003221204600F052FB2821E4E770B50D4646
:101820000646002405E0295D304600F061FB641C9B
:10183000E4B22846FEF750FDA042F4D870BD000087
:1018400010B590B0002409940A940B94142104A8B4
:101850000C94FEF792FD2D48039400940194029499
:101860000D9429490E94016040F26711C0E90114FA
:1018700040F2CF71C0E903148461FFF7CFFB08B1D8
:1018800072B6FEE74FF48050099009A91F48FFF790
:1018900045FC08B172B6FEE71C48FFF732FD08B1FF
:1018A00072B6FEE7042004905020CDE905040794A9
:1018B00004A916480894FFF740FF08B172B6FEE786
:1018C0000120CDE900400294002269460F480394AC
:1018D000FFF790FC08B172B6FEE70220009001907D
:1018E000042269460948FFF785FC08B172B6FEE795
:1018F0000D940DA905480E94FFF75CFB002801D05C
:1019000072B6FEE710B010BD0004004038000020A1
:1019100010B58EB000240794089409940A940B948F
:101920001C2168460C94FEF728FD20481E490160E2
:1019300043F63F01C0E9011441F28731C0E90314C5
:101940008461FFF76BFB08B172B6FEE74FF480507D
:10195000079007A91548FFF7E1FB08B172B6FEE74B
:101960001248FFF7E2FD08B172B6FEE70B940BA92F
:101970000E480C94FFF71EFB08B172B6FEE760201C
:10198000009040F6C310CDE90104082269460748DB
:101990000494FFF767FD08B172B6FEE70348FFF74E
:1019A0003BFD0EB010BD000000080040800000208C
:1019B000FEE7FEE770477047FEF7F6BF30B58FB021
:1019C00028216846FEF7D9FC14210AA8FEF7D5FCA9
:1019D00001210804CDE9001000240294022504919D
:1019E000CDE907504FF4E01009906846FFF73EF943
:1019F00008B172B6FEE70F20CDE90A054FF480600A
:101A0000CDE90C4002210AA80E94FFF763F80028E4
:101A100001D072B6FEE70FB030BD7047F0B5026876
:101A2000164B174C174D4FF08047984205D0B842DF
:101A300003D0A04201D0A84203D122F070064A6828
:101A40003243984205D0B84203D0A04201D0A84208
:101A500003D122F44074CA6822434C6922F0800208
:101A6000224302608A68C2620A688262984201D197
:101A70000969016301214161F0BD0000002C0140B2
:101A8000000400400008004010B501F01F030121D0
:101A9000046A99408C430462016A9A4011430162CE
:101AA00010BD10B5446A0121626A824205D12177D6
:101AB0008069F8B984F83E101CE0A26A824206D11F
:101AC000022222778069A8B984F83F1012E0E26A06
:101AD000824206D104222277806958B984F84010E6
:101AE00008E0226B824205D108222277806908B97A
:101AF00084F841102046FFF746FD0020207710BDF6
:101B000010B5446A616A814201D101200DE0A16AE9
:101B1000814201D1022008E0E16A814201D1042022
:101B200003E0216B814201D1082020772046FFF796
:101B30002BFD0020207710BD10B5446A0121626A98
:101B4000824203D1217784F83E1019E0A26A8242D2
:101B500004D10220207784F83F1011E0E26A82422B
:101B600004D10420207784F8401009E0226B8242DF
:101B700004D10820207784F8411001E084F83D105A
:101B80002046FFF736FB0020207710BD10B5846893
:101B900042EA032224F47F440A432243826010BDB8
:101BA000826822F070020A4342F0070181607047A8
:101BB00030B5026A22F001020262026A4368846957
:101BC00024F073050C682C4322F002058A682A432E
:101BD0000A4DA8420BD122F00805CA6823F44073CD
:101BE0002A434D6922F004021D438B692B43436055
:101BF000846149684163026230BD0000002C0140ED
:101C000030B5026A22F010020262026A43688469F7
:101C10000D6824F4E64444EA05248D6822F020028D
:101C200042EA05120B4DA8420ED1CD6822F0800287
:101C300042EA05124D6923F4406343EA85038D6946
:101C400022F0400243EA850343608461496881636E
:101C5000026230BD002C014030B5026A22F480726D
:101C60000262036A4268C46923F4007324F07305B6
:101C70000C682C438D6843EA05230C4DA8420ED115
:101C8000CD6823F4006343EA05234D6922F44052F2
:101C900042EA05128D6923F4806342EA051242602C
:101CA000C4614968C163036230BD0000002C01407B
:101CB00030B5026A22F480520262046A4268C36943
:101CC0000D6823F4E64343EA05238D6824F40054A9
:101CD00044EA0534064DA84204D14D6922F48042FD
:101CE00042EA85124260C36149680164046230BD02
:101CF000002C014010B503689A6822F070044A680D
:101D0000224322F007040A6822439A604A6812F0CC
:101D10000F0F30D11211082A2DD2DFE802F02C2C3F
:101D20002C2C0B2127040B69D1E902210068FFF755
:101D30002DFF20E00A68052A10D00268136A146A91
:101D400024F00104146202689469096924F0F00423
:101D500044EA01119161006803620CE0012010BDAA
:101D60000A698968006800F008F804E00A6989686F
:101D7000006800F03FF8002010BD10B5036A046A47
:101D800024F001040462846924F0F00444EA02149B
:101D900023F00A020A438461026210BD70B5046A2E
:101DA00024F0010404628469056A0F4EB04208D031
:101DB000B0F1804F05D00D4EB04202D00C4EB04273
:101DC00003D124F00304144301E044F001041A0792
:101DD00024F0F00444EA126225F00A0301F00A013B
:101DE00019438261016270BD002C01400004004073
:101DF0000008004010B5036A23F0100303628369F2
:101E0000046A23F4704343EA023224F0A00343EA55
:101E100001118261016210BD30B5046A24F0100422
:101E200004628469056A24F4407444EA022222F4BC
:101E300070444FF6FF7202EA03322243A02425F0D9
:101E4000A00304EA011119438261016230BDFEE77B
:101E50000907090E002804DB00F1E02080F80014D7
:101E6000704700F00F0000F1E02080F8141D70476B
:101E70002DE9F04117460E46054600240DE068683E
:101E800026FA04F202F0010230F81410286850F823
:101E90002400FEF77DFD641CE4B2BC42EFD3A98AA6
:101EA00001222869FEF774FD0120FEF76FFCA98A64
:101EB0002869BDE8F0410022FEF76ABD70B50D4605
:101EC0000446818980680022FEF762FDA07D30B162
:101ED000082229462046BDE87040FFF7C9BF2909FE
:101EE00004222046FFF7C4FF05F00F010422F1E7AA
:101EF00070B50D460446818980680122FEF748FDD1
:101F0000A07D30B1082229462046BDE87040FFF789
:101F1000AFBF290904222046FFF7AAFF05F00F01F1
:101F20000422F1E78AB0FEF747FDFFF747FD72484C
:101F3000816941F010018161816901F01001009116
:101F4000816941F004018161816901F0040100911E
:101F5000816941F008018161816901F00801009106
:101F6000416941F0010141614069002200F0010036
:101F7000009011460F20FEF77BFD0F20FEF76AFD53
:101F8000FFF7C6FCFFF75CFC01235C4A08215C48B4
:101F9000FFF7FCFA4FF480605A4B8200CDE9002332
:101FA0000021564ACDE90201083202F1080104A8D5
:101FB000FFF7EFFB5248182204A94830FEF7ABF9AF
:101FC0004F4800214838FFF7CBF94D4804214838E5
:101FD000FFF7C6F9494C4C4E41F288354FF4FA7878
:101FE000083C4FF4FA6700BFD6F8000100BBA068B8
:101FF000A84203D2A06800F5FA70A060A06864212E
:102000004843B0FBF5F23E4840A16030E260FEF785
:10201000DFF83B48002211464830FFF7D5FB38492E
:102020006031A1F11800FFF7F9FB4046FEF7AEFB67
:10203000D6F80401F8B9A06818B1A068A0F5FA7044
:10204000A060A16864204143B1FBF5F22C482FA1A8
:102050006030E260FEF7BCF82948002211464830A3
:10206000FFF7B2FB26496031A1F11800FFF7D6FB5C
:102070004046FEF78BFB224800214838FFF748FB1B
:10208000401C20801E4804214838FFF741FB401CBB
:10209000A080208800EB80008000B0FBF7F060801B
:1020A000A088642148432188B0FBF1F0E080628879
:1020B000134816A16030FEF78BF811480022012169
:1020C0004830FFF781FB0E496031A1F11800FFF79E
:1020D000A5FBE2880A480DA16030FEF779F80848B0
:1020E000082201214830FFF76FFB05496031A1F15B
:1020F0001800FFF793FB77E700100240080000206C
:1021000080000020001001400000214225640000F2
:102110000040105000000000000000000102030415
:1021200006070809442100080000002038000000CC
:10213000280100087C210008380000205807000012
:102140004401000800000000000000000000000042
:10215000000000000800040002000100001001401F
:10216000001001400010014000100140010000007B
:0C21700010000000000000000024F4003B
:04000005080000ED02
:00000001FF
