:020000040800F2
:10000000781B0020F101000893370008053600082E
:1000100091370008CD1C0008EF52000800000000D6
:10002000000000000000000000000000AB3A0008E3
:10003000771D000800000000A93A0008AD3A00084A
:100040000B0200080B0200080B0200080B0200085C
:100050000B0200080B0200080B0200080B0200084C
:100060000B0200080B0200080B020008411D0008EB
:100070000B0200080B0200080B0200080B0200082C
:100080000B0200080B0200080B0200080B0200081C
:10009000795200080B0200080B0200080B0200084E
:1000A0000B0200080B0200080B0200080B020008FC
:1000B0000B0200080B0200080B0200080B020008EC
:1000C0000B0200080B0200080B0200080B020008DC
:1000D0000B0200080B0200080B0200080B020008CC
:1000E0000B0200080B0200080B02000800F002F8E7
:1000F00000F06FF80AA090E8000C82448344AAF153
:100100000107DA4501D100F064F8AFF2090EBAE850
:100110000F0013F0010F18BFFB1A43F0010318473B
:10012000005A0000205A00000A444FF0000C10F85A
:10013000013B13F0070408BF10F8014B1D1108BF65
:1001400010F8015B641E05D010F8016B641E01F805
:10015000016BF9D113F0080F1EBF10F8014BAD1C55
:100160000C1B09D16D1E58BF01F801CBFAD505E073
:1001700014F8016B01F8016B6D1EF9D59142D6D3CD
:10018000704700000023002400250026103A28BFF5
:1001900078C1FBD8520728BF30C148BF0B607047F9
:1001A000662905F06184002070471FB59DE80300B3
:1001B00000F014FF00F0C4FB04000020002105F053
:1001C000D5F9E06000F0BCFC1FBD10B500F021FDCA
:1001D00010BD00F089FD1146FFF7E7FF05F014F9A7
:1001E00000F08EFE03B4FFF7F0FF03BC01F068F8E7
:1001F0000948804709480047FEE7FEE7FEE7FEE7BB
:10020000FEE7FEE7FEE7FEE7FEE7FEE704480549F6
:10021000054A064B704700002D3B0008ED00000822
:1002200078150020781B0020781700207817002010
:100230000FB4044910B503AA029800F06FFB10BC7C
:100240005DF814FB6C1400200FB41CB5074B06AA14
:100250007B4469460090059800F047FB0020694602
:1002600000F056FB1CBC5DF814FB0000BD0600004E
:1002700070B5044685690068C10601D5302600E0E6
:100280002026C00707D070BDD4E901213046904731
:10029000206A401C20626D1EF6D570BD70B5044604
:1002A00085690078C00707D170BDD4E901212020FD
:1002B0009047206A401C20626D1EF6D570BD2DE966
:1002C000F0474FF0000A89460446C0F820A02046B7
:1002D000E1688847002876D0252806D0D4E9012196
:1002E0009047206A401C2062F1E7E1682046002523
:1002F0008847C4F81CA006460027C4F818A02A2E78
:1003000009D0304605F018F838B304EB8708303EC2
:10031000C8F8186019E059F8041B204604EB87025E
:100320009161E1688847012F064618D1E0690028ED
:1003300020DA25F020051DE0D8F8180000EB800039
:1003400006EB40003038C8F818002046E1688847BE
:10035000064604F0F1FF0028EED1012F0AD02E2E20
:1003600008D12046E16888477F1C0646022F45F0E9
:100370002005C4DBA069002803DA404245F00105EE
:10038000A061E80701D025F01005B6B1A6F1410043
:10039000192802D8203645F400654A4631462046E1
:1003A00025604D46FFF7FCFE58B1012806D0ED1D33
:1003B00025F0070000F1080989E704E005F10409C8
:1003C00085E730468AE7206ABDE8F08710B5431C10
:1003D00002E010F8011B71B18107FAD14FF0013230
:1003E00002C88C1A8C4314EAC211F9D0C01A0A064A
:1003F00003D0C01E10BDC01A10BD0A0401D0801E5B
:1004000010BD0902FCD0401E10BD10B5203AC0F04E
:100410000B80B1E81850203AA0E81850B1E8185005
:10042000A0E81850BFF4F5AF5FEA027C24BFB1E842
:100430001850A0E8185044BF18C918C0BDE81040B3
:100440005FEA827C24BF51F8043B40F8043B08BFBC
:100450007047D20728BF31F8023B48BF11F8012B83
:1004600028BF20F8023B48BF00F8012B70474FF02F
:10047000000200B5134694469646203922BFA0E8F4
:100480000C50A0E80C50B1F12001BFF4F7AF090700
:1004900028BFA0E80C5048BF0CC05DF804EB8900F1
:1004A00028BF40F8042B08BF704748BF20F8022B34
:1004B00011F0804F18BF00F8012B7047704770474C
:1004C000704770472DE9FF4F0C461E464FF0FF372F
:1004D0008BB0D2E90001DDF860800A908A46C1F352
:1004E0000A5505B93D46002108464FF00000BAF113
:1004F000000F00F4400005DA00EB80004FF44001EB
:1005000001EA50004FEA9059B9F1010F00DDB946F8
:100510000A9850EA4A000ED044F61050A5F2FF3572
:1005200045432F14B8F1000F1ED07542291E1EDD61
:10053000C9F100021CE0B8F1010F4FF0000001D03A
:10054000302103E0F24305E02154401CB042FBDBC4
:1005500030460022002121540B99C1F80880C1E9DE
:1005600000200FB0BDE8F08FBD1B6D1CDEE74A46D2
:1005700000DA694206A800F06DFA06AB93E80700BE
:1005800003AB83E8070050460A9900F035FF8DE879
:100590000700A0F500501F3800900398002D0ADDD9
:1005A00042F21F014A460844002303A9039068460B
:1005B00001F09EF909E0A0F500504A461F380023DB
:1005C00003A90390684601F0A8F98DE8070000042C
:1005D000000C03D04FF0FF30410800E01046B8F1A6
:1005E000000F03D00022009215461EE0751E05D4B0
:1005F00000F0AAF9303262556D1EF9D5B3460122DA
:10060000084302D000227F1C04E02078302801D16A
:1006100000227F1E002A099784D01DE0112D07DAE1
:1006200000F092F9303262556D1C50EA0102F5D1AA
:10063000084302D00098C8B10EE00021681E05E012
:10064000235C625C63542254401E491C8142F7DBE8
:10065000AB46A81B401E0990002004F80B000B9825
:10066000099AC0F80880C0E9002B7AE711264FF0FC
:10067000000857E72DE9F04F88460446D21D22F0C6
:10068000070191B0D1E90001CDE90A0104F030FE83
:1006900002460B98C00F01D02D2007E0206881078B
:1006A00001D52B2002E0202101EAC000032A099095
:1006B00001D0072A05DB03464146204600F08AF9AF
:1006C0000BE12078800601D5E06900E00620B8F152
:1006D000650F814606D0B8F1660F18D0B8F1670FE4
:1006E00070D131E00020B9F1110F009001DB11232E
:1006F00001E009F101030AAA01A90CA8FFF7E2FE33
:10070000DDE90C70002609F10105834647E0012070
:100710004B4600904FF000470AAA01A90CA8FFF72A
:10072000D1FEDDE90DB00C995D46002610B909F146
:1007300001000D18B9EB050003D4C0F1FF3609F133
:100740000105A5EB09002BE0B9F1010F01DA4FF02B
:1007500001090020B9F1110F0090484601DD112375
:1007600000E003460AAA01A90CA8FFF7ABFEDDE9E9
:100770000C704D4600268346207800070AD4AB450E
:1007800000DA5D4601A8012D04DD411911F8011CB4
:10079000302907D04F4502DA17F1040F04DA01209F
:1007A00082460FE06D1EEEE7002F02DCED1B3E449B
:1007B00003E0781CA84200DD7D1CB81B00F1010A93
:1007C0004FF000472078000703D4AA4501DB4FF023
:1007D000FF3A0021B7F1004F0DF143088DF84310A7
:1007E00024D002202B23002F01DA7F422D230A215F
:1007F000021EA0F1010000DC5FB197FBF1FC97FB4A
:10080000F1F201FB1C7C17460CF1300C08F801CD0D
:10081000EEE7A8F1010003702188090501D5452103
:1008200000E06521A0F1010800F8011C09980FA95A
:10083000A1EB0807FF1D00B10120411901EBEA708F
:10084000A1693844081A401EA0612078C00602D46D
:100850002046FFF70DFD099828B1D4E90121904702
:10086000206A401C20622078C00622D52046FFF76F
:10087000FFFC1EE0002E04DBB34502DD01A8805D15
:1008800000E03020D4E901219047206A401C20621A
:10089000761CAAF101005FEA000A0AD100F050F8C4
:1008A000C0680168405CD4E901219047206A401C7F
:1008B0002062281EA5F10105DCDC07E0D4E9012156
:1008C00018F8010B9047206A401C2062381EA7F1DF
:1008D0000107F3DC2046FFF7E1FC032011B041E6FD
:1008E00001694A1C02610878704700B58FB0CDE9F4
:1008F00001310021059105497944CDE903101146E4
:100900006846FFF7DCFC0FB000BD0000E5FFFFFF0D
:100910000A6802F8010B0A6070470000074B70B5C7
:100920000D467B44FFF7E1FF0446284600F004F93A
:1009300010B14FF0FF3070BD204670BD214A00005D
:10094000004870473415002030B5B0F10A024FEA74
:10095000900E71F100034EEA817EB0EB0E0061EB68
:1009600091014FEA101E4EEA017E10EB0E0041EBA2
:1009700011114FEA102E4EEA016E10EB0E0041EB02
:1009800011214FEA104E4EEA014E10EB0E0041EBE2
:100990001141401841F100014FEAD00040EA417096
:1009A0004FEAD10110EB80054FEA810444EA9074CC
:1009B00044EB01046D1944EB0404521BA3414FF0B6
:1009C000000348BF0A3200D530BD401C41F1000190
:1009D00030BD00002DE9F0411F46044603260168A2
:1009E000072A01F4006004DB08B116A505E016A58E
:1009F00003E008B115A500E015A521F01000206066
:100A0000A069C01EA0610FB1401EA0612046FFF783
:100A10002FFC4FB1D4E9012138469047206A401C91
:100A20002062C01C206206E0206AFAE7D4E90121B6
:100A300015F8010B9047761EF8D22046FFF72EFCE2
:100A4000BDE8F0814E414E006E616E00494E460099
:100A5000696E66002DE9F047814616468AB0354832
:100A600078440DC88DE80D0032487844801C03ACF2
:100A70000DC884E80D0041F69B300844372190FBF7
:100A8000F1F290FBF1F5A5F1800501FB12041B3C8E
:100A900002D56442012000E00020DFF898A08046E3
:100AA0000027FA44AAF1BE0A0EE0E0070AD0324657
:100AB000684607EB470101230AEB810100F02DFF97
:100AC0008DE8070064107F1C002CEED1194F7F4485
:100AD000AE3F19E0E80715D007EB04100DF1180A36
:100AE00090E80E008AE80E00C068F04201D1981923
:100AF00008903246012306A903A800F00EFF03ABBD
:100B000083E807006D10641C002DE3D14FF0010352
:100B100032466946B8F1000F03A802D000F0E8FEA3
:100B200001E000F0FAFEC9E90001C9F808200AB0A6
:100B3000BDE8F08798500000007B00F0800070470F
:100B400010B542485421FFF792FC41485421FFF769
:100B50008EFC40485421FFF78AFC3F493B483C4A01
:100B60003F4B08603D490A603A491960531C0365D0
:100B7000481C1065012008653B48344A39A1784477
:100B800000F022F920B9384878440A3800F0C1F959
:100B900037482F4A35A1784400F016F920B9344877
:100BA00078440A3800F0B5F932482A4A2FA178442F
:100BB00000F00AF920B92F4878440A3800F0A9F962
:100BC00040232248DC000021224600F0D9F820B161
:100BD00025487844543800F09CF91D4822464023AB
:100BE000002100F0CDF820B121487844543800F0BD
:100BF00090F9184822461023002100F0C1F800287F
:100C000006D01C487844BDE81040563800F081B941
:100C100010BD104870B5006D20F001040B4800F0C5
:100C200049F90B4800F046F90A4800F043F909E099
:100C3000206D20F00105204600F03CF9204600F030
:100C400078F82C46002CF3D170BD00001814002059
:100C50006C140020C0140020A4010020A801002072
:100C6000AC01002072000000924F000077000000ED
:100C70007E4F00006A4F00000EB5CDE90001FFF77E
:100C8000A5FB029069460120ABBE0EBD08B56946C2
:100C900000900220ABBE08BD1FB58DE80700694675
:100CA0000520ABBE04B010BD1FB58DE80F0069462E
:100CB0000620ABBEF6E708B5694600900920ABBE3A
:100CC00008BD1CB5CDE9000169460A20ABBE1CBDBC
:100CD000704708B5694600900C20ABBE08BD000007
:100CE00000487047141500207546FFF7F9FFAE461F
:100CF00005006946534620F00700854618B020B528
:100D0000FFF784FABDE820404FF000064FF00007DF
:100D10004FF000084FF0000B21F00701AC46ACE8A3
:100D2000C009ACE8C009ACE8C009ACE8C0098D4610
:100D3000704770B50446051F00F034F90068002CB8
:100D400014BF446870BD002C18BFAC423CBF2046A5
:100D50006468F8D301680A18AA4218BF456003D135
:100D60002A6805461144016028684119A1421CBF48
:100D70006C6070BD6168696021680844286070BD5E
:100D800070B5C468A50713D0650211D4B2F5807F91
:100D900009D0B2F5007F06D0B2F5806F08D10123EB
:100DA00000F1240106E05D1E6FF07F46B54201D3DD
:100DB000012070BD0161C361416024F47061114381
:100DC000C160002070BD00002DE9F0410C460746CF
:100DD0001646104600F06EF82078611C61280AD093
:100DE000722802D077283CD102E00125002405E0DA
:100DF0000225042402E0082448F2020511F8010B40
:100E00002B2806D0622809D011F8010C74280AD0CA
:100E10000BE045F0030544F00204EFE745F004055C
:100E200044F00104EAE744F0100438462146FFF795
:100E300023FF411C15D00021316171604FF4007116
:100E4000F560F1617061200704D53046022200216F
:100E500000F022F9306D40F0010030653046BDE809
:100E6000F0810020FBE72DE9F0410D460646104CCD
:100E7000206DC10704D0410804D020F00104F7E739
:100E800022460EE0542000F0D8F807000ED0206D66
:100E900047F001010843542120653846FFF7E7FA7F
:100EA0003A4629463046BDE8F0418DE70020D6E7B6
:100EB000181400202DE9F04704464FF000094FF0C8
:100EC000FF37C568D4E90486A80707D0204600F09C
:100ED00093F93046FFF7DAFE002802DA3846BDE81B
:100EE000F087280502D54046FFF723FF4C21204616
:100EF000FFF7BDFA206D20F0010020654846EEE7BF
:100F000010B50446AFF300802046BDE81040FFF75F
:100F100069B910B500F0BAF9BDE8104000F0B0B9F9
:100F20004FF0013C50F8042B51F8043B9A4221D178
:100F3000A2EB0C03934313EACC1317D150F8042B04
:100F400051F8043B9A4215D1A2EB0C03934313EAE8
:100F5000CC130BD150F8042B51F8043B9A4209D121
:100F6000A2EB0C03934313EACC13DBD04FF0000049
:100F7000704700BFD01A01BAB1FA81F101F018012F
:100F800022FA01F0CB40C1F12001DBB2C0B2C01A9D
:100F90002CFA01F3D11A914311EAC311E6D170473B
:100FA00070470000004870471C15002070477047CC
:100FB0007047704738B504460A4600206946AFF3CB
:100FC0000080002808BF38BD02460099204600F086
:100FD00084F9012038BD012000F0D3B9F8B5AFF392
:100FE0000080054600200C46102000BF0646A819C8
:100FF000A0420DD9324669460020AFF300800700B9
:1010000008BF00F0BEF90098A04218BF0546C419F9
:10101000FFF7C8FF05600746F01D20F007004619DE
:10102000284600F053F9B44208BFF8BDA21B314670
:101030003868BDE8F84000F050B970B50646FFF7D3
:10104000B1FF056806F10B0020F00704B4429CBF15
:10105000002070BD2B466A68BAB11068A04210D358
:1010600004F1080188423CBF5068586007D35168BA
:10107000101941601168091B016058601460101D4F
:1010800070BD13465268002AE7D121462846FFF773
:1010900091FF0028DED170BD2DE9F04104461646CF
:1010A0000D464769007B80072ED03846FFF703FEC8
:1010B00050BB3EB3012E02D0022E25D104E02046C3
:1010C00000F025F905441DE03846FFF702FEE1680F
:1010D000002841F01001E16005DA204600F058F8E0
:1010E0000120BDE8F081C9030BD56268E16A914235
:1010F00000D81146A26911442269891A814200DD93
:1011000008460544002D01DA0220EAE7E16A60683A
:10111000E268814206D29103E06203D522F40031F5
:1011200041F01002A6690027AE4213DCE16A814259
:1011300001D90B4600E0034603EB060C2369ACEB38
:10114000030CAC4506DD814201D98C4600E08446A3
:101150009C4505D1A760276042F02000A5620DE004
:10116000AD1BE669AE1B8142A66000D90846C01AD5
:10117000281A20605819606022F0200003490840B6
:10118000E060002084F84870ABE70000BFCFD7FFD5
:10119000C16821F4001141F08001C160002181602B
:1011A000016070472DE9F047814614460E464FF026
:1011B000FF383248D5685769054209D03846A169D9
:1011C000FFF77FFD002811DB2C48C0430540E56098
:1011D0002B46324649463846FFF75EFDA16920F0AE
:1011E0000042B21A11440028A16103D02046FFF743
:1011F000CFFF4046BDE8F08770B504460569C06A78
:101200006168884200D80846E16821F42011E16055
:10121000C90312D5A84208D02246411B2846FFF731
:10122000C1FF10B14FF0FF3070BD0020E562C4E98E
:101230000150E06820F48030E060002070BD10B5FF
:101240000446C06820F02000E060A16AA0698842DE
:101250000DD02046FFF7D0FFE06820F4405040F06A
:101260001000E060A06AA0612069E062606044F262
:101270004001E0688843E06010BD000010000200FB
:10128000002801D000F01CB87047000010B50146DE
:1012900002A000F05DF8012010BD00005349475244
:1012A000545245443A2052656469726563743A2029
:1012B00063616E2774206F70656E3A200000000035
:1012C00001491820ABBEFEE72600020000210160A4
:1012D000C0E90110704710207047034640688C46F3
:1012E000002818BF88423CBF03464068F8D31868FE
:1012F0001844884207D00CF1030020F00700001DBD
:10130000411A521A0146081D0A60FFF712BD10B5B6
:101310000146C268900703D0900607D5886A0AE0A4
:1013200000F03EF801210160881E10BD8B694868FD
:1013300018440B69C01A91F848301BB191F8491054
:10134000401A10BD1103FCD50028FADD401E10BD67
:1013500070B505460C460A2000E06D1C00F018F838
:1013600035B128780028F8D102E0641C00F010F8AC
:1013700014B120780028F8D1BDE870400A2000F0B0
:1013800007B810B500F010F8BDE81040FFF778BFBF
:1013900008B569468DF800000320ABBE08BD00000B
:1013A000004870471415002010B5012805D0002111
:1013B00003A0FFF7CDFF012010BD09A1F8E7000051
:1013C00053494752544D454D3A204F7574206F662E
:1013D0002068656170206D656D6F72790000000096
:1013E0003A2048656170206D656D6F727920636F7A
:1013F00072727570746564005FEA400C08BF91F00A
:10140000000F4FEA8C234FEAC12243EA51514FEAC1
:101410001C5018BF00F5F0404FEA300018BF41F0F3
:1014200000415FEA6C5C00F02980BCF1FF3F08BF1F
:1014300040F080407047130C06BF12044FF0100CB0
:101440004FF0000C130E04BF12020CF1080C130F26
:1014500004BF12010CF1040C930F04BF92000CF1B5
:10146000020CD30F04BF52000CF1010C11464FF0D7
:101470000002A0F11F00A0EB0C00704711F0004F1C
:1014800008BF704731F000413FF4D5AF0B0C06BFE9
:1014900009044FF0100C4FF0000C0B0E04BF0902B2
:1014A0000CF1080C0B0F04BF09010CF1040C8B0F9D
:1014B00004BF89000CF1020CCB0F04BF49000CF1F2
:1014C000010CCCF12003A0EB0C0022FA03F302FA8A
:1014D0000CF241EA030100F10100704720F07F4C5B
:1014E00080EA030023F07F47ACEB070303F57C534E
:1014F00000F0004003F1FF032DE980494FEA154B4E
:1015000009B44FEA144325EA0B4E24EA03480FF2CC
:10151000042606EB132749083E785FEA320203FBF4
:101520000667C7F5000707FB06F64FEA54374FEA90
:10153000D64606F1020607FB066CCCF1005C4FEACA
:101540001C472CEA074C07FB06F40CFB06F504EBE2
:1015500015464FEA961634BF00204FF000404FEA80
:10156000D13706FB07FC4FEA1C4C0CFB0BF7D21BD8
:1015700003FB0CF761EB07010CFB0EF7B0EB074028
:1015800072EB17420CFB08F734BFA2EB0742B2EB39
:10159000074261EB17414FEA0C444FEA910706FB03
:1015A00007FC4FEA1C4C0CFB0BF7B0EBC74072EB8F
:1015B000573203FB0CF734BFA2EBC742B2EBC74272
:1015C00061EB57310CFB0EF7B0EBC70072EB5772B3
:1015D0000CFB08F734BFA2EBC702B2EBC70261EB0A
:1015E0005771039F4FEA816141EA921104EBCC04E9
:1015F0004FEAD1374FEA826206FB07FC42EA9012BB
:101600004FEA80604FEA1C4C0CFB0BF7D21B03FB2C
:101610000CF761EB07010CFB0EF7B0EB074072EB28
:1016200017420CFB08F734BFA2EB0742B2EB0742AC
:1016300061EB17414FEA8C554FEA910704EB9C246C
:1016400006FB07FC4FEA1C4C0CFB0BF7B0EBC7404A
:1016500072EB573203FB0CF734BFA2EBC742B2EB7D
:10166000C74261EB57310CFB0EF7B0EBC70072EBD2
:1016700057720CFB08F734BFA2EBC702B2EBC702EC
:1016800061EB577115EB4C254FEA816141EA9211EC
:101690004FEA82624FEAD13742EA901206FB07FC1A
:1016A00044F100044FEA80604FEA1C4C0CFB0BF73E
:1016B000D21B03FB0CF761EB07010CFB0EF7B0EB41
:1016C000074072EB17420CFB08F734BFA2EB07424E
:1016D000B2EB074261EB174115EB1C154FEA813164
:1016E00041EA92414FEA823242EA90424FEA803028
:1016F0004FEA0C7644F1000448EA03434EEA0B48F3
:101700004FF0000EB2EB080C71EB030724BF6246EA
:1017100039464EEB0E0E4FF0000B00185241494176
:101720004BEB0B0BB2EB080C71EB03077BF1000BDF
:1017300024BF624639464EEB0E0E4FF0000B0018E8
:10174000524149414BEB0B0BB2EB080C71EB030719
:101750007BF1000B24BF624639464EEB0E0E51EA78
:10176000020718BF46F0010616EB0E7655F100028F
:1017700054F1000103D5BDE88901BDE80088BDE84A
:101780008901BDE80048B619524141EB0101A3F1BE
:101790000103704780807F7E7D7C7B7A79787776C5
:1017A00076757473727171706F6E6E6D6C6C6B6A3E
:1017B0006A696868676666656464636362616160DC
:1017C000605F5F5E5E5D5D5C5C5B5B5A5A59595859
:1017D00058575756565555555454535352525251C3
:1017E000515050504F4F4F4E4E4D4D4D4C4C4C4B19
:1017F0004B4B4A4A4A494949484848474747474660
:10180000464645454544444444434343434242429B
:1018100042414141002B9C4630D477002BD01CB56F
:101820004FEA370703B44FF010004FF01001BAF140
:10183000000F06D0BCF1000FDCBF40F0080040F004
:1018400008014FF000000FBCBDE810400BF1010B88
:10185000BBF1010F08BF5FEA170722BF12F10102B7
:1018600011F101014FF0004143F1000300F000408D
:1018700043EA00007047F9D35708D0E746EA064626
:1018800013F1400F4FEA16461FDD13F1200FDFBFA3
:1018900016430A46002120335B42BED0C3F1200725
:1018A00046EA064602FA07F74FEA164646EA0706F0
:1018B000C3F1200722FA03F201FA07F721FA03F134
:1018C0004FF0000342EA0702A7E746EA020646EAAB
:1018D00006464FEA164646EA0106BCBF46EA0646F9
:1018E000360C4FF000034FF000024FF0000194E778
:1018F0002DE9804C9A46934670B491E8380007C8A9
:1019000031EA400C48BF34EA430C03D5FFF7E6FD4B
:10191000FFF780FFF0BCBDE8008C2DE9804C9A46B3
:10192000934670B491E8380007C810F0804F08BFA4
:1019300013F0804F03D100F005F8FFF76BFFF0BC08
:10194000BDE8008C20F07F4780EA030023F07F4C45
:1019500007EB0C03A3F57C5300F00040A3F1FE035A
:1019600092F0000F00F0B38095F0000F00F0778048
:101970002DE901494FEA11404FEA144621EA004897
:1019800000FB06FC24EA064708FB06F607FB08F8FE
:1019900000FB07F718EB06484CEB164C4FEA124BCE
:1019A00018EB07484FEA15464CEB174022EA0B4E5E
:1019B0000BFB06FC25EA06470EFB06F607FB0EFEB0
:1019C0000BFB07F71EEB064E4CEB164C4FF00006D8
:1019D0001EEB074E4CEB174B18EB0B0840F10000C9
:1019E00018EB0E0B58EB000840F100008F1A4FF077
:1019F00000013CBFC943661B14BFB5EB040C0021BA
:101A00003CBFC943F61B4FEA17444EEA8E0E27EA45
:101A100004454FEA1C4704FB07622CEA074C05FB10
:101A200007F70CFB05F604FB0CFC16EB074642EB34
:101A3000174216EB0C4642EB1C421BEB060658EB1A
:101A40000202414146EA9E0601D5BDE80189B61968
:101A5000524141EB0101A3F10103BDE801894FEAC5
:101A600014454FEA114724EA054621EA074C05FBD5
:101A700007F406FB07F70CFB06F105FB0CFC11EB6A
:101A8000074144EB17444FEA124711EB0C4144EB7A
:101A90001C4422EA074C05FB07F206FB07F70CFB88
:101AA00006F605FB0CFC16EB074642EB174216EB5D
:101AB0000C4642EB1C456A1854F1000148BF7047C0
:101AC000B619524141EB0101A3F10103704795F0B2
:101AD000000F37D04FEA11424FEA144721EA02467D
:101AE00024EA074C02FB07F106FB07F70CFB06F4A0
:101AF00002FB0CFC14EB074441EB17414FEA15477E
:101B000014EB0C4441EB1C4125EA074C02FB07F5A2
:101B100006FB07F70CFB06F602FB0CFC16EB074670
:101B200045EB174516EB0C4645EB1C42121951F1DB
:101B3000000148BF7047B619524141EB0101A3F1C2
:101B4000010370474FEA14454FEA114724EA05465E
:101B500021EA074C05FB07F106FB07F70CFB06F231
:101B60004FF0000605FB0CFC12EB074241EB17415E
:101B700012EB0C4251EB1C4148BF7047921841EBED
:101B80000101A3F10103704770B504460068816844
:101B9000C943C90717D1816821F00101816000F0B4
:101BA000E1FC05460AE000BF00F0DCFC401B022817
:101BB00004D920688068C043C00706D020688068C8
:101BC000C043C007F0D0002070BDA06A40F01000F4
:101BD000A062E06A40F00100E062012070BD10B533
:101BE0000146406A826A12F0500F05D0006A026B0B
:101BF000BDE8104008461047816A41F400718162D7
:101C000001688968C1F3424107290CD1017B51B9B0
:101C1000816A21F480718162816AC90403D4816A76
:101C200041F00101816200F027F910BD10B5406A52
:101C3000816A41F040018162C16A41F00401C162E0
:101C400000F01CF910BD10B5406A00F016F910BD87
:101C5000F8B500260446009600688168C943C907A4
:101C60002DD0816841F00101816016481649006855
:101C7000B0FBF1F000E0401E00900028FBD100F026
:101C800071FC054616E000BF00F06CFC401B02280A
:101C900010D920688068C043C0070BD0A06A40F00C
:101CA0001000A062E06A40F00100E06284F8246065
:101CB0000120F8BD20688068C043C007E4D100203F
:101CC000F8BD00008C00002040420F00FEE700201D
:101CD000704700207047000010B5002204490548F5
:101CE00002F018F80449034802F00EF8002010BD75
:101CF0000C0B0020480200200C07002010B5014604
:101D0000034802F001F8024801F0E2FF002010BD94
:101D100048020020094A10B5D2F8B822D2F814229D
:101D20000AB1012010BD0A460146044801F0F2FF45
:101D3000BDE81040014802F04BB800004802002006
:101D4000014800F0F7B900000402002030B590F817
:101D500040500124AC40C56B6C600468636043680C
:101D6000102B036803D099600068C26030BD9A6090
:101D70000068C16030BD704772B6FEE7F8B5002458
:101D8000009490F824202546012A12D0012280F8E0
:101D900024204A681F23072A0DD20668776B521E3B
:101DA00002EB820293409F430B6893401F4377638B
:101DB00019E00220F8BD06680D2A0AD2376BD21F3F
:101DC00002EB820293409F430B6893401F433763AB
:101DD00009E0F76A0D3A02EB820293409F430B68D9
:101DE00093401F43F7620A68072306680A2A0AD34A
:101DF000F7680A3A02EB420293409F438B68934094
:101E00001F43F76008E0376902EB420293409F43AB
:101E10008B6893401F4337610A68102A01D0112A4A
:101E200020D1124B02689A4217D193681B0219D431
:101E3000936843F4000393600968102912D10C4998
:101E40000C4A0968B1FBF2F101EB8101490000E0A5
:101E5000491E00910029FBD104E0816A41F0200174
:101E60008162012480F824502046F8BD00240140FE
:101E70008C00002040420F00704770477047000000
:101E80002DE9F0414FF0000704003D467ED0A06AE6
:101E9000002628B9E66284F82460204600F07EF827
:101EA0002046FFF771FEA16AC90600D420B1A06ADE
:101EB00040F01000A06269E0A16A21F4885141F06D
:101EC0000201A1626268E169237B0A4347EA430198
:101ED0000A43A1684FF48077B94209D0012907D09D
:101EE0005FF0000194F814C0BCF1010F02D00AE0C9
:101EF0003946F7E7F3B1A36A43F02003A362E36A2C
:101F000043F00103E3622368D3F804C02CF4694C66
:101F10004CEA010CC3F804C021688B68DFF870C07C
:101F200003EA0C0313438B60A168B9420BD001296B
:101F300009D00CE0DFF85CC0A3690CEB43330B4322
:101F400043F40061DFE7218A0D05A5F580152168BE
:101F5000CB6A23F470032B43CB62216889680E4B54
:101F60001940914208D1E662A16A21F0020141F0D4
:101F70000101A162BDE8F081A06A20F0020040F0FA
:101F80001000A062E06A40F00100E0620120F1E789
:101F9000FDF7E1FF00E0FFFFFE0E1FFF70B586B00A
:101FA000002506460095019502950395006819499C
:101FB00088422DD11849886940F400708861886989
:101FC00000F400700490886940F00400886188691A
:101FD000694600F0040004908020009003200190E6
:101FE0000E4800F0C9F90F4C0D48C4E900058015F2
:101FF000A560C4E90350800060612020C4E90605A3
:10200000204600F041F908B1FFF7B6FE346266627F
:1020100006B070BD002401400010024000080140DD
:1020200008000240040200202DE9F04789460446DA
:102030003B4900683B4F0E1D9046884201D0B84294
:1020400007D1306810F4702F03D001252846BDE871
:10205000F08794F8240001280CD0012084F8240093
:102060002046FFF7F5FD05004FF0000004D084F88E
:102070002400EBE70220EAE7A16A40F601629143FF
:1020800041F48071A1622168B94218D1326812F41A
:10209000702F14D0A16A41F48011A1623168490502
:1020A00005D5A16A21F4005141F48051A162A16AD1
:1020B000C9040AD5E16A21F00601E16206E0A26ADC
:1020C00022F48012A2624968E9E7E06284F8240001
:1020D000216A15488862216A1448C862216A144836
:1020E000086321686FF0020008602068816841F48D
:1020F00080718160216843464A464C31206A00F075
:10210000F1F820688168C1F342410729816803D052
:1021100041F48011816099E741F4A001FAE70000E1
:102120000024014000280140DF1B0008471C000874
:102130002D1C00082DE9F05FC16B0C6801680B686D
:10214000D0F840C0042202FA0CF2494DDFF824A175
:10215000494E4A4FDFF828B1DFF828E122422CD05F
:102160005A072AD50A68920603D40A6822F00402A4
:102170000A600168A94201D1042219E0514501D148
:10218000402215E0B14202D14FF4806210E0B94222
:1021900002D14FF480420BE0594502D14FF4802226
:1021A00006E0714502D14FF4800201E04FF08062F9
:1021B0002F4908394A60C16A3BE04FF0020808FA2B
:1021C0000CF818EA040F4FF000094FF0010235D067
:1021D0005FEA837832D50B689B0605D40B6823F041
:1021E0000A030B6080F821200168A94201D1022274
:1021F00019E0514501D1202215E0B14202D14FF43E
:10220000007210E0B94202D14FF400520BE0594580
:1022100002D14FF4003206E0714502D14FF40012B2
:1022200001E04FF00072124908394A6080F82090AE
:10223000816A00291AD0BDE8F05F0847082505FA31
:102240000CF5254212D01B0710D50B6823F00E03A6
:102250000B6090F84010C36B02FA01F15960826381
:1022600080F8212080F82090016BE2E7BDE8F09F24
:10227000080002401C0002403000024044000240BE
:10228000580002406C00024030B528B308C813491A
:1022900014221944B1FBF2F18900C1631049816332
:1022A000022141771A6843F6F0718A43D0E900149D
:1022B0002143D0E902452C43214304692143446969
:1022C00021438469214311431960002141630122A4
:1022D00042770177084630BD012030BDF8FFFDBFD1
:1022E0000000024070B5044690F820000025012847
:1022F0000CD0012084F8200094F821600020012EE9
:1023000006D084F820000225284670BD022070BD4A
:10231000022684F82160A0632068066826F0010682
:1023200006602046FFF712FDE06A00282068016879
:1023300002D041F00E0106E021F0040101602068A6
:10234000016841F00A0101602068016841F0010163
:102350000160D9E770B5044600F004F90546601C39
:1023600002D004480078044400F0FCF8401BA0426E
:10237000FAD370BD800000202DE9F84FDFF8B89146
:10238000002409F1040A0AF1040B23460F270BF17C
:10239000040EC9E00125A5402A40AA427DD1674E1E
:1023A000D1F804C0ACEB0608B44532D014DCBCF163
:1023B000030F3AD009DCBCF1000F2AD0BCF1010FA9
:1023C0001CD0BCF1020F31D11DE0BCF1110F17D0B0
:1023D000BCF1120F2AD119E0B8F5881F19D006DC1C
:1023E000B8F5803F15D0B8F5801F1FD111E0B8F5C2
:1023F000001F0ED0B8F5041F18D10AE0CB6815E015
:10240000CB681B1D12E0CB6808330FE0CB680C33A0
:102410000CE08B682BB1012B4FF0080303D0456112
:1024200004E0042302E0056100E00023FF2A01D854
:10243000064601E000F104064FEA840501D9A5F142
:102440002005D6F8008007FA05FC28EA0C0803FAF4
:1024500005F548EA0508C6F800804D68ED0062D52C
:10246000374DAE6946F00106AE61AD6924F0030652
:1024700005F001050095334D06EB050CDCF808501E
:10248000A607360F07FA06F825EA0805DFF8B88030
:10249000404503D14FF0000817E044E0DFF8AC807E
:1024A000404502D14FF001080FE0DFF8A48040451D
:1024B00002D14FF0020808E0DFF89880404502D1D1
:1024C0004FF0030801E04FF0040808FA06F848EA64
:1024D0000508CCF808804D68D9F80060ED034D463A
:1024E00001D5164300E096432E604D68DAF800608F
:1024F000AD03554601D5164300E096432E604D6866
:10250000DBF80060ED025D4601D5164300E096431E
:102510002E604D68DEF80060AD02754601D51643A9
:1025200000E096432E60641C0D682A46E5407FF467
:1025300031AFBDE8F88F0000000401400000111029
:10254000001002400000014000080140000C014062
:1025500000100140001401400AB1016170470904F4
:10256000FBE7000001488068704700008000002001
:102570000248816802781144816070478000002021
:10258000074810B5016841F010010160032000F018
:1025900073F80F2000F006F800F024F8002010BDBA
:1025A0000020024070B50D4D04464FF47A71287832
:1025B000B1FBF0F00A490968B1FBF0F001F00EF848
:1025C00048B9102C07D200222146501E00F034F8E2
:1025D00000206C6070BD012070BD000080000020F4
:1025E0008C0000200B4808B5816941F00101816130
:1025F000816901F001010091C16941F08051C1611F
:10260000C06900F0805000900348416821F0E0610B
:10261000416008BD0010024000000140002809DBB5
:1026200000F01F02012191404009800000F1E020EC
:10263000C0F8001170470000F0B40E4B1B680C4648
:10264000C3F30223C3F10705042D00D90425191D86
:10265000072901D2002300E0DB1E012606FA05F15E
:10266000491E214099409E40761E16403143F0BCE1
:1026700002F052BE0CED00E0064900F007020868C7
:102680004FF6FF03184040EA0220034A1043086057
:10269000704700000CED00E00000FA0510B50C06D4
:1026A00007D501F0070101EB810100EBC1002830E3
:1026B00005E001EB810100EBC10000F5B47099B2B7
:1026C00032B1012202730181190C4181002010BD39
:1026D00000220273C180F9E7704701EB810200EB31
:1026E000C202D0F8E802D26B01F021BD01EB8102F9
:1026F00000EBC202D0F8E802D2F87C2101F07ABDEA
:1027000070B504460B0601F0070000EB800104EBF6
:10271000C1014FF001024FF0000503D581F82920D7
:10272000283103E081F8695101F5B471087094F81B
:10273000A802012808D084F8A822206802F09AF99B
:1027400084F8A852002070BD022070BD70B5044608
:1027500001F00F006268904201D9012070BD0B06A4
:1027600001F0070000EB800104EBC1014FF0010212
:102770004FF0000503D581F82920283103E081F8C6
:10278000695101F5B4718D70087094F8A8020128A0
:1027900008D084F8A822206802F009FA84F8A85228
:1027A000002070BD022070BD2DE9F05F04685FEA73
:1027B000424C0B788D69B4F850C04FF000064BF6D0
:1027C0008F7948F2800A48F68F7B48F2C00E4FF4AA
:1027D00080672AD54FF0020808EBC308C44407EB12
:1027E0004C07E45BC4F30904A54203D32D1B8D61A0
:1027F00001D00BE08E61066836F8235005EA090522
:1028000085F4005545EA0A0526F82350520609D5F5
:102810000D78036833F8252002EA0B0242EA0E0223
:1028200023F8252084B30A8929E04FF0060808EB35
:10283000C308C44407EB4C07E45BC4F30904A54296
:1028400003D32D1B8D6101D00BE08E61066836F835
:10285000235005EA090585F4005545EA0A0526F8DE
:102860002350520609D40B78056835F8232002EA74
:102870000B0242EA0E0225F823202CB14A8949694D
:102880000068234602F002FD2046BDE8F09F2DE9D6
:10289000F05F054600680C465FEA426C16468B699D
:1028A0002278B0F850C048F68F774CF280094FF686
:1028B000FF7B4FF4004E4FF4806A4FF000017BD550
:1028C0004FF0020808EBC208E0440AEB480C30F86D
:1028D0000C00C0F30900834211D91B1AA3610FD069
:1028E000730407D52E6836F822303B4043EA0903CB
:1028F00026F8223094F82420012A50D04EE1A1611C
:10290000607810B1012813D01AE02868B0F8503070
:10291000184400EB0210B0F8042422F4F842A0F8A6
:102920000424B0F8042442F40042A0F8042407E090
:102930002868B0F85030184400EB0210A0F80414D6
:102940006278286812B1012A11D018E0B0F850104E
:102950000844217800EB0110B0F80C1421F4F84180
:10296000A0F80C14B0F80C1441F4004105E0B0F8E4
:1029700050201044227800EB0210A0F80C142178AB
:102980002846FFF7AAFE7004B8D521782A6832F8E5
:102990002100384040EA090022F82100FEE0626987
:1029A00002446261E2690244E2612369226A9A4256
:1029B00003D31846111A04E038E084F824100AB151
:1029C00010462162617811B1012923D02BE02968DA
:1029D000B1F850201144227801EB021101F20441B8
:1029E00048B13E280FD84208C30700D0521C0BEA5A
:1029F00082220A8017E00A8822F4F8420A800A88B4
:102A000042F40042F5E74209C30600D1521E4EEAE5
:102A10008222EEE72968B1F850201144227801EBB8
:102A20000211A1F8040483B22289B3E04FF0060832
:102A300008EBC208E0440AEB480C30F80C00C0F385
:102A40000900834211D31B1AA3610FD0730407D46A
:102A50002E6836F822303B4043EA090326F822303C
:102A600094F82420012A50D098E0A161607810B138
:102A7000012813D01AE02868B0F85030184400EB51
:102A80000210B0F8042422F4F842A0F80424B0F8AC
:102A9000042442F40042A0F8042407E02868B0F8B7
:102AA0005030184400EB0210A0F804146278286833
:102AB00012B1012A11D018E0B0F850100844217862
:102AC00000EB0110B0F80C1421F4F841A0F80C143C
:102AD000B0F80C1441F4004105E0B0F85020104467
:102AE000227800EB0210A0F80C1421782846FFF79A
:102AF000F4FD700452D42278296831F8220038405D
:102B000040EA090021F8220048E06269024462615B
:102B1000E2690244E2612369226A9A4203D31846B9
:102B2000111A216204E00AB11046216284F82410CF
:102B30006278296812B1012A22D029E0B1F8502028
:102B40001144227801EB021101F20C4148B13E28F8
:102B50000FD84208C30700D0521C0BEA82220A8019
:102B600016E00A8822F4F8420A800A8842F40042F9
:102B7000F5E74209C30600D1521E4EEA8222EEE773
:102B8000B1F850201144227801EB0211A1F80C0495
:102B9000628983B26169286802F096FB21782A680D
:102BA00032F8210048F6BF73184080F0300048F238
:102BB0008003184322F821000020BDE8F09F01F0B7
:102BC000070101EB810100EBC100D0F884017047DF
:102BD0002DE9F04104460F0601F0070000EB8001EB
:102BE00004EBC1014FF001064FF0000503D581F859
:102BF0002960283103E081F8695101F5B47108704A
:102C00000A61CB704A7802B1C881022B00D10D71E4
:102C100094F8A802012809D084F8A862206801F07D
:102C2000FBFD284684F8A852BDE8F0810220FBE7AE
:102C300070B50C4601F0070505EB850100EBC101FD
:102C4000C1E95F230022C1F8842181F8692181F85C
:102C5000685101F5B4716207006801F0FDFF0020C2
:102C600070BD70B504460D4601F0070061688842EA
:102C700001D9012070BD29064FF000064FF0010276
:102C800007D500EB800104EBC10181F82920283130
:102C900007E005EB850104EBC10181F8696101F5ED
:102CA000B4718A70087094F8A802012807D084F8DB
:102CB000A822206801F0B7FF680702D006E00220D2
:102CC00070BD04F52C71206801F06FFF84F8A862D4
:102CD000002070BD70B50C4601F0070505EB8501BD
:102CE00000EBC101C1E90F23012281F84C208B6464
:102CF00000234B6481F8292001F8285F62070068EF
:102D000001F0AAFF002070BD1FB50446006802F064
:102D1000B9FA000402D5204600F03CFD206802F01C
:102D2000B1FA40050CD5206830F8441F21F48061C9
:102D30000180204600F01EF90021204600F035F900
:102D4000206802F09FFA400405D5206830F8441F3F
:102D500021F480410180206802F094FA800405D5B6
:102D6000206830F8441F21F400510180206802F0EF
:102D700089FAC00414D5206830F8401F21F00401FE
:102D80000180206830F8401F21F0080101802046B2
:102D900000F003F9206830F8441F21F480510180CD
:102DA000206802F06FFA00053ED5226800206946CF
:102DB00032F8203021F81030401CC0B20828F7D378
:102DC00032F8400F40F001001080206830F8402FAA
:102DD00022F0010202802068B0F844205205FBD5A1
:102DE00030F8442F22F4806202800020236831F8FA
:102DF000102023F82020401CC0B20828F6D32068F9
:102E000030F8401F41F008010180206830F8441F6D
:102E100021F400610180206830F8401F41F0040176
:102E20000180204600F0F6F8206802F02BFA8005B9
:102E300008D5206830F8441F21F400710180204635
:102E400000F0AFF8206802F01DFAC00505D5206833
:102E500030F8441F21F4807101801FBD2DE9F0413D
:102E600086B0040004D094F8A902002520B108E03F
:102E7000012006B0BDE8F08184F8A852204600F099
:102E80005BF8032084F8A902206801F087FE04F1B2
:102E90001001142288466846FDF7B7FA94E80F003F
:102EA00001F0E6FD0226D0BB0021206802F004FA02
:102EB000002001270FE000BF00EB800104EBC101FF
:102EC00081F8297001F8280FC881CD700D614D611E
:102ED000401CC0B28D6161688142EDD8002011E0D4
:102EE00000EB800104EBC10181F8695181F86801B0
:102EF00081F86B51C1F87851C1F87C51401CC0B2C7
:102F0000C1F8805161688142EAD81422414668467E
:102F1000FDF77BFA94E80F0001F037FE10B184F85A
:102F2000A962A5E784F8245084F8A972206801F00A
:102F30002AFE00209DE7000008B500680B49884282
:102F400012D10B48C16941F40001C161C06900227E
:102F500000F40000009011461420FFF76DFBBDE85F
:102F600008401420FFF75ABB08BD0000005C004079
:102F70000010024070B5044680680125022801D087
:102F8000FEF7FAFE2946D4F8E80201F01CFAD4F85C
:102F9000E802BDE8704001F0D8B9D0F8E80201F0CD
:102FA000FCB9D0F8E80201F002BA10B5044690F876
:102FB000A80201280BD0012084F8A80284F824106C
:102FC000206802F07BF9002084F8A80210BD0220DE
:102FD00010BDD0F8E82200F52C71104601F0FFB9C1
:102FE00010B5044690F8A802012810D0012084F8FA
:102FF000A802206802F036F901212046FFF76CFB99
:10300000206801F0BEFD002084F8A80210BD022057
:1030100010BD000010B50446D0F8E80201F01EFA19
:10302000A069002804D00348016841F0060101604E
:1030300010BD000010ED00E02DE9F84305460078D2
:10304000354CC00754D0E0690026C00008D4E069C0
:1030500040F08050E061E069012600F0805000906F
:103060002E480168C90512D40168804641F4807178
:103070000160FFF777FA074605E000BFFFF772FA35
:10308000C01B642823D8D8F80000C005F6D5206AF4
:1030900010F4407021D0A98801F4407181421CD005
:1030A000206A1F49012220F440700A6000220A6051
:1030B0002062C00711D0FFF755FA074641F2883861
:1030C00008E000BFFFF74EFAC11B414502D90320BB
:1030D000BDE8F883206A8007F4D5206A696820F487
:1030E0004070084320621EB1E06920F08050E0612A
:1030F0002878800705D56068A96820F44040084317
:1031000060602878C00605D56068E96820F4800012
:10311000084360600020DBE70010024000700040C0
:10312000400442422DE9F0470F46050061D0434E6E
:10313000306800F00700B84209D2306820F007007C
:1031400038433060306800F00700B84251D1286839
:103150003B4C810712D5400703D5606840F4E0601E
:1031600060602878000703D5606840F460506060B4
:103170006068A96820F0F000084360602878C00704
:1031800028D06868012810D02168022810D089074B
:1031900000292EDA616821F0030101436160FFF725
:1031A000E1F9804641F288390DE021688903EFE7B3
:1031B0008901EDE7FFF7D6F9A0EB0801494502D9EF
:1031C0000320BDE8F0876068696800F00C00B0EB90
:1031D000810FEFD1306800F00700B8420BD930689A
:1031E00020F0070038433060306800F00700B84234
:1031F00001D00120E5E72878400705D56068E96837
:1032000020F4E060084360602878000706D5606815
:10321000296920F4605040EAC100606000F018F8AD
:103220006168084AC1F30311515CC840064908604F
:1032300006480068FFF7B6F90020C2E70020024008
:1032400000100240705A00088C000020840000200A
:1032500012A185B00FC98DE80F0014A0144A0068B0
:1032600004905168134801F00C03042B10D0082B74
:103270000ED1C1F38343C9031DF803000AD5516879
:1032800004AAC1F34041515C0A4A5043B0FBF1F03B
:1032900005B0704708494843FAE7000002030405F7
:1032A000060708090A0B0C0D0E0F10100102000092
:1032B0000010024000127A0000093D002DE9F84F8D
:1032C000040070D02078C04DC00749D06868C0F3B2
:1032D0008100012807D06868C0F38100022809D165
:1032E0006868C00306D52868800339D5606800285F
:1032F000E7D035E06068B0F5803F0BD010B1B0F595
:10330000A02F11D0286820F480302860286820F48D
:10331000802002E0286840F480302860606890B126
:10332000FFF720F906460AE0286840F4802028606C
:10333000F0E700BFFFF716F9801B642873D82868F0
:103340008003F7D50CE0FFF70DF9064605E000BF56
:10335000FFF708F9801B6428F0D828688003F7D4A9
:1033600020789A4E80074FF001094FF0000839D5B8
:10337000686810F00C0F07D06868C0F3810002285D
:1033800009D16868C00306D42868800714D520696D
:10339000012808D110E02069B0B1C6F80090FFF70D
:1033A000E1F8074605E00AE1FFF7DCF8C01B022858
:1033B000C4D828688007F7D52868616920F0F8002C
:1033C00040EAC10028600DE0C6F80080FFF7CAF8A7
:1033D000074604E0FFF7C6F8C01B022823D8286878
:1033E0008007F7D4207800072CD57948A169D9B196
:1033F000C0F80090FFF7B6F8074604E0FFF7B2F810
:10340000C01B02280FD8686A8007F7D571484FF4AF
:10341000FA510068B0FBF1F0009000BF0098411E27
:103420000091FAD20EE080E0C0F80080FFF79AF831
:10343000074604E0FFF796F8C01B022875D8686AB3
:103440008007F7D42078400760D5E8690027C000DE
:1034500008D4E86940F08050E861E869012700F08D
:10346000805000905C480168C90513D40168834608
:1034700041F480710160FFF775F8824606E000BFF5
:10348000FFF770F8A0EB0A0064284ED8DBF80000C4
:10349000C005F5D5E06801280AD008B1052813D089
:1034A000286A20F001002862286A20F0040002E067
:1034B000286A40F001002862E06841F2883B98B138
:1034C000FFF750F882460BE0286A40F004002862BB
:1034D000EEE700BFFFF746F8A0EB0A0159455AD8BE
:1034E000286A8007F6D50CE0FFF73CF8824605E035
:1034F000FFF738F8A0EB0A0159454CD8286A800735
:10350000F6D41FB1E86920F08050E861E06988B323
:103510006968C1F38101022944D00228C6F860809D
:1035200004D0FFF71FF8044638E034E0FFF71AF83C
:10353000074604E0FFF716F8C01B02282BD82868BE
:103540008001F7D4206AB0F5803F05D16868A16892
:1035500020F4003008436860D4E908010843696832
:1035600021F4741108436860C6F86090FEF7FAFF12
:10357000044606E025E000BFFEF7F4FF001B02282A
:1035800009D828688001F7D51BE000BFFEF7EAFFE5
:10359000001B022802D90320BDE8F88F28688001AB
:1035A000F4D40EE00128F7D06868226A00F4803174
:1035B000914204D1616A00F47010884201D0012068
:1035C000EAE70020E8E70000001002400000424265
:1035D000800442428C0000200070004010B5401E64
:1035E000B0F1807F01D3012010BD4FF0E024606175
:1035F0000F21601701F090FE0020A06107202061DC
:10360000002010BDFEE70000F0B500230A2430259D
:1036100037261F4611E000BFB4EB107F02D905EB3F
:10362000107C01E006EB107C01F813C001EB430CA9
:1036300000015B1C8CF80170DBB29342ECD3F0BD4F
:10364000F0B587B00DF1300C04469CE8E1008DF830
:103650001670ADF80C00ADF8146004958DE80E00FE
:10366000684600F011F8182269462046FCF7CDFEA6
:1036700007B0F0BD034B8032595C1144C9B201F070
:103680008FBE00006C5A000810B50446807D88B1DA
:103690003821204601F084FE0121204601F080FE01
:1036A0000C21204601F07CFE2046BDE8104006219A
:1036B00001F076BE3321204601F072FE3221204611
:1036C00001F06EFE2821E4E770B50D4606460024A1
:1036D00005E0295D304601F07DFE641CE4B2284619
:1036E000FCF774FEA042F4D870BD00003EB5002483
:1036F00011480094019402940E49846001600125F0
:103700000573047505614FF460214460C161FEF7E3
:10371000B7FB08B172B6FEE70720CDE900056946A0
:1037200002940548FEF72AFB002801D072B6FEE796
:103730003EBD000000240140B001002010B5002271
:103740000F49104800F0CCFC08B1FEF715FB0E49FC
:103750000C4800F0A9FE08B1FEF70EFB0B49094822
:1037600000F0CAFA08B1FEF707FB064800F0F2FEC7
:10377000002803D0BDE81040FEF7FEBA10BD0000DF
:1037800020000020480200206C0100207000002072
:10379000FEE7FEE72DE9F84F044640F68F7B48F63A
:1037A0000F7A4FF002094FF4806874E1B0F84410CA
:1037B00011F00F063AD030F8267039047DD530F874
:1037C000261001EA0B0141F0800120F8261006EBDB
:1037D000860004EBC00595F8740105F5B475002862
:1037E0006CD0E87802286AD02878226832F8201055
:1037F00048F68F73194048F2C003194322F820108D
:103800002878D4F800C03CF82010BCF850204904B7
:103810007ED509EBC000111808EB41003CF8000010
:103820008005800D009074D02A89D8E0C9062DD477
:10383000018801EA0A0141F400410180216804F194
:103840002805B1F850202B7809EBC300024408EB9F
:103850004200085AC0F309006064E16B0844E06369
:1038600000212046FEF739FF94F8240000289CD060
:10387000A869002899D194F82400216840F08000BC
:10388000A1F84C00002084F8240004E1018804F52C
:10389000B4750A0521D5B0F850202B78062101EB2C
:1038A000C3010A4408EB4201405A04F52C71C0F3ED
:1038B0000903EB61EA88206802E0ACE068E07AE0A6
:1038C00001F0E4FC2168088800EA0B0040F0800069
:1038D00008802046FFF77DFBDDE00904D5D501888F
:1038E00001EA0B0141F0800101802068B0F850200E
:1038F0002B78062101EBC3010A4408EB4201405A30
:1039000083059B0DEB6110D0696971B1EA8801E014
:1039100058E056E0206801F0B9FCE969686908449C
:10392000686100212046FEF7E1FE20680188090554
:103930002DD4B0F850100844296900F20C4051B160
:103940003E2910D84A08C90700D0521C4FF6FF7113
:1039500001EA82210FE0018821F4F8410180018809
:1039600041F4004107E04A09C90600D1521E4FF454
:10397000004141EA82210180206801884BF68F7264
:10398000114081F4405148F280021143018082E0ED
:10399000D4F800C0BCF850102A78062000EBC20012
:1039A000014408EB41003CF800008005800D0090C8
:1039B0001AD0EA8813E03A4629462046FEF7F4FE7C
:1039C000009011E0062101EBC000111808EB410046
:1039D0003CF800008005800D009005D06A89034600
:1039E0006046696901F052FCE96900980844E861A1
:1039F0006969009808446861A86918B12969009844
:103A0000814204D929782046FEF770FE03E029465A
:103A1000206801F021F938063DD506EB860004EB5D
:103A2000C001206830F8262002EA0A0242F400426F
:103A300020F8262091F82B002831032804D018B153
:103A4000022824D1F80522D42368B3F850200D7839
:103A500009EBC500024408EB4200185A8A69C0F31A
:103A6000090082420CD9121A8A610BD04A690244B9
:103A70004A61CA691044C861206801F0EDF80AE0A3
:103A800000208861E9B22046FEF727FE03E03A46AF
:103A90002046FEF7FCFE2068B0F8441009043FF50C
:103AA00085AE0020BDE8F88F70477047FEF760BD17
:103AB00030B593B028216846FCF7D9FC14210AA838
:103AC000FCF7D5FC002401200F94109411940104FC
:103AD00012948DE8130004904FF4E010CDE9081023
:103AE000022507956846FFF7E9FB08B172B6FEE7C5
:103AF0000F20CDE90A054FF48060CDE90C4002218A
:103B00000AA80E94FFF70EFB08B172B6FEE712206A
:103B10000F904FF40040CDE911040FA8FFF78CFA85
:103B2000002801D072B6FEE713B030BD70472DE912
:103B3000F041D0F8C032D0F8B822CAB101EB81050B
:103B400000EB85040026E7693FB103EBC5039B6BDF
:103B5000B7FBF3F503FB157323B1C2F81462002021
:103B6000BDE8F08100231A46E66100F080FCF6E72C
:103B70000220F5E770B50546D0F8B84200F07BFBAF
:103B8000C4F80C02D5F8B80248B1D5F8BC12D4F884
:103B90000402CA6804F503719047002070BD02203A
:103BA00070BD70B504460026812100F0B7FA0025EB
:103BB00001212046E56200F0B1FA82212046C4F8D6
:103BC0006C5100F0ABFA2564D4F8B80248B1D4F8CF
:103BD000BC0204F52E7440688047206800F017FE90
:103BE0002560304670BD10B5D0E9AE4159B194F8AA
:103BF0000002FF2807D08B6894F8012221469847DD
:103C0000FF2084F80002002010BD00000A2101807E
:103C1000004870479400002043210180004870470D
:103C2000E40000204321018000487047A0000020EC
:103C30004321018000487047280100202DE9F04110
:103C400004460026007C4FF40077012590B3402302
:103C500002228121204600F063FB4023E56202221C
:103C60000121204600F05CFB08230322822120462C
:103C7000C4F86C5100F054FB4FF40770256400F059
:103C8000C7FDC4F8B802F8B10546D4F8BC02006814
:103C900080470020C5F81402C5F81802207CD5F82A
:103CA000042298B140230121204600F045FB304614
:103CB000BDE8F081FFE73B4602228121204600F06B
:103CC0002FFB3B46E562CAE70126F0E73B46EAE701
:103CD00010B5D0F8B81269B1027C002AD1F80422DC
:103CE00005D04023012100F027FB002010BD4FF438
:103CF0000073F7E7022010BD02460220002902D01F
:103D00000020C2F8BC127047D0F8B802C0F8041204
:103D100000207047D0F8B802C0F81022C0F808128E
:103D2000002070472DE9FC410546D0F8B87200200C
:103D30008DF80000ADF80400064608780C4610F037
:103D4000600121D020293BD1E288AAB10006607829
:103D500007D5D5F8BC128B6839469847E2883946B2
:103D600026E087F80002A07987F80102E288394648
:103D7000284600F06AF828E0D5F8BC1260780022E6
:103D80008B682146984720E0607820B10A2809D046
:103D90000B2815D110E095F89C02032810D10222BF
:103DA00001A905E095F89C02032809D10122694682
:103DB000284600F064F808E095F89C02032804D037
:103DC0002146284600F036F802263046BDE8FC8140
:103DD00010B5D0F8B812A1B1D1F814220AB101205F
:103DE00010BD0122C1F81422D1F810220263B1F8EB
:103DF000102293B2D1F80822812100F038FB002074
:103E000010BD022010BD10B5D0F8B4225268904702
:103E1000002010BD134610B50A46002100F08CFAB0
:103E2000002010BD134610B50A46002100F01FFB0C
:103E3000002010BD10B50446802100F0FDFA204698
:103E4000BDE81040002100F0F7BA10B50323C0F818
:103E50005C21C0F89432C0F8602113460A46002164
:103E600000F06AFA002010BD10B505210023C0F84B
:103E700094121A46194600F05FFA002010BD10B5E2
:103E80000223C261C0F89432026213460A4600213E
:103E900000F0EDFA002010BD10B504210023C0F899
:103EA00094121A46194600F0E2FA002010BD0000F4
:103EB00010B50A46024903A000F0E2F8004810BD20
:103EC0000C05002043444320436F6E666967000081
:103ED00012200880004870474000002010B50A46B4
:103EE000024903A000F0CCF8004810BD0C050020EA
:103EF00043444320496E7465726661636500000047
:103F000004200880004870473C00002010B50A4695
:103F1000024903A000F0B4F8004810BD0C050020D1
:103F200053544D6963726F656C656374726F6E692B
:103F30006373000010B50A46024903A000F0A0F820
:103F4000004810BD0C05002053544D3332205669F3
:103F5000727475616C20436F6D506F727400000055
:103F600010B51A2008800A480168001D0468001D69
:103F70000068081809D008220649FFF745FB0549E3
:103F8000042210312046FFF73FFB0248801E10BD7F
:103F9000E8F7FF1F56000020F8B504460020ADF8F2
:103FA000000048880D46010A082948D2DFE801F0E0
:103FB0004704091747473C45D4F8B012207C0A68EB
:103FC00019E0207C02260028D4F8B40205D0C16A8A
:103FD00068468847014646703EE0816AF8E7C0B20D
:103FE00006282CD2DFE800F0030A1014181CD4F8BD
:103FF000B002426805E0694690471CE0D4F8B00280
:104000008268E2B1207CF6E7D4F8B002C268F8E733
:10401000D4F8B0020269F4E7D4F8B0024269F0E7DC
:10402000D4F8B0028269ECE7207C40B9D4F8B4023D
:10403000416B6846884701460EE0207C20B1294646
:104040002046FFF7F7FEF8BDD4F8B402016B6846CE
:104050008847014607204870BDF8000048B1EA884B
:1040600052B1824200D90246ADF800202046FFF747
:1040700006FFE8880028E6D12046FFF70DFFF8BDCF
:1040800070B5002300281ED00446002502E06D1CF8
:10409000EDB2641C2678002EF9D1022404EB45040D
:1040A00014801278CA545B1C0322CA5400245B1C7F
:1040B00006E0CA545B1CDAB28C54521CD3B2401CCA
:1040C0000278002AF5D170BD01004FF0000004D045
:1040D000012901D0022901D0022070470120704738
:1040E00010B580B1D0F8B43213B10023C0F8B432A7
:1040F00009B1C0F8B012012180F89C12027000F0E2
:10410000BFF8002010BD022010BD10B5D0F8C002CD
:10411000FEF71CFBBDE81040FFF7D6BF10B5D0F886
:10412000C002FEF7EDFABDE81040FFF7CDBF2DE964
:10413000F0411746044651B1D4F8B40242691AB1AD
:1041400094F89C02032851D00220BDE8F081D4F8F5
:104150009432002504F11400022B03D0042B3AD032
:10416000C3B33CE0D0E903639E4207D9F11AC160B2
:104170008AB239462046FFF755FE12E08068B0FB50
:10418000F3F103FB110199B9984211D3D4F89812B5
:1041900088420DD2002211462046FFF743FEC4F8A4
:1041A000985200231A461946204600F0C5F816E03A
:1041B000D4F8B402C16829B194F89C02032801D153
:1041C000204688478021204600F036F92046FFF738
:1041D0004BFE04E0FFE78021204600F02DF994F823
:1041E000A002012804D184F8A05201E020469047A3
:1041F0000020AAE770B51546044649B1D4F8B402C8
:1042000082691AB194F89C02032830D0022070BD54
:10421000D4F8941204F5AA70032902D005291ED0FF
:1042200027E0D0E903218A420BD9531AC36008461C
:10423000834200D303469AB229462046FFF7EAFD9F
:1042400017E0D4F8B402016929B194F89C0203285C
:1042500001D1204688472046FFF71EFE09E00020D6
:104260000146C4F89402204600F0E6F801E020463A
:104270009047002070BDD0F8C002FEF7A0BC00003F
:1042800010B504461C481D49C0F8E842C4F8C002F5
:104290000160082141600221816000218161C161CA
:1042A0000162FEF7DBFD08B1FDF766FD0022D4F8E0
:1042B000C0021823114604F53074FEF7EFF95823B5
:1042C000002280212068FEF7E9F9C0230022812125
:1042D0002068FEF7E3F94FF488730022012120687B
:1042E000FEF7DCF94FF48073002282212068FEF78C
:1042F000D5F9002010BD00002C110020005C00400A
:104300000A0601F07F01D0F8C00201EB810100EB49
:10431000C10002D590F82A00704790F86A017047F2
:1043200010B51C461346D0F8C0022246FEF750FCDA
:10433000BDE81040FFF7C8BE10B5D0F8C002FEF7C8
:1043400077FCBDE81040FFF7BFBE70B50022044601
:1043500040231146FFF7E4FF40260125C4F86461BD
:104360003346002280212046C4F85851FFF7D8FF79
:104370006662A56184F89C520020C4F894026060D3
:10438000C4F8A402D4F8B80228B1D4F8B4020021C9
:10439000426820469047002070BD90F89C12042986
:1043A00003D190F89D1280F89C120020704710B540
:1043B00090F89C12032904D1D0F8B412C96901B154
:1043C0008847002010BD01740020704710B5D0F858
:1043D000C002FEF7EAFDBDE81040FFF775BE70B5FC
:1043E000044600F52A70054600F04AF80120C4F89A
:1043F0009402B4F8AE02C4F8980294F8A80210F03F
:104400001F010AD001290DD0022910D000F080012F
:10441000204600F011F8002070BD2946204600F02B
:104420009EF8F8E72946204600F0CAF9F3E7294646
:10443000204600F01DF9EEE710B5D0F8C002FEF7F7
:1044400010FCBDE81040FFF73FBE10B5D0F8C00229
:10445000FEF7C6FDBDE81040FFF736BE90F89C128F
:1044600080F89D12042180F89C120020704710B53E
:10447000D0F8C002FEF72EFCBDE81040FFF724BEC6
:104480000A7802704A7842708A78CB7802EB03226D
:1044900042800A794B7902EB032282808A79C979BA
:1044A00002EB0121C18070470246002011B1C2F821
:1044B000B41270470220704710B5D0F8B42202241D
:1044C0001AB11268904700B90024204610BD0000C0
:1044D00070B50E461E4D897804462970012931D8E1
:1044E00094F89C0202280BD003280FD031462046B6
:1044F000FFF7A0FC29782046BDE87040FFF783BC99
:10450000D9B10320616084F89C0209E071B1606850
:10451000884212D0C1B22046FFF775FC297861604D
:104520002046FFF7C9FF02280CD006E0022084F8DD
:104530009C0220466160FFF766FC2046BDE87040A3
:10454000FFF7AABC31462046BDE87040FFF772BCB9
:104550009000002010B5FFF778FF002010BD2DE976
:10456000F0410A78002612F0600208D0202A01D01B
:10457000402A70D1D0F8B422926890476DE04B7811
:10458000002201250A2B66D2DFE803F0405D655763
:10459000650805652C29FFF7FFFC5EE00446888866
:1045A000D8B9C888C8B94888802816D200F07F07D3
:1045B00094F89C02032810D084F89E723946204655
:1045C000FFF704FF2046FFF767FC1FB1022084F8C5
:1045D0009C0242E084F89C523FE020463BE0FFF71B
:1045E00077FF3AE0CB88012B35D190F89C32012B34
:1045F00004D0022B02D0032B2DD104E082600122D3
:1046000000F1080116E00122011D13E090F89C2240
:10461000012A03D0022A01D0032A1CD1CA88022A07
:1046200019D1C560D0F8A41209B10321C1600222DA
:1046300000F10C01FFF723FC0FE0498801290CD1A0
:10464000C0F8A45211E090F89C32012B08D0022B44
:1046500006D0032B04D0FFF7EDFB3046BDE8F08118
:1046600049880129F9D1C0F8A422FFF715FCF4E725
:104670002DE9F0410A46044610780027097910F028
:1046800060030AD0202B01D0402B50D1D4F8B402C3
:1046900011468368204698478FE0C0F341100128F7
:1046A00006D05078D0B301282AD003283FD107E0A4
:1046B000D4F8B402114683682046BDE8F04118479B
:1046C00094F89C02022802D0032872D10AE071B348
:1046D00080296ED02046FFF7AFFE80212046FFF7ED
:1046E000ABFE6AE0508838B931B1802904D0D08857
:1046F00010B92046FFF7A0FE2046FFF7CDFB5CE097
:1047000094F89C020228E2D0032852D1508898BB2A
:104710004806F1D02046FFF7F8FCEDE7FFE794F8F4
:104720009C020026022803D0032842D112E040E078
:1047300009B180293DD1080601F07F0000EB80001F
:1047400004EB800101D5143101E001F5AA710222C8
:104750000E602AE0080601F00F0000EB800004EB79
:1047600080000AD5806920B301F07F0000EB800053
:1047700004EB800514350BE01FE0D0F85801C0B100
:1047800001F07F0000EB800004EB800505F5AA75C1
:1047900041B1802906D02046FFF7B2FD10B10120BB
:1047A000286000E02E60022229462046FFF767FBC2
:1047B00003E011462046FFF73DFB3846BDE8F08197
:1047C00070B5054608780C4610F0600003D020282C
:1047D00001D0402816D195F89C02012803D0022868
:1047E00001D003280ED1207901280BD8D5F8B402C6
:1047F000826828469047E188014306D12846FFF7A2
:104800004BFB02E02846FFF715FB002070BD704708
:10481000004870470C0F00202DE9F0470C78002667
:1048200030F8243048F68F121340CA78002A7DD021
:10483000012A7CD0022A02D0032A7FD0012648F226
:104840008002134320F824300D7830F8254048F6D4
:104850008F731C402C43144320F825400D7B48F2F5
:10486000C00C48F6BF744CF280074BF68F79EDB35D
:1048700091F80080C24630F8285048F280181D4058
:1048800045EA080520F82A50B0F8505091F8008009
:10489000054405EB0815B1F8088028F00108A5F8D3
:1048A0000084B0F8505091F80080054405EB0815DD
:1048B000B1F80A8028F00108A5F808844D78002D89
:1048C0000D7830F825804FEA48487DD0B8F1000FC8
:1048D00007DA30F8258008EA030848EA070820F8D4
:1048E00025800F7830F827506D0600E02CE006D5C3
:1048F00030F827501D4045EA0C0520F82750CB78AA
:104900000D78012B30F8253003EA040301D083F041
:104910002003134320F825300B7830F8231001EAE8
:104920000901114320F82310304602E003E008E0BB
:1049300004E0BDE8F08743F4007380E743F4C0630C
:104940007DE743F480637AE74D782DB3B0F850509B
:104950000F78054405EB0715CF8827F00107A5F868
:1049600000740F7830F827506D0606D530F82750C0
:104970001D4045EA0C0520F82750CB78012B06D0C6
:104980000B7830F82310214081F02001C9E70B7823
:1049900030F823102140C4E7B0F850400D780444AB
:1049A00004EB0514CD8825F00105A4F80854B0F8EF
:1049B00050400D78044404EB05140D6904F20C44D6
:1049C00075B13E2D14D800E030E04FEA550CED07EC
:1049D00001D00CF1010C4FF6FF7505EA8C2511E0B2
:1049E000258825F4F8452580258845F4004509E00B
:1049F0004FEA551CED0601D1ACF1010C4FF4004516
:104A000045EA8C2525800D7830F82540640405D5CD
:104A100030F825401C403C4320F825400B7830F806
:104A2000231001EA090181F440517AE7B8F1000F3F
:104A300007DA30F8258008EA030848EA070820F872
:104A400025800F7830F827506D0606D530F82750AE
:104A50001D4045EA0C0520F827500D7830F8253028
:104A600003EA090383F44053134320F825308EE70B
:104A7000002070472DE9F04391F80C804F780A78B8
:104A800048F6BF7C4BF68F7948F2800348F2C005A8
:104A90004CF2800648F68F74B8F1000F28D0002F32
:104AA00030F822704FEA474748D0002F05DA30F837
:104AB00022702740374320F822700A7830F822709D
:104AC0007F0605D530F8227027402F4320F822704A
:104AD0000D7830F825202240324320F825200C782C
:104AE00030F8242002EA0C021A4320F824201AE0AD
:104AF0007FB130F82260760605D530F82260264076
:104B00002E4320F822600A7830F8221001EA0C01C6
:104B10000EE030F822506D0405D530F822502540C3
:104B2000354320F822500A7830F8221001EA0901B2
:104B3000194320F822100020BDE8F083002F05DA89
:104B400030F822702740374320F822700A7830F876
:104B50002260760605D530F8226026402E4320F8E4
:104B600022600E7830F8262022402A4320F82620A2
:104B70000C7830F8242002EA09021A4320F8242095
:104B8000C1E70020704700207047012120F8401F36
:104B900000210180818001820846704730F8401F63
:104BA00021F43F410180002070470020704730B55C
:104BB0000A7BB2BB4A7848F68F7548F28004C2B1CE
:104BC0000B7830F82320520607D530F823202A40EE
:104BD00048F2C0052A4320F82320CA78012A20D0B1
:104BE0000A7830F8221048F6BF73194081F020018E
:104BF00014E00A7830F822305B0407D530F8223010
:104C00002B404CF280052B4320F822300A7830F8F4
:104C100022104BF68F73194081F44051214320F844
:104C20002210002030BD10B54A780978002A48F2D9
:104C3000800330F8212005D048F6BF74224082F06E
:104C4000100204E04BF68F74224082F480521A4323
:104C500020F82120002010BD2DE9F0470E464B78AA
:104C6000097B04464FF0000948F68F7248F2800A2B
:104C70004FF6FF774FF40048012B09D000296ED082
:104C8000F07802286CD001286BD00120BDE8F087B5
:104C9000B5693069854200D90546C9B1F17848F255
:104CA0008013022923D0317834F8210010401843B2
:104CB00024F82100306A401B3062307834F820102C
:104CC000490671787ED500297DD001297CD03FE14D
:104CD000ABB2F2882046716900F0F6FAB4F85000E1
:104CE0003178204400EB0110A0F80454EAE0316A66
:104CF00081426AD9317834F821001040184324F8F1
:104D00002100306A401B3062307834F820104906A8
:104D100071786CD511B1012924D02AE0B4F8501073
:104D2000214401EB001000F20C404DB13E2D0FD894
:104D30006908EA0700D0491C07EA8121018018E0D0
:104D4000018821F4F8410180018841F40041F5E730
:104D50006909EA0600D1491E48EA8121EEE79CE193
:104D6000BCE126E2B4F85020111901EB0010A0F8C4
:104D70000C547289ABB22046716900F0A5FA7069D3
:104D8000284470613169306A884202D9401B306220
:104D900002E00546C6F82090707800287CD1B4F86F
:104DA00050003178204400EB011000F204406DB156
:104DB0003E2D13D86908EA0700D0491C07EA812173
:104DC000018012E001E19BE0BBE084E0018821F476
:104DD000F8410180018841F40041F1E76909EA06E0
:104DE00000D1491E48EA8121EAE7328965E011B124
:104DF000012921D027E0B4F85010214401EB001024
:104E000000F204404DB13E2D0FD86908EA0700D0EA
:104E1000491C07EA8121018015E0018821F4F8414D
:104E20000180018841F40041F5E76909EA0600D1F3
:104E3000491E48EA8121EEE7B4F85010214401EB05
:104E40000010A0F804543289ABB22046716900F01A
:104E50003BFA7069284470613169306A884202D92E
:104E6000401B306202E00546C6F8209070780028AA
:104E70007ED1B4F850003178204400EB011000F2EC
:104E80000C4055B13E2D10D86908EA0700D0491CE6
:104E900007EA812101800FE072E0018821F4F841E6
:104EA0000180018841F40041F4E76909EA0600D174
:104EB000491E48EA8121EDE77289ABB2204671694B
:104EC00000F002FA317834F8210048F6BF72104041
:104ED00080F03000C0E1327834F8220048F68F6369
:104EE000184040EA0A0024F82200B4F85000327852
:104EF000204400EB02108BB2A0F804343289DDE7C5
:104F0000B4F85010214401EB001000F20C404DB1F8
:104F10003E2D0FD86908EA0700D0491C07EA812115
:104F2000018015E0018821F4F8410180018841F4F5
:104F30000041F5E76909EA0600D1491E48EA8121E6
:104F4000EEE7B4F85020111901EB0010A0F80C5452
:104F50007289ABB22046716900F0B6F970692844D5
:104F600070613169306A884203D9401B306203E0C6
:104F70006EE00546C6F82090002DA3D0707858B199
:104F800001287FF41EAFB4F850003178204400EBC4
:104F90000110A0F8045428E7B4F8500031782044F8
:104FA00000EB011101F204413E2D06D86808EA0722
:104FB00000D0401C07EA802005E06809EA0600D11D
:104FC000401E48EA802008800FE711B1012921D056
:104FD00027E0B4F85010214401EB001000F2044027
:104FE0004DB13E2D0FD86908EA0700D0491C07EAE9
:104FF0008121018015E0018821F4F84101800188B8
:1050000041F40041F5E76909EA0600D1491E48EA82
:105010008121EEE7B4F85010214401EB0010A0F814
:1050200004543289ABB22046716900F04DF97069C1
:10503000284470613169306A884202D9401B30626D
:1050400002E00546C6F82090002D96D0707858B141
:1050500001287FF420AFB4F850100819317800EB24
:105060000110A0F80C5427E7B4F850003178204420
:1050700000EB011101F20C413E2D06D86808EA0749
:1050800000D0401C07EA802005E06809EA0600D14C
:10509000401E48EA802008800EE7B16930698142ED
:1050A00002D9091AB161B5E00846C6F81890B1E016
:1050B000088820F4F8400880088840F400400BE09D
:1050C0003E2875D84208C00700D0521C07EA82204B
:1050D00002E000BF48EA82200880B5E093B9B4F846
:1050E00050003178204400EB0110316900F2044097
:1050F00069B13E2913D84B08C90700D05B1C07EAE9
:1051000083210180707888B1012832D03AE001888B
:1051100021F4F8410180018841F40041F1E74B0995
:10512000C90600D15B1E48EA8321EAE7B4F85000C3
:105130003178204400EB0110316900F20C4049B194
:105140003E290FD84B08C90700D05B1C07EA832112
:10515000018017E0018821F4F8410180018841F4C1
:105160000041F5E74B09C90600D15B1E48EA8321DF
:10517000EEE7B4F850100819317800EB0110318ACD
:10518000A0F80C14F069A8B3317834F82100430476
:1051900001D5430603D444F24003184254D134F8F5
:1051A0002100104048F2C002104324F821004BE0D7
:1051B0003CE0B1693069814202D9091AB16102E06B
:1051C0000846C6F818908BB9B4F8501032782144CC
:1051D00001EB021101F2044168B13E2813D84208E4
:1051E000C30700D0521C07EA82220A80717889B175
:1051F000012921D028E00A8822F4F8420A800A888E
:1052000042F40042F1E74209C30600D1521E48EAC7
:105210008222EAE7B4F850103278214401EB0211FF
:1052200001F20C4100287FF44BAF41E74209C00670
:105230007FF450AF521E4DE7B4F850201119327868
:1052400001EB0211A1F80C04317834F821004BF67F
:105250008F72104080F4405040EA0A0024F8210088
:10526000002013E50021A0F844104FF43F41A0F8BE
:1052700040100020704700000148FDF745BD0000C8
:105280002C110020B0F844007047000010B500EB6E
:1052900042005C0800F5806009D000BF30F8042BA4
:1052A00001F8012B120A01F8012B641EF6D1DA076E
:1052B00001D00088087010BD0020704711B980210E
:1052C000A0F84C100020704710B55B1C00EB4200AA
:1052D0005B0800F5806009D011F8012B11F8014B33
:1052E00042EA042220F8042B5B1EF5D110BDFEE734
:1052F000490050EAC12018BF04204A0D18BF40F0F1
:10530000010040F2FF72B2EB515F08BF40F00200B3
:10531000012808BF052070470907090E002804DB93
:1053200000F1E02080F80014704700F00F0000F159
:10533000E02080F8141D704730380A2801D201207F
:1053400070470020704713B501216846FCF7E2FC66
:1053500000981CBD2DE9F04117460E460546002475
:105360000DE0686826FA04F202F0010230F8141029
:10537000286850F82400FDF7EFF8641CE4B2BC4242
:10538000EFD3A98A01222869FDF7E6F80120FCF78E
:10539000E1FFA98A2869BDE8F0410022FDF7DCB8E9
:1053A00070B50D460446818980680022FDF7D4F867
:1053B000A07D30B1082229462046BDE87040FFF7A5
:1053C000C9BF290904222046FFF7C4FF05F00F01D9
:1053D0000422F1E770B50D460446818980680122F8
:1053E000FDF7BAF8A07D30B1082229462046BDE875
:1053F0007040FFF7AFBF290904222046FFF7AAFF3C
:1054000005F00F010422F1E78AB0FDF7B9F8FEF7C5
:105410004FFB4548816941F010018161816901F0CC
:1054200010010091816941F004018161816901F0FD
:1054300004010091816941F008018161816901F0F5
:1054400008010091416941F0010141614069002278
:1054500000F00100009011460B20FDF7EDF80B2045
:10546000FDF7DCF8FEF742F9FEF768F901222F4953
:105470002F48FCF7D9FD4FF480602E4B8200CDE918
:1054800000230021294ACDE90201083202F1080176
:1054900004A8FEF7D5F82648182204A93C30FAF7EC
:1054A000B4FF224C244E254F40F6FF754FF47A7816
:1054B000206840F6E4414843B0FBF5F000F0F6F90F
:1054C00032463B4600F09AF800F066F8606000F063
:1054D00055FA02460B461AA0FAF7AAFE606800F0D9
:1054E0004DFA024612480B461AA13030FAF7ACFECC
:1054F0000F48002211463C30FEF7BCF80C4817A1BB
:105500003C30FEF7E1F80A48002201213C30FEF76A
:10551000B1F80749303101F10C00FEF7D5F84046EB
:10552000FCF718FFC4E70000001002400000002054
:10553000B0010020001001409A9999999999094069
:105540004F646C65676C6F73633A202566322E3347
:105550003A0A000025322E33660000004F646C6565
:10556000676C6F7363205B636D5D3A0010B5002953
:105570000AD00878002807D005487844FBF7D0FC0B
:10558000002801D0002010BD0248784410BD000062
:10559000C6050000BE05000021F00042A2F16052E5
:1055A000B2F5801F01F0004328BFD2F17F6C0BD908
:1055B0005FEA001C43EAC20242EB507018BF70471A
:1055C00028BF20F001007047B2F5801FBCBF18460D
:1055D00070474FEA410C1CF5001F02D2084600F04C
:1055E0003EBA70B500F075F900000089FFF7F6BF0C
:1055F0004FF00040A0F58000704700002DE9C04149
:1056000030B4DFF8A0C23CEA111418BF3CEA13140E
:1056100000F0EC8081EA03051CEA111444EAD57419
:1056200018BF1CEA131500F0C780A4EB05044FF067
:10563000004545EAC12145EAC32341EA505143EA06
:10564000525304F17F74994204F500344FEAC020AC
:105650004FEAC22208BF904200F09C804FEA1365D7
:105660000FF24016765D4FEA134506FB05F7C7F1CA
:10567000807706FB07F74FEAD737A7FB0368764228
:10568000C8F58038A7FB06CE38BFA8F1010807FB94
:1056900008E64FF0000EA6FB028CE6FB03CEDCF121
:1056A000000CCEF1004E38BFAEF1010EA6FB0C5837
:1056B0004FF000074FF00005E6FB0E87A1FB08C680
:1056C000A0FB07CE16EB0E0645F10005E1FB0765D2
:1056D00015F1E04E7EBFA4F580345FEA46066D41C9
:1056E00016F1800745F100054FEA17274FEA0666D5
:1056F00047EA0567A6F1DE46B6F1805F4FEA152559
:105700001FD9384624F0010C05EBC471BCF1FE6FC3
:1057100001EB0C1102D8F0BCBDE8008124425CBF53
:1057200001F5801E9EEAC47F02D4F0BCBDE8008172
:10573000244238D4F0BCA1F1C041BDE8004100F0E2
:1057400016B94FEAD22242EA43524FEAD323A7FBCB
:1057500002864FEAD02040EA415007FB03661EEA6A
:105760000E0F4FEAD12105FB026658BFA6EB00568B
:10577000B6EB00564FEA520E4EEAC37E18EB0E0E01
:1057800056EB530EBDD518EB02085E417F1C55F158
:105790000005B6E74FF480154FF000074FF0000604
:1057A0004FF00008ADE7F0BC4FF0000001F1C04140
:1057B00001F00041BDE8008111EA0C1F0CEA13154D
:1057C00000D00CE013EA0C1F00F025804FF0000021
:1057D000F0BC81EA030101F00041BDE80081F0BCAA
:1057E000BDE8004181EA030100F0C1B8F0BCBDE8AA
:1057F000004170B500F06DF8097EFC3E00F007B87E
:1058000081EA03014FF0000001F00041704781EA96
:10581000030100F0ACB8F0BCBDE800414FF000005F
:1058200021497047FFFDFBF9F7F5F4F2F0EEEDEBDF
:10583000E9E8E6E4E3E1E0DEDDDBDAD8D7D5D4D38E
:10584000D1D0CFCDCCCBCAC8C7C6C5C4C2C1C0BFDA
:10585000BEBDBCBBBAB9B8B7B6B5B4B3B2B1B0AFE0
:10586000AEADACABAAA9A8A8A7A6A5A4A3A3A2A1C4
:10587000A09F9F9E9D9C9C9B9A999998979796957F
:1058800095949393929191908F8F8E8E8D8C8C8B1B
:105890008B8A8989888887878685858484838382A3
:1058A000828181800000FF070000F87FB0FA80F35A
:1058B00010FA03F10AD0C3F11D0303F580634FEA28
:1058C00041504FEA035202EBD12170474FF00000E4
:1058D00070470EF1020E2EF0030E5EF8046B364296
:1058E00005D4012A43EB030515F5001F12D8012842
:1058F00041EB010C1CF5001F0CD80ED14FEAD17CF6
:1059000015F5001F0CEB4C0C0CF1020C08BF4CEB16
:10591000D37C04E04FF0080C01E04FEAD37C0CEBA1
:105920004C0526FA05F606F00706B6F1040C06D279
:105930000EEB860CBDE870404CF0010C6047DFE8D0
:105940000CF0090B02024FF000414FF00000A1F5EE
:10595000002170BD19461046012851EB010418BF03
:10596000D4F5001484BF002001F0004170BD080888
:10597000A0F500114FEA31017047000043004FEAE3
:10598000D30C4FEA3C0C43401FBF40070CF1605161
:1059900013F0FE4F70471CF0006F03D100200CF095
:1059A000004170470CF0004343EA507010B540EAE4
:1059B000CC0000F00EF800BF000000924FEA00019A
:1059C000FFF7D5BF4FF000414FF00000A1F50021D7
:1059D00070470EF1020E2EF0030E5EF8044B2442C7
:1059E00004D44FEA4102B2F17F4F11D84FEA40038D
:1059F000B3F17F4F0CD80ED14FEAD07CB2F17F4F7C
:105A00000CEB4C0C0CF1020C08BF4CEBD17C04E00D
:105A10004FF0080C01E04FEAD17C0CEB4C0324FA68
:105A200003F404F00704B4F1040C06D20EEB840C6A
:105A3000BDE810404CF0010C6047DFE80CF00708AF
:105A400002024FF00040A0F5800010BD0846420061
:105A500018BFD2F1807288BF00F0004010BDFF2156
:105A600041EAD050C0057047FAF704BE004010501C
:105A700000000000000000000102030406070809FE
:105A800002400000000000A00000000005400000EF
:105A9000000000C8000000000C4000000000409C16
:105AA00000000000194000000020BCBE0000000003
:105AB00034400000BFC91B8E00000004B540000048
:105AC000504BCFD06607E2CF010000006C410000D0
:105AD0003E8251AADFEEA73401000000D942000047
