:020000040800F2
:1000000010070020A10100081B2100088D1F000817
:10001000192100082F130008BB220008000000006F
:100020000000000000000000000000005522000851
:1000300031130008000000001D21000857220008AD
:10004000BB010008BB010008BB010008BB010008A0
:10005000BB010008BB010008BB010008BB01000890
:10006000BB010008BB010008BB010008BB01000880
:10007000BB010008BB010008BB010008BB01000870
:10008000BB010008BB010008BB010008BB01000860
:10009000BB010008BB010008BB010008BB01000850
:1000A000BB010008BB010008BB010008BB01000840
:1000B000BB010008BB010008BB010008BB01000830
:1000C000BB010008BB010008BB010008BB01000820
:1000D000BB010008BB010008BB010008BB01000810
:1000E000BB010008BB010008BB01000800F002F8DA
:1000F00000F047F80AA090E8000C82448344AAF17B
:100100000107DA4501D100F03CF8AFF2090EBAE878
:100110000F0013F0010F18BFFB1A43F0010318473B
:1001200088270000A8270000103A24BF78C878C1AB
:10013000FAD8520724BF30C830C144BF04680C60ED
:10014000704700000023002400250026103A28BF35
:1001500078C1FBD8520728BF30C148BF0B60704739
:10016000662902F0D382002070471FB500F0A2FB81
:1001700004000020002102F09BF9E0601FBD10B5D3
:1001800010BD00F097FC1146FFF7EFFF02F01CF9DD
:1001900000F0B5FC03B4FFF7F2FF03BC00F0F8FC7D
:1001A0000948804709480047FEE7FEE7FEE7FEE70B
:1001B000FEE7FEE7FEE7FEE7FEE7FEE70448054947
:1001C000054A064B70470000B9220008ED00000800
:1001D0001001002010070020100300201003002051
:1001E0000FB41CB5074B06AA7B44694600900598DE
:1001F00000F047FB0020694600F056FB1CBC5DF890
:1002000014FB0000BD06000070B504468569006857
:10021000C10601D5302600E02026C00707D070BDFA
:10022000D4E9012130469047206A401C20626D1EAF
:10023000F6D570BD70B5044685690078C00707D152
:1002400070BDD4E9012120209047206A401C206223
:100250006D1EF6D570BD2DE9F0474FF0000A8946B6
:100260000446C0F820A02046E1688847002876D0E0
:10027000252806D0D4E901219047206A401C20623D
:10028000F1E7E168204600258847C4F81CA006462F
:100290000027C4F818A02A2E09D0304602F032F800
:1002A00038B304EB8708303EC8F8186019E059F8F5
:1002B000041B204604EB87029161E1688847012F07
:1002C000064618D1E069002820DA25F020051DE057
:1002D000D8F8180000EB800006EB40003038C8F872
:1002E00018002046E1688847064602F00BF800280F
:1002F000EED1012F0AD02E2E08D12046E168884782
:100300007F1C0646022F45F02005C4DBA0690028AB
:1003100003DA404245F00105A061E80701D025F06D
:100320001005B6B1A6F14100192802D8203645F4CF
:1003300000654A463146204625604D46FFF710FFCE
:1003400058B1012806D0ED1D25F0070000F108097D
:1003500089E704E005F1040985E730468AE7206A69
:10036000BDE8F08710B5431C02E010F8011B71B125
:100370008107FAD14FF0013202C88C1A8C4314EA7B
:10038000C211F9D0C01A0A0603D0C01E10BDC01A8F
:1003900010BD0A0401D0801E10BD0902FCD0401E11
:1003A00010BD10B5203AC0F00B80B1E81850203ACB
:1003B000A0E81850B1E81850A0E81850BFF4F5AF05
:1003C0005FEA027C24BFB1E81850A0E8185044BF8F
:1003D00018C918C0BDE810405FEA827C24BF51F8FC
:1003E000043B40F8043B08BF7047D20728BF31F8F0
:1003F000023B48BF11F8012B28BF20F8023B48BF41
:1004000000F8012B70474FF0000200B513469446E8
:100410009646203922BFA0E80C50A0E80C50B1F15C
:100420002001BFF4F7AF090728BFA0E80C5048BF70
:100430000CC05DF804EB890028BF40F8042B08BF0E
:10044000704748BF20F8022B11F0804F18BF00F80A
:10045000012B704770477047704770472DE9FF4F79
:100460000C461E464FF0FF378BB0D2E90001DDF895
:1004700060800A908A46C1F30A5505B93D460021BD
:1004800008464FF00000BAF1000F00F4400005DA12
:1004900000EB80004FF4400101EA50004FEA905910
:1004A000B9F1010F00DDB9460A9850EA4A000ED0B2
:1004B00044F61050A5F2FF3545432F14B8F1000F54
:1004C0001ED07542291E1EDDC9F100021CE0B8F1E4
:1004D000010F4FF0000001D0302103E0F24305E0AE
:1004E0002154401CB042FBDB304600220021215445
:1004F0000B99C1F80880C1E900200FB0BDE8F08F6A
:10050000BD1B6D1CDEE74A4600DA694206A800F012
:100510005BFA06AB93E8070003AB83E8070050469D
:100520000A9900F03CFB8DE80700A0F500501F3849
:1005300000900398002D0ADD42F21F014A4608444C
:10054000002303A90390684600F0A5FD09E0A0F58B
:1005500000504A461F38002303A90390684600F064
:10056000AFFD8DE807000004000C03D04FF0FF3012
:10057000410800E01046B8F1000F03D000220092BD
:1005800015461EE0751E05D400F098F9303262550C
:100590006D1EF9D5B3460122084302D000227F1C0C
:1005A00004E02078302801D100227F1E002A09971C
:1005B00084D01DE0112D07DA00F080F93032625549
:1005C0006D1C50EA0102F5D1084302D00098C8B171
:1005D0000EE00021681E05E0235C625C6354225437
:1005E000401E491C8142F7DBAB46A81B401E099008
:1005F000002004F80B000B98099AC0F80880C0E9A5
:10060000002B7AE711264FF0000857E72DE9F04F4D
:1006100088460446D21D22F0070191B0D1E90001BD
:10062000CDE90A0101F04AFE02460B98C00F01D045
:100630002D2007E02068810701D52B2002E0202132
:1006400001EAC000032A099001D0072A05DB03460E
:100650004146204600F078F90BE12078800601D56C
:10066000E06900E00620B8F1650F814606D0B8F1D8
:10067000660F18D0B8F1670F70D131E00020B9F1E2
:10068000110F009001DB112301E009F101030AAA17
:1006900001A90CA8FFF7E2FEDDE90C70002609F1C4
:1006A0000105834647E001204B4600904FF000478C
:1006B0000AAA01A90CA8FFF7D1FEDDE90DB00C993B
:1006C0005D46002610B909F101000D18B9EB0500CF
:1006D00003D4C0F1FF3609F10105A5EB09002BE0B9
:1006E000B9F1010F01DA4FF001090020B9F1110F42
:1006F0000090484601DD112300E003460AAA01A943
:100700000CA8FFF7ABFEDDE90C704D4600268346D2
:10071000207800070AD4AB4500DA5D4601A8012D18
:1007200004DD411911F8011C302907D04F4502DAC8
:1007300017F1040F04DA012082460FE06D1EEEE788
:10074000002F02DCED1B3E4403E0781CA84200DDD4
:100750007D1CB81B00F1010A4FF00047207800070C
:1007600003D4AA4501DB4FF0FF3A0021B7F1004F57
:100770000DF143088DF8431024D002202B23002FC5
:1007800001DA7F422D230A21021EA0F1010000DCC4
:100790005FB197FBF1FC97FBF1F201FB1C7C174664
:1007A0000CF1300C08F801CDEEE7A8F10100037060
:1007B0002188090501D5452100E06521A0F1010846
:1007C00000F8011C09980FA9A1EB0807FF1D00B153
:1007D0000120411901EBEA70A1693844081A401E52
:1007E000A0612078C00602D42046FFF70DFD0998CD
:1007F00028B1D4E901219047206A401C206220786A
:10080000C00622D52046FFF7FFFC1EE0002E04DBC9
:10081000B34502DD01A8805D00E03020D4E901216C
:100820009047206A401C2062761CAAF101005FEA12
:10083000000A0AD100F03EF8C0680168405CD4E9C3
:1008400001219047206A401C2062281EA5F1010565
:10085000DCDC07E0D4E9012118F8010B9047206A9D
:10086000401C2062381EA7F10107F3DC2046FFF789
:10087000E1FC032011B041E601694A1C02610878DD
:10088000704700B58FB0CDE90131002105910549D0
:100890007944CDE9031011466846FFF7DCFC0FB040
:1008A00000BD0000E5FFFFFF0A6802F8010B0A60C7
:1008B0007047000000487047CC00002030B5B0F110
:1008C0000A024FEA900E71F100034EEA817EB0EB0E
:1008D0000E0061EB91014FEA101E4EEA017E10EB13
:1008E0000E0041EB11114FEA102E4EEA016E10EB93
:1008F0000E0041EB11214FEA104E4EEA014E10EB73
:100900000E0041EB1141401841F100014FEAD000C7
:1009100040EA41704FEAD10110EB80054FEA8104B3
:1009200044EA907444EB01046D1944EB0404521B37
:10093000A3414FF0000348BF0A3200D530BD401C30
:1009400041F1000130BD00002DE9F0411F46044691
:1009500003260168072A01F4006004DB08B116A52C
:1009600005E016A503E008B115A500E015A521F0E6
:1009700010002060A069C01EA0610FB1401EA061E0
:100980002046FFF741FC4FB1D4E90121384690479A
:10099000206A401C2062C01C206206E0206AFAE740
:1009A000D4E9012115F8010B9047761EF8D22046B4
:1009B000FFF740FCBDE8F0814E414E006E616E00D5
:1009C000494E4600696E66002DE9F047814616469D
:1009D0008AB0354878440DC88DE80D003248784417
:1009E000801C03AC0DC884E80D0041F69B30084420
:1009F000372190FBF1F290FBF1F5A5F1800501FBA9
:100A000012041B3C02D56442012000E00020DFF804
:100A100098A080460027FA44AAF1BE0A0EE0E0073B
:100A20000AD03246684607EB470101230AEB8101F1
:100A300000F046FB8DE8070064107F1C002CEED10F
:100A4000194F7F44AE3F19E0E80715D007EB0410BB
:100A50000DF1180A90E80E008AE80E00C068F04216
:100A600001D1981908903246012306A903A800F085
:100A700027FB03AB83E807006D10641C002DE3D156
:100A80004FF0010332466946B8F1000F03A802D0C7
:100A900000F001FB01E000F013FBC9E90001C9F817
:100AA00008200AB0BDE8F087B81E00000048704773
:100AB000AC0000207546FFF7F9FFAE460500694619
:100AC000534620F00700854618B020B5FFF776FBA7
:100AD000BDE820404FF000064FF000074FF000083F
:100AE0004FF0000B21F00701AC46ACE8C009ACE8C0
:100AF000C009ACE8C009ACE8C0098D46704710B524
:100B00000446AFF300802046BDE81040FFF742BB2B
:100B10004FF0013C50F8042B51F8043B9A4221D18C
:100B2000A2EB0C03934313EACC1317D150F8042B18
:100B300051F8043B9A4215D1A2EB0C03934313EAFC
:100B4000CC130BD150F8042B51F8043B9A4209D135
:100B5000A2EB0C03934313EACC13DBD04FF000005D
:100B6000704700BFD01A01BAB1FA81F101F0180143
:100B700022FA01F0CB40C1F12001DBB2C0B2C01AB1
:100B80002CFA01F3D11A914311EAC311E6D170474F
:100B900001491820ABBEFEE72600020070475FEA5D
:100BA000400C08BF91F0000F4FEA8C234FEAC1229E
:100BB00043EA51514FEA1C5018BF00F5F0404FEA8C
:100BC000300018BF41F000415FEA6C5C00F0298002
:100BD000BCF1FF3F08BF40F080407047130C06BFD8
:100BE00012044FF0100C4FF0000C130E04BF120251
:100BF0000CF1080C130F04BF12010CF1040C930F3D
:100C000004BF92000CF1020CD30F04BF52000CF190
:100C1000010C11464FF00002A0F11F00A0EB0C00E8
:100C2000704711F0004F08BF704731F000413FF4AA
:100C3000D5AF0B0C06BF09044FF0100C4FF0000CA1
:100C40000B0E04BF09020CF1080C0B0F04BF0901C5
:100C50000CF1040C8B0F04BF89000CF1020CCB0FBC
:100C600004BF49000CF1010CCCF12003A0EB0C00F7
:100C700022FA03F302FA0CF241EA030100F1010047
:100C8000704720F07F4C80EA030023F07F47ACEBF5
:100C9000070303F57C5300F0004003F1FF032DE947
:100CA00080494FEA154B09B44FEA144325EA0B4E2D
:100CB00024EA03480FF2042606EB132749083E787E
:100CC0005FEA320203FB0667C7F5000707FB06F67B
:100CD0004FEA54374FEAD64606F1020607FB066C88
:100CE000CCF1005C4FEA1C472CEA074C07FB06F4EA
:100CF0000CFB06F504EB15464FEA961634BF0020B0
:100D00004FF000404FEAD13706FB07FC4FEA1C4C7E
:100D10000CFB0BF7D21B03FB0CF761EB07010CFB81
:100D20000EF7B0EB074072EB17420CFB08F734BF2D
:100D3000A2EB0742B2EB074261EB17414FEA0C44CA
:100D40004FEA910706FB07FC4FEA1C4C0CFB0BF724
:100D5000B0EBC74072EB573203FB0CF734BFA2EB8A
:100D6000C742B2EBC74261EB57310CFB0EF7B0EB59
:100D7000C70072EB57720CFB08F734BFA2EBC70237
:100D8000B2EBC70261EB5771039F4FEA816141EA01
:100D9000921104EBCC044FEAD1374FEA826206FB92
:100DA00007FC42EA90124FEA80604FEA1C4C0CFBB1
:100DB0000BF7D21B03FB0CF761EB07010CFB0EF7E3
:100DC000B0EB074072EB17420CFB08F734BFA2EB05
:100DD0000742B2EB074261EB17414FEA8C554FEAED
:100DE000910704EB9C2406FB07FC4FEA1C4C0CFB10
:100DF0000BF7B0EBC74072EB573203FB0CF734BF75
:100E0000A2EBC742B2EBC74261EB57310CFB0EF7C6
:100E1000B0EBC70072EB57720CFB08F734BFA2EBC4
:100E2000C702B2EBC70261EB577115EB4C254FEAD5
:100E3000816141EA92114FEA82624FEAD13742EA78
:100E4000901206FB07FC44F100044FEA80604FEA71
:100E50001C4C0CFB0BF7D21B03FB0CF761EB0701DF
:100E60000CFB0EF7B0EB074072EB17420CFB08F7D8
:100E700034BFA2EB0742B2EB074261EB174115EB1F
:100E80001C154FEA813141EA92414FEA823242EA2F
:100E900090424FEA80304FEA0C7644F1000448EA71
:100EA00003434EEA0B484FF0000EB2EB080C71EB17
:100EB000030724BF624639464EEB0E0E4FF0000B7F
:100EC0000018524149414BEB0B0BB2EB080C71EB94
:100ED00003077BF1000B24BF624639464EEB0E0E32
:100EE0004FF0000B0018524149414BEB0B0BB2EB9A
:100EF000080C71EB03077BF1000B24BF62463946F7
:100F00004EEB0E0E51EA020718BF46F0010616EB33
:100F10000E7655F1000254F1000103D5BDE88901B8
:100F2000BDE80088BDE88901BDE80048B619524116
:100F300041EB0101A3F10103704780807F7E7D7C3E
:100F40007B7A7978777676757473727171706F6E5B
:100F50006E6D6C6C6B6A6A69686867666665646406
:100F6000636362616160605F5F5E5E5D5D5C5C5B90
:100F70005B5A5A59595858575756565555555454FF
:100F8000535352525251515050504F4F4F4E4E4D5D
:100F90004D4D4C4C4C4B4B4B4A4A4A4949494848A9
:100FA00048474747474646464545454444444443E9
:100FB00043434342424242414141002B9C4630D48C
:100FC00077002BD01CB54FEA370703B44FF0100061
:100FD0004FF01001BAF1000F06D0BCF1000FDCBFDA
:100FE00040F0080040F008014FF000000FBCBDE8E1
:100FF00010400BF1010BBBF1010F08BF5FEA1707AF
:1010000022BF12F1010211F101014FF0004143F141
:10101000000300F0004043EA00007047F9D357088E
:10102000D0E746EA064613F1400F4FEA16461FDDA9
:1010300013F1200FDFBF16430A46002120335B4225
:10104000BED0C3F1200746EA064602FA07F74FEA88
:10105000164646EA0706C3F1200722FA03F201FA10
:1010600007F721FA03F14FF0000342EA0702A7E76E
:1010700046EA020646EA06464FEA164646EA0106F0
:10108000BCBF46EA0646360C4FF000034FF00002A4
:101090004FF0000194E72DE9804C9A46934670B4D6
:1010A00091E8380007C831EA400C48BF34EA430CE5
:1010B00003D5FFF7E6FDFFF780FFF0BCBDE8008C2D
:1010C0002DE9804C9A46934670B491E8380007C8E1
:1010D00010F0804F08BF13F0804F03D100F005F8E7
:1010E000FFF76BFFF0BCBDE8008C20F07F4780EA83
:1010F000030023F07F4C07EB0C03A3F57C5300F0B7
:101100000040A3F1FE0392F0000F00F0B38095F0D1
:10111000000F00F077802DE901494FEA11404FEAB6
:10112000144621EA004800FB06FC24EA064708FBB7
:1011300006F607FB08F800FB07F718EB06484CEB30
:10114000164C4FEA124B18EB07484FEA15464CEB8A
:10115000174022EA0B4E0BFB06FC25EA06470EFB66
:1011600006F607FB0EFE0BFB07F71EEB064E4CEBDD
:10117000164C4FF000061EEB074E4CEB174B18EBCE
:101180000B0840F1000018EB0E0B58EB000840F183
:1011900000008F1A4FF000013CBFC943661B14BF0B
:1011A000B5EB040C00213CBFC943F61B4FEA1744C2
:1011B0004EEA8E0E27EA04454FEA1C4704FB0762FD
:1011C0002CEA074C05FB07F70CFB05F604FB0CFCAF
:1011D00016EB074642EB174216EB0C4642EB1C425D
:1011E0001BEB060658EB0202414146EA9E0601D57A
:1011F000BDE80189B619524141EB0101A3F1010398
:10120000BDE801894FEA14454FEA114724EA054633
:1012100021EA074C05FB07F406FB07F70CFB06F178
:1012200005FB0CFC11EB074144EB17444FEA124756
:1012300011EB0C4144EB1C4422EA074C05FB07F27E
:1012400006FB07F70CFB06F605FB0CFC16EB074646
:1012500042EB174216EB0C4642EB1C456A1854F160
:10126000000148BF7047B619524141EB0101A3F19B
:101270000103704795F0000F37D04FEA11424FEA53
:10128000144721EA024624EA074C02FB07F106FB59
:1012900007F70CFB06F402FB0CFC14EB074441EBD4
:1012A00017414FEA154714EB0C4441EB1C4125EA6A
:1012B000074C02FB07F506FB07F70CFB06F602FBE3
:1012C0000CFC16EB074645EB174516EB0C4645EBB9
:1012D0001C42121951F1000148BF7047B619524122
:1012E00041EB0101A3F1010370474FEA14454FEAB6
:1012F000114724EA054621EA074C05FB07F106FBE6
:1013000007F70CFB06F24FF0000605FB0CFC12EB96
:10131000074241EB174112EB0C4251EB1C4148BF15
:101320007047921841EB0101A3F101037047FEE7FA
:101330007047000070B5044600F004F90546601CD3
:1013400002D004480078044400F0FCF8401BA0429E
:10135000FAD370BD200000202DE9F84FDFF8B891D6
:10136000002409F1040A0AF1040B23460F270BF1AC
:10137000040EC9E00125A5402A40AA427DD1674E4E
:10138000D1F804C0ACEB0608B44532D014DCBCF193
:10139000030F3AD009DCBCF1000F2AD0BCF1010FD9
:1013A0001CD0BCF1020F31D11DE0BCF1110F17D0E0
:1013B000BCF1120F2AD119E0B8F5881F19D006DC4C
:1013C000B8F5803F15D0B8F5801F1FD111E0B8F5F2
:1013D000001F0ED0B8F5041F18D10AE0CB6815E045
:1013E000CB681B1D12E0CB6808330FE0CB680C33D1
:1013F0000CE08B682BB1012B4FF0080303D0456143
:1014000004E0042302E0056100E00023FF2A01D884
:10141000064601E000F104064FEA840501D9A5F172
:101420002005D6F8008007FA05FC28EA0C0803FA24
:1014300005F548EA0508C6F800804D68ED0062D55C
:10144000374DAE6946F00106AE61AD6924F0030682
:1014500005F001050095334D06EB050CDCF808504E
:10146000A607360F07FA06F825EA0805DFF8B88060
:10147000404503D14FF0000817E044E0DFF8AC80AE
:10148000404502D14FF001080FE0DFF8A48040454D
:1014900002D14FF0020808E0DFF89880404502D101
:1014A0004FF0030801E04FF0040808FA06F848EA94
:1014B0000508CCF808804D68D9F80060ED034D466A
:1014C00001D5164300E096432E604D68DAF80060BF
:1014D000AD03554601D5164300E096432E604D6896
:1014E000DBF80060ED025D4601D5164300E096434F
:1014F0002E604D68DEF80060AD02754601D51643DA
:1015000000E096432E60641C0D682A46E5407FF497
:1015100031AFBDE8F88F0000000401400000111059
:10152000001002400000014000080140000C014092
:1015300000100140001401400AB101617047090424
:10154000FBE7000001488068704700002000002091
:1015500002488168027811448160704720000020B1
:10156000074810B5016841F010010160032000F048
:1015700065F80F2000F006F800F024F8002010BDF8
:101580000020024070B50D4D04464FF47A71287862
:10159000B1FBF0F00A490968B1FBF0F000F0E2FCA1
:1015A00048B9102C07D200222146501E00F026F820
:1015B00000206C6070BD012070BD00002000002084
:1015C0002C0000200B4808B5816941F001018161C0
:1015D000816901F001010091C16941F08051C1614F
:1015E000C06900F0805000900348416821F0E0613C
:1015F000416008BD0010024000000140F0B40E4BF5
:101600001B680C46C3F30223C3F10705042D00D960
:101610000425191D072901D2002300E0DB1E012645
:1016200006FA05F1491E214099409E40761E16405B
:101630003143F0BC00F056BE0CED00E0064900F06E
:10164000070208684FF6FF03184040EA0220034AE9
:1016500010430860704700000CED00E00000FA0540
:101660002DE9F0470F46050061D0434E306800F089
:101670000700B84209D2306820F0070038433060D4
:10168000306800F00700B84251D128683B4C810710
:1016900012D5400703D5606840F4E06060602878A8
:1016A000000703D5606840F4605060606068A96816
:1016B00020F0F000084360602878C00728D06868F0
:1016C000012810D02168022810D0890700292EDABD
:1016D000616821F0030101436160FFF733FF804639
:1016E00041F288390DE021688903EFE78901EDE7D0
:1016F000FFF728FFA0EB0801494502D90320BDE808
:10170000F0876068696800F00C00B0EB810FEFD1E2
:10171000306800F00700B8420BD9306820F00700AD
:1017200038433060306800F00700B84201D0012033
:10173000E5E72878400705D56068E96820F4E060AF
:10174000084360602878000706D56068296920F49E
:10175000605040EAC100606000F018F86168084A13
:10176000C1F30311515CC84006490860064800688F
:10177000FFF708FF0020C2E70020024000100240EF
:10178000042800082C0000202400002012A185B0AD
:101790000FC98DE80F0014A0144A00680490516826
:1017A000134801F00C03042B10D0082B0ED1C1F309
:1017B0008343C9031DF803000AD5516804AAC1F385
:1017C0004041515C0A4A5043B0FBF1F005B070470C
:1017D00008494843FAE70000020304050607080920
:1017E0000A0B0C0D0E0F1010010200000010024039
:1017F00000127A0000093D002DE9F84F040070D076
:101800002078C04DC00749D06868C0F38100012826
:1018100007D06868C0F38100022809D16868C00356
:1018200006D52868800339D560680028E7D035E000
:101830006068B0F5803F0BD010B1B0F5A02F11D08B
:10184000286820F480302860286820F4802002E096
:10185000286840F480302860606890B1FFF772FE1D
:1018600006460AE0286840F480202860F0E700BFC0
:10187000FFF768FE801B642873D828688003F7D5BB
:101880000CE0FFF75FFE064605E000BFFFF75AFEDB
:10189000801B6428F0D828688003F7D420789A4EFB
:1018A00080074FF001094FF0000839D5686810F043
:1018B0000C0F07D06868C0F38100022809D168685E
:1018C000C00306D42868800714D52069012808D1F0
:1018D00010E02069B0B1C6F80090FFF733FE07466C
:1018E00005E00AE1FFF72EFEC01B0228C4D82868D5
:1018F0008007F7D52868616920F0F80040EAC10048
:1019000028600DE0C6F80080FFF71CFE074604E0E3
:10191000FFF718FEC01B022823D828688007F7D4D9
:10192000207800072CD57948A169D9B1C0F800907A
:10193000FFF708FE074604E0FFF704FEC01B02287D
:101940000FD8686A8007F7D571484FF4FA510068DC
:10195000B0FBF1F0009000BF0098411E0091FAD258
:101960000EE080E0C0F80080FFF7ECFD074604E0E1
:10197000FFF7E8FDC01B022875D8686A8007F7D416
:101980002078400760D5E8690027C00008D4E869DE
:1019900040F08050E861E869012700F08050009035
:1019A0005C480168C90513D40168834641F480711D
:1019B0000160FFF7C7FD824606E000BFFFF7C2FDEA
:1019C000A0EB0A0064284ED8DBF80000C005F5D56E
:1019D000E06801280AD008B1052813D0286A20F051
:1019E00001002862286A20F0040002E0286A40F022
:1019F00001002862E06841F2883B98B1FFF7A2FD40
:101A000082460BE0286A40F004002862EEE700BF3F
:101A1000FFF798FDA0EB0A0159455AD8286A8007BC
:101A2000F6D50CE0FFF78EFD824605E0FFF78AFD54
:101A3000A0EB0A0159454CD8286A8007F6D41FB19B
:101A4000E86920F08050E861E06988B36968C1F313
:101A50008101022944D00228C6F8608004D0FFF733
:101A600071FD044638E034E0FFF76CFD074604E002
:101A7000FFF768FDC01B02282BD828688001F7D427
:101A8000206AB0F5803F05D16868A16820F4003075
:101A900008436860D4E908010843696821F47411B7
:101AA00008436860C6F86090FFF74CFD044606E006
:101AB00025E000BFFFF746FD001B022809D8286873
:101AC0008001F7D51BE000BFFFF73CFD001B02289B
:101AD00002D90320BDE8F88F28688001F4D40EE015
:101AE0000128F7D06868226A00F48031914204D15D
:101AF000616A00F47010884201D00120EAE70020FA
:101B0000E8E7000000100240000042428004424228
:101B10002C0000200070004070B5040009D0606AFD
:101B2000002540B125616561A56294F8510040B17E
:101B30000CE0012070BD6068B0F5827FF4D0E561F3
:101B4000F2E784F85050204600F040F8022084F874
:101B500051002068016821F040010160A0882189BE
:101B600000F4827001F404410843A18901F400618A
:101B70000843217C01F002010843217D01F00101AD
:101B80000843218B01F400710843217F01F03801E3
:101B9000084394F8201001F080010843218D01F4DE
:101BA0000051084321680860A069042101EA10403F
:101BB000216848602068C16921F40061C1616565E0
:101BC000012084F85100002070BD000000B585B0F0
:101BD0000021009101910291039100680F49884210
:101BE0001AD10F48816941F480518161816901F402
:101BF00080510491816941F00401816180696946E5
:101C000000F004000490A020009002200190032026
:101C100003900448FFF7A0FB05B000BD0030014071
:101C200000100240000801402DE9F84F04464068CA
:101C30000025984616460F464FF0040BB0F5827FFC
:101C400001D1A06888B194F85000012818D0012073
:101C500084F85000FFF776FC814694F851004FF06D
:101C6000000A01280ED0022582E084F851B0134604
:101C70000A462046CDF8008000F083F8BDE8F88FD2
:101C80000220FBE7002F72D0002E70D084F851B0F4
:101C9000C4F854A0A763A687E687C4F830A0A4F8C8
:101CA00034A0A4F836A0C4F840A0C4F844A0A068AA
:101CB000B0F5004F09D12068016821F040010160B2
:101CC0002068016821F480410160206801684906AC
:101CD00003D4016841F040010160E068D8B139E007
:101CE00020688168C90709D0007BA16B0870A06BD0
:101CF000401CA063E08F401EE0870CE0FFF722FC51
:101D0000A0EB0901414503D3B8F1FF3F03D036E012
:101D1000B8F1000F33D0E08F0028E1D11DE020683A
:101D20008168C90709D0C068A16B0880A06B801CBE
:101D3000A063E08F401EE0870CE0FFF703FCA0EB00
:101D40000901414503D3B8F1FF3F03D017E0B8F1D3
:101D5000000F14D0E08F0028E1D14A4641462046CA
:101D600000F0DDF908B120206065606D00B101254B
:101D7000012084F8510084F850A028467EE703250E
:101D8000F6E72DE9F84F044690F8500000270A9E28
:101D90001D4692468B464FF0010901280ED00120C6
:101DA00084F85000FFF7CEFB804694F8510061683C
:101DB00001280CD0B1F5827F07D102E00220BDE8F6
:101DC000F88FA16809B9042801D00227C2E0BBF14D
:101DD000000F27D0BAF1000F24D01DB394F85100A2
:101DE000042802D0052084F8510000206065C4F862
:101DF00038A0E587A587C4F830B0E586A5862064BD
:101E0000606420680168490603D4016841F040011C
:101E10000160E068B0F5006F606805D0E8B3012D9F
:101E200046D07FE0012795E008B1012D39D1206B24
:101E300021680088C860206B801C2063E08E401EF3
:101E4000E0862EE02068816889070FD5E18E69B1B0
:101E5000B9F1010F0AD1216B0988C160206B801C88
:101E60002063E08E401EE0864FF000092068816804
:101E7000C9070CD0E18F51B1C068A16B0880A06B7D
:101E8000801CA063E08F401EE0874FF00109FFF740
:101E900059FBA0EB0800B04200E009E001D3701C40
:101EA00050D1E08E0028CDD1E08F0028CAD13FE08C
:101EB000206B216800780873206B401C2063E08E43
:101EC000401EE0862EE02068816889070FD5E18EEC
:101ED00069B1B9F1010F0AD1216B09780173206B47
:101EE000401C2063E08E401EE0864FF00009206811
:101EF0008168C9070CD0E18F51B1C068A16B08702F
:101F0000A06B401CA063E08F401EE0874FF00109EA
:101F1000FFF718FBA0EB0800B04202D3701C01D001
:101F200010E07EB1E08E0028CDD1E08F0028CAD12C
:101F300042463146204600F020F928B101272020F2
:101F4000606507E0032705E0A06818B92068C1684C
:101F500080680090012084F85100002084F850002F
:101F600038462CE710B5401EB0F1807F01D3012028
:101F700010BD4FF0E02460610F21601700F0B2F94E
:101F80000020A06107202061002010BDFEE7F0B511
:101F900087B00DF1300C04469CE8E1008DF8167016
:101FA000ADF80C00ADF8146004958DE80E0068469D
:101FB00000F012F8182269462046FEF7F2F907B041
:101FC000F0BD0000034B8032595C1144C9B200F0EF
:101FD000C6B900000028000810B50446807D88B10D
:101FE0003821204600F0BBF90121204600F0B7F966
:101FF0000C21204600F0B3F92046BDE81040062130
:1020000000F0ADB93321204600F0A9F93221204675
:1020100000F0A5F92821E4E770B50D460646002436
:1020200005E0295D304600F0B4F9641CE4B22846AE
:10203000FEF798F9A042F4D870BD0000F0B585B065
:10204000002420480094019402940394816941F093
:1020500010018161816901F010010491816941F0F1
:1020600004018161816901F004010491816941F0F9
:10207000080181618069144E00F0080041F60F45A7
:102080000490002229463046FFF756FA0F4F0122EE
:1020900010213846FFF750FA0220CDE902400095A2
:1020A0000125694601953046FFF756F9102000904A
:1020B00001AA112082E8310069463846FFF74CF941
:1020C00005B0F0BD001002400010014000080140C2
:1020D000104810B50E4901604FF4827141604FF411
:1020E000004181600911C16000214FF4007201615B
:1020F000C0E905121822C0E90721416281620A2164
:10210000C162FFF709FD002801D072B6FEE710BDDD
:102110000030014030000020FEE7FEE77047F8B5D0
:10212000044640684FF48273984217D1A0684FF478
:102130008065B0F5004F01D0A8420FD12068066835
:1021400026F0400606606068984207D1A068A84261
:1021500004D100920B460022012103E000920B46BD
:1021600000228021204600F019F8002804D0606D7C
:1021700040F0200060650320F8BD38B50B460092A2
:1021800004460022802100F009F8002804D0606D88
:1021900040F020006065032038BD00002DE9F843C1
:1021A0001E46914688460446089DFFF7CBF9401B22
:1021B000351AFFF7C7F9074625480068C0F3CB304A
:1021C000684338E0701C37D0FFF7BCF9C01BA84249
:1021D00003D215B1009860B32CE02068416821F06B
:1021E000E00141606068B0F5827F0BD1A068B0F576
:1021F000004F02D0B0F5806F04D12068016821F053
:1022000040010160A06AB0F5005F09D12068016853
:1022100021F4005101602068016841F4005101601F
:10222000012084F85100002084F850000320BDE80C
:10223000F8830025401E00902068816838EA01007C
:1022400004D000214945BDD10020F0E70121F9E784
:102250002C0000207047FFF77BB930B58FB02821E4
:102260006846FEF7D0F814210AA8FEF7CCF8012141
:102270000804CDE900100024029402250491CDE960
:1022800007504FF4E01009906846FFF7B5FA08B11F
:1022900072B6FEE70F20CDE90A054FF48060CDE964
:1022A0000C4002210AA80E94FFF7DAF9002801D0A9
:1022B00072B6FEE70FB030BD7047FEE7490050EA46
:1022C000C12018BF04204A0D18BF40F0010040F2A1
:1022D000FF72B2EB515F08BF40F00200012808BF57
:1022E000052070470907090E002804DB00F1E020F3
:1022F00080F80014704700F00F0000F1E02080F833
:10230000141D704730380A2801D201207047002080
:1023100070472DE9F04117460E46054600240DE0B2
:10232000686826FA04F202F0010230F814102868F6
:1023300050F82400FFF700F9641CE4B2BC42EFD36C
:10234000A98A01222869FFF7F7F80120FEF7F2FFBA
:10235000A98A2869BDE8F0410022FFF7EDB870B501
:102360000D460446818980680022FFF7E5F8A07DCC
:1023700030B1082229462046BDE87040FFF7C9BFAA
:10238000290904222046FFF7C4FF05F00F010422AB
:10239000F1E770B50D460446818980680122FFF798
:1023A000CBF8A07D30B1082229462046BDE8704018
:1023B000FFF7AFBF290904222046FFF7AAFF05F067
:1023C0000F010422F1E700008AB0FFF7C9F8FFF718
:1023D00044FFFFF733FEFFF77BFE4FF480602A4B8C
:1023E00082000021CDE90023284ACDE9020102F153
:1023F000080104A8FFF7CBFD182204A92448FDF723
:10240000D0FF224E234D083E4FF0FF3734466FF089
:102410000308002210212846FFF78EF81B491C48AC
:102420003B46012208396438FFF7FEFB01221021E8
:102430002846FFF781F830886080C00800F088F8EF
:10244000424600F097F900F049F8606000F0E8F8C3
:1024500002460F480B4610A10C38FDF7C1FE0022C2
:1024600011460B48FFF7AEFD0DA10948FFF7D4FD5B
:10247000002201210648FFF7A5FD054904480C3953
:10248000FFF7CAFDC5E7000000100140080000206A
:10249000940000200008014025322E326600000022
:1024A00054656D70657261747572653A0000000064
:1024B00010B500290AD00878002807D005487844CC
:1024C000FEF726FB002801D0002010BD024878440A
:1024D00010BD00000A0400000204000021F00042C8
:1024E000A2F16052B2F5801F01F0004328BFD2F183
:1024F0007F6C0BD95FEA001C43EAC20242EB5070CA
:1025000018BF704728BF20F001007047B2F5801F48
:10251000BCBF184670474FEA410C1CF5001F02D2A1
:10252000084600F0EEB870B500F025F8000000890C
:10253000FFF7F6BF4FF00040A0F5800070470000A5
:1025400002494FF0000000F0E3B800BF0000F87F40
:10255000B0FA80F310FA03F10AD0C3F11D0303F5BA
:1025600080634FEA41504FEA035202EBD12170479A
:102570004FF0000070470EF1020E2EF0030E5EF8D1
:10258000046B364205D4012A43EB030515F5001F01
:1025900012D8012841EB010C1CF5001F0CD80ED1FC
:1025A0004FEAD17C15F5001F0CEB4C0C0CF1020C22
:1025B00008BF4CEBD37C04E04FF0080C01E04FEA7D
:1025C000D37C0CEB4C0526FA05F606F00706B6F1AF
:1025D000040C06D20EEB860CBDE870404CF0010CEA
:1025E0006047DFE80CF0090B02024FF000414FF0AA
:1025F0000000A1F5002170BD19461046012851EBDD
:10260000010418BFD4F5001484BF002001F000417C
:1026100070BD0808A0F500114FEA310170470000B5
:1026200043004FEAD30C4FEA3C0C43401FBF400726
:102630000CF1605113F0FE4F70471CF0006F03D196
:1026400000200CF0004170470CF0004343EA50704A
:1026500010B540EACC0000F00EF800BF0000009278
:102660004FEA0001FFF7D5BF4FF000414FF00000E7
:10267000A1F5002170470EF1020E2EF0030E5EF858
:10268000044B244204D44FEA4102B2F17F4F11D8E7
:102690004FEA4003B3F17F4F0CD80ED14FEAD07C04
:1026A000B2F17F4F0CEB4C0C0CF1020C08BF4CEB61
:1026B000D17C04E04FF0080C01E04FEAD17C0CEB38
:1026C0004C0324FA03F404F00704B4F1040C06D21A
:1026D0000EEB840CBDE810404CF0010C6047DFE8C5
:1026E0000CF0070802024FF00040A0F5800010BD7A
:1026F0000846420018BFD2F1807288BF00F0004047
:1027000010BDFF2141EAD050C0057047FDF77EBFE4
:102710000CF00F03092B08BF082000F059800A2B8A
:102720000BD0082B18BF704708BF1CF0400F0AD011
:102730004FF000004FF0000170471CF0400F18BF31
:102740004FF0004070471CF0100F08D020F070438D
:1027500000F07F4242EAD3014FEA4370704700F035
:10276000604021F07F4242EA000201F07F4040EAEF
:10277000727070474FF0FF0C4CF4E06C1CEA115380
:102780001CBF9CEA030C9445C2BFDA4201EB025124
:102790007047002B0DD0BCF1000F0FD0002A01F0C4
:1027A0000041A4BF41F0E04141F07F614FF00000E3
:1027B000704701F000414FF00000704750EA0133CC
:1027C0004FF09B0C18BF4CF0806C7FF4B9AE704793
:1027D0001CF4801F11D01CF4E02F03D06FEACC3121
:1027E000490070474FF04050EFF3008222F07042F2
:1027F00042EA000282F3008870474FF00000704701
:10280000004010500000000000000000010203041E
:102810000607080902400000000000A000000000B8
:1028200005400000000000C8000000000C4000004F
:102830000000409C00000000194000000020BCBEC9
:102840000000000034400000BFC91B8E00000004DF
:10285000B5400000504BCFD06607E2CF010000002A
:102860006C4100003E8251AADFEEA7340100000057
:10287000D9420000DCB5A0E23A301F97FFFFFFFF0E
:10288000B4450000FD25A0C8E9A3C14FFFFFFFFF2D
:10289000FF3F00000000008000000000FF3F00003C
:1028A0000000008000000000E42800080000002074
:1028B0003000000028010008142900083000002022
:1028C000E0060000440100081C0000004300000076
:1028D000F8FFFFFF0C0000000E0000000F000000DA
:1028E0002E000000000000000000000008000400AE
:1028F00002000100001001400010014000100140E2
:102900000010014001000000100000000000000065
:042910000024F400AB
:04000005080000ED02
:00000001FF
