:020000040800F2
:10000000080800209D010008CF1A00088519000883
:10001000CD1A0008E50B0008911D00080000000043
:10002000000000000000000000000000D31A0008DB
:10003000E70B000800000000D11A0008D51A0008DC
:10004000B7010008B7010008B7010008B7010008B0
:10005000B7010008B7010008B7010008B7010008A0
:10006000B7010008B7010008B7010008B701000890
:10007000B7010008B7010008B7010008B701000880
:10008000B7010008B7010008B7010008B701000870
:10009000B7010008B7010008B7010008B701000860
:1000A000B7010008B7010008B7010008B701000850
:1000B000B7010008B7010008B7010008B701000840
:1000C000B7010008B7010008B7010008B701000830
:1000D000B7010008851D0008B7010008B701000836
:1000E000B7010008B7010008B701000800F002F8E6
:1000F00000F044F80AA090E8000C82448344AAF17E
:100100000107DA4501D100F039F8AFF2090EBAE87B
:100110000F0013F0010F18BFFB1A43F0010318473B
:100120008C1E0000AC1E0000103A24BF78C878C1B5
:10013000FAD8520724BF30C830C144BF04680C60ED
:10014000704700000023002400250026103A28BF35
:1001500078C1FBD8520728BF30C148BF0B60704739
:10016000002070471FB59DE8030000F02DFB00F054
:100170001FF91FBD10B500F084F910BD00F0E7F9BC
:100180001146FFF7EFFF01F07BFE00F0EBFA03B43E
:10019000FFF7F0FF03BC00F089FC0000094880472E
:1001A00009480047FEE7FEE7FEE7FEE7FEE7FEE759
:1001B000FEE7FEE7FEE7FEE704480549054A064B71
:1001C00070470000371B0008ED00000808020020FF
:1001D0000808002008040020080400200FB4044987
:1001E00010B503AA029800F0CDF810BC5DF814FB1E
:1001F000000100202DE9F0410E4604460020206257
:100200002046E168884730B3252805D0D4E901218C
:100210009047206A401CF2E7E168204600278847A3
:10022000050018D0A5F14100192802D820354FF457
:1002300000673246294620462760FFF791FF40B10C
:10024000012804D0F61D26F007060836D8E7361D2B
:10025000D6E72846DAE7206ABDE8F08110B5431CEE
:1002600002E010F8011B71B18107FAD14FF00132A1
:1002700002C88C1A8C4314EAC211F9D0C01A0A06BB
:1002800003D0C01E10BDC01A10BD0A0401D0801ECC
:1002900010BD0902FCD0401E10BD10B5203AC0F0C0
:1002A0000B80B1E81850203AA0E81850B1E8185077
:1002B000A0E81850BFF4F5AF5FEA027C24BFB1E8B4
:1002C0001850A0E8185044BF18C918C0BDE8104025
:1002D0005FEA827C24BF51F8043B40F8043B08BF2E
:1002E0007047D20728BF31F8023B48BF11F8012BF5
:1002F00028BF20F8023B48BF00F8012B70474FF0A1
:10030000000200B5134694469646203922BFA0E865
:100310000C50A0E80C50B1F12001BFF4F7AF090771
:1003200028BFA0E80C5048BF0CC05DF804EB890062
:1003300028BF40F8042B08BF704748BF20F8022BA5
:1003400011F0804F18BF00F8012B704770477047BD
:100350007047000001694A1C02610878704700B5C7
:100360008FB0CDE901310021059105497944CDE9EE
:10037000031011466846FFF73DFF0FB000BD0000B7
:10038000E5FFFFFF074B70B50D467B44FFF7E7FF26
:100390000446284600F008F810B14FF0FF3070BD59
:1003A000204670BD271A0000007B00F080007047D7
:1003B00010B542485421FFF7A2FF41485421FFF7EE
:1003C0009EFF40485421FFF79AFF3F493B483C4A73
:1003D0003F4B08603D490A603A491960531C036568
:1003E000481C1065012008653B48344A39A178440F
:1003F00000F01CF920B9384878440A3800F0BBF9FD
:1004000037482F4A35A1784400F010F920B9344814
:1004100078440A3800F0AFF932482A4A2FA17844CC
:1004200000F004F920B92F4878440A3800F0A3F905
:1004300040232248DC000021224600F0D4F820B1FD
:1004400025487844543800F096F91D482246402348
:10045000002100F0C8F820B121487844543800F059
:100460008AF9184822461023002100F0BCF8002821
:1004700006D01C487844BDE81040563800F07BB9DF
:1004800010BD104870B5006D20F001040B4800F05D
:1004900043F90B4800F040F90A4800F03DF909E043
:1004A000206D20F00105204600F036F9204600F0CE
:1004B00073F82C46002CF3D170BD0000AC00002076
:1004C0000001002054010020380000203C000020E2
:1004D0004000002072000000AE1B0000770000000A
:1004E0009A1B0000861B00000EB5CDE90001FFF746
:1004F000B5FE029069460120ABBE0EBD08B5694647
:1005000000900220ABBE08BD1FB58DE8070069460C
:100510000520ABBE04B010BD1FB58DE80F006946C5
:100520000620ABBEF6E708B5694600900920ABBED1
:1005300008BD1CB5CDE9000169460A20ABBE1CBD53
:10054000704708B5694600900C20ABBE08BD7546E3
:1005500000F018F9AE4605006946534620F0070042
:10056000854618B020B5FFF727FEBDE820404FF0C4
:1005700000064FF000074FF000084FF0000B21F08D
:100580000701AC46ACE8C009ACE8C009ACE8C0095A
:10059000ACE8C0098D46704770B50446051F00F0F1
:1005A000F7F80068002C14BF446870BD002C18BF19
:1005B000AC423CBF20466468F8D301680A18AA42DE
:1005C00018BF456003D12A680546114401602868B8
:1005D0004119A1421CBF6C6070BD616869602168EF
:1005E0000844286070BD70B5C468A50713D06502C3
:1005F00011D4B2F5807F09D0B2F5007F06D0B2F5F4
:10060000806F08D1012300F1240106E05D1E6FF028
:100610007F46B54201D3012070BD0161C3614160D5
:1006200024F470611143C160002070BD2DE9F041D8
:100630000C4607461646104600F06EF82078611CFE
:1006400061280AD0722802D077283CD102E0012527
:10065000002405E00225042402E0082448F20205F3
:1006600011F8010B2B2806D0622809D011F8010CD3
:1006700074280AD00BE045F0030544F00204EFE7CC
:1006800045F0040544F00104EAE744F0100438465C
:100690002146FFF729FF411C15D00021316171600F
:1006A0004FF40071F560F1617061200704D53046A8
:1006B0000222002100F0E6F8306D40F001003065C4
:1006C0003046BDE8F0810020FBE72DE9F0410D4602
:1006D0000646104C206DC10704D0410804D020F01C
:1006E0000104F7E722460EE0542000F09CF80700D2
:1006F0000ED0206D47F00101084354212065384693
:10070000FFF7FDFD3A4629463046BDE8F0418DE74A
:100710000020D6E7AC0000202DE9F04704464FF05A
:1007200000094FF0FF37C568D4E90486A80707D051
:10073000204600F057F93046FFF7E0FE002802DAC5
:100740003846BDE8F087280502D54046FFF724FF6C
:100750004C212046FFF7D3FD206D20F001002065DD
:100760004846EEE710B50446AFF300802046BDE8EA
:100770001040FFF70CBD10B500F07EF9BDE8104049
:1007800000F074B900487047A801002070470000CD
:1007900000487047B00100207047704770477047AD
:1007A00038B504460A4600206946AFF300800028A9
:1007B00008BF38BD02460099204600F084F90120A8
:1007C00038BD012000F0D3B9F8B5AFF3008005467D
:1007D00000200C46102000BF0646A819A0420DD9E3
:1007E000324669460020AFF30080070008BF00F0E2
:1007F000BEF90098A04218BF0546C419FFF7C8FF0C
:1008000005600746F01D20F007004619284600F055
:1008100053F9B44208BFF8BDA21B31463868BDE8A1
:10082000F84000F050B970B50646FFF7B1FF056813
:1008300006F10B0020F00704B4429CBF002070BDFD
:100840002B466A68BAB11068A04210D304F10801BF
:1008500088423CBF5068586007D351681019416006
:100860001168091B016058601460101D70BD1346AB
:100870005268002AE7D121462846FFF791FF002859
:10088000DED170BD2DE9F041044616460D4647699C
:10089000007B80072ED03846FFF745FE50BB3EB3A5
:1008A000012E02D0022E25D104E0204600F025F9C9
:1008B00005441DE03846FFF744FEE168002841F09A
:1008C0001001E16005DA204600F058F80120BDE88B
:1008D000F081C9030BD56268E16A914200D81146E4
:1008E000A26911442269891A814200DD0846054443
:1008F000002D01DA0220EAE7E16A6068E2688142DD
:1009000006D29103E06203D522F4003141F01002D7
:10091000A6690027AE4213DCE16A814201D90B4689
:1009200000E0034603EB060C2369ACEB030CAC457B
:1009300006DD814201D98C4600E084469C4505D104
:10094000A760276042F02000A5620DE0AD1BE669BC
:10095000AE1B8142A66000D90846C01A281A206042
:100960005819606022F0200003490840E060002030
:1009700084F84870ABE70000BFCFD7FFC16821F40F
:10098000001141F08001C160002181600160704769
:100990002DE9F047814614460E464FF0FF383248A5
:1009A000D5685769054209D03846A169FFF7C1FDEE
:1009B000002811DB2C48C0430540E5602B46324639
:1009C00049463846FFF7A0FDA16920F00042B21A5F
:1009D00011440028A16103D02046FFF7CFFF404615
:1009E000BDE8F08770B504460569C06A6168884251
:1009F00000D80846E16821F42011E160C90312D54E
:100A0000A84208D02246411B2846FFF7C1FF10B17B
:100A10004FF0FF3070BD0020E562C4E90150E0688E
:100A200020F48030E060002070BD10B50446C0683E
:100A300020F02000E060A16AA06988420DD0204625
:100A4000FFF7D0FFE06820F4405040F01000E06075
:100A5000A06AA0612069E062606044F24001E06841
:100A60008843E06010BD000010000200002801D0A3
:100A700000F01CB87047000010B5014602A000F05D
:100A80005DF8012010BD00005349475254524544BF
:100A90003A2052656469726563743A2063616E2717
:100AA00074206F70656E3A20000000000149182024
:100AB000ABBEFEE72600020000210160C0E9011084
:100AC000704710207047034640688C46002818BFC6
:100AD00088423CBF03464068F8D3186818448842EF
:100AE00007D00CF1030020F00700001D411A521A34
:100AF0000146081D0A60FFF74FBD10B50146C268E8
:100B0000900703D0900607D5886A0AE000F03EF807
:100B100001210160881E10BD8B69486818440B696B
:100B2000C01A91F848301BB191F84910401A10BD15
:100B30001103FCD50028FADD401E10BD70B5054636
:100B40000C460A2000E06D1C00F018F835B128783A
:100B50000028F8D102E0641C00F010F814B12078ED
:100B60000028F8D1BDE870400A2000F007B810B5A1
:100B700000F010F8BDE81040FFF778BF08B56946EF
:100B80008DF800000320ABBE08BD00000048704790
:100B9000A801002010B5012805D0002103A0FFF70F
:100BA000CDFF012010BD09A1F8E7000053494752CD
:100BB000544D454D3A204F7574206F66206865612D
:100BC00070206D656D6F7279000000003A204865F5
:100BD0006170206D656D6F727920636F72727570D0
:100BE00074656400FEE7704710B590F8211000228C
:100BF000022905D00421816380F82020012010BD46
:100C000001680B6823F00E030B6001680B6823F08A
:100C100001030B6090F84030C46B012101FA03F32B
:100C2000636080F8211080F82020104610BD00007D
:100C300010B590F821100024022903D0042181630B
:100C400001243DE001680A6822F00E020A60016892
:100C50000A6822F001020A601A4A0168914201D131
:100C6000012121E0174A1432914201D110211BE0E9
:100C7000144A2832914201D1891515E0114A3C32BB
:100C8000914201D189140FE00E4A5032914202D1B3
:100C90004FF4803108E00B4A6432914202D14FF4A4
:100CA000801101E04FF08071064A083A516001213D
:100CB00080F82110002180F82010416B01B1884795
:100CC000204610BD0800024070B5044600F004F94B
:100CD0000546601C02D004480078044400F0FCF88B
:100CE000401BA042FAD370BD280000202DE9F84F28
:100CF000DFF8B891002409F1040A0AF1040B234635
:100D00000F270BF1040EC9E00125A5402A40AA4295
:100D10007DD1674ED1F804C0ACEB0608B44532D0A3
:100D200014DCBCF1030F3AD009DCBCF1000F2AD06F
:100D3000BCF1010F1CD0BCF1020F31D11DE0BCF1A0
:100D4000110F17D0BCF1120F2AD119E0B8F5881F86
:100D500019D006DCB8F5803F15D0B8F5801F1FD13B
:100D600011E0B8F5001F0ED0B8F5041F18D10AE045
:100D7000CB6815E0CB681B1D12E0CB6808330FE091
:100D8000CB680C330CE08B682BB1012B4FF00803C0
:100D900003D0456104E0042302E0056100E0002384
:100DA000FF2A01D8064601E000F104064FEA840557
:100DB00001D9A5F12005D6F8008007FA05FC28EA3C
:100DC0000C0803FA05F548EA0508C6F800804D68E6
:100DD000ED0062D5374DAE6946F00106AE61AD69F2
:100DE00024F0030605F001050095334D06EB050CD4
:100DF000DCF80850A607360F07FA06F825EA0805BA
:100E0000DFF8B880404503D14FF0000817E044E018
:100E1000DFF8AC80404502D14FF001080FE0DFF869
:100E2000A480404502D14FF0020808E0DFF8988026
:100E3000404502D14FF0030801E04FF0040808FAE2
:100E400006F848EA0508CCF808804D68D9F8006033
:100E5000ED034D4601D5164300E096432E604D68E4
:100E6000DAF80060AD03554601D5164300E096431D
:100E70002E604D68DBF80060ED025D4601D516433B
:100E800000E096432E604D68DEF80060AD027546C6
:100E900001D5164300E096432E60641C0D682A4677
:100EA000E5407FF431AFBDE8F88F00000004014059
:100EB0000000111000100240000001400008014035
:100EC000000C014000100140001401400AB1016112
:100ED00070470904FBE70000014880687047000084
:100EE0002800002002488168027811448160704720
:100EF00028000020074810B5016841F0100101608A
:100F0000032000F073F80F2000F006F800F024F83A
:100F1000002010BD0020024070B50D4D04464FF476
:100F20007A712878B1FBF0F00A490968B1FBF0F05A
:100F300000F0EAFA48B9102C07D200222146501ED0
:100F400000F034F800206C6070BD012070BD00001E
:100F500028000020340000200B4808B5816941F0CA
:100F600001018161816901F001010091C16941F0D4
:100F70008051C161C06900F0805000900348416811
:100F800021F0E061416008BD001002400000014016
:100F9000002809DB00F01F02012191404009800078
:100FA00000F1E020C0F8001170470000F0B40E4BD3
:100FB0001B680C46C3F30223C3F10705042D00D9B7
:100FC0000425191D072901D2002300E0DB1E01269C
:100FD00006FA05F1491E214099409E40761E1640B2
:100FE0003143F0BC00F0D5BE0CED00E0064900F046
:100FF000070208684FF6FF03184040EA0220034A40
:1010000010430860704700000CED00E00000FA0596
:101010002DE9F0470F46050061D0434E306800F0DF
:101020000700B84209D2306820F00700384330602A
:10103000306800F00700B84251D128683B4C810766
:1010400012D5400703D5606840F4E06060602878FE
:10105000000703D5606840F4605060606068A9686C
:1010600020F0F000084360602878C00728D0686846
:10107000012810D02168022810D0890700292EDA13
:10108000616821F0030101436160FFF725FF80469D
:1010900041F288390DE021688903EFE78901EDE726
:1010A000FFF71AFFA0EB0801494502D90320BDE86C
:1010B000F0876068696800F00C00B0EB810FEFD139
:1010C000306800F00700B8420BD9306820F0070004
:1010D00038433060306800F00700B84201D001208A
:1010E000E5E72878400705D56068E96820F4E06006
:1010F000084360602878000706D56068296920F4F5
:10110000605040EAC100606000F038F86168084A49
:10111000C1F30311515CC8400649086006480068E5
:10112000FFF7FAFE0020C2E7002002400010024054
:10113000881F0008340000202C00002004480549C6
:1011400000684968044AC1F30221515CC8407047F5
:101150003400002000100240981F00080448054990
:1011600000684968044AC1F3C221515CC840704715
:101170003400002000100240981F000812A185B022
:101180000FC98DE80F0014A0144A0068049051683C
:10119000134801F00C03042B10D0082B0ED1C1F31F
:1011A0008343C9031DF803000AD5516804AAC1F39B
:1011B0004041515C0A4A5043B0FBF1F005B0704722
:1011C00008494843FAE70000020304050607080936
:1011D0000A0B0C0D0E0F101001020000001002404F
:1011E00000127A0000093D002DE9F84F040070D08C
:1011F0002078C04DC00749D06868C0F3810001283D
:1012000007D06868C0F38100022809D16868C0036C
:1012100006D52868800339D560680028E7D035E016
:101220006068B0F5803F0BD010B1B0F5A02F11D0A1
:10123000286820F480302860286820F4802002E0AC
:10124000286840F480302860606890B1FFF744FE61
:1012500006460AE0286840F480202860F0E700BFD6
:10126000FFF73AFE801B642873D828688003F7D5FF
:101270000CE0FFF731FE064605E000BFFFF72CFE4D
:10128000801B6428F0D828688003F7D420789A4E11
:1012900080074FF001094FF0000839D5686810F059
:1012A0000C0F07D06868C0F38100022809D1686874
:1012B000C00306D42868800714D52069012808D106
:1012C00010E02069B0B1C6F80090FFF705FE0746B0
:1012D00005E00AE1FFF700FEC01B0228C4D8286819
:1012E0008007F7D52868616920F0F80040EAC1005E
:1012F00028600DE0C6F80080FFF7EEFD074604E029
:10130000FFF7EAFDC01B022823D828688007F7D41E
:10131000207800072CD57948A169D9B1C0F8009090
:10132000FFF7DAFD074604E0FFF7D6FDC01B0228F1
:101330000FD8686A8007F7D571484FF4FA510068F2
:10134000B0FBF1F0009000BF0098411E0091FAD26E
:101350000EE080E0C0F80080FFF7BEFD074604E025
:10136000FFF7BAFDC01B022875D8686A8007F7D45A
:101370002078400760D5E8690027C00008D4E869F4
:1013800040F08050E861E869012700F0805000904B
:101390005C480168C90513D40168834641F4807133
:1013A0000160FFF799FD824606E000BFFFF794FD5C
:1013B000A0EB0A0064284ED8DBF80000C005F5D584
:1013C000E06801280AD008B1052813D0286A20F067
:1013D00001002862286A20F0040002E0286A40F038
:1013E00001002862E06841F2883B98B1FFF774FD84
:1013F00082460BE0286A40F004002862EEE700BF56
:10140000FFF76AFDA0EB0A0159455AD8286A800700
:10141000F6D50CE0FFF760FD824605E0FFF75CFDC6
:10142000A0EB0A0159454CD8286A8007F6D41FB1B1
:10143000E86920F08050E861E06988B36968C1F329
:101440008101022944D00228C6F8608004D0FFF749
:1014500043FD044638E034E0FFF73EFD074604E074
:10146000FFF73AFDC01B02282BD828688001F7D46B
:10147000206AB0F5803F05D16868A16820F400308B
:1014800008436860D4E908010843696821F47411CD
:1014900008436860C6F86090FFF71EFD044606E04A
:1014A00025E000BFFFF718FD001B022809D82868B7
:1014B0008001F7D51BE000BFFFF70EFD001B0228DF
:1014C00002D90320BDE8F88F28688001F4D40EE02B
:1014D0000128F7D06868226A00F48031914204D173
:1014E000616A00F47010884201D00120EAE7002010
:1014F000E8E700000010024000004242800442423F
:10150000340000200070004010B5401EB0F1807F14
:1015100001D3012010BD4FF0E02460610F2160175E
:1015200000F037FC0020A06107202061002010BDE2
:1015300070477047F8B5026804461068D16853696F
:1015400010F00F0F4FF0000553D003F0010601F427
:10155000907737435FD0C20705D0CA0503D5226C08
:1015600042F001022264420705D5DA0703D0226C5B
:1015700042F002022264820705D5DA0703D0226C0A
:1015800042F004022264020707D501F02002324330
:1015900003D0226C42F008022264226C002A34D06C
:1015A000800604D5880602D5204600F0E5FA2068BA
:1015B0004069216CC0F38010090700D430B3204685
:1015C00000F0C2FA2068416949061BD5416921F043
:1015D00040014161A06BA8B158494163A06BFFF77E
:1015E00027FB002811D0A06B416B01B0BDE8F04093
:1015F000084783060FD58B060DD52046BDE8F84079
:1016000000F0BABA2046FFF794FFF8BD2046FFF776
:1016100090FF2564F8BD266B2023012E52D1C6060B
:1016200050D5CE064ED510685068009050694006DF
:101630002AD5A16B086840680004000CEAD0A68D8A
:101640008642E7D9E0858869202818D0D06820F440
:101650008070D0602068416921F0010141612068FB
:10166000416921F04001416184F83E3025632068E2
:10167000C16821F01001C160A06BFFF7B5FAA08D21
:10168000E18D401A81B219E0A08DE18D401A81B23E
:10169000E08D0028BED00029BCD0D06820F4907026
:1016A000D0602068426922F00102426184F83E3035
:1016B00025632068C26822F01002C2602046FFF74E
:1016C00037FFF8BD05062BD50D0629D594F83D004A
:1016D0002128F6D1A068B0F5805F01D12069B0B1B2
:1016E000206A411C2162216800784860E08C401E1D
:1016F0000004000CE084E4D12068C16821F080017E
:10170000C1602068C16841F04001C160F8BD206A35
:101710000088C0F308005060206A801C2062E5E762
:101720004006F3D54806F1D5D168204621F04001A6
:10173000D16084F83D3000F024F9F8BD391B000871
:1017400070B5040004D094F83D00002510B106E007
:10175000012070BD84F83C50204600F023F824207E
:1017600084F83D002068C16821F40051C160204622
:1017700000F05EFA2068016921F49041016120685F
:10178000416921F02A0141612068C16841F400519A
:10179000C1602564202084F83D0084F83E000020CC
:1017A00070BD000030B585B000240094019402940F
:1017B00003940068184988422CD11848816941F483
:1017C00080418161816901F480410491816941F026
:1017D000040181618069124D00F0040004904FF40F
:1017E0000070009002200190032003906946284673
:1017F000FFF77CFA2815CDE90004694628460294D3
:10180000FFF774FA002211462520FFF7CFFB2520B1
:10181000FFF7BEFB05B030BD0038014000100240AC
:101820000008014090F83E30202B0ED159B152B142
:1018300090F83C30012B08D0012380F83C30002385
:10184000036300F051BA0120704702207047000086
:1018500070B51C4C00252046217842681A484C2956
:1018600000D112B1012A03D006E00122C4E901250A
:10187000A2688154521CA2600D291AD16168012905
:1018800017D1C1784FF480723039E16043790F4845
:10189000462B02D04E2B05D00AE0491E8A4091B259
:1018A000002203E0491E8A4091B20122FFF70EFB9D
:1018B0006560BDE870400448012202494438FFF7E2
:1018C000B1BF00000000002088000020000C014093
:1018D0002DE9F843044690F83D001F4616460D4694
:1018E00020284CD1C5B1BEB194F83C00012846D0A7
:1018F000012084F83C004FF00008C4F8408021200B
:1019000084F83D00FFF7E8FAA6848146E684A068E3
:10191000B0F5805F03D004E00120BDE8F8832069C2
:1019200028B12E465FF0000584F83C800EE00026CA
:10193000FAE78021204600F0F2F9A0B9AEB116F81E
:10194000010B21684860E08C401EE084E08C4B462F
:101950004FF0000200970028EBD14FF040012046E5
:1019600000F0DDF930B10320D7E735F8020BC0F302
:101970000800E6E7202084F83D000020CDE70220A3
:10198000CBE77047FEE7F0B587B00DF1300C0446A9
:101990009CE8E1008DF81670ADF80C00ADF814600D
:1019A00004958DE80E00684600F007F81822694695
:1019B0002046FEF772FC07B0F0BD10B50446807DEE
:1019C00088B13821204600F027FA0121204600F096
:1019D00023FA0C21204600F01FFA2046BDE81040F3
:1019E000062100F019BA3321204600F015FA322101
:1019F000204600F011FA2821E4E770B50D460646AE
:101A0000002405E0295D304600F020FA641CE4B2B1
:101A10002846FEF723FCA042F4D870BD2DE9F04122
:101A200086B00024254800940194029403948169AF
:101A300041F010018161816901F010010491816917
:101A400041F004018161816901F00401049181691F
:101A500041F0080181618069194F00F008004FF4DE
:101A60007F450490002229463846FFF72FFA0F20C1
:101A7000CDE90004694613480294FFF737F9009551
:101A8000032601250396CDE9015469463846FFF740
:101A90002DF9DFF8348041F60F47002239464046E1
:101AA000FFF714FA00970396CDE9015469464046C2
:101AB000FFF71CF906B0BDE8F081000000100240FD
:101AC000000C01400008014000100140FEE7FEE765
:101AD00070477047FFF706BA30B58FB028216846C7
:101AE000FEF70DFC14210AA8FEF709FC01210804E9
:101AF000CDE900100024029402250491CDE907509D
:101B00004FF4E01009906846FFF76EFB08B172B61B
:101B1000FEE70F20CDE90A054FF48060CDE90C40C7
:101B200002210AA80E94FFF773FA002801D072B6BA
:101B3000FEE70FB030BD704710B5406A0021C18587
:101B4000C184FFF7F6FC10BD0168CA6822F49072E8
:101B5000CA6001684A6922F001024A61016B0129E9
:101B600004D10168CA6822F01002CA60202180F8FE
:101B70003E1000210163704708B590F83E102229FD
:101B800001D0022008BD82684FF480539A4201D1EF
:101B9000016921B1816A9A421BD04AB10AE0026808
:101BA000816A5268C2F308020A80816A891C08E0CF
:101BB000026972B10268526802F07F020A70816A9B
:101BC000491C8162C18D491E0904090CC18503D0DD
:101BD00019E002685268F1E70168CA6822F0200241
:101BE000CA600168CA6822F48072CA6001684A69E2
:101BF00022F001024A61202180F83E10016B012988
:101C000003D0FFF725FE002008BD00210163016815
:101C1000CA6822F01002CA6001680A68D20602D5BA
:101C20000A6849680091818DFFF782FCEBE70000AC
:101C300070B5044600680169E26821F4405111431F
:101C400001612169A0680843616908432168CA6885
:101C500041F20C639A430243CA6020684169A26959
:101C600021F44071114341611E492068884202D12C
:101C7000FFF774FA01E0FFF761FA00EBC00101EB36
:101C80000012606864218000B2FBF0F3B3FBF1F353
:101C90006FF018067343B2FBF0F5B2FBF0F605EBFC
:101CA0008305322303EB0515B5FBF1F5B6FBF1F621
:101CB00005F0F00505EB0615B2FBF0F6B2FBF0F00F
:101CC000B0FBF1F06FF01802504306EB800003EB1D
:101CD0000010B0FBF1F0216800F00F00284488608C
:101CE00070BD00000038014081628285C2850021FC
:101CF0000164222280F83E2080F83C100168CA6806
:101D000042F48072CA6001684A6942F001024A6185
:101D10000068C16841F02001C160002070472DE9D2
:101D2000F041984617460E460446069D1DE0681C85
:101D30001BD02DB1FFF7D0F8A0EB0800A84214D9B2
:101D40002068C16821F4D071C1602068416921F028
:101D500001014161202084F83D0084F83E0000200C
:101D600084F83C000320BDE8F0812068006836EA72
:101D7000000004D00020B842D9D00020F3E70120B1
:101D8000F9E700000148FFF7D5BB00004400002040
:101D9000FEE70907090E002804DB00F1E02080F8C7
:101DA0000014704700F00F0000F1E02080F8141DCF
:101DB0007047000013B54FF0FF3301226946024817
:101DC000FFF786FD00981CBD440000202DE9F0417E
:101DD00017460E46054600240DE0686826FA04F210
:101DE00002F0010230F81410286850F82400FFF7C0
:101DF0006DF8641CE4B2BC42EFD3A98A01222869C1
:101E0000FFF764F80120FEF75FFFA98A2869BDE8A3
:101E1000F0410022FFF75AB870B50D46044681899B
:101E200080680022FFF752F8A07D30B108222946D1
:101E30002046BDE87040FFF7C9BF290904222046AB
:101E4000FFF7C4FF05F00F010422F1E770B50D465E
:101E50000446818980680122FFF738F8A07D30B1FF
:101E6000082229462046BDE87040FFF7AFBF290988
:101E700004222046FFF7AAFF05F00F010422F1E734
:101E80008AB0FFF737F8FFF727FEFFF7C7FD3048A6
:101E90002E49002401604FF41651C0E901140C21B1
:101EA000C460C0E904418461C461FFF749FC08B122
:101EB00072B6FEE74FF48060264B8100CDE9001337
:101EC000CDE90204244A04A802F10801FFF75BFDF2
:101ED0001F48182204A95030FEF7DFF91C481FA143
:101EE0005030FFF78AFD1C49012210391848FFF7CE
:101EF00099FC1C4CD4F8000130B91BA0FEF76EF918
:101F0000D4F800010028FBD0D4F8040130B918A09F
:101F1000FEF764F9D4F804010028FBD0D4F80801D6
:101F200030B915A0FEF75AF9D4F808010028FBD003
:101F3000D4F80C010028DDD111A0FEF74FF900BF45
:101F4000D4F80C010028FBD0D4E700000038014091
:101F500044000020001001401000002048656C6C17
:101F60006F2100000000214253575F30200A00001B
:101F700053575F31200A000053575F32200A000098
:101F800053575F33200A00000000000000000000EB
:101F9000010203040607080900000000010203040F
:101FA0003A7474003A7474003A747400CC1F0008D8
:101FB0000000002044000000280100081020000854
:101FC00044000020C4070000440100080000000095
:101FD00000000000000000000000000008000400F5
:101FE00002000100001001400010014000100140FB
:101FF000001001400100000010000000000000007F
:102000000024F400000000000000000000000000B8
:04000005080000ED02
:00000001FF
