:020000040800F2
:1000000078160020FD0100082B3500087D3400081B
:1000100029350008751C0008815200080000000006
:10002000000000000000000000000000433800084D
:10003000051D000800000000413800084538000890
:10004000170200081702000817020008170200082C
:10005000170200081702000817020008170200081C
:10006000170200081702000817020008170200080C
:1000700017020008170200081702000817020008FC
:10008000170200081702000817020008FD510008B7
:10009000095200081702000817020008170200089A
:1000A00017020008170200081702000817020008CC
:1000B00017020008170200081702000817020008BC
:1000C00017020008170200081702000817020008AC
:1000D000170200081702000817020008A93A0008D2
:1000E00017020008170200081702000800F002F8C3
:1000F00000F075F80AA090E8000C82448344AAF14D
:100100000107DA4501D100F06AF8AFF2090EBAE84A
:100110000F0013F0010F18BFFB1A43F0010318473B
:10012000206F0000406F00000A444FF0000C10F8F0
:10013000013B13F0070408BF10F8014B1D1108BF65
:1001400010F8015B641E05D010F8016B641E01F805
:10015000016BF9D113F0080F1EBF10F8014BAD1C55
:100160000C1B09D16D1E58BF01F801CBFAD505E073
:1001700014F8016B01F8016B6D1EF9D59142D6D3CD
:10018000704700000023002400250026103A28BFF5
:1001900078C1FBD8520728BF30C148BF0B607047F9
:1001A000662906F02D86002070471FB59DE80300E4
:1001B00000F06EFF00F03EFC04000020002105F07E
:1001C000F1FF401C60600020002106F001F8E060B3
:1001D00000F056FD1FBD10B500F0BBFD10BD00F0D6
:1001E0001EFE1146FFF7E1FF05F090F900F022FF37
:1001F00003B4FFF7F0FF03BC01F0DCF809488047C7
:1002000009480047FEE7FEE7FEE7FEE7FEE7FEE7F8
:10021000FEE7FEE7FEE7FEE704480549054A064B10
:1002200070470000BF380008ED000008780F00207C
:100230007816002078120020781200200FB40449AC
:1002400010B503AA029800F06DFB10BC5DF814FB1A
:100250006C0E00202DE9F0410E460446002020627D
:100260002046E168884730B3252805D0D4E901212C
:100270009047206A401CF2E7E16820460027884743
:10028000050018D0A5F14100192802D820354FF4F7
:1002900000673246294620462760FFF781FF40B1BC
:1002A000012804D0F61D26F007060836D8E7361DCB
:1002B000D6E72846DAE7206ABDE8F08170B5064641
:1002C00000F012F90468054630460A22002100F0C9
:1002D00002F82C6070BD2DE9F04791460F4680462C
:1002E0000446002614F8015B2DB100F0F5F8006813
:1002F000405DC007F6D12B2D02D02D2D18D0641EE5
:100300004A463946204600F01FFB27B13968A14212
:1003100001D1C7F800804FF0020471050BD54042AF
:10032000002803DD00F0E0F80460A007BDE8F087D6
:1003300046F48066E4E70028F8DA00F0D5F80460B7
:100340006FF00040F2E710B5203AC0F00B80B1E842
:100350001850203AA0E81850B1E81850A0E81850FA
:10036000BFF4F5AF5FEA027C24BFB1E81850A0E803
:10037000185044BF18C918C0BDE810405FEA827C1D
:1003800024BF51F8043B40F8043B08BF7047D20734
:1003900028BF31F8023B48BF11F8012B28BF20F8D5
:1003A000023B48BF00F8012B70474FF0000200B538
:1003B000134694469646203922BFA0E80C50A0E888
:1003C0000C50B1F12001BFF4F7AF090728BFA0E836
:1003D0000C5048BF0CC05DF804EB890028BF40F802
:1003E000042B08BF704748BF20F8022B11F0804F44
:1003F00018BF00F8012B704710B5044610F0030F2A
:1004000008BF11F0030F40F015804FF0013E121F9E
:10041000C0F20E8051F8043BA3EB0E0C2CEA030C47
:100420001CEACE1C08BF40F8043BF0D0A1F1040147
:1004300002F10402521E08DB11F8013B002B00F808
:10044000013BF7D1114600F0CEFA204610BD000066
:100450004FF0013C50F8042B51F8043B9A4221D153
:10046000A2EB0C03934313EACC1317D150F8042BDF
:1004700051F8043B9A4215D1A2EB0C03934313EAC3
:10048000CC130BD150F8042B51F8043B9A4209D1FC
:10049000A2EB0C03934313EACC13DBD04FF0000024
:1004A000704700BFD01A01BAB1FA81F101F018010A
:1004B00022FA01F0CB40C1F12001DBB2C0B2C01A78
:1004C0002CFA01F3D11A914311EAC311E6D1704716
:1004D000704770477047000010B500F0ABFA001D80
:1004E00010BD00BFC15C000000487047140F002021
:1004F00010B5FFF7F9FF006810BD10B50446FFF70F
:10050000F3FF046010BD70472DE9FF4F0C461E46F7
:100510004FF0FF378BB0D2E90001DDF860800A9020
:100520008A46C1F30A5505B93D46002108464FF0F9
:100530000000BAF1000F00F4400005DA00EB800083
:100540004FF4400101EA50004FEA9059B9F1010F10
:1005500000DDB9460A9850EA4A000ED044F6105021
:10056000A5F2FF3545432F14B8F1000F1ED0754298
:10057000291E1EDDC9F100021CE0B8F1010F4FF089
:10058000000001D0302103E0F24305E02154401C7B
:10059000B042FBDB30460022002121540B99C1F808
:1005A0000880C1E900200FB0BDE8F08FBD1B6D1CB5
:1005B000DEE74A4600DA694206A800F0EBFA06AB2D
:1005C00093E8070003AB83E8070050460A9900F060
:1005D00089FF8DE80700A0F500501F3800900398B0
:1005E000002D0ADD42F21F014A460844002303A9F8
:1005F0000390684601F0F2F909E0A0F500504A4680
:100600001F38002303A90390684601F0FCF98DE828
:1006100007000004000C03D04FF0FF30410800E059
:100620001046B8F1000F03D00022009215461EE0DC
:10063000751E05D400F002FA303262556D1EF9D5F0
:10064000B3460122084302D000227F1C04E0207838
:10065000302801D100227F1E002A099784D01DE096
:10066000112D07DA00F0EAF9303262556D1C50EABC
:100670000102F5D1084302D00098C8B10EE0002174
:10068000681E05E0235C625C63542254401E491CD2
:100690008142F7DBAB46A81B401E0990002004F8FE
:1006A0000B000B98099AC0F80880C0E9002B7AE784
:1006B00011264FF0000857E72DE9F04F8846044611
:1006C000D21D22F0070191B0D1E90001CDE90A0164
:1006D00004F0E6FD02460B98C00F01D02D2007E084
:1006E0002068810701D52B2002E0202101EAC0000B
:1006F000032A099001D0072A05DB0346414620461C
:1007000000F0FAF90BE12078800601D5E06900E0FD
:100710000620B8F1650F814606D0B8F1660F18D0F3
:10072000B8F1670F70D131E00020B9F1110F0090DE
:1007300001DB112301E009F101030AAA01A90CA8B8
:10074000FFF7E2FEDDE90C70002609F101058346A2
:1007500047E001204B4600904FF000470AAA01A94C
:100760000CA8FFF7D1FEDDE90DB00C995D4600261F
:1007700010B909F101000D18B9EB050003D4C0F15F
:10078000FF3609F10105A5EB09002BE0B9F1010FD6
:1007900001DA4FF001090020B9F1110F009048462D
:1007A00001DD112300E003460AAA01A90CA8FFF706
:1007B000ABFEDDE90C704D4600268346207800072D
:1007C0000AD4AB4500DA5D4601A8012D04DD4119CC
:1007D00011F8011C302907D04F4502DA17F1040F38
:1007E00004DA012082460FE06D1EEEE7002F02DCE6
:1007F000ED1B3E4403E0781CA84200DD7D1CB81BC5
:1008000000F1010A4FF000472078000703D4AA4501
:1008100001DB4FF0FF3A0021B7F1004F0DF1430823
:100820008DF8431024D002202B23002F01DA7F42C1
:100830002D230A21021EA0F1010000DC5FB197FB0D
:10084000F1FC97FBF1F201FB1C7C17460CF1300C1C
:1008500008F801CDEEE7A8F1010003702188090531
:1008600001D5452100E06521A0F1010800F8011C37
:1008700009980FA9A1EB0807FF1D00B1012041193C
:1008800001EBEA70A1693844081A401EA061207883
:10089000C00602D42046AFF30080099828B1D4E9FD
:1008A00001219047206A401C20622078C00622D592
:1008B0002046AFF300801EE0002E04DBB34502DDCE
:1008C00001A8805D00E03020D4E901219047206A32
:1008D000401C2062761CAAF101005FEA000A0AD1DE
:1008E00000F0A8F8C0680168405CD4E90121904795
:1008F000206A401C2062281EA5F10105DCDC07E00F
:10090000D4E9012118F8010B9047206A401C2062AD
:10091000381EA7F10107F3DC2046AFF30080032067
:1009200011B041E6074B70B50D467B4400F0D1F89D
:100930000446284600F0A0F910B14FF0FF3070BD1A
:10094000204670BDCF4B00002DE9F05F8246154672
:100950008B4600270AF10104B9460078302801D0FF
:100960009DB113E014F8010B0127782803D0582813
:1009700001D045B10AE00DB1102D07D1002714F8C0
:10098000010B102502E0082500E00A250026B046EC
:100990000EE005FB080005FB06F101271FFA80F8B1
:1009A00001EB1046B6F5803F00D3B94614F8010BB1
:1009B000294600F0E1F80028EBDABBF1000F05D082
:1009C0000FB1641E00E05446CBF80040B9F1000FAF
:1009D00006D0FFF789FD02210160C81EBDE8F09F27
:1009E00048EA0640FAE74FF000020429C0F01280FE
:1009F00010F0030C3FF4DBACCCF1040CBCF1020FA3
:100A000018BF00F8012BA8BF20F8022BA1EB0C01A6
:100A1000FFF7CDBC5FEAC17C24BF00F8012B00F8D2
:100A2000012B48BF00F8012B7047000000487047B9
:100A3000140F002000487047340F002030B5B0F18B
:100A40000A024FEA900E71F100034EEA817EB0EB8C
:100A50000E0061EB91014FEA101E4EEA017E10EB91
:100A60000E0041EB11114FEA102E4EEA016E10EB11
:100A70000E0041EB11214FEA104E4EEA014E10EBF1
:100A80000E0041EB1141401841F100014FEAD00046
:100A900040EA41704FEAD10110EB80054FEA810432
:100AA00044EA907444EB01046D1944EB0404521BB6
:100AB000A3414FF0000348BF0A3200D530BD401CAF
:100AC00041F1000130BD000001694A1C0261087853
:100AD000704700B58FB0CDE901310021059105497E
:100AE0007944CDE9031011466846FFF7B3FB0FB018
:100AF00000BD0000E5FFFFFF2DE9F0411F46044661
:100B000003260168072A01F4006004DB08B116A57A
:100B100005E016A503E008B115A500E015A521F034
:100B200010002060A069C01EA0610FB1401EA0612E
:100B30002046AFF300804FB1D4E9012138469047F9
:100B4000206A401C2062C01C206206E0206AFAE78E
:100B5000D4E9012115F8010B9047761EF8D2204602
:100B6000AFF30080BDE8F0814E414E006E616E0033
:100B7000494E4600696E66003A2800D2303820F0AF
:100B80002002412A01D3A2F13700884201D34FF05D
:100B9000FF3070472DE9F047814616468AB0354848
:100BA00078440DC88DE80D0032487844801C03ACB1
:100BB0000DC884E80D0041F69B300844372190FBB6
:100BC000F1F290FBF1F5A5F1800501FB12041B3C4D
:100BD00002D56442012000E00020DFF898A08046A2
:100BE0000027FA44AAF1BE0A0EE0E0070AD0324616
:100BF000684607EB470101230AEB810100F003FF80
:100C00008DE8070064107F1C002CEED1194F7F4443
:100C1000AE3F19E0E80715D007EB04100DF1180AF4
:100C200090E80E008AE80E00C068F04201D19819E1
:100C300008903246012306A903A800F0E4FE03ABA6
:100C400083E807006D10641C002DE3D14FF0010311
:100C500032466946B8F1000F03A802D000F0BEFE8C
:100C600001E000F0D0FEC9E90001C9F808200AB08F
:100C7000BDE8F08778640000007B00F080007047DA
:100C800010B542485421FFF790FB41485421FFF72B
:100C90008CFB40485421FFF788FB3F493B483C4AC6
:100CA0003F4B08603D490A603A491960531C03658F
:100CB000481C1065012008653B48344A39A1784436
:100CC00000F01CF920B9384878440A3800F0BBF924
:100CD00037482F4A35A1784400F010F920B934483C
:100CE00078440A3800F0AFF932482A4A2FA17844F4
:100CF00000F004F920B92F4878440A3800F0A3F92D
:100D000040232248DC000021224600F0D4F820B124
:100D100025487844543800F096F91D48224640236F
:100D2000002100F0C8F820B121487844543800F080
:100D30008AF9184822461023002100F0BCF8002848
:100D400006D01C487844BDE81040563800F07BB906
:100D500010BD104870B5006D20F001040B4800F084
:100D600043F90B4800F040F90A4800F03DF909E06A
:100D7000206D20F00105204600F036F9204600F0F5
:100D800073F82C46002CF3D170BD0000180E002023
:100D90006C0E0020C00E0020CC010020D0010020ED
:100DA000D401002072000000726300007700000090
:100DB0005E6300004A6300000EB5CDE9000100F05B
:100DC000D9FA029069460120ABBE0EBD08B569464E
:100DD00000900220ABBE08BD1FB58DE80700694634
:100DE0000520ABBE04B010BD1FB58DE80F006946ED
:100DF0000620ABBEF6E708B5694600900920ABBEF9
:100E000008BD1CB5CDE9000169460A20ABBE1CBD7A
:100E1000704708B5694600900C20ABBE08BD75460A
:100E2000FFF704FEAE4605006946534620F0070072
:100E3000854618B020B5FFF7EFF9BDE820404FF028
:100E400000064FF000074FF000084FF0000B21F0B4
:100E50000701AC46ACE8C009ACE8C009ACE8C00981
:100E6000ACE8C0098D46704770B50446051F00F018
:100E7000F3F80068002C14BF446870BD002C18BF44
:100E8000AC423CBF20466468F8D301680A18AA4205
:100E900018BF456003D12A680546114401602868DF
:100EA0004119A1421CBF6C6070BD61686960216816
:100EB0000844286070BD70B5C468A50713D06502EA
:100EC00011D4B2F5807F09D0B2F5007F06D0B2F51B
:100ED000806F08D1012300F1240106E05D1E6FF050
:100EE0007F46B54201D3012070BD0161C3614160FD
:100EF00024F470611143C160002070BD2DE9F04100
:100F00000C4607461646104600F06EF82078611C25
:100F100061280AD0722802D077283CD102E001254E
:100F2000002405E00225042402E0082448F202051A
:100F300011F8010B2B2806D0622809D011F8010CFA
:100F400074280AD00BE045F0030544F00204EFE7F3
:100F500045F0040544F00104EAE744F01004384683
:100F60002146FFF729FF411C15D000213161716036
:100F70004FF40071F560F1617061200704D53046CF
:100F80000222002100F0E2F8306D40F001003065EF
:100F90003046BDE8F0810020FBE72DE9F0410D4629
:100FA0000646104C206DC10704D0410804D020F043
:100FB0000104F7E722460EE0542000F098F80700FD
:100FC0000ED0206D47F001010843542120653846BA
:100FD000FFF7EBF93A4629463046BDE8F0418DE788
:100FE0000020D6E7180E00202DE9F04704464FF008
:100FF00000094FF0FF37C568D4E90486A80707D079
:10100000204600F053F93046FFF7E0FE002802DAF0
:101010003846BDE8F087280502D54046FFF724FF93
:101020004C212046FFF7C1F9206D20F0010020651A
:101030004846EEE710B50446AFF300802046BDE811
:101040001040FFF7D5B810B500F07AF9BDE81040B0
:1010500000F070B970470000004870471C0F002076
:10106000704770477047704738B504460A460020FD
:101070006946AFF30080002808BF38BD02460099DA
:10108000204600F0A4F9012038BD012000F0F3B99A
:10109000F8B5AFF30080054600200C46102000BFD5
:1010A0000646A819A0420DD9324669460020AFF382
:1010B0000080070008BF00F0DEF90098A04218BFCA
:1010C0000546C419FFF7C8FF05600746F01D20F06C
:1010D00007004619284600F073F9B44208BFF8BD6E
:1010E000A21B31463868BDE8F84000F070B970B511
:1010F0000646FFF7B1FF056806F10B0020F0070474
:10110000B4429CBF002070BD2B466A68BAB110681B
:10111000A04210D304F1080188423CBF50685860D7
:1011200007D35168101941601168091B01605860AC
:101130001460101D70BD13465268002AE7D1214685
:101140002846FFF791FF0028DED170BD2DE9F04160
:10115000044616460D464769007B80072ED0384668
:10116000FFF749FE50BB3EB3012E02D0022E25D11F
:1011700004E0204600F045F905441DE03846FFF73D
:1011800048FEE168002841F01001E16005DA2046E0
:1011900000F058F80120BDE8F081C9030BD5626862
:1011A000E16A914200D81146A26911442269891A64
:1011B000814200DD08460544002D01DA0220EAE7FD
:1011C000E16A6068E268814206D29103E06203D579
:1011D00022F4003141F01002A6690027AE4213DC70
:1011E000E16A814201D90B4600E0034603EB060C9D
:1011F0002369ACEB030CAC4506DD814201D98C467A
:1012000000E084469C4505D1A760276042F020009D
:10121000A5620DE0AD1BE669AE1B8142A66000D958
:101220000846C01A281A20605819606022F0200071
:1012300003490840E060002084F84870ABE70000F4
:10124000BFCFD7FFC16821F4001141F08001C16018
:1012500000218160016070472DE9F0478146144606
:101260000E464FF0FF383248D5685769054209D01D
:101270003846A169FFF7C5FD002811DB2C48C043A3
:101280000540E5602B46324649463846FFF7A4FD47
:10129000A16920F00042B21A11440028A16103D0D4
:1012A0002046FFF7CFFF4046BDE8F08770B5044603
:1012B0000569C06A6168884200D80846E16821F47F
:1012C0002011E160C90312D5A84208D02246411B73
:1012D0002846FFF7C1FF10B14FF0FF3070BD00206E
:1012E000E562C4E90150E06820F48030E06000204D
:1012F00070BD10B50446C06820F02000E060A16A0F
:10130000A06988420DD02046FFF7D0FFE06820F4A6
:10131000405040F01000E060A06AA0612069E062E7
:10132000606044F24001E0688843E06010BD000066
:1013300010000200002801D000F03CB87047000007
:1013400010B5014602A000F07DF8012010BD00009C
:1013500053494752545245443A2052656469726574
:1013600063743A2063616E2774206F70656E3A2053
:101370000000000010B5431C02E010F8011B71B121
:101380008107FAD14FF0013202C88C1A8C4314EA5B
:10139000C211F9D0C01A0A0603D0C01E10BDC01A6F
:1013A00010BD0A0401D0801E10BD0902FCD0401EF1
:1013B00010BD000001491820ABBEFEE72600020068
:1013C00000210160C0E901107047102070470346FA
:1013D00040688C46002818BF88423CBF03464068DE
:1013E000F8D318681844884207D00CF1030020F0A5
:1013F0000700001D411A521A0146081D0A60FFF736
:1014000033BD10B50146C268900703D0900607D5DA
:10141000886A0AE0FFF768F801210160881E10BDA4
:101420008B69486818440B69C01A91F848301BB1A1
:1014300091F84910401A10BD1103FCD50028FADDBF
:10144000401E10BD70B505460C460A2000E06D1C1C
:1014500000F018F835B128780028F8D102E0641CB3
:1014600000F010F814B120780028F8D1BDE87040E1
:101470000A2000F007B810B500F00CF8BDE81040E5
:10148000FFF758BF08B569468DF800000320ABBED2
:1014900008BD000010B5012805D0002103A0FFF70A
:1014A000D1FF012010BD09A1F8E7000053494752C0
:1014B000544D454D3A204F7574206F662068656124
:1014C00070206D656D6F7279000000003A204865EC
:1014D0006170206D656D6F727920636F72727570C7
:1014E000746564005FEA400C08BF91F0000F4FEA9A
:1014F0008C234FEAC12243EA51514FEA1C5018BFD6
:1015000000F5F0404FEA300018BF41F000415FEABB
:101510006C5C00F02980BCF1FF3F08BF40F08040C8
:101520007047130C06BF12044FF0100C4FF0000C64
:10153000130E04BF12020CF1080C130F04BF1201AA
:101540000CF1040C930F04BF92000CF1020CD30FAA
:1015500004BF52000CF1010C11464FF00002A0F143
:101560001F00A0EB0C00704711F0004F08BF704740
:1015700031F000413FF4D5AF0B0C06BF09044FF02A
:10158000100C4FF0000C0B0E04BF09020CF1080CFC
:101590000B0F04BF09010CF1040C8B0F04BF890071
:1015A0000CF1020CCB0F04BF49000CF1010CCCF183
:1015B0002003A0EB0C0022FA03F302FA0CF241EA3A
:1015C000030100F10100704720F07F4C80EA030026
:1015D00023F07F47ACEB070303F57C5300F000409A
:1015E00003F1FF032DE980494FEA154B09B44FEA97
:1015F000144325EA0B4E24EA03480FF2042606EBB7
:10160000132749083E785FEA320203FB0667C7F5F5
:10161000000707FB06F64FEA54374FEAD64606F1B5
:10162000020607FB066CCCF1005C4FEA1C472CEA73
:10163000074C07FB06F40CFB06F504EB15464FEAD6
:10164000961634BF00204FF000404FEAD13706FB1A
:1016500007FC4FEA1C4C0CFB0BF7D21B03FB0CF7EF
:1016600061EB07010CFB0EF7B0EB074072EB174282
:101670000CFB08F734BFA2EB0742B2EB074261EB69
:1016800017414FEA0C444FEA910706FB07FC4FEA6B
:101690001C4C0CFB0BF7B0EBC74072EB573203FB53
:1016A0000CF734BFA2EBC742B2EBC74261EB573134
:1016B0000CFB0EF7B0EBC70072EB57720CFB08F790
:1016C00034BFA2EBC702B2EBC70261EB5771039FB5
:1016D0004FEA816141EA921104EBCC044FEAD13721
:1016E0004FEA826206FB07FC42EA90124FEA8060F2
:1016F0004FEA1C4C0CFB0BF7D21B03FB0CF761EB06
:1017000007010CFB0EF7B0EB074072EB17420CFB26
:1017100008F734BFA2EB0742B2EB074261EB174177
:101720004FEA8C554FEA910704EB9C2406FB07FC1B
:101730004FEA1C4C0CFB0BF7B0EBC74072EB573277
:1017400003FB0CF734BFA2EBC742B2EBC74261EB1D
:1017500057310CFB0EF7B0EBC70072EB57720CFB66
:1017600008F734BFA2EBC702B2EBC70261EB5771B7
:1017700015EB4C254FEA816141EA92114FEA8262F2
:101780004FEAD13742EA901206FB07FC44F100040D
:101790004FEA80604FEA1C4C0CFB0BF7D21B03FB9B
:1017A0000CF761EB07010CFB0EF7B0EB074072EB97
:1017B00017420CFB08F734BFA2EB0742B2EB07421B
:1017C00061EB174115EB1C154FEA813141EA92415B
:1017D0004FEA823242EA90424FEA80304FEA0C767A
:1017E00044F1000448EA03434EEA0B484FF0000E70
:1017F000B2EB080C71EB030724BF624639464EEB8F
:101800000E0E4FF0000B0018524149414BEB0B0BF1
:10181000B2EB080C71EB03077BF1000B24BF6246AF
:1018200039464EEB0E0E4FF0000B00185241494165
:101830004BEB0B0BB2EB080C71EB03077BF1000BCE
:1018400024BF624639464EEB0E0E51EA020718BF1E
:1018500046F0010616EB0E7655F1000254F1000138
:1018600003D5BDE88901BDE80088BDE88901BDE870
:101870000048B619524141EB0101A3F10103704741
:1018800080807F7E7D7C7B7A7978777676757473BD
:10189000727171706F6E6E6D6C6C6B6A6A6968687C
:1018A000676666656464636362616160605F5F5E12
:1018B0005E5D5D5C5C5B5B5A5A5959585857575688
:1018C00056555555545453535252525151505050ED
:1018D0004F4F4F4E4E4D4D4D4C4C4C4B4B4B4A4A3F
:1018E0004A49494948484847474747464646454583
:1018F00045444444444343434342424242414141BC
:10190000002B9C4630D477002BD01CB54FEA37070C
:1019100003B44FF010004FF01001BAF1000F06D0E1
:10192000BCF1000FDCBF40F0080040F008014FF0B0
:1019300000000FBCBDE810400BF1010BBBF1010F23
:1019400008BF5FEA170722BF12F1010211F101017E
:101950004FF0004143F1000300F0004043EA000073
:101960007047F9D35708D0E746EA064613F1400F0F
:101970004FEA16461FDD13F1200FDFBF16430A465C
:10198000002120335B42BED0C3F1200746EA064661
:1019900002FA07F74FEA164646EA0706C3F12007A0
:1019A00022FA03F201FA07F721FA03F14FF00003DC
:1019B00042EA0702A7E746EA020646EA06464FEA77
:1019C000164646EA0106BCBF46EA0646360C4FF00C
:1019D00000034FF000024FF0000194E72DE9804C26
:1019E0009A46934670B491E8380007C831EA400C33
:1019F00048BF34EA430C03D5FFF7E6FDFFF780FF4D
:101A0000F0BCBDE8008C2DE9804C9A46934670B43A
:101A100091E8380007C810F0804F08BF13F0804FDE
:101A200003D100F005F8FFF76BFFF0BCBDE8008CB8
:101A300020F07F4780EA030023F07F4C07EB0C0384
:101A4000A3F57C5300F00040A3F1FE0392F0000FD9
:101A500000F0B38095F0000F00F077802DE9014988
:101A60004FEA11404FEA144621EA004800FB06FC09
:101A700024EA064708FB06F607FB08F800FB07F711
:101A800018EB06484CEB164C4FEA124B18EB074884
:101A90004FEA15464CEB174022EA0B4E0BFB06FCB7
:101AA00025EA06470EFB06F607FB0EFE0BFB07F7C3
:101AB0001EEB064E4CEB164C4FF000061EEB074E8D
:101AC0004CEB174B18EB0B0840F1000018EB0E0B1A
:101AD00058EB000840F100008F1A4FF000013CBFA6
:101AE000C943661B14BFB5EB040C00213CBFC943BE
:101AF000F61B4FEA17444EEA8E0E27EA04454FEADA
:101B00001C4704FB07622CEA074C05FB07F70CFB9C
:101B100005F604FB0CFC16EB074642EB174216EBEE
:101B20000C4642EB1C421BEB060658EB02024141FD
:101B300046EA9E0601D5BDE80189B619524141EB3E
:101B40000101A3F10103BDE801894FEA14454FEA01
:101B5000114724EA054621EA074C05FB07F406FB7A
:101B600007F70CFB06F105FB0CFC11EB074144EBFE
:101B700017444FEA124711EB0C4144EB1C4422EA94
:101B8000074C05FB07F206FB07F70CFB06F605FB07
:101B90000CFC16EB074642EB174216EB0C4642EBE9
:101BA0001C456A1854F1000148BF7047B6195241EC
:101BB00041EB0101A3F10103704795F0000F37D00D
:101BC0004FEA11424FEA144721EA024624EA074C41
:101BD00002FB07F106FB07F70CFB06F402FB0CFC0B
:101BE00014EB074441EB17414FEA154714EB0C4443
:101BF00041EB1C4125EA074C02FB07F506FB07F702
:101C00000CFB06F602FB0CFC16EB074645EB1745F2
:101C100016EB0C4645EB1C42121951F1000148BF6E
:101C20007047B619524141EB0101A3F1010370471E
:101C30004FEA14454FEA114724EA054621EA074CCA
:101C400005FB07F106FB07F70CFB06F24FF0000659
:101C500005FB0CFC12EB074241EB174112EB0C4267
:101C600051EB1C4148BF7047921841EB0101A3F1B1
:101C700001037047064C4FF47A7500BFD4F8A001F9
:101C800080F00100C4F8A001284600F0ADF8F5E7A7
:101C900000802142002070470020704710B50022CC
:101CA0000549064801F0F8FF03490448403901F0AE
:101CB000EDFF002010BD0000CC080020C80300206C
:101CC00010B50146034801F0E1FF024801F0C2FFF0
:101CD000002010BDC8030020094A10B5D2F8B82270
:101CE000D2F814220AB1012010BD0A460146044868
:101CF00001F0D2FFBDE81040014802F02BB800000F
:101D0000C8030020704772B6FEE710B590F82110A6
:101D10000022022905D00421816380F820200120BF
:101D200010BD01680B6823F00E030B6001680B689F
:101D300023F001030B6090F84030C46B012101FADD
:101D400003F3636080F8211080F82020104610BD56
:101D500010B590F821100024022903D004218163DA
:101D600001243DE001680A6822F00E020A60016861
:101D70000A6822F001020A601A4A0168914201D100
:101D8000012121E0174A1432914201D110211BE0B8
:101D9000144A2832914201D1891515E0114A3C328A
:101DA000914201D189140FE00E4A5032914202D182
:101DB0004FF4803108E00B4A6432914202D14FF473
:101DC000801101E04FF08071064A083A516001210C
:101DD00080F82110002180F82010416B01B1884764
:101DE000204610BD0800024070B5044600F0FEF821
:101DF0000546601C02D004480078044400F0F6F860
:101E0000401BA042FAD370BDA80000202DE9F84F76
:101E1000DFF8B891002409F1040A0AF1040B234603
:101E20000F270BF1040EC9E00125A5402A40AA4264
:101E30007DD1674ED1F804C0ACEB0608B44532D072
:101E400014DCBCF1030F3AD009DCBCF1000F2AD03E
:101E5000BCF1010F1CD0BCF1020F31D11DE0BCF16F
:101E6000110F17D0BCF1120F2AD119E0B8F5881F55
:101E700019D006DCB8F5803F15D0B8F5801F1FD10A
:101E800011E0B8F5001F0ED0B8F5041F18D10AE014
:101E9000CB6815E0CB681B1D12E0CB6808330FE060
:101EA000CB680C330CE08B682BB1012B4FF008038F
:101EB00003D0456104E0042302E0056100E0002353
:101EC000FF2A01D8064601E000F104064FEA840526
:101ED00001D9A5F12005D6F8008007FA05FC28EA0B
:101EE0000C0803FA05F548EA0508C6F800804D68B5
:101EF000ED0062D5374DAE6946F00106AE61AD69C1
:101F000024F0030605F001050095334D06EB050CA2
:101F1000DCF80850A607360F07FA06F825EA080588
:101F2000DFF8B880404503D14FF0000817E044E0E7
:101F3000DFF8AC80404502D14FF001080FE0DFF838
:101F4000A480404502D14FF0020808E0DFF89880F5
:101F5000404502D14FF0030801E04FF0040808FAB1
:101F600006F848EA0508CCF808804D68D9F8006002
:101F7000ED034D4601D5164300E096432E604D68B3
:101F8000DAF80060AD03554601D5164300E09643EC
:101F90002E604D68DBF80060ED025D4601D516430A
:101FA00000E096432E604D68DEF80060AD02754695
:101FB00001D5164300E096432E60641C0D682A4646
:101FC000E5407FF431AFBDE8F88F00000004014028
:101FD0000000111000100240000001400008014004
:101FE000000C0140001001400014014001488068CD
:101FF00070470000A8000020024881680278114460
:1020000081607047A8000020074810B5016841F0C2
:1020100010010160032000F073F8002000F006F8C2
:1020200000F024F8002010BD0020024070B50D4DD6
:1020300004464FF47A712878B1FBF0F00A49096838
:10204000B1FBF0F001F036F848B9102C07D20022AD
:102050002146501E00F034F800206C6070BD012055
:1020600070BD0000A8000020B40000200B4808B597
:10207000816941F001018161816901F001010091F3
:10208000C16941F08051C161C06900F08050009089
:102090000348416821F0E061416008BD0010024042
:1020A00000000140002809DB00F01F0201219140DF
:1020B0004009800000F1E020C0F8001170470000E6
:1020C000F0B40E4B1B680C46C3F30223C3F10705A3
:1020D000042D00D90425191D072901D2002300E091
:1020E000DB1E012606FA05F1491E214099409E405B
:1020F000761E16403143F0BC03F0E6B80CED00E06C
:10210000064900F0070208684FF6FF03184040EA4E
:102110000220034A10430860704700000CED00E005
:102120000000FA0510B50C0607D501F0070101EB18
:10213000810100EBC100283005E001EB810100EBDB
:10214000C10000F5B47099B232B10122027301816D
:10215000190C4181002010BD00220273C180F9E7F3
:10216000704701EB810200EBC202D0F8E802D26BAB
:1021700001F09FBF01EB810200EBC202D0F8E80240
:10218000D2F87C2101F0F8BF70B504460B0601F0CF
:10219000070000EB800104EBC1014FF001024FF09A
:1021A000000503D581F82920283103E081F8695121
:1021B00001F5B471087094F8A802012808D084F8D9
:1021C000A822206802F018FC84F8A852002070BDF4
:1021D000022070BD70B5044601F00F0062689042A5
:1021E00001D9012070BD0B0601F0070000EB800152
:1021F00004EBC1014FF001024FF0000503D581F857
:102200002920283103E081F8695101F5B4718D70FE
:10221000087094F8A802012808D084F8A822206841
:1022200002F087FC84F8A852002070BD022070BD27
:102230002DE9F05F04685FEA424C0B788D69B4F8D1
:1022400050C04FF000064BF68F7948F2800A48F6EE
:102250008F7B48F2C00E4FF480672AD54FF00208FA
:1022600008EBC308C44407EB4C07E45BC4F3090460
:10227000A54203D32D1B8D6101D00BE08E61066852
:1022800036F8235005EA090585F4005545EA0A05A4
:1022900026F82350520609D50D78036833F8252017
:1022A00002EA0B0242EA0E0223F8252084B30A89CF
:1022B00029E04FF0060808EBC308C44407EB4C07BD
:1022C000E45BC4F30904A54203D32D1B8D6101D047
:1022D0000BE08E61066836F8235005EA090585F49F
:1022E000005545EA0A0526F82350520609D40B7812
:1022F000056835F8232002EA0B0242EA0E0225F8AF
:1023000023202CB14A8949690068234602F086FFE0
:102310002046BDE8F09F2DE9F05F054600680C46B9
:102320005FEA426C16468B692278B0F850C048F6D6
:102330008F774CF280094FF6FF7B4FF4004E4FF43D
:10234000806A4FF000017BD54FF0020808EBC2080D
:10235000E0440AEB480C30F80C00C0F3090083425B
:1023600011D91B1AA3610FD0730407D52E6836F854
:1023700022303B4043EA090326F8223094F8242017
:10238000012A50D04EE1A161607810B1012813D02C
:102390001AE02868B0F85030184400EB0210B0F88A
:1023A000042422F4F842A0F80424B0F8042442F4EF
:1023B0000042A0F8042407E02868B0F85030184420
:1023C00000EB0210A0F804146278286812B1012A08
:1023D00011D018E0B0F850100844217800EB01103B
:1023E000B0F80C1421F4F841A0F80C14B0F80C1457
:1023F00041F4004105E0B0F850201044227800EB91
:102400000210A0F80C1421782846FFF7AAFE7004E9
:10241000B8D521782A6832F82100384040EA09000E
:1024200022F82100FEE0626902446261E26902442E
:10243000E2612369226A9A4203D31846111A04E022
:1024400038E084F824100AB110462162617811B195
:10245000012923D02BE02968B1F8502011442278BB
:1024600001EB021101F2044148B13E280FD84208A5
:10247000C30700D0521C0BEA82220A8017E00A88A8
:1024800022F4F8420A800A8842F40042F5E7420941
:10249000C30600D1521E4EEA8222EEE72968B1F847
:1024A00050201144227801EB0211A1F8040483B2F8
:1024B0002289B3E04FF0060808EBC208E0440AEBBB
:1024C000480C30F80C00C0F30900834211D31B1AEA
:1024D000A3610FD0730407D42E6836F822303B4036
:1024E00043EA090326F8223094F82420012A50D028
:1024F00098E0A161607810B1012813D01AE0286833
:10250000B0F85030184400EB0210B0F8042422F464
:10251000F842A0F80424B0F8042442F40042A0F8E1
:10252000042407E02868B0F85030184400EB02108B
:10253000A0F804146278286812B1012A11D018E0BA
:10254000B0F850100844217800EB0110B0F80C14DA
:1025500021F4F841A0F80C14B0F80C1441F4004137
:1025600005E0B0F850201044227800EB0210A0F8EB
:102570000C1421782846FFF7F4FD700452D4227819
:10258000296831F82200384040EA090021F8220089
:1025900048E0626902446261E2690244E2612369DF
:1025A000226A9A4203D31846111A216204E00AB142
:1025B0001046216284F824106278296812B1012A39
:1025C00022D029E0B1F850201144227801EB021109
:1025D00001F20C4148B13E280FD84208C30700D091
:1025E000521C0BEA82220A8016E00A8822F4F84282
:1025F0000A800A8842F40042F5E74209C30600D186
:10260000521E4EEA8222EEE7B1F8502011442278A1
:1026100001EB0211A1F80C04628983B26169286898
:1026200002F01AFE21782A6832F8210048F6BF73BA
:10263000184080F0300048F28003184322F821004F
:102640000020BDE8F09F01F0070101EB810100EBE4
:10265000C100D0F8840170472DE9F04104460F060F
:1026600001F0070000EB800104EBC1014FF001060F
:102670004FF0000503D581F82960283103E081F887
:10268000695101F5B47108700A61CB704A7802B1E2
:10269000C881022B00D10D7194F8A802012809D03D
:1026A00084F8A862206802F079F8284684F8A852D5
:1026B000BDE8F0810220FBE770B50C4601F007058C
:1026C00005EB850100EBC101C1E95F230022C1F8E0
:1026D000842181F8692181F8685101F5B47162079C
:1026E000006802F07BFA002070BD70B504460D460C
:1026F00001F007006168884201D9012070BD2906F8
:102700004FF000064FF0010207D500EB800104EB0B
:10271000C10181F82920283107E005EB850104EB90
:10272000C10181F8696101F5B4718A70087094F88B
:10273000A802012807D084F8A822206802F035FA00
:10274000680702D006E0022070BD04F52C712068F5
:1027500002F0EDF984F8A862002070BD70B50C4657
:1027600001F0070505EB850100EBC101C1E90F236D
:10277000012281F84C208B6400234B6481F82920CE
:1027800001F8285F6207006802F028FA002070BD97
:102790001FB50446006802F03DFD000402D5204646
:1027A00000F0C4FE206802F035FD40050CD520681D
:1027B00030F8441F21F480610180204600F026F9A2
:1027C0000021204600F03DF9206802F023FD40047E
:1027D00005D5206830F8441F21F48041018020682D
:1027E00002F018FD800405D5206830F8441F21F45C
:1027F00000510180206802F00DFDC00414D520684E
:1028000030F8401F21F004010180206830F8401F9B
:1028100021F008010180204600F00BF9206830F813
:10282000441F21F480510180206802F0F3FC000570
:102830003ED522680020694632F8203021F8103059
:10284000401CC0B20828F7D332F8400F40F0010016
:102850001080206830F8402F22F0010202802068AA
:10286000B0F844205205FBD530F8442F22F48062A2
:1028700002800020236831F8102023F82020401C1B
:10288000C0B20828F6D3206830F8401F41F0080194
:102890000180206830F8441F21F400610180206825
:1028A00030F8401F41F004010180204600F0FEF89E
:1028B000206802F0AFFC800508D5206830F8441F7E
:1028C00021F400710180204600F0B7F8206802F082
:1028D000A1FCC00505D5206830F8441F21F48071A3
:1028E00001801FBD2DE9F04186B0040004D094F8AA
:1028F000A902002520B108E0012006B0BDE8F08162
:1029000084F8A852204600F05BF8032084F8A9025E
:10291000206802F005F904F1100114228846684687
:10292000FDF711FD94E80F0002F064F80226D0BB19
:102930000021206802F088FC002001270FE000BF82
:1029400000EB800104EBC10181F8297001F8280F28
:10295000C881CD700D614D61401CC0B28D61616850
:102960008142EDD8002011E000EB800104EBC101B1
:1029700081F8695181F8680181F86B51C1F878518B
:10298000C1F87C51401CC0B2C1F8805161688142DD
:10299000EAD8142241466846FDF7D5FC94E80F00BA
:1029A00002F0B5F810B184F8A962A5E784F82450C4
:1029B00084F8A972206802F0A8F800209DE70000C2
:1029C00008B500680F4988421AD10F48C16941F41F
:1029D0000001C161C069002200F4000000901146AE
:1029E0001320FFF76DFB1320FFF75CFB002211465D
:1029F0001420FFF765FBBDE808401420FFF752BB29
:102A000008BD0000005C00400010024070B50446A4
:102A100080680125022801D0FFF775F92946D4F80E
:102A2000E80201F092FCD4F8E802BDE8704001F041
:102A30004EBCD0F8E80201F072BCD0F8E80201F018
:102A400078BC10B5044690F8A80201280BD00120EC
:102A500084F8A80284F82410206802F0F7FB002014
:102A600084F8A80210BD022010BDD0F8E82200F5BD
:102A70002C71104601F075BC10B5044690F8A80200
:102A8000012810D0012084F8A802206802F0ACFBD5
:102A900001212046FFF764FB206802F034F8002093
:102AA00084F8A80210BD022010BD000010B5044635
:102AB000D0F8E80201F094FCA069002804D0034893
:102AC000016841F00601016010BD000010ED00E05A
:102AD0002DE9F84305460078354CC00754D0E0692D
:102AE0000026C00008D4E06940F08050E061E06951
:102AF000012600F0805000902E480168C90512D4CC
:102B00000168804641F480710160FFF76FFA074663
:102B100005E000BFFFF76AFAC01B642823D8D8F885
:102B20000000C005F6D5206A10F4407021D0A988B5
:102B300001F4407181421CD0206A1F49012220F417
:102B400040700A6000220A602062C00711D0FFF7BF
:102B50004DFA074641F2883808E000BFFFF746FA11
:102B6000C11B414502D90320BDE8F883206A8007D4
:102B7000F4D5206A696820F44070084320621EB1D1
:102B8000E06920F08050E0612878800705D5606812
:102B9000A96820F44040084360602878C00605D545
:102BA0006068E96820F48000084360600020DBE78B
:102BB0000010024000700040400442422DE9F047FE
:102BC0000F46050061D0434E306800F00700B84260
:102BD00009D2306820F0070038433060306800F0D8
:102BE0000700B84251D128683B4C810712D54007F5
:102BF00003D5606840F4E06060602878000703D582
:102C0000606840F4605060606068A96820F0F0007F
:102C1000084360602878C00728D06868012810D071
:102C20002168022810D0890700292EDA616821F076
:102C3000030101436160FFF7D9F9804641F2883909
:102C40000DE021688903EFE78901EDE7FFF7CEF991
:102C5000A0EB0801494502D90320BDE8F087606870
:102C6000696800F00C00B0EB810FEFD1306800F024
:102C70000700B8420BD9306820F0070038433060B5
:102C8000306800F00700B84201D00120E5E728785D
:102C9000400705D56068E96820F4E060084360609B
:102CA0002878000706D56068296920F4605040EA5A
:102CB000C100606000F038F86168084AC1F3031190
:102CC000515CC8400649086006480068FFF7AEF945
:102CD0000020C2E70020024000100240F46E00080D
:102CE000B4000020AC000020044805490068496891
:102CF000044AC1F30221515CC8407047B40000206F
:102D000000100240046F0008044805490068496843
:102D1000044AC1F3C221515CC8407047B40000208E
:102D200000100240046F000812A185B00FC98DE8A1
:102D30000F0014A0144A006804905168134801F071
:102D40000C03042B10D0082B0ED1C1F38343C9030D
:102D50001DF803000AD5516804AAC1F34041515C33
:102D60000A4A5043B0FBF1F005B0704708494843A8
:102D7000FAE7000002030405060708090A0B0C0D18
:102D80000E0F1010010200000010024000127A0025
:102D900000093D002DE9F84F040070D02078C04DA7
:102DA000C00749D06868C0F38100012807D068686F
:102DB000C0F38100022809D16868C00306D52868DD
:102DC000800339D560680028E7D035E06068B0F549
:102DD000803F0BD010B1B0F5A02F11D0286820F49F
:102DE00080302860286820F4802002E0286840F4C1
:102DF00080302860606890B1FFF7F8F806460AE076
:102E0000286840F480202860F0E700BFFFF7EEF864
:102E1000801B642873D828688003F7D50CE0FFF77F
:102E2000E5F8064605E000BFFFF7E0F8801B6428E0
:102E3000F0D828688003F7D420789A4E80074FF0A6
:102E400001094FF0000839D5686810F00C0F07D061
:102E50006868C0F38100022809D16868C00306D4FD
:102E60002868800714D52069012808D110E020695E
:102E7000B0B1C6F80090FFF7B9F8074605E00AE1DF
:102E8000FFF7B4F8C01B0228C4D828688007F7D51C
:102E90002868616920F0F80040EAC10028600DE070
:102EA000C6F80080FFF7A2F8074604E0FFF79EF897
:102EB000C01B022823D828688007F7D42078000791
:102EC0002CD57948A169D9B1C0F80090FFF78EF8E8
:102ED000074604E0FFF78AF8C01B02280FD8686A8B
:102EE0008007F7D571484FF4FA510068B0FBF1F054
:102EF000009000BF0098411E0091FAD20EE080E0E1
:102F0000C0F80080FFF772F8074604E0FFF76EF89C
:102F1000C01B022875D8686A8007F7D4207840075C
:102F200060D5E8690027C00008D4E86940F0805007
:102F3000E861E869012700F0805000905C48016872
:102F4000C90513D40168834641F480710160FFF71D
:102F50004DF8824606E000BFFFF748F8A0EB0A00F4
:102F600064284ED8DBF80000C005F5D5E0680128DC
:102F70000AD008B1052813D0286A20F00100286281
:102F8000286A20F0040002E0286A40F0010028626C
:102F9000E06841F2883B98B1FFF728F882460BE0E1
:102FA000286A40F004002862EEE700BFFFF71EF831
:102FB000A0EB0A0159455AD8286A8007F6D50CE0DB
:102FC000FFF714F8824605E0FFF710F8A0EB0A01BE
:102FD00059454CD8286A8007F6D41FB1E86920F01B
:102FE0008050E861E06988B36968C1F38101022912
:102FF00044D00228C6F8608004D0FEF7F7FF0446EC
:1030000038E034E0FEF7F2FF074604E0FEF7EEFF9B
:10301000C01B02282BD828688001F7D4206AB0F59D
:10302000803F05D16868A16820F4003008436860DB
:10303000D4E908010843696821F474110843686001
:10304000C6F86090FEF7D2FF044606E025E000BF18
:10305000FEF7CCFF001B022809D828688001F7D5AD
:103060001BE000BFFEF7C2FF001B022802D90320AD
:10307000BDE8F88F28688001F4D40EE00128F7D06D
:103080006868226A00F48031914204D1616A00F4D8
:103090007010884201D00120EAE70020E8E7000034
:1030A000001002400000424280044242B40000206E
:1030B0000070004010B5401EB0F1807F01D30120A8
:1030C00010BD4FF0E02460610F21601702F0FCF8A2
:1030D0000020A06107202061002010BD70477047CC
:1030E000F8B5026804461068D168536910F00F0FF4
:1030F0004FF0000553D003F0010601F490773743F9
:103100005FD0C20705D0CA0503D5226C42F0010288
:103110002264420705D5DA0703D0226C42F002028E
:103120002264820705D5DA0703D0226C42F004023C
:103130002264020707D501F02002324303D0226C3B
:1031400042F008022264226C002A34D0800604D5A2
:10315000880602D5204600F0D3FB20684069216C28
:10316000C0F38010090700D430B3204600F0B0FB54
:103170002068416949061BD5416921F04001416140
:10318000A06BA8B158494163A06BFEF7E1FD002890
:1031900011D0A06B416B01B0BDE8F0400847830639
:1031A0000FD58B060DD52046BDE8F84000F0A8BB32
:1031B0002046FFF794FFF8BD2046FFF790FF2564F7
:1031C000F8BD266B2023012E52D1C60650D5CE065F
:1031D0004ED5106850680090506940062AD5A16B02
:1031E000086840680004000CEAD0A68D8642E7D942
:1031F000E0858869202818D0D06820F48070D060DD
:103200002068416921F0010141612068416921F094
:103210004001416184F83E3025632068C16821F097
:103220001001C160A06BFEF770FDA08DE18D401A0A
:1032300081B219E0A08DE18D401A81B2E08D0028A5
:10324000BED00029BCD0D06820F49070D060206837
:10325000426922F00102426184F83E302563206811
:10326000C26822F01002C2602046FFF737FFF8BDA7
:1032700005062BD50D0629D594F83D002128F6D159
:10328000A068B0F5805F01D12069B0B1206A411C0F
:103290002162216800784860E08C401E0004000C28
:1032A000E084E4D12068C16821F08001C160206819
:1032B000C16841F04001C160F8BD206A0088C0F3D8
:1032C00008005060206A801C2062E5E74006F3D5C4
:1032D0004806F1D5D168204621F04001D16084F83C
:1032E0003D3000F0C9F8F8BDC138000870B50400E1
:1032F00004D094F83D00002510B106E0012070BD17
:1033000084F83C50204600F023F8242084F83D0047
:103310002068C16821F40051C160204600F04CFBD8
:103320002068016921F4904101612068416921F020
:103330002A0141612068C16841F40051C1602564DF
:10334000202084F83D0084F83E00002070BD00007D
:1033500030B585B000240094019402940394006871
:10336000184988422CD11848C16941F48021C161B3
:10337000C16901F480210491816941F008018161F2
:103380008069124D00F0080004904FF480600090B6
:10339000022001900320039069462846FEF736FD7F
:1033A000E814CDE90004694628460294FEF72EFD94
:1033B000002211462720FEF783FE2720FEF772FE2B
:1033C00005B030BD0048004000100240000C014034
:1033D00090F83E30202B0ED159B152B190F83C30CC
:1033E000012B08D0012380F83C300023036300F058
:1033F0003FBB0120704702207047000070B51C4C95
:103400000126E06870B121782046002500690D2969
:103410000FD0E8B120780A2810D020780A2817D0D9
:10342000256107E02078242800D1E66001F0D2FF72
:1034300016E008B1E560F9E7266111E001F0D2FF7E
:1034400008B1666001E001F0C5FFE560256107E0B5
:10345000A068401CA0602178064A104400F8011CB6
:10346000BDE870400348012201494438FFF7B0BF6E
:1034700000000020BC02002070470000064C4FF402
:103480007A7500BFD4F8A00180F00100C4F8A00153
:103490002846FEF7A9FCF5E700802142F0B500239D
:1034A0000A24302537261F4611E000BFB4EB107FF9
:1034B00002D905EB107C01E006EB107C01F813C08B
:1034C00001EB430C00015B1C8CF80170DBB29342F2
:1034D000ECD3F0BD10B500220F49104800F0C2FD3A
:1034E00008B1FEF710FC0E490C4800F09FFF08B130
:1034F000FEF709FC0B49094800F0C0FB08B1FEF7D4
:1035000002FC064800F0E8FF002803D0BDE81040A8
:10351000FEF7F9BB10BD000048000020C8030020E2
:103520009401002098000020FEE7FEE72DE9F84F07
:10353000044640F68F7B48F60F7A4FF002094FF4AD
:10354000806874E1B0F8441011F00F063AD030F8FA
:10355000267039047DD530F8261001EA0B0141F0C0
:10356000800120F8261006EB860004EBC00595F8D4
:10357000740105F5B47500286CD0E87802286AD08B
:103580002878226832F8201048F68F73194048F2E4
:10359000C003194322F820102878D4F800C03CF862
:1035A0002010BCF8502049047ED509EBC00011184A
:1035B00008EB41003CF800008005800D009074D0BD
:1035C0002A89D8E0C9062DD4018801EA0A0141F40C
:1035D00000410180216804F12805B1F850202B78C2
:1035E00009EBC300024408EB4200085AC0F309008B
:1035F0006064E16B0844E06300212046FEF7B1FD02
:1036000094F8240000289CD0A869002899D194F847
:103610002400216840F08000A1F84C00002084F8CC
:10362000240004E1018804F5B4750A0521D5B0F839
:1036300050202B78062101EBC3010A4408EB42011C
:10364000405A04F52C71C0F30903EB61EA88206845
:1036500002E0ACE068E07AE001F0E0FD2168088873
:1036600000EA0B0040F0800008802046FFF7FDF9DB
:10367000DDE00904D5D5018801EA0B0141F08001A4
:1036800001802068B0F850202B78062101EBC3019F
:103690000A4408EB4201405A83059B0DEB6110D0B0
:1036A000696971B1EA8801E058E056E0206801F0EC
:1036B000B5FDE96968690844686100212046FEF7A4
:1036C00059FD2068018809052DD4B0F85010084430
:1036D000296900F20C4051B13E2910D84A08C907A7
:1036E00000D0521C4FF6FF7101EA82210FE00188E1
:1036F00021F4F8410180018841F4004107E04A09C2
:10370000C90600D1521E4FF4004141EA82210180D6
:10371000206801884BF68F72114081F4405148F2C5
:1037200080021143018082E0D4F800C0BCF8501040
:103730002A78062000EBC200014408EB41003CF867
:1037400000008005800D00901AD0EA8813E03A4608
:1037500029462046FEF76CFD009011E0062101EBA2
:10376000C000111808EB41003CF800008005800DF6
:10377000009005D06A8903466046696901F04EFDF4
:10378000E96900980844E86169690098084468613B
:10379000A86918B129690098814204D9297820467E
:1037A000FEF7E8FC03E02946206801F017FA380626
:1037B0003DD506EB860004EBC001206830F82620DA
:1037C00002EA0A0242F4004220F8262091F82B0077
:1037D0002831032804D018B1022824D1F80522D4B6
:1037E0002368B3F850200D7809EBC500024408EBBC
:1037F0004200185A8A69C0F3090082420CD9121A91
:103800008A610BD04A6902444A61CA691044C8619E
:10381000206801F0E3F90AE000208861E9B220465F
:10382000FEF79FFC03E03A462046FEF774FD206851
:10383000B0F8441009043FF585AE0020BDE8F88FCC
:1038400070477047FEF7D8BB30B593B02821684663
:10385000FCF7ABFD14210AA8FCF7A7FD002401200A
:103860000F9410941194010412948DE813000490A5
:103870004FF4E010CDE90810022507956846FFF7E0
:1038800089FA08B172B6FEE70F20CDE90A054FF4B8
:103890008060CDE90C4002210AA80E94FFF78EF952
:1038A00008B172B6FEE710200F9012940FA8FFF730
:1038B0000FF9002801D072B6FEE713B030BD704793
:1038C00010B5406A0021C185C184FFF708FC10BD16
:1038D0000168CA6822F49072CA6001684A6922F0DD
:1038E00001024A61016B012904D10168CA6822F012
:1038F0001002CA60202180F83E1000210163704749
:1039000008B590F83E10222901D0022008BD826837
:103910004FF480539A4201D1016921B1816A9A42E0
:103920001BD04AB10AE00268816A5268C2F30802F9
:103930000A80816A891C08E0026972B102685268D3
:1039400002F07F020A70816A491C8162C18D491EA2
:103950000904090CC18503D019E002685268F1E737
:103960000168CA6822F02002CA600168CA6822F4AD
:103970008072CA6001684A6922F001024A6120210E
:1039800080F83E10016B012903D0FFF737FD0020BE
:1039900008BD002101630168CA6822F01002CA60F4
:1039A00001680A68D20602D50A6849680091818DCB
:1039B000FFF794FBEBE7000070B50446006801696F
:1039C000E26821F44051114301612169A068084374
:1039D000616908432168CA6841F20C639A43024353
:1039E000CA6020684169A26921F4407111434161B4
:1039F0001E492068884202D1FFF786F901E0FFF7EF
:103A000073F900EBC00101EB0012606864218000D3
:103A1000B2FBF0F3B3FBF1F36FF018067343B2FBA4
:103A2000F0F5B2FBF0F605EB8305322303EB051549
:103A3000B5FBF1F5B6FBF1F605F0F00505EB061563
:103A4000B2FBF0F6B2FBF0F0B0FBF1F06FF0180251
:103A5000504306EB800003EB0010B0FBF1F021684F
:103A600000F00F002844886070BD0000003801405D
:103A700081628285C28500210164222280F83E2075
:103A800080F83C100168CA6842F48072CA6001681C
:103A90004A6942F001024A610068C16841F02001B0
:103AA000C1600020704700000148FFF719BB00000B
:103AB000780200202DE9F041D0F8C032D0F8B822C9
:103AC000CAB101EB810500EB85040026E7693FB12F
:103AD00003EBC5039B6BB7FBF3F503FB157323B136
:103AE000C2F814620020BDE8F08100231A46E661A6
:103AF00000F07FFCF6E70220F5E770B50546D0F848
:103B0000B84200F07AFBC4F80C02D5F8B80248B10C
:103B1000D5F8BC12D4F80402CA6804F503719047C2
:103B2000002070BD022070BD70B5044600268121C2
:103B300000F0B6FA002501212046E56200F0B0FA57
:103B400082212046C4F86C5100F0AAFA2564D4F80A
:103B5000B80248B1D4F8BC0204F52E74406880471E
:103B6000206800F016FE2560304670BD10B5D0E923
:103B7000AE4159B194F80002FF2807D08B6894F841
:103B8000012221469847FF2084F80002002010BD42
:103B90000A21018000487047BC00002043210180B9
:103BA000004870470C010020432101800048704705
:103BB000C8000020432101800048704750010020C8
:103BC0002DE9F04104460026007C4FF400770125E2
:103BD00090B3402302228121204600F063FB402362
:103BE000E56202220121204600F05CFB082303224B
:103BF00082212046C4F86C5100F054FB4FF407704A
:103C0000256400F0C7FDC4F8B802F8B10546D4F841
:103C1000BC02006880470020C5F81402C5F81802ED
:103C2000207CD5F8042298B140230121204600F0E1
:103C300045FB3046BDE8F081FFE73B46022281218B
:103C4000204600F02FFB3B46E562CAE70126F0E77D
:103C50003B46EAE710B5D0F8B81269B1027C002AF9
:103C6000D1F8042205D04023012100F027FB0020D9
:103C700010BD4FF40073F7E7022010BD024602208A
:103C8000002902D00020C2F8BC127047D0F8B80258
:103C9000C0F8041200207047D0F8B802C0F8102213
:103CA000C0F80812002070472DE9FC410546D0F805
:103CB000B87200208DF80000ADF8040006460878C0
:103CC0000C4610F0600121D020293BD1E288AAB136
:103CD0000006607807D5D5F8BC128B68394698473E
:103CE000E288394626E087F80002A07987F80102C9
:103CF000E2883946284600F06AF828E0D5F8BC1278
:103D0000607800228B682146984720E0607820B1D7
:103D10000A2809D00B2815D110E095F89C02032839
:103D200010D1022201A905E095F89C02032809D1CF
:103D300001226946284600F064F808E095F89C02E4
:103D4000032804D02146284600F036F802263046E3
:103D5000BDE8FC8110B5D0F8B812A1B1D1F8142299
:103D60000AB1012010BD0122C1F81422D1F810229D
:103D70000263B1F8102293B2D1F80822812100F039
:103D800038FB002010BD022010BD10B5D0F8B422C1
:103D900052689047002010BD134610B50A46002116
:103DA00000F08CFA002010BD134610B50A46002121
:103DB00000F01FFB002010BD10B50446802100F06C
:103DC000FDFA2046BDE81040002100F0F7BA10B51A
:103DD0000323C0F85C21C0F89432C0F86021134678
:103DE0000A46002100F06AFA002010BD10B5052136
:103DF0000023C0F894121A46194600F05FFA00201A
:103E000010BD10B50223C261C0F89432026213469D
:103E10000A46002100F0EDFA002010BD10B5042183
:103E20000023C0F894121A46194600F0E2FA002066
:103E300010BD000010B50A46024903A000F0E2F8E8
:103E4000004810BD8C06002043444320436F6E663B
:103E50006967000012200880004870476800002051
:103E600010B50A46024903A000F0CCF8004810BD86
:103E70008C06002043444320496E7465726661637A
:103E8000650000000420088000487047640000209E
:103E900010B50A46024903A000F0B4F8004810BD6E
:103EA0008C06002053544D6963726F656C656374B2
:103EB000726F6E696373000010B50A46024903A071
:103EC00000F0A0F8004810BD8C06002053544D337C
:103ED00032205669727475616C20436F6D506F7239
:103EE0007400000010B51A2008800A480168001DFF
:103EF0000468001D0068081809D008220649FFF769
:103F0000CDFA0549042210312046FFF7C7FA0248CE
:103F1000801E10BDE8F7FF1F7E000020F8B50446A4
:103F20000020ADF8000048880D46010A082948D253
:103F3000DFE801F04704091747473C45D4F8B012C1
:103F4000207C0A6819E0207C02260028D4F8B402FC
:103F500005D0C16A68468847014646703EE0816ADE
:103F6000F8E7C0B206282CD2DFE800F0030A1014EC
:103F7000181CD4F8B002426805E0694690471CE07E
:103F8000D4F8B0028268E2B1207CF6E7D4F8B0023F
:103F9000C268F8E7D4F8B0020269F4E7D4F8B002D6
:103FA0004269F0E7D4F8B0028269ECE7207C40B9BE
:103FB000D4F8B402416B6846884701460EE0207C85
:103FC00020B129462046FFF7F7FEF8BDD4F8B40229
:103FD000016B68468847014607204870BDF800001D
:103FE00048B1EA8852B1824200D90246ADF80020B9
:103FF0002046FFF706FFE8880028E6D12046FFF7B5
:104000000DFFF8BD70B5002300281ED00446002522
:1040100002E06D1CEDB2641C2678002EF9D102245A
:1040200004EB450414801278CA545B1C0322CA5462
:1040300000245B1C06E0CA545B1CDAB28C54521C90
:10404000D3B2401C0278002AF5D170BD01004FF0B8
:10405000000004D0012901D0022901D002207047BC
:104060000120704710B580B1D0F8B43213B10023ED
:10407000C0F8B43209B1C0F8B012012180F89C1226
:10408000027000F0BFF8002010BD022010BD10B576
:10409000D0F8C002FEF79EF8BDE81040FFF7D6BF8B
:1040A00010B5D0F8C002FEF76FF8BDE81040FFF77A
:1040B000CDBF2DE9F0411746044651B1D4F8B40202
:1040C00042691AB194F89C02032851D00220BDE83D
:1040D000F081D4F89432002504F11400022B03D0AF
:1040E000042B3AD0C3B33CE0D0E903639E4207D926
:1040F000F11AC1608AB239462046FFF755FE12E038
:104100008068B0FBF3F103FB110199B9984211D318
:10411000D4F8981288420DD2002211462046FFF7AB
:1041200043FEC4F8985200231A461946204600F070
:10413000C5F816E0D4F8B402C16829B194F89C021D
:10414000032801D1204688478021204600F036F917
:104150002046FFF74BFE04E0FFE78021204600F0F9
:104160002DF994F8A002012804D184F8A05201E0AE
:10417000204690470020AAE770B51546044649B18D
:10418000D4F8B40282691AB194F89C02032830D0A2
:10419000022070BDD4F8941204F5AA70032902D04D
:1041A00005291ED027E0D0E903218A420BD9531AF2
:1041B000C3600846834200D303469AB2294620468C
:1041C000FFF7EAFD17E0D4F8B402016929B194F8C9
:1041D0009C02032801D1204688472046FFF71EFE97
:1041E00009E000200146C4F89402204600F0E6F8F9
:1041F00001E020469047002070BDD0F8C002FEF7D5
:1042000022BA000010B504461C481D49C0F8E84217
:10421000C4F8C002016008214160022181600021D0
:104220008161C1610162FEF75DFB08B1FDF76BFDC5
:104230000022D4F8C0021823114604F53074FDF7AB
:1042400071FF5823002280212068FDF76BFFC023F7
:10425000002281212068FDF765FF4FF4887300225A
:1042600001212068FDF75EFF4FF480730022822158
:104270002068FDF757FF002010BD00002C0B002028
:10428000005C00400A0601F07F01D0F8C00201EB9B
:10429000810100EBC10002D590F82A00704790F828
:1042A0006A01704710B51C461346D0F8C00222467A
:1042B000FEF7D2F9BDE81040FFF7C8BE10B5D0F840
:1042C000C002FEF7F9F9BDE81040FFF7BFBE70B5B8
:1042D0000022044640231146FFF7E4FF4026012553
:1042E000C4F864613346002280212046C4F8585146
:1042F000FFF7D8FF6662A56184F89C520020C4F8DD
:1043000094026060C4F8A402D4F8B80228B1D4F8CA
:10431000B4020021426820469047002070BD90F80A
:104320009C12042903D190F89D1280F89C12002061
:10433000704710B590F89C12032904D1D0F8B4123C
:10434000C96901B18847002010BD01740020704781
:1043500010B5D0F8C002FEF774FBBDE81040FFF7BF
:1043600075BE70B5044600F52A70054600F04AF89F
:104370000120C4F89402B4F8AE02C4F8980294F88C
:10438000A80210F01F010AD001290DD0022910D077
:1043900000F08001204600F011F8002070BD294691
:1043A000204600F09EF8F8E72946204600F0CAF9BA
:1043B000F3E72946204600F01DF9EEE710B5D0F8E6
:1043C000C002FEF792F9BDE81040FFF73FBE10B5FE
:1043D000D0F8C002FEF750FBBDE81040FFF736BE34
:1043E00090F89C1280F89D12042180F89C12002005
:1043F000704710B5D0F8C002FEF7B0F9BDE8104024
:10440000FFF724BE0A7802704A7842708A78CB7827
:1044100002EB032242800A794B7902EB032282806D
:104420008A79C97902EB0121C180704702460020D8
:1044300011B1C2F8B41270470220704710B5D0F81D
:10444000B42202241AB11268904700B90024204611
:1044500010BD000070B50E461E4D897804462970C7
:10446000012931D894F89C0202280BD003280FD0E0
:1044700031462046FFF7A0FC29782046BDE8704071
:10448000FFF783BCD9B10320616084F89C0209E086
:1044900071B16068884212D0C1B22046FFF775FC46
:1044A000297861602046FFF7C9FF02280CD006E09A
:1044B000022084F89C0220466160FFF766FC2046DB
:1044C000BDE87040FFF7AABC31462046BDE8704009
:1044D000FFF772BCB800002010B5FFF778FF00208E
:1044E00010BD2DE9F0410A784FF0000812F060028B
:1044F00008D0202A01D0402A6FD1D0F8B422926887
:1045000090476CE04B780022012502260A2B64D2EA
:10451000DFE803F03F5B6355630805632B28FFF773
:10452000FDFC5CE004468888D0B9C888C0B94888DA
:10453000802815D200F07F0794F89C0203280FD042
:1045400084F89E7239462046FFF702FF2046FFF7A7
:1045500065FC17B184F89C6241E084F89C523EE00F
:1045600020463AE0FFF776FF39E0CB88012B34D1C3
:1045700090F89C32012B04D0022B02D0032B2CD1BB
:1045800004E08260012200F1080115E00122011D12
:1045900012E090F89C32012B03D0022B01D0032BA8
:1045A0001BD1CB88022B18D1C260D0F8A41201B164
:1045B000C660022200F10C01FFF723FC0FE04988DE
:1045C00001290CD1C0F8A45211E090F89C32012BC3
:1045D00008D0022B06D0032B04D0FFF7EDFB40469A
:1045E000BDE8F08149880129F9D1C0F8A422FFF77C
:1045F00015FCF4E72DE9F0410A460446107800273F
:10460000097910F060030AD0202B01D0402B50D143
:10461000D4F8B40211468368204698478FE0C0F36F
:104620004110012806D05078D0B301282AD00328A1
:104630003FD107E0D4F8B402114683682046BDE8B4
:10464000F041184794F89C02022802D0032872D146
:104650000AE071B380296ED02046FFF7AFFE8021BB
:104660002046FFF7ABFE6AE0508838B931B18029A7
:1046700004D0D08810B92046FFF7A0FE2046FFF7EF
:10468000CDFB5CE094F89C020228E2D0032852D1D2
:10469000508898BB4806F1D02046FFF7F8FCEDE7BC
:1046A000FFE794F89C020026022803D0032842D199
:1046B00012E040E009B180293DD1080601F07F00F9
:1046C00000EB800004EB800101D5143101E001F51D
:1046D000AA7102220E602AE0080601F00F0000EB2A
:1046E000800004EB80000AD5806920B301F07F00D0
:1046F00000EB800004EB800514350BE01FE0D0F8E0
:104700005801C0B101F07F0000EB800004EB800590
:1047100005F5AA7541B1802906D02046FFF7B2FD04
:1047200010B10120286000E02E60022229462046B8
:10473000FFF767FB03E011462046FFF73DFB3846D5
:10474000BDE8F08170B5054608780C4610F06000B1
:1047500003D0202801D0402816D195F89C020128CA
:1047600003D0022801D003280ED1207901280BD8CC
:10477000D5F8B402826828469047E188014306D103
:104780002846FFF74BFB02E02846FFF715FB002009
:1047900070BD7047004870470C0900202DE9F047B4
:1047A0000C78002630F8243048F68F121340CA786F
:1047B000002A7DD0012A7CD0022A02D0032A7FD091
:1047C000012648F28002134320F824300D7830F897
:1047D000254048F68F731C402C43144320F8254095
:1047E0000D7B48F2C00C48F6BF744CF280074BF6C4
:1047F0008F79EDB391F80080C24630F8285048F226
:1048000080181D4045EA080520F82A50B0F850509D
:1048100091F80080054405EB0815B1F8088028F0F0
:104820000108A5F80084B0F8505091F800800544C4
:1048300005EB0815B1F80A8028F00108A5F80884EE
:104840004D78002D0D7830F825804FEA48487DD00E
:10485000B8F1000F07DA30F8258008EA030848EAC3
:10486000070820F825800F7830F827506D0600E003
:104870002CE006D530F827501D4045EA0C0520F8FD
:104880002750CB780D78012B30F8253003EA04034C
:1048900001D083F02003134320F825300B7830F843
:1048A000231001EA0901114320F82310304602E0E9
:1048B00003E008E004E0BDE8F08743F4007380E71C
:1048C00043F4C0637DE743F480637AE74D782DB30A
:1048D000B0F850500F78054405EB0715CF8827F046
:1048E0000107A5F800740F7830F827506D0606D53B
:1048F00030F827501D4045EA0C0520F82750CB78AA
:10490000012B06D00B7830F82310214081F02001D4
:10491000C9E70B7830F823102140C4E7B0F85040C5
:104920000D78044404EB0514CD8825F00105A4F8A6
:104930000854B0F850400D78044404EB05140D6998
:1049400004F20C4475B13E2D14D800E030E04FEA7B
:10495000550CED0701D00CF1010C4FF6FF7505EA7F
:104960008C2511E0258825F4F8452580258845F417
:10497000004509E04FEA551CED0601D1ACF1010CF0
:104980004FF4004545EA8C2525800D7830F8254008
:10499000640405D530F825401C403C4320F82540F0
:1049A0000B7830F8231001EA090181F440517AE7CD
:1049B000B8F1000F07DA30F8258008EA030848EA62
:1049C000070820F825800F7830F827506D0606D5A7
:1049D00030F827501D4045EA0C0520F827500D7887
:1049E00030F8253003EA090383F44053134320F8D9
:1049F00025308EE7002070472DE9F04391F80C80B8
:104A00004F780A7848F6BF7C4BF68F7948F28003DE
:104A100048F2C0054CF2800648F68F74B8F1000FDA
:104A200028D0002F30F822704FEA474748D0002F97
:104A300005DA30F822702740374320F822700A78D0
:104A400030F822707F0605D530F8227027402F43BA
:104A500020F822700D7830F825202240324320F8CB
:104A600025200C7830F8242002EA0C021A4320F8A2
:104A700024201AE07FB130F82260760605D530F8A0
:104A8000226026402E4320F822600A7830F8221057
:104A900001EA0C010EE030F822506D0405D530F823
:104AA00022502540354320F822500A7830F8221051
:104AB00001EA0901194320F822100020BDE8F08323
:104AC000002F05DA30F822702740374320F8227093
:104AD0000A7830F82260760605D530F82260264044
:104AE0002E4320F822600E7830F8262022402A43F8
:104AF00020F826200C7830F8242002EA09021A4314
:104B000020F82420C1E700207047002070470121D1
:104B100020F8401F002101808180018208467047F3
:104B200030F8401F21F43F410180002070470020F1
:104B3000704730B50A7BB2BB4A7848F68F7548F2A9
:104B40008004C2B10B7830F82320520607D530F824
:104B500023202A4048F2C0052A4320F82320CA789F
:104B6000012A20D00A7830F8221048F6BF73194085
:104B700081F0200114E00A7830F822305B0407D578
:104B800030F822302B404CF280052B4320F82230A5
:104B90000A7830F822104BF68F73194081F4405197
:104BA000214320F82210002030BD10B54A78097842
:104BB000002A48F2800330F8212005D048F6BF745F
:104BC000224082F0100204E04BF68F74224082F4FF
:104BD00080521A4320F82120002010BD2DE9F04713
:104BE0000E464B78097B04464FF0000948F68F7259
:104BF00048F2800A4FF6FF774FF40048012B09D0A6
:104C000000296ED0F07802286CD001286BD00120EA
:104C1000BDE8F087B5693069854200D90546C9B15C
:104C2000F17848F28013022923D0317834F821003A
:104C30001040184324F82100306A401B306230785D
:104C400034F82010490671787ED500297DD00129DD
:104C50007CD03FE1ABB2F2882046716900F0FCFAEB
:104C6000B4F850003178204400EB0110A0F804544F
:104C7000EAE0316A81426AD9317834F82100104083
:104C8000184324F82100306A401B3062307834F831
:104C90002010490671786CD511B1012924D02AE081
:104CA000B4F85010214401EB001000F20C404DB15B
:104CB0003E2D0FD86908EA0700D0491C07EA812178
:104CC000018018E0018821F4F8410180018841F455
:104CD0000041F5E76909EA0600D1491E48EA812149
:104CE000EEE79CE1BCE126E2B4F85020111901EB9B
:104CF0000010A0F80C547289ABB22046716900F024
:104D0000ABFA7069284470613169306A884202D90F
:104D1000401B306202E00546C6F8209070780028FB
:104D20007CD1B4F850003178204400EB011000F23F
:104D300004406DB13E2D13D86908EA0700D0491C24
:104D400007EA8121018012E001E19BE0BBE084E001
:104D5000018821F4F8410180018841F40041F1E724
:104D60006909EA0600D1491E48EA8121EAE7328949
:104D700065E011B1012921D027E0B4F85010214499
:104D800001EB001000F204404DB13E2D0FD8690830
:104D9000EA0700D0491C07EA8121018015E001885B
:104DA00021F4F8410180018841F40041F5E76909E7
:104DB000EA0600D1491E48EA8121EEE7B4F8501016
:104DC000214401EB0010A0F804543289ABB2204614
:104DD000716900F041FA7069284470613169306A84
:104DE000884202D9401B306202E00546C6F8209096
:104DF000707800287ED1B4F850003178204400EB60
:104E0000011000F20C4055B13E2D10D86908EA0798
:104E100000D0491C07EA812101800FE072E001887F
:104E200021F4F8410180018841F40041F4E7690967
:104E3000EA0600D1491E48EA8121EDE77289ABB24A
:104E40002046716900F008FA317834F8210048F6FC
:104E5000BF72104080F03000C0E1327834F8220098
:104E600048F68F63184040EA0A0024F82200B4F89C
:104E700050003278204400EB02108BB2A0F80434CA
:104E80003289DDE7B4F85010214401EB001000F244
:104E90000C404DB13E2D0FD86908EA0700D0491CDF
:104EA00007EA8121018015E0018821F4F8410180A1
:104EB000018841F40041F5E76909EA0600D1491E7D
:104EC00048EA8121EEE7B4F85020111901EB0010F7
:104ED000A0F80C547289ABB22046716900F0BCF99D
:104EE0007069284470613169306A884203D9401B77
:104EF000306203E06EE00546C6F82090002DA3D096
:104F0000707858B101287FF41EAFB4F850003178A2
:104F1000204400EB0110A0F8045428E7B4F8500036
:104F20003178204400EB011101F204413E2D06D8F6
:104F30006808EA0700D0401C07EA802005E06809FD
:104F4000EA0600D1401E48EA802008800FE711B130
:104F5000012921D027E0B4F85010214401EB0010C2
:104F600000F204404DB13E2D0FD86908EA0700D089
:104F7000491C07EA8121018015E0018821F4F841EC
:104F80000180018841F40041F5E76909EA0600D192
:104F9000491E48EA8121EEE7B4F85010214401EBA4
:104FA0000010A0F804543289ABB22046716900F0B9
:104FB00053F97069284470613169306A884202D9B6
:104FC000401B306202E00546C6F82090002D96D0C6
:104FD000707858B101287FF420AFB4F85010081948
:104FE000317800EB0110A0F80C5427E7B4F850001A
:104FF0003178204400EB011101F20C413E2D06D81E
:105000006808EA0700D0401C07EA802005E068092C
:10501000EA0600D1401E48EA802008800EE7B16908
:105020003069814202D9091AB161B5E00846C6F873
:105030001890B1E0088820F4F8400880088840F40F
:1050400000400BE03E2875D84208C00700D0521C33
:1050500007EA822002E000BF48EA82200880B5E02B
:1050600093B9B4F850003178204400EB0110316955
:1050700000F2044069B13E2913D84B08C90700D09B
:105080005B1C07EA83210180707888B1012832D047
:105090003AE0018821F4F8410180018841F400419F
:1050A000F1E74B09C90600D15B1E48EA8321EAE714
:1050B000B4F850003178204400EB0110316900F25F
:1050C0000C4049B13E290FD84B08C90700D05B1CE2
:1050D00007EA8321018017E0018821F4F84101806B
:1050E000018841F40041F5E74B09C90600D15B1E78
:1050F00048EA8321EEE7B4F850100819317800EB44
:105100000110318AA0F80C14F069A8B3317834F892
:105110002100430401D5430603D444F2400318425E
:1051200054D134F82100104048F2C002104324F852
:1051300021004BE03CE0B1693069814202D9091A93
:10514000B16102E00846C6F818908BB9B4F8501067
:105150003278214401EB021101F2044168B13E288A
:1051600013D84208C30700D0521C07EA82220A80E3
:10517000717889B1012921D028E00A8822F4F84207
:105180000A800A8842F40042F1E74209C30600D1CE
:10519000521E48EA8222EAE7B4F8501032782144DD
:1051A00001EB021101F20C4100287FF44BAF41E703
:1051B0004209C0067FF450AF521E4DE7B4F85020AC
:1051C0001119327801EB0211A1F80C04317834F88E
:1051D00021004BF68F72104080F4405040EA0A00E4
:1051E00024F82100002013E50021A0F844104FF41A
:1051F0003F41A0F840100020704700000148FDF733
:10520000C7BA00002C0B00200148FDF7C1BA00000E
:105210002C0B0020B0F844007047000010B500EBE4
:1052200042005C0800F5806009D000BF30F8042B14
:1052300001F8012B120A01F8012B641EF6D1DA07DE
:1052400001D00088087010BD0020704711B980217E
:10525000A0F84C100020704710B55B1C00EB42001A
:105260005B0800F5806009D011F8012B11F8014BA3
:1052700042EA042220F8042B5B1EF5D110BD000089
:10528000064C4FF47A7500BFD4F8A00180F00100FD
:10529000C4F8A0012846FCF7A7FDF5E700802142ED
:1052A000490050EAC12018BF04204A0D18BF40F041
:1052B000010040F2FF72B2EB515F08BF40F0020004
:1052C000012808BF052070470907090E002804DBE4
:1052D00000F1E02080F80014704700F00F0000F1AA
:1052E000E02080F8141D70472DE9F0414F1E00EBBF
:1052F000C7010446D1E9000115461E4637F00602F3
:105300000DD02A46334601F0E1F97F1E04EBC703B6
:10531000D3E9002300F072FF37F00602F1D1022F2B
:1053200025D0042F13D0062F18BFBDE8F0812A46E0
:10533000334601F0CBF9D4E90A2300F05FFF2A4697
:10534000334601F0C3F9D4E9082300F057FF2A4699
:10535000334601F0BBF9D4E9062300F04FFF2A469B
:10536000334601F0B3F9D4E9042300F047FF2A469D
:10537000334601F0ABF9D4E9022300F03FFF2A469F
:10538000334601F0A3F9D4E90023BDE8F04100F071
:1053900035BF0000002213461046014900F0EABF65
:1053A0000000F03F00F02ABF0022134610461146CD
:1053B00000F0E0BF40F2013200204FF0E04101F088
:1053C00053BD0000024A0020110701F04DBD00004E
:1053D00001FDFFFF0248002141608160704700002D
:1053E00000000020F8B5144E00200090114DB06868
:1053F000284410F8031C2A2919D110F8021D8DF831
:10540000001040788DF801000024102221466846E3
:10541000FAF761FFB2680021D21E02E06B5C5C40CB
:10542000491C9142FADB844201D10120F8BD0020E1
:10543000F8BD0000BC02002000000020F0B59FB0C5
:10544000002422460AAB01A914AF0A551A553A5551
:10545000641C1E2CF9DB21C80024065D0E550619BC
:10546000AE4201D0641CF8E71E252E46002401E060
:10547000AC4201DA085D1855085D2E2802D02C28B0
:1054800037D001E025461A55AC4208DDB44206DAB1
:105490001E2D04DAA4EB050CBC440CF8010C641CB2
:1054A0001E2CE5DB1846FAF709FF01F04BFC01F072
:1054B0001DFC0446701B0F46401E01F0B3F8024667
:1054C0000B4600200C4900F05BF906460D4614A877
:1054D000FAF7F4FE01F036FC01F008FC32462B46E8
:1054E00000F048FF1FB022463B46BDE8F04000F008
:1054F00085BE26468A55D5E70000244013B5012114
:105500006846FCF7E9FB00981CBD000008B5FCF7F5
:105510007BFDFEF799F97548816941F010018161C1
:10552000816901F010010091816941F008018161F8
:10553000816901F008010091816941F004018161F4
:10554000806900F004000090FDF7C4FF69486849D5
:10555000002601604FF41651C0E901160C21C66007
:10556000C0E904618661C661FDF7C0FE08B172B68C
:10557000FEE7012260495F48FDF72AFF5D4F5E4C60
:1055800044374FF005084FF003094FF0040AA7F124
:10559000E40560680028FCD0666000202F600146AA
:1055A000A26814E07B5C2C2B0AD1142811DA05EBDD
:1055B000C00C7B18401CCCF804305B1C45F8303024
:1055C000142806DA2B681B78502B02D0491C914214
:1055D000E8DBB91805EBC00005224160474829689F
:1055E000FAF70AFF46A14548FAF732FF28B146A16B
:1055F0004248FAF72DFF002855D141A13F48FAF75C
:1056000027FF50B904F114010220C4F8208081E87A
:105610000106286B0078303860703BA13748FAF7F4
:1056200017FF20B90620C4E90780C4E9059A60780D
:10563000002838D0606905EBC000FFF7FFFEC4E921
:105640000A01E06905EBC000FFF7F8FEC4E90C01B0
:1056500028489838FFF7F2FEC4E91001A06955F810
:10566000300000784E2804D0532831D00020C4E9FF
:105670000A00206A55F830000078452804D05728E1
:105680002BD00020C4E90C00D4E90C2320A0FAF7A9
:10569000D5FDD4E90A2326A0FAF7D0FDD4E91023DA
:1056A0002BA0FAF7CBFD2FA11448FAF7D1FE002862
:1056B0007FF46FAF6078A8B10E486838FFF7BEFE80
:1056C000C4E90E0102460B4628A0FAF7B7FD60E7D1
:1056D000E16A81F00041E162CBE7616B81F000415A
:1056E0006163D1E70020C4E90E0052E700100240D8
:1056F000004800407802002000000020BC03002089
:105700004750474741000000474E524D43000000BC
:10571000446C75676F73632067656F677261666954
:10572000637A6E613A202566322E36200A00000028
:10573000537A65726F6B6F73632067656F67726111
:105740006669637A6E613A202566322E36200A0039
:10575000437A6173205554433A202566322E362011
:105760000A0000004750565447000000507265641C
:105770006B6F73633A202566322E36200A000000D4
:105780002DE9F04D1D460C4698B0174621F000411A
:1057900023F00043002814BF4FF0010C4FF0000C21
:1057A0000CEB440CFE4A0CEB02064FEA620C664519
:1057B0002BD33E0018BF012606EB45061644F94AD6
:1057C000964222D3F84A53EA070C02D0944205D1FC
:1057D00048B918B000201146BDE8F08D002808BF78
:1057E0004FF0000C01D04FF0010C0CEB440212F50D
:1057F000001F0AD8002F14BF4FF0010C4FF0000C0F
:105800000CEB450212F5001F07D918B03A462B469B
:105810002146BDE8F04DFFF7C5BD0022DFF88CA39F
:10582000002CB8BF534526DADFF884C36345A8BF10
:10583000022220DADFF870C39C451CDCDFF874C359
:105840000CEB235CBCF1140F08DDCCF1340627FA15
:1058500006FC0CFA06F6BE420DD108E05FB9CCF1A9
:10586000140623FA06FC0CFA06F69E4203D10CF04D
:105870000102C2F1020251EA000C19D1002D17DA1F
:10588000002C18BF022A01D0012A07D00220FAF703
:1058900034FE18B0BDE8F04DFFF77CBD0220FAF7EA
:1058A0002CFEFFF777FD18B081F00041BDE8F08DC8
:1058B000B7F1000C6CD1534525D104F1804212F5AB
:1058C000801201BF00280020B74918B008BFBDE80A
:1058D000F08DB548884207DC002DA1BF60462946FF
:1058E00018B0BDE8F08D07E0281E05DA80F0004111
:1058F00018B06046BDE8F08DAF497944D1E90001A8
:1059000018B0BDE8F08DDFF8A0C2634525D1002DA9
:105910001FDA19B1514512D1D8B909E0002840F079
:10592000EC82A24A214618B062F31E01BDE8F08D58
:105930000020214618B060F31E01BDE8F08D08DAA2
:1059400018B02346BDE8F04D02460020614600F045
:1059500011BD18B02146BDE8F08D514518DAB5F1FA
:10596000804F0DD0A5F1005CBCF1FF5C10D1B4F10B
:10597000000C0DDB18B06146BDE8F04D00F0ECBB4B
:10598000234618B00246BDE8F04D194600F09EBE11
:10599000060024F0004C3BD1D9B1514533D1002C45
:1059A00006DD002DA1BF0020514618B0BDE8F08DE6
:1059B000002C01DD002D1BDB002C13DA002D11DB88
:1059C000012A4FF0000014BF78497C4918B0BDE8A7
:1059D000F08D022A18BF002C0AD0012A08D1002C11
:1059E00006DA0AE0002CB8BF002D11DA012A04D033
:1059F000002018B00146BDE8F08D18B000204FF02F
:105A00000041BDE8F08DA1F14050B0F17F601AD0A7
:105A1000012000EBE47050EA020421D0624C521ED7
:105A20004FF0000B104304BF4FF0000B644C65486F
:105A300083427CDD644A654893421FDD884217DB60
:105A4000002D25DB37E0002C00DA4AB1022A0CBF1A
:105A500001204FF0FF3018B0BDE8F04D00F0E2BD7E
:105A60000120FAF74AFD18B0BDE8F04DFFF79CBCE5
:105A70004D4A8A4202DC002D0ADC1CE0814202DA37
:105A8000002D18DA04E0484B994220DD002D12DD8C
:105A90000220FAF732FDFFF78DFC05460E46002284
:105AA00053465846214600F011FE18B066F31E0119
:105AB0002846BDE8F08D0220FAF71FFDFFF782FCB3
:105AC0000A46214618B062F31E01BDE8F08D00229F
:105AD0003046614601F020F880460E466FF0010224
