:020000040800F2
:100000000813002005010008C72B000899260008E6
:10001000C52B0008F907000871490008000000001E
:10002000000000000000000000000000CB2E0008CF
:100030003D0A000800000000C92E0008CD2E00086F
:100040001F0100081F0100081F0100081F01000810
:100050001F0100081F0100081F0100081F01000800
:100060001F0100081F0100081F0100081F010008F0
:100070001F0100081F0100081F0100081F010008E0
:100080001F0100081F0100081F0100081F010008D0
:10009000554800081F0100081F0100081F01000843
:1000A0001F0100081F0100081F0100081F010008B0
:1000B0001F0100081F0100081F0100081F010008A0
:1000C0001F0100081F0100081F0100081F01000890
:1000D0001F010008ED3000081F0100081F01000883
:1000E0001F0100081F0100081F010008DFF810D0E1
:1000F00000F018FB00480047415A0008AFF30080A9
:10010000081300200648804706480047FEE7FEE740
:10011000FEE7FEE7FEE7FEE7FEE7FEE7FEE7FEE7B7
:100120003D2F0008ED000008202A04DB203A21FAC8
:1001300002F00021704721FA02F3D040C2F1200200
:10014000914008431946704740EA01039B0703D0DA
:1001500009E008C9121F08C0042AFAD203E011F806
:10016000013B00F8013B521EF9D27047D2B201E0C8
:1001700000F8012B491EFBD270470022F6E710B5AC
:1001800013460A4604461946FFF7F0FF204610BD05
:10019000421E12F8013F002BFBD111F8013B02F87F
:1001A000013B002BF9D1704710B50346002004E055
:1001B000401C491C03F8014B521E012A02D90C783D
:1001C000002CF5D122B100221A7001E0401C491C1C
:1001D0000A78002AFAD110BD2DE9FE4F804681EA47
:1001E0000300C00F0C46009021F0004123F00045B1
:1001F000B8EB0200A94105D24046214690461C4674
:100200000B46024623F00040104347D0270DC7F3AA
:100210000A00C3F30A510290401A019040286BDA99
:10022000C3F3130040F4801B0098924620B10023D2
:10023000D2EB030A63EB0B0B01985946C0F1400265
:10024000504600F0C0F906460D4650465946019A00
:1002500000F0C8F910EB08006141002487EA115250
:1002600084EAE7731A4340D0009A62B3019A012AE4
:100270004FEA075215DC001B61EB02014FF0004210
:1002800002EA0752CDE90042001C41F580113246D6
:100290002B4600F0C8F903B0BDE8F08F4046214678
:1002A000F9E7001B61EB0201001C41F58013001807
:1002B0005B412018A2F5001747EB030140EAD57017
:1002C000B6196D4111E06D084FEA360645EAC07572
:1002D0004FEA0752001B61EB0201001C41F580113F
:1002E00049084FEA30000019514132462B4603B00D
:1002F000BDE8F04F00F088B90098012240000023CB
:10030000D0EB020263EBE073009821464FEAE07401
:10031000B8EB000061EB0401E9E783F000435BE721
:1003200081F0004158E72DE9FE4F81EA030404F013
:10033000004421F0004100944FF0000B23F00043F3
:1003400050EA01045ED052EA03045BD0C3F30A54BE
:10035000C1F30A552C44A4F2F3340194A0FB0254D7
:10036000C1F3130141F48011C3F3130343F4801369
:1003700001FB024400FB034E840A970A44EA8154BD
:1003800047EA8357A4FB076802958D0A05FB07859A
:100390004FEA932C04FB0C542705029D4FEA0658A4
:1003A00047EA1637B5EB08056EEB070C870E920E81
:1003B00047EA811742EA8312A7FB0201B6EB0B0161
:1003C00064EB00042B0D43EA0C335E1844EB1C5025
:1003D000DA465146E7FB0201C5F313044FEA0B333B
:1003E00043EA14534FEA0432019C43EA0603A4F1A2
:1003F0000C040294009CCDE900B400F014F903B0A1
:10040000BDE8F08F00200146F9E72DE9F04D81EAC3
:10041000030404F0004B21F0004514464FF0000A9D
:1004200023F0004150EA050220D054EA01021DD019
:10043000C5F30A570246C5F31303C1F31300C1F312
:100440000A5640F4801543F48013A7EB0608101BEE
:10045000D64608F2FD3873EB050002D308F1010817
:1004600001E092185B41B8F1000F03DA0020014669
:10047000BDE8F08D00204FF48011064684460EE062
:10048000171B73EB050705D3121B63EB050306432C
:100490004CEA010C49084FEA300092185B4150EADF
:1004A0000107EDD152EA030012D082EA040083EA88
:1004B0000501084305D0101BAB4106D201220023E1
:1004C00006E000224FF0004302E06FF001025310FB
:1004D0001AEB06004CEB085110EB0A0041EB0B0144
:1004E000BDE8F04D00F090B870B521F00043034333
:1004F0000CD0C1F30A550024D5EB040564EB0403CA
:10050000D617AD1AB34102DB0020014670BD20189A
:1005100041EB025170BD0EB5C10F80EAE070084496
:10052000CA07002140F233438DE80E000A460B460D
:1005300000F079F803B000BD30B50B46014600204D
:100540002022012409E021FA02F59D4205D303FA95
:1005500002F5491B04FA02F52844151EA2F1010216
:10056000F1DC30BD2DE9F05F0546002092469B4648
:1005700088460646814640241BE0284641464746B9
:100580002246FFF7D1FD53465A46C01A914110D377
:1005900011461846224600F016F82D1A67EB01089E
:1005A0004F4622460120002100F00DF817EB00090C
:1005B0004E41201EA4F10104DFDC484631462A46A4
:1005C0004346BDE8F09F202A04DB203A00FA02F1FE
:1005D000002070479140C2F1200320FA03F3194331
:1005E00090407047202A06DBCB17203A41FA02F0F0
:1005F00043EAE07306E041FA02F3D040C2F1200280
:10060000914008431946704710B5141E73F1000459
:1006100008DA401C41F1000192185B411A4301D1F4
:1006200020F0010010BD2DE9F04D92469B4611B11E
:10063000B1FA81F202E0B0FA80F220329046FFF780
:10064000C2FF04460F4640EA0A0041EA0B01534646
:100650005A46084313D0114653EA010019D0C8F195
:1006600040025046FFF760FD05460E46504659468B
:100670004246FFF7A8FF084305D0012004E02046CA
:100680003946BDE8F08D0020054346EAE0762C436C
:1006900037430A986305E40AA0EB08000022FD0A2C
:1006A00044EA47540A3002D500200146E9E7010533
:1006B00010196941DDE9084500196941BDE8F04DAF
:1006C000A2E7C1F30A52C1F3130140F2FF3341F430
:1006D00080119A4202DA00200146704740F233430B
:1006E0009A42A2F2334202DC5242FFF71DBDFFF7ED
:1006F0006ABF000030B5041E71F1000404DB4FF046
:100700000044404264EB0101141E73F1000405DB58
:100710001C464FF00043524263EB0403994208BF6A
:10072000904230BD064C074D06E0E06840F0010302
:1007300094E8070098471034AC42F6D3FFF7DAFC90
:10074000A8600008C86000080EB540F2334102916D
:100750000021CDE900110A460B46FFF764FF03B004
:1007600000BD70B5C1F30A5201F000450024C1F389
:10077000130140F2FF3341F480119A4201DA002064
:1007800070BD40F233439A42A2F2334203DC52423C
:10079000FFF7CAFC00E090402C43F1D0404270BD0E
:1007A00070B58C1810F8015B15F0070301D110F833
:1007B000013B2A1106D110F8012B03E010F8016B60
:1007C00001F8016B5B1EF9D12B0705D40023521EE3
:1007D0000DD401F8013BFAE710F8013BCB1A921C4B
:1007E00003E013F8015B01F8015B521EF9D5A14249
:1007F000D8D3002070BD0000064C4FF47A75D4F8B1
:10080000A00180F00101C4F8A011284600F098F979
:10081000F5E700000080214200207047002070476B
:1008200010B500220549064802F058FD0349044866
:10083000403902F04DFD002010BD0000B809002035
:10084000500400202DE9FC470C46064601465C4852
:1008500002F03EFD5A4802F01FFD5A4D0027314676
:10086000EF70AF706F702F7022682846521CFFF730
:100870009BFC2E78687832214640A8784640524842
:1008800005F06CFBDFF840A12421A5F108048AF8EB
:1008900000102770287824280AD16878DFF82C9176
:1008A0004FF001087A2804D0732822D0762837D058
:1008B00083E0A8782A2862D1E878B0427DD105F09B
:1008C00043FBD9F8000080F00100C9F800000028BF
:1008D00006DD3FA13C48FFF75BFC3F48076001E0B5
:1008E0003EA115E03FA13848FFF752FC84F8008094
:1008F00048E0A8782A2860D1E878B0425DD13A482B
:100900000068401C08D0D9F80000012806D037A1A3
:100910002D48FFF73DFCE5E736A1F9E737A1F7E7FA
:10092000A8782A2849D1E878B04246D12648322111
:10093000323005F013FB33490868496832A2CDE92B
:10094000000121483221323004F022F8152801D369
:10095000277001E084F800801B48323000782D2891
:100960000ED084F80080184917483231FFF710FC88
:100970001CA11548FFF70CFC2078012802D01CE0D0
:100980002770F0E73221104805F04AFAE06032287B
:1009900013DA01460C4804F0BFFF0A496060091FE2
:1009A0000948FFF7F5FBE0680A220AEB0001801C0A
:1009B0004A7081B2044800F02BF80020BDE8FC87A3
:1009C00050040020F400002014090020080000203A
:1009D0007374617274000000040000206E6F737401
:1009E000617274002A0000000C00002049646C65EC
:1009F000000000006661756C740000007363616E36
:100A0000696E670028000020252E32660000000075
:100A10000A46094910B5D1F8B812D1F8141209B133
:100A2000012010BD0146044802F058FCBDE810400A
:100A3000014802F0B1BC00005004002070470000E3
:100A400072B6064C4FF47A75D4F8A00180F001011B
:100A5000C4F8A011284600F073F8F5E700802142A1
:100A600010B590F821100022022905D004218163DD
:100A700080F82020012010BD01680B6823F00E03D0
:100A80000B6001680B6823F001030B6090F84030A5
:100A9000012404FA03F1C36B596080F8214080F807
:100AA0002020104610BD000010B590F82110002441
:100AB000022903D00421816301243DE001680A6812
:100AC00022F00E020A6001680A6822F001020A6040
:100AD0001A4A0168914201D1012121E0174A1432DA
:100AE000914201D110211BE0144A2832914201D1D8
:100AF000891515E0114A3C32914201D189140FE069
:100B00000E4A5032914202D14FF4803108E00B4A34
:100B10006432914202D14FF4801101E04FF08071B4
:100B2000064A083A5160012180F82110002180F81E
:100B30002010416B01B18847204610BD08000240DB
:100B400070B5044600F0FAF80546601C02D004486F
:100B50000078044400F0F2F8401BA042FAD370BDC4
:100B60000C0100202DE9F84FDFF8A491002409F1D1
:100B7000040A0AF1040B23464FF00F080BF1040E90
:100B8000BEE00127A7403A40BA4272D1DFF884C1E3
:100B90004D68A5EB0C0665452BD00DDC032D34D03C
:100BA00005DC35B3012D19D0022D2FD11BE0112DFD
:100BB00016D0122D2AD119E0B6F5881F19D006DCFF
:100BC000B6F5803F15D0B6F5801F1FD111E0B6F500
:100BD000001F0ED0B6F5041F18D10AE0CB6815E04F
:100BE000CB681B1D12E0CB6808330FE0CB680C33D9
:100BF0000CE08B682BB1012B4FF0080303D0476149
:100C000004E0042302E0076100E00023FF2A01D88A
:100C1000064601E000F104064FEA840501D9A5F17A
:100C20002005376808FA05FC27EA0C0703FA05F5E2
:100C300047EA050737604D68ED0060D5364DAE696F
:100C400046F00106AE61AD6924F0030605F001052A
:100C50000095324D7719BE68A5072D0F08FA05FCDF
:100C600026EA0C06DFF8B8C0604503D14FF0000C4F
:100C700017E044E0DFF8ACC0604502D14FF0010C52
:100C80000FE0DFF8A4C0604502D14FF0020C08E08D
:100C9000DFF898C0604502D14FF0030C01E04FF03F
:100CA000040C0CFA05FC4CEA060CC7F808C04D68A9
:100CB000D9F80060ED034D4601D5164300E0964398
:100CC0002E604D68DAF80060AD03554601D5164335
:100CD00000E096432E604D68DBF80060ED025D4653
:100CE00001D5164300E096432E604D68DEF80060A3
:100CF000AD02754601D5164300E096432E60641C94
:100D00000A6832FA04F57FF43CAFBDE8F88F0000C2
:100D100000040140000011100010024000000140DA
:100D200000080140000C0140001001400014014087
:100D30000AB1016170470904FBE7000001488068BF
:100D4000704700000C01002070B5040025D094F815
:100D50003D00002520B984F83C50204600F078FA88
:100D6000242084F83D002068016821F00101016021
:100D70002068016841F4004101602068016821F4A5
:100D80000041016001F048F94D4B6168994201D87A
:100D90004C4900E04C49884201D2012070BD4B49CA
:100DA0002268B0FBF1F1566826F03F060E4356600C
:100DB00062689A4206D94FF4967251434FF47A72A0
:100DC000B1FBF2F12268491C166A26F03F06314356
:100DD00011626168994210D84900401EB0FBF1F2DF
:100DE000521CC2F30B02042A01D2042022E0B0FB01
:100DF000F1F0401CC0F30B001CE0A268F2B301EB61
:100E0000C10303EB0116431EB3FBF6F35B1C43F473
:100E100080431B0549D092B301EBC10202EB0111E3
:100E2000401EB0FBF1F0401CC0F30B0040F48040CA
:100E300040F400402168CA694CF6FF739A4310439E
:100E4000C861D4E9071001432068026822F0C0029B
:100E500011430160D4E9030101432068826848F22C
:100E6000FF339A4311438160D4E9051001432068A0
:100E7000C26822F0FF021143C16001E00EE016E0FB
:100E80002068016841F0010101602564202084F898
:100E90003D00256384F83E50002070BD01EB410603
:100EA000431EB3FBF6F35B1CB3E70120C2E701EB83
:100EB0004101401EB0FBF1F0401CC0F30B00B7E74E
:100EC000A086010080841E0000093D0040420F0002
:100ED0002DE9FF4F83B00026DDE910799A4693464D
:100EE0000446DDF848800096FFF728FF054694F891
:100EF0003D0020287CD119230122854920460095F8
:100F000001F0EAFC0028F5D194F83C0001286FD0EC
:100F1000012084F83C0020680168C90703D10168FA
:100F200041F0010101602068016821F40061016065
:100F3000222084F83D00402084F83E002664676249
:100F4000A4F82A90608D20857248E062CDE9008582
:100F500053465A462046049901F0C6FB00287DD12D
:100F6000208DDFF8B491202768B1012814D0022821
:100F7000206801681ED041F48061016020684169E9
:100F800080690090B6E0206841698169009101683C
:100F900041F400710160ADE02068016821F48061D6
:100FA000016072B62068416981690091016841F46D
:100FB00000710AE041F40061016072B62068416985
:100FC00081690091016821F48061016062B691E05D
:100FD000032868D801280CD0022843464FF00002AD
:100FE0004946204600950FD001F076FCB0BB10E0DA
:100FF0008BE02A464146204601F0EEFC70BB20689B
:101000000069616A08706CE001F066FC30BB72B682
:1010100034E02068016821F48061016072B62068C4
:101020000069616A0870606A401C6062208D401E21
:101030002085608D401E6085384846F2A811006802
:10104000B0FBF1F0C0EBC00000EB80000090401E50
:10105000009008D020684069C04300E029E04007C4
:101060000CD50098F3E744F8306F6773A6732069D6
:1010700040F02000206162B626731AE02068016803
:1010800041F40071016020680069616A0870606A5B
:10109000401C6062218D491E2185618D491E61853C
:1010A00062B621681BE02A464146204601F094FCC6
:1010B00018B1012007B0BDE8F08F20680069616AAF
:1010C0000870606A401C6062218D491E2185618D17
:1010D000491E618521684A69D24352070AD40969C9
:1010E0000170606A401C6062208D401E2085608D0A
:1010F000401E6085208D00287FF46AAF84F83D7023
:1011000084F83E6084F83C60D4E70220D2E7000017
:10111000020010000000FFFF040001001801002081
:101120002DE9FF4F83B09A46DDE9119793460446B7
:10113000DDF84080FFF702FE054694F83D002028C8
:101140007FD11923012240492046009501F0C4FBBC
:10115000002876D194F83C00012872D0012084F850
:101160003C0020680168C90703D1016841F0010112
:1011700001602068016821F400610160212084F889
:101180003D00402084F83E0000262664C4F82480F8
:10119000A4F82A90608D20852C48E062CDE9007586
:1011A00053465A462046049901F01CFB70B930E0C2
:1011B0002A463946204601F044FC58B1206C0428E8
:1011C00004D12068016841F400710160012007B07A
:1011D000BDE8F08F606A216800780861626A521C7D
:1011E0006262208D401E80B22085618D491E61851E
:1011F00021684B69DB435B070BD468B11078086149
:10120000606A401C6062208D401E2085608D401EFB
:101210006085208D0028CBD12A463946204601F032
:1012200035FB0028CAD154F83D0B016841F4007128
:101230000160202004F81E09E67766770020C6E7E3
:10124000FFE70220C3E70000020010000000FFFFDC
:1012500010B586B0002100910191029103910068C0
:101260000F4988421AD10F4CA06940F00800A061D4
:10127000A069694600F008000490C0200090122088
:101280000190032003900848FFF76CFCE06940F4EC
:101290000010E061E06900F40010049006B010BD99
:1012A0000054004000100240000C014002488168D8
:1012B00002781144816070470C010020074810B586
:1012C000016841F010010160032000F0B9F800202E
:1012D00000F006F800F024F8002010BD00200240C5
:1012E00070B50D4D04464FF47A712878B1FBF0F0DB
:1012F0000A490968B1FBF0F001F070F848B9102C08
:1013000007D200222146501E00F07AF800206C60BF
:1013100070BD012070BD00000C01002018010020EC
:101320000B4808B5816941F001018161816901F0D3
:1013300001010091C16941F08051C161C069054955
:1013400000F080500090486820F0E060486008BDE0
:1013500000100240000001402DE9F04116460F4602
:10136000040004D094F83D00002518B107E00120E6
:10137000BDE8F08184F83C50204601F04BF9242070
:1013800084F83D002068C16821F40051C160204606
:1013900001F050FE2068016921F49041016120684C
:1013A000416921F02A0141612068016921F00F01A2
:1013B000016120680169394301612068C16821F435
:1013C0000061C1602068C1683143C1602068C168A4
:1013D00041F40051C1602564202084F83D0084F868
:1013E0003E000020C4E7002809DB00F01F020121B5
:1013F00091404009800000F1E020C0F800117047E2
:10140000F0B40E4B1B68C3F30223C3F10704042C92
:1014100000D904241D1D072D01D2002300E0DB1E8E
:10142000012606FA04F56D1E0D409D409E40761E75
:10143000164045EA0601F0BC03F0D8BA0CED00E016
:10144000064A00F0070110684FF6FF03184040EA13
:101450000120034908431060704700000CED00E0D4
:101460000000FA0510B50C0607D501F0070101EBE5
:10147000810100EBC100283005E001EB810100EBA8
:10148000C10000F5B47099B232B10122027301813A
:10149000190C4181002010BD00220273C180F9E7C0
:1014A000704701EB810200EBC202D0F8E802D26B78
:1014B00002F021B901EB810200EBC202D0F8E80290
:1014C000D2F87C2102F07AB970B504460B0601F01F
:1014D000070000EB800104EBC1014FF001024FF067
:1014E000000503D581F82920283103E081F86951EE
:1014F00001F5B471087094F8A802012808D084F8A6
:10150000A822206802F0A7FD84F8A852002070BD30
:10151000022070BD70B5044601F00F006268904271
:1015200001D9012070BD0B0601F0070000EB80011E
:1015300004EBC1014FF001024FF0000503D581F823
:101540002920283103E081F8695101F5B4718D70CB
:10155000087094F8A802012808D084F8A82220680E
:1015600002F017FE84F8A852002070BD022070BD62
:101570002DE9F05F046857040B788D69B4F850705A
:101580004FF000064BF68F7948F2800A48F68F7BC1
:1015900048F2C00E4FF480682AD54FF0020C0CEBD5
:1015A000C30C674408EB4707E45BC4F30904A54296
:1015B00003D32D1B8D6101D00BE08E61056835F8DA
:1015C000236006EA090686F4005646EA0A0625F86C
:1015D0002360520609D50A78036833F8225005EAD9
:1015E0000B0545EA0E0523F8225084B30A8929E049
:1015F0004FF0060C0CEBC30C674408EB4707E45BA9
:10160000C4F30904A54203D32D1B8D6101D00BE067
:101610008E61056835F8236006EA090686F40056EF
:1016200046EA0A0625F82360520609D40B780268B8
:1016300032F8235005EA0B0545EA0E0522F823503F
:101640002CB14A8949690068234603F00CF9204609
:10165000BDE8F09F2DE9F05F054600680C465FEAA3
:10166000426C8B6916460978B0F850C048F68F77FF
:101670004CF280094FF6FF7B4FF4004E4FF4806A26
:101680004FF0000275D54FF0020808EBC108E044A6
:101690000AEB480C30F80C00C0F30900834211D962
:1016A0001B1AA3610FD0730407D52B6833F8216090
:1016B0003E4046EA090623F8216094F824100129E7
:1016C00049D04CE1A261607810B1012813D01AE032
:1016D0002868B0F85030184400EB0110B0F804143A
:1016E00021F4F841A0F80414B0F8041441F40041C6
:1016F000A0F8041407E02868B0F85030184400EB54
:101700000110A0F804246178286811B1012913D0D0
:101710001AE0B0F850100844217800EB0110B0F83E
:101720000C1421F4F841A0F80C14B0F80C1441F496
:101730000041A0F80C1407E0B0F8501008442178DC
:1017400000EB0110A0F80C2421782846FFF7A9FE31
:1017500070047CD403E1616901446161E169014481
:10176000E1612369216A994204D31846091A21626A
:1017700005E038E084F8242009B108462262617847
:1017800011B1012923D02BE02968B1F85020114470
:10179000227801EB021101F2044148B13E280FD832
:1017A0004208C30700D0521C0BEA82220A8017E0CD
:1017B0000A8822F4F8420A800A8842F40042F5E7D7
:1017C0004209C30600D1521E4EEA8222EEE7296882
:1017D000B1F850201144227801EB0211A1F8040461
:1017E00083B22289B7E04FF0060808EBC108E04455
:1017F0000AEB480C30F80C00C0F30900834211D307
:101800001B1AA3610FD0730407D42B6833F821602F
:101810003E4046EA090623F8216094F82410012985
:1018200054D09CE0A261607810B1012815D01CE072
:101830002868B0F85030184400EB0110B0F80414D8
:1018400021F4F841A0F80414B0F8041400E033E0E7
:1018500041F40041A0F8041407E02868B0F85030C3
:10186000184400EB0110A0F804246178286811B135
:10187000012913D01AE0B0F850100844217800EB89
:101880000110B0F80C1421F4F841A0F80C14B0F8D1
:101890000C1441F40041A0F80C1407E0B0F850100B
:1018A0000844217800EB0110A0F80C242178284688
:1018B000FFF7F7FD700452D42178286830F8212012
:1018C0003A4042EA090220F8212048E061690144D7
:1018D0006161E1690144E1612369216A994203D3AD
:1018E0001846091A216204E009B10846226284F808
:1018F00024206278296812B1012A22D029E0B1F8A7
:1019000050201144227801EB021101F20C4148B140
:101910003E280FD84208C30700D0521C0BEA82228F
:101920000A8016E00A8822F4F8420A800A8842F403
:101930000042F5E74209C30600D1521E4EEA822258
:10194000EEE7B1F850201144227801EB0211A1F822
:101950000C04628983B26169286802F0A1FF2178D2
:10196000286830F8212048F6BF731A4082F0300210
:1019700048F280031A4320F821200020BDE8F09FA0
:1019800001F0070101EB810100EBC100D0F88401F7
:1019900070472DE9F04104460F0601F0070000EB07
:1019A000800104EBC1014FF001064FF0000503D5A3
:1019B00081F82960283103E081F8695101F5B4719B
:1019C00008700A61CB704A7802B1C881022B00D13D
:1019D0000D7194F8A802012809D084F8A862206843
:1019E00002F0FEF9284684F8A852BDE8F0810220F2
:1019F000FBE770B50D4601F0070404EB840100EB32
:101A0000C101C1E95F230022C1F8842181F8692165
:101A100081F8684101F5B4716A07006802F00CFCB6
:101A2000002070BD70B504460D4601F007006168E6
:101A3000884201D9012070BD29064FF000064FF001
:101A4000010207D500EB800104EBC10181F82920D8
:101A5000283107E005EB850104EBC10181F86961DC
:101A600001F5B4718A70087094F8A802012807D0B3
:101A700084F8A822206802F0C6FB680702D006E0BE
:101A8000022070BD04F52C71206802F080FB84F800
:101A9000A862002070BD70B50D4601F0070404EB8C
:101AA000840100EBC101C1E90F23012281F84C2020
:101AB0008B6400234B6481F8292001F8284F6A07C2
:101AC000006802F0B9FB002070BD1FB50446006835
:101AD00002F0C6FE000402D5204601F075F8206829
:101AE00002F0BEFE40050CD5206830F8441F21F4FA
:101AF00080610180204600F01DF90021204600F0A1
:101B000034F9206802F0ACFE400405D5206830F8B6
:101B1000441F21F480410180206802F0A1FE80046E
:101B200005D5206830F8441F21F400510180206859
:101B300002F096FEC00414D5206830F8401F21F052
:101B400004010180206830F8401F21F00801018065
:101B5000204600F002F9206830F8441F21F480513B
:101B60000180206802F07CFE00053ED5216800203F
:101B70006A4631F8203022F81030401CC0B20828E4
:101B8000F7D331F8400F40F001000880206830F8AA
:101B9000401F21F0010101802068B0F84410490580
:101BA000FBD530F8441F21F48061018000202368B8
:101BB00032F8101023F82010401CC0B20828F6D3C9
:101BC000206830F8401F41F008010180206830F89B
:101BD000441F21F400610180206830F8401F41F06B
:101BE00004010180204600F0F5F8206802F038FE7C
:101BF000800508D5206830F8441F21F40071018069
:101C0000204600F0AEF8206802F02AFEC00505D597
:101C1000206830F8441F21F4807101801FBD2DE938
:101C2000F04186B0040004D094F8A902002520B148
:101C300008E0012006B0BDE8F08184F8A8522046F3
:101C400000F05AF8032084F8A902206802F098FAFC
:101C500004F11001142288466846FEF775FA94E8EC
:101C60000F0002F0F6F90227C8BB0021206802F03D
:101C70000FFE002101260EE001EB810004EBC00005
:101C800080F8296000F8281FC181C5700561456191
:101C9000491CC9B2856160688842EDD8002111E015
:101CA00001EB810004EBC00080F8695180F86811F5
:101CB00080F86B51C0F87851C0F87C51491CC9B20A
:101CC000C0F8805160688842EAD8142241466846CC
:101CD000FEF73AFA94E80F0002F049FA10B184F8DE
:101CE000A972A6E784F8245084F8A962206802F05B
:101CF0003CFA00209EE7000008B500680B498842C6
:101D000012D10B48C16941F40001C161C0690022D0
:101D100000F40000009011461420FFF771FBBDE8AD
:101D200008401420FFF75FBB08BD0000005C0040C6
:101D30000010024070B5044680680125022801D0D9
:101D4000FEF77EFE2946D4F8E80201F020FED4F822
:101D5000E802BDE8704001F0DCBDD0F8E80201F017
:101D600000BED0F8E80201F006BE10B5044690F8B7
:101D7000A80201280BD0012084F8A80284F82410BE
:101D8000206802F087FD002084F8A80210BD022020
:101D900010BDD0F8E82200F52C71104601F003BE0A
:101DA00010B5044690F8A802012810D0012084F84C
:101DB000A802206802F044FD01212046FFF770FBD5
:101DC000206802F0D0F9002084F8A80210BD02209B
:101DD00010BD000010B50446D0F8E80201F022FE64
:101DE000A069002804D00348016841F006010160A1
:101DF00010BD000010ED00E02DE9F8430446007826
:101E0000344FC00752D0F8690025C00008D4F869E3
:101E100040F08050F861F869012500F08050009092
:101E20002D480168C90511D40168804641F48071CC
:101E30000160FEF783FF064604E0FEF77FFF801B8C
:101E4000642822D8D8F80000C005F6D5386A10F406
:101E5000407020D0A18801F4407181421BD0386AC3
:101E60001E49012220F440700A6000220A60386294
:101E7000C00710D0FEF762FF064641F2883807E03F
:101E8000FEF75CFF811B414502D90320BDE8F883C2
:101E9000386A8007F4D5386A616820F440700843D6
:101EA00038621DB1F86920F08050F8612078800711
:101EB00005D57868A16820F4404008437860207810
:101EC000C00605D57868E16820F480000843786092
:101ED0000020DBE700100240007000404004424256
:101EE0002DE9F0470D46040067D0DFF81881D8F8D7
:101EF000000000F00700A8420CD2D8F8001021F032
:101F000007012943C8F80010D8F8000000F00700C6
:101F1000A84252D120683C4E810712D5400703D514
:101F2000706840F4E06070602078000703D5706846
:101F300040F4605070607068A16820F0F0000843C1
:101F400070602078C00727D06068012810D0316801
:101F5000022810D0890700292FDA716821F00301C7
:101F600001437160FEF7EAFE074641F288390CE052
:101F700031688903EFE78901EDE7FEF7DFFEC11B5A
:101F8000494502D90320BDE8F0877068616800F018
:101F90000C00B0EB810FF0D1D8F80010404601F0F2
:101FA0000701A9420BD9016821F00701294301600B
:101FB000006800F00700A84201D00120E3E7207884
:101FC000400705D57068E16820F4E0600843706060
:101FD0002078000706D57068216920F4605040EA37
:101FE000C100706000F038F87168084AC1F303114D
:101FF000515CC8400649086006480068FFF770F960
:102000000020C0E700200240001002406C5F000882
:1020100018010020100100200448054900684968A3
:10202000044AC1F30221515CC840704718010020E6
:10203000001002407C5F00080448054900684968B8
:10204000044AC1F3C221515CC84070471801002006
:10205000001002407C5F000812A085B00FC88DE818
:102060000F0014A0144B006804905968134801F045
:102070000C02042A10D0082A0ED1C1F38342C903EE
:102080001DF802000AD5596804AAC1F34041515C09
:102090000A4A5043B0FBF1F005B070470849484385
:1020A000FAE7000002030405060708090A0B0C0DF5
:1020B0000E0F1010010200000010024000127A0002
:1020C00000093D002DE9F84F04006FD02078BE4D87
:1020D000C00747D06868C0F38100012807D068684E
:1020E000C0F38100022809D16868C00306D52868BA
:1020F000800337D560680028E7D033E06068B0F52A
:10210000803F0BD010B1B0F5A02F11D0286820F47B
:1021100080302860286820F4802002E0286840F49D
:1021200080302860606888B1FEF708FE064609E046
:10213000286840F480202860F0E7FEF7FFFD801B50
:10214000642873D828688003F7D50BE0FEF7F6FD06
:10215000064604E0FEF7F2FD801B6428F1D82868EB
:102160008003F7D42078DFF8648280074FF0010AFB
:102170004FF0000939D5686810F00C0F07D0686877
:10218000C0F38100022809D16868C00306D428681A
:10219000800714D52069012808D110E02069B0B16A
:1021A000C8F800A0FEF7CAFD064605E007E1FEF705
:1021B000C5FD801B0228C4D828688007F7D5286889
:1021C000616920F0F80040EAC10028600DE0C8F81D
:1021D0000090FEF7B3FD064604E0FEF7AFFD801B5E
:1021E000022823D828688007F7D4207800072CD548
:1021F0007748A169D9B1C0F800A0FEF79FFD064657
:1022000004E0FEF79BFD801B02280FD8686A800758
:10221000F7D570484FF4FA510068B0FBF1F0009028
:1022200000BF0098411E0091FAD20EE07CE0C0F899
:102230000090FEF783FD064604E0FEF77FFD801B5D
:10224000022871D8686A8007F7D4207840075BD5E8
:10225000E8690027C00008D4E86940F08050E861D0
:10226000E869012700F0805000905B480168C905CB
:1022700011D40168834641F480710160FEF75EFD70
:10228000064604E0FEF75AFD801B64284CD8DBF8B4
:102290000000C005F6D5E06801280AD008B105287D
:1022A00013D0286A20F001002862286A20F0040078
:1022B00002E0286A40F001002862E06841F2883BB1
:1022C00088B1FEF73BFD064609E0286A40F00400AD
:1022D0002862EEE7FEF732FD811B59455BD8286A7C
:1022E0008007F7D50BE0FEF729FD064604E0FEF770
:1022F00025FD811B59454ED8286A8007F7D41FB1A8
:10230000E86920F08050E861E069A8B36968C1F32A
:102310008101022946D00228484606D0C8F860004C
:10232000FEF70CFD044639E035E04746C8F860008A
:10233000FEF704FD064604E0FEF700FD801B0228C0
:1023400029D828688001F7D4206AB0F5803F05D1EC
:102350006868A16820F4003008436860D4E9080187
:102360000843696821F4741108436860C7F860A0E5
:10237000FEF7E4FC044605E023E0FEF7DFFC001B6B
:10238000022808D828688001F7D51AE0FEF7D6FCA5
:10239000001B022802D90320BDE8F88F28688001BD
:1023A000F4D40EE00128F7D06868226A00F4803186
:1023B000914204D1616A00F47010884201D001207A
:1023C000EAE70020E8E70000001002400000424277
:1023D00080044242180100200070004010B5401EE9
:1023E000B0F1807F01D3012010BD4FF0E024606187
:1023F0000F21601702F0FAFA0020A0610720206187
:10240000002010BD70477047F8B502680446106898
:10241000D168536910F00F0F4FF0000553D003F04F
:10242000010601F4907737435FD0C20705D0CA0593
:1024300003D5226C42F001022264420705D5DA0777
:1024400003D0226C42F002022264820705D5DA072B
:1024500003D0226C42F004022264020707D501F087
:102460002002324303D0226C42F008022264226C24
:10247000002A34D0800604D5880602D5204600F014
:102480007EFD20684069216CC0F38010090700D4EC
:1024900030B3204600F05BFD2068416949061BD53A
:1024A000416921F040014161A06BA8B158494163E5
:1024B000A06BFEF7F9FA002811D0A06B416B01B0B8
:1024C000BDE8F040084783060FD58B060DD52046A2
:1024D000BDE8F84000F053BD2046FFF794FFF8BD7B
:1024E0002046FFF790FF2564F8BD266B2023012EC0
:1024F00052D1C60650D5CE064ED510685068009011
:10250000506940062AD5A16B086840680004000C99
:10251000EAD0A68D8642E7D9E0858869202818D0C0
:10252000D06820F48070D0602068416921F00101FA
:1025300041612068416921F04001416184F83E30E9
:1025400025632068C16821F01001C160A06BFEF70F
:1025500087FAA08DE18D401A81B219E0A08DE18D3E
:10256000401A81B2E08D0028BED00029BCD0D068CE
:1025700020F49070D0602068426922F0010242612C
:1025800084F83E3025632068C26822F01002C260E1
:102590002046FFF737FFF8BD05062BD50D0629D5D8
:1025A00094F83D002128F6D1A068B0F5805F01D1F4
:1025B0002069B0B1206A411C21622168007848601E
:1025C000E08C401E0004000CE084E4D12068C16867
:1025D00021F08001C1602068C16841F04001C16004
:1025E000F8BD206A0088C0F308005060206A801C93
:1025F0002062E5E74006F3D54806F1D5D1682046CC
:1026000021F04001D16084F83D3000F044F8F8BD7D
:102610003F2F000830B585B0002400940194029447
:1026200003940068184988422CD11848816941F404
:1026300080418161816901F480410491816941F0A7
:10264000040181618069124D00F0040004904FF490
:1026500000700090022001900320039069462846F4
:10266000FEF780FA2815CDE9000469462846029451
:10267000FEF778FA002211462520FEF7C1FE25203C
:10268000FEF7B1FE05B030BD003801400010024039
:102690000008014070477047064C4FF47A75D4F833
:1026A000A00180F00101C4F8A0112846FEF748FA05
:1026B000F5E700000080214201684A69D2435205D3
:1026C0000FD46FF480624A61002140F8301F20224D
:1026D00042738173026942F00402026101730120B6
:1026E00070470020704700002DE9F84F044600684D
:1026F00089460B9E01689846174641F48061016047
:102700002068016841F48071016000964FF0011B60
:102710000022594620460A9B00F0DEF84FF4007A6A
:1027200040B120680068C00501D5C4F840A003206E
:10273000BDE8F88F216809F0FE000861334628499A
:1027400020460A9A00F0FCF8F0BB206841698069D5
:102750000090324620460A9900F073F940B1206C8F
:1027600004283AD12068016841F40071016034E026
:10277000FDB2B8F1010F09D02168380A086132466C
:1027800020460A9900F05DF90028E8D1206805612B
:10279000324620460A9900F054F90028DFD120681B
:1027A000016841F48071016000960022594620467C
:1027B0000A9B00F091F80028B3D1216809F0FF00CE
:1027C00040F00100086100E007E03346044920467C
:1027D0000A9A00F0B5F80028AAD00120A8E7000066
:1027E000020001002DE9F843044600680D46DDE9CA
:1027F000089701689846164641F4807101604B467F
:1028000000224FF001112046009700F065F848B112
:1028100020680068C00502D54FF4007020640320D2
:10282000BDE8F883216805F0FE0008613B464A4692
:102830001549204600F084F888B92068416980690C
:1028400000903A464946204600F0FBF848B1206C1B
:10285000042804D12068016841F40071016001205E
:10286000DEE7F5B2B8F1010F09D02168300A08613E
:102870003A464946204600F0E4F80028E7D12068AF
:1028800005610020CCE700000200010070B516468B
:102890000D4604460DE02046FFF70EFF08B101206B
:1028A00070BD681C05D0FEF749FA801BA84207D806
:1028B00035B120684069C0434007ECD4002070BDAA
:1028C000002044F8300F20216173A073216941F08A
:1028D000200121612073E2E72DE9F0471D46904673
:1028E0000E460446C1F30747DDF8209008E0681C57
:1028F00006D0FEF723FAA0EB0900A8420FD875B165
:102900002068012F18D0806926EA00000004000C1E
:1029100014D000204045EAD00020BDE8F087002018
:1029200044F8300F20216173A073216941F0200128
:10293000216120730120F0E74069E5E70120E9E724
:102940002DE9F047984615460E4604464FF000091B
:102950004FF0200AC1F3074723E020684069C043D5
:10296000400515D42068016841F4007101602168B8
:102970006FF480604861C4F8309084F83DA084F81A
:102980003E90216C41F00401216484F83C901EE0EB
:10299000681C06D0FEF7D2F9A0EB0800A8420AD8BE
:1029A0004DB12068012F15D0806926EA000000048F
:1029B000000C0DD0D1E744F8309F84F80DA084F8C6
:1029C0000E90216941F02001216184F80C900120D2
:1029D000BDE8F0874069E8E72DE9F04116460D466D
:1029E000044600274FF0200817E04069C043C006A6
:1029F0000DD454F8301B6FF01000486144F80D7B83
:102A000004F81D89A777206A2062277717E0FEF770
:102A100095F9801BA84208D83DB120684169C94397
:102A20004906E2D40020BDE8F08144F8307F84F804
:102A30000D80A773206940F02000206127730120DA
:102A4000F1E770B516460D4604460DE02046FFF747
:102A500033FE08B1012070BD681C05D0FEF76EF989
:102A6000801BA84207D835B120684069C0430006E2
:102A7000ECD4002070BD002044F8300F2021617399
:102A8000A073216941F0200121612073E2E7F0B5D4
:102A900000230A24302537261F4610E0B4EB107FB0
:102AA00002D905EB107C01E006EB107C01F813C0A5
:102AB00001EB430C00015B1C8CF80170DBB293420C
:102AC000ECD3F0BD70B586B0002418480094019492
:102AD00002940394816941F010018161816901F0E0
:102AE00010010491816941F008018161816901F05F
:102AF00008010491816941F00401816180690C4EF3
:102B000000F004004FF4D8550490002229463046C6
:102B1000FEF70EF901200095CDE901040220039093
:102B200069463046FEF71EF806B070BD0010024040
:102B3000000C01400C4810B50A4901600B49416086
:102B400000214FF480428160C0E90312416181613C
:102B5000C1610162FEF7F8F8002801D0FDF770FFAF
:102B600010BD00000054004038020020801A06000A
:102B700010B500220F49104800F096FD08B1FDF78E
:102B80005FFF0E490C4800F073FF08B1FDF758FFD6
:102B90000B49094800F094FB08B1FDF751FF0648C6
:102BA00000F0BCFF002803D0BDE81040FDF748BF8F
:102BB00010BD00009C00002050040020F8010020FF
:102BC000FC000020FEE7FEE72DE9F05F04464FF031
:102BD000060A4FF0020B4FF480696CE1B0F8441024
:102BE00011F00F0639D030F826805FEA08417DD514
:102BF00030F8261040F68F72114041F0800120F825
:102C0000261006EB860004EBC00595F8740105F567
:102C1000B47500286BD0E878022869D0297820683C
:102C200030F8212048F68F731A4048F2C0031A4347
:102C300020F821202978206830F82120B0F8503081
:102C400052047DD50BEBC1015A1809EB4201415AE0
:102C50008F05BF0D75D02A89D2E0C9062ED4018810
:102C600048F60F72114041F400410180206804F1E0
:102C70002805B0F850202B780BEBC3010A4409EB70
:102C80004201405AC0F309006064E16B0844E0630C
:102C900000212046FEF705FC94F8240000289CD073
:102CA000A869002899D194F82400216840F0800098
:102CB000A1F84C00002084F82400FCE0018804F511
:102CC000B4750A0521D5B0F850202B780AEBC30162
:102CD0000A4409EB4201405A04F52C71C0F3090380
:102CE000EB61EA88206801F0BEFD02E0A0E067E049
:102CF00075E02068018840F68F72114041F0800134
:102D000001802046FFF745F8D5E00904D5D50188B4
:102D100040F68F72114041F0800101802068B0F8C8
:102D200050202B780AEBC3010A4409EB4201405AB8
:102D300083059B0DEB6110D0696971B1EA8801E0F0
:102D400054E052E0206801F08EFDE96968690844AA
:102D5000686100212046FEF7ADFB20680188090567
:102D60002DD4B0F850100844296900F20C4051B13C
:102D70003E2910D84A08C90700D0521C4FF6FF71EF
:102D800001EA82210FE0018821F4F84101800188E5
:102D900041F4004107E04A09C90600D1521E4FF430
:102DA000004141EA82210180206801884BF68F7240
:102DB000114081F4405148F28002114301807AE0D1
:102DC0002068B0F850202B780AEBC3010A4409EBC5
:102DD0004201415A8F05BF0D16D0EA8810E04246E5
:102DE00029462046FEF7C4FB07460DE00AEBC10169
:102DF0005A1809EB4201415A8F05BF0D04D06A8968
:102E00003B46696901F02FFDE8693844E86168696B
:102E100038446861A86910B12869B84204D9297892
:102E20002046FEF747FB03E02946206801F004FA3C
:102E30005FEA08603FD506EB860004EBC00120681E
:102E400030F8262048F60F731A4042F4004220F86A
:102E5000262091F82B002831032805D020B1022824
:102E600025D15FEAC85022D42068B0F850300D78E0
:102E70000BEBC502134409EB4302805A8A69C0F385
:102E8000090082420CD9121A8A610BD04A690244A5
:102E90004A61CA691044C861206801F0CDF90AE0AE
:102EA00000208861E9B22046FEF7FBFA03E04246C3
:102EB0002046FEF7CFFB2068B0F8441009043FF528
:102EC0008DAE0020BDE8F09F70477047FEF7EEB969
:102ED00030B593B028216846FDF74FF914210AA8B0
:102EE000FDF74BF9002401200F9410941194010474
:102EF00012948DE8130004904FF4E010CDE908100F
:102F0000022507956846FFF7DDF898B90F20CDE94F
:102F10000A056802CDE90C4002210AA80E94FEF7CA
:102F2000DFFF38B910200F9012940FA8FEF764FF4E
:102F3000002801D0FDF784FD13B030BD704710B5F7
:102F4000406A0021C185C184FFF75DFA10BD0168A8
:102F5000CA6822F49072CA6001684A6922F00102CC
:102F60004A61016B012904D10168CA6822F010028C
:102F7000CA60202180F83E1000210163704708B527
:102F800090F83E10222901D0022008BD81684FF43C
:102F90008053994201D1026922B1826A99421BD0C1
:102FA00049B10AE00268816A5268C2F308020A80E5
:102FB000816A891C08E0016971B10168496801F002
:102FC0007F011170816A491C8162C18D491E09040B
:102FD000090CC18503D019E001684968F1E701686F
:102FE000CA6822F02002CA600168CA6822F48072AE
:102FF000CA6001684A6922F001024A61202180F812
:103000003E10016B012903D0FFF744FB002008BDEF
:10301000002101630168CA6822F01002CA600168D9
:103020000A68D20602D50A6849680091818DFFF7C7
:10303000E9F9EBE770B5044600680169E26821F43C
:10304000405111430161A168206901436069014356
:103050002068C26841F20C639A430A43C260206848
:103060004169A26921F44071114341611E49206800
:10307000884202D1FEF7E0FF01E0FEF7CDFF00EB52
:10308000C00101EB0011606864228000B1FBF0F325
:10309000B3FBF2F36FF018067343B1FBF0F5B1FB2D
:1030A000F0F605EB8305322303EB0515B5FBF2F5CE
:1030B000B6FBF2F605F0F00505EB0615B1FBF0F6F0
:1030C000B1FBF0F0B0FBF2F06FF01801484306EBF3
:1030D000800003EB0010B0FBF2F0216800F00F005D
:1030E0002844886070BD0000003801400148FFF7A7
:1030F0008BB900008C0200202DE9F041D0F8C062AD
:10310000D0F8B822CAB101EB810300EB8304002799
:10311000E5693DB106EBC3039B6BB5FBF3F603FB1F
:10312000165323B1C2F814720020BDE8F0810023C9
:103130001A46E76100F07FFCF6E70220F5E770B57C
:103140000546D0F8B84200F07AFBC4F80C02D5F876
:10315000B80248B1D5F8BC12D4F80402CA6804F524
:1031600003719047002070BD022070BD70B5044609
:103170000026812100F0B6FA002501212046E562F3
:1031800000F0B0FA82212046C4F86C5100F0AAFA8F
:103190002564D4F8B80248B1D4F8BC0204F52E7402
:1031A00040688047206800F016FE2560304670BDFC
:1031B00010B5D0E9AE4159B194F80002FF2807D00C
:1031C0008B6894F8012221469847FF2084F800027A
:1031D000002010BD0A210180004870472001002016
:1031E0004321018000487047700100204321018085
:1031F000004870472C01002043210180004870479F
:10320000B40100202DE9F04104460026007C4FF473
:103210000077012590B3402302228121204600F04F
:1032200063FB4023E56202220121204600F05CFBA3
:103230000823032282212046C4F86C5100F054FB7D
:103240004FF40770256400F0C7FDC4F8B802F8B168
:103250000546D4F8BC02006880470021C5F8141266
:10326000C5F81812207CD5F8042298B1402301211A
:10327000204600F045FB3046BDE8F081FFE73B46C5
:1032800002228121204600F02FFB3B46E562CAE77F
:103290000126F0E73B46EAE710B5D0F8B81269B16D
:1032A000027C002AD1F8042205D04023012100F03D
:1032B00027FB002010BD4FF40073F7E7022010BD7C
:1032C00002460220002902D00020C2F8BC1270473A
:1032D000D0F8B802C0F8041200207047D0F8B80245
:1032E000C0F81022C0F80812002070472DE9FC41F8
:1032F0000546D0F8B87200208DF80000ADF8040043
:10330000064608780C4610F0600121D020293BD1F8
:10331000E288AAB10006607807D5D5F8BC128B68A0
:1033200039469847E288394626E087F80002A079B6
:1033300087F80102E2883946284600F06AF828E05A
:10334000D5F8BC12607800228B682146984720E0AF
:10335000607820B10A2809D00B2815D110E095F823
:103360009C02032810D1022201A905E095F89C02D5
:10337000032809D101226946284600F064F808E0D4
:1033800095F89C02032804D02146284600F036F820
:1033900002263046BDE8FC8110B5D0F8B812A1B1C4
:1033A000D1F814220AB1012010BD0122C1F8142263
:1033B000D1F810220263B1F8102293B2D1F808229A
:1033C000812100F038FB002010BD022010BD10B597
:1033D000D0F8B42252689047002010BD134610B5B3
:1033E0000A46002100F08CFA002010BD134610B5EB
:1033F0000A46002100F01FFB002010BD10B5044656
:10340000802100F0FDFA2046BDE81040002100F0C8
:10341000F7BA10B50323C0F85C21C0F89432C0F8A5
:10342000602113460A46002100F06AFA002010BD10
:1034300010B505210023C0F894121A46194600F071
:103440005FFA002010BD10B50223C261C0F89432AB
:10345000026213460A46002100F0EDFA002010BD7A
:1034600010B504210023C0F894121A46194600F042
:10347000E2FA002010BD000010B50A46024903A080
:1034800000F0E2F8004810BD140700204344432038
:10349000436F6E666967000012200880004870471D
:1034A000BC00002010B50A46024903A000F0CCF889
:1034B000004810BD1407002043444320496E746542
:1034C0007266616365000000042008800048704750
:1034D000B800002010B50A46024903A000F0B4F875
:1034E000004810BD1407002053544D6963726F6586
:1034F0006C656374726F6E696373000010B50A4681
:10350000024903A000F0A0F8004810BD14070020F5
:1035100053544D3332205669727475616C20436F79
:103520006D506F727400000010B51A2008800A48B0
:103530000168001D0468001D0068081809D00822F1
:103540000649FFF7A4FA0549042210312046FFF787
:103550009EFA0248801E10BDE8F7FF1FD20000202F
:10356000F8B504460020ADF8000048880D46010A71
:10357000082948D2DFE801F04704091747473D45CD
:10358000D4F8B012207C0A6819E0207C02260028BA
:10359000D4F8B40205D0C16A68468847014646702F
:1035A0003EE0816AF8E7C0B206282CD2DFE800F0DE
:1035B000030B1115191DD4F8B002426806E06946E4
:1035C000904701462CE0D4F8B0028268DAB1207C42
:1035D000F5E7D4F8B002C268F8E7D4F8B00202699F
:1035E000F4E7D4F8B0024269F0E7D4F8B002826997
:1035F000ECE7207C38B9D4F8B402416B68468847C0
:10360000DFE7207C20B129462046FFF7F7FEF8BD12
:10361000D4F8B402016B6846884701460720487019
:10362000BDF8000048B1EA8852B1824200D9024692
:10363000ADF800202046FFF706FFE8880028E6D115
:103640002046FFF70DFFF8BD70B5002300281ED0FF
:103650000446002502E06D1CEDB2641C2678002EA5
:10366000F9D1022404EB450414801278CA545B1C7F
:103670000322CA5400245B1C06E0CA545B1CDAB265
:103680008C54521CD3B2401C0278002AF5D170BD74
:1036900001004FF0000004D0012901D0022901D01F
:1036A000022070470120704710B580B1D0F8B432C5
:1036B00013B10023C0F8B43209B1C0F8B01201212F
:1036C00080F89C12027000F0BFF8002010BD0220AC
:1036D00010BD10B5D0F8C002FDF71CFFBDE81040CA
:1036E000FFF7D6BF10B5D0F8C002FDF7EDFEBDE87C
:1036F0001040FFF7CDBF2DE9F0411746044651B108
:10370000D4F8B40242691AB194F89C02032851D04B
:103710000220BDE8F081D4F89432002504F11400B1
:10372000022B03D0042B3AD0C3B33CE0D0E90363AF
:103730009E4207D9F11AC1608AB239462046FFF786
:1037400055FE12E08068B0FBF3F103FB110199B95B
:10375000984211D3D4F8981288420DD20022114613
:103760002046FFF743FEC4F8985200231A46194634
:10377000204600F0C5F816E0D4F8B402C16829B1BB
:1037800094F89C02032801D12046884780212046D6
:1037900000F036F92046FFF74BFE04E0FFE78021FA
:1037A000204600F02DF994F8A002012804D184F8F5
:1037B000A05201E0204690470020AAE770B51546C8
:1037C000044649B1D4F8B40282691AB194F89C0253
:1037D000032830D0022070BDD4F8941204F5AA70EA
:1037E000032902D005291ED027E0D0E903318B42FE
:1037F0000BD95B1AC3600846834200D303469AB2D2
:1038000029462046FFF7EAFD17E0D4F8B402016923
:1038100029B194F89C02032801D12046884720460C
:10382000FFF71EFE09E000200146C4F8940220467E
:1038300000F0E6F801E020469047002070BDD0F887
:10384000C002FEF79DB8000010B504461C481D4993
:10385000C0F8E842C4F8C0020160082141600221BA
:10386000816000218161C1610162FEF7D8F908B170
:10387000FDF7E6F80022D4F8C0021823114604F53B
:103880003074FDF7EFFD5823002280212068FDF7FA
:10389000E9FDC023002281212068FDF7E3FD4FF4FC
:1038A0008873002201212068FDF7DCFD4FF480734E
:1038B000002282212068FDF7D5FD002010BD000008
:1038C000180C0020005C00400A0601F07F01D0F8CF
:1038D000C00201EB810100EBC10002D590F82A0083
:1038E000704790F86A01704710B51C461346D0F82F
:1038F000C0022246FEF74DF8BDE81040FFF7C8BEF3
:1039000010B5D0F8C002FEF774F8BDE81040FFF71C
:10391000BFBE70B50022044640231146FFF7E4FF06
:1039200040260125C4F864613346002280212046E8
:10393000C4F85851FFF7D8FF6662A56184F89C521D
:103940000020C4F894026060C4F8A402D4F8B8025D
:1039500028B1D4F8B40200214268204690470020E4
:1039600070BD90F89C12042903D190F89D1280F844
:103970009C120020704710B590F89C12032904D1C6
:10398000D0F8B412C96901B18847002010BD017494
:103990000020704710B5D0F8C002FEF7E6F9BDE888
:1039A0001040FFF775BE70B5044600F52A70054655
:1039B00000F04AF80120C4F89402B4F8AE02C4F84A
:1039C000980294F8A82212F01F000AD001280DD006
:1039D000022810D002F08001204600F011F80020EB
:1039E00070BD2946204600F09EF8F8E7294620469B
:1039F00000F0CAF9F3E72946204600F01DF9EEE78A
:103A000010B5D0F8C002FEF70DF8BDE81040FFF782
:103A10003FBE10B5D0F8C002FEF7C2F9BDE81040B5
:103A2000FFF736BE90F89C1280F89D12042180F8B2
:103A30009C120020704710B5D0F8C002FEF72BF89A
:103A4000BDE81040FFF724BE0A7802704A78427041
:103A50008A78CB7802EB032242800A794B7902EB19
:103A6000032282808A79C97902EB0121C1807047E3
:103A70000246002011B1C2F8B4127047022070470C
:103A800010B5D0F8B42202241AB11268904700B9D8
:103A90000024204610BD000070B50E461E4D8978EA
:103AA00004462970012931D894F89C0202280BD0D1
:103AB00003280FD031462046FFF7A0FC2978204686
:103AC000BDE87040FFF783BCD9B10320616084F882
:103AD0009C0209E071B16068884212D0C1B22046F0
:103AE000FFF775FC297861602046FFF7C9FF0228BF
:103AF0000CD006E0022084F89C0220466160FFF7AB
:103B000066FC2046BDE87040FFF7AABC314620465F
:103B1000BDE87040FFF772BC1C01002010B5FFF734
:103B200078FF002010BD2DE9F0410A784FF0000821
:103B300012F0600208D0202A01D0402A6FD1D0F8BC
:103B4000B422926890476CE04B780022012602274D
:103B50000A2B64D2DFE803F03F5B6355630805631B
:103B60002B28FFF7FDFC5CE004468888D0B9C888A4
:103B7000C0B94888802815D200F07F0594F89C02CF
:103B800003280FD084F89E5229462046FFF702FFF3
:103B90002046FFF765FC15B184F89C7241E084F87B
:103BA0009C623EE020463AE0FFF776FF39E0CB88A2
:103BB000012B34D190F89C32012B04D0022B02D07F
:103BC000032B2CD104E08260012200F1080115E0F2
:103BD0000122011D12E090F89C32012B03D0022B30
:103BE00001D0032B1BD1CB88022B18D1C260D0F897
:103BF000A41201B1C760022200F10C01FFF723FCFF
:103C00000FE0498801290CD1C0F8A46211E090F8B6
:103C10009C32012B08D0022B06D0032B04D0FFF7D7
:103C2000EDFB4046BDE8F08149880129F9D1C0F893
:103C3000A422FFF715FCF4E72DE9F0410A460446FB
:103C400013780027097913F060000AD0202801D0EA
:103C5000402850D1D4F8B4021146836820469847D2
:103C60008FE0C3F34110012806D05078D0B301286B
:103C70002AD003283FD107E0D4F8B4021146836864
:103C80002046BDE8F041184794F89C02022802D073
:103C9000032872D10AE071B380296ED02046FFF765
:103CA000AFFE80212046FFF7ABFE6AE0508838B9AE
:103CB00031B1802904D0D08810B92046FFF7A0FE8A
:103CC0002046FFF7CDFB5CE094F89C020228E2D08E
:103CD000032852D1508898BB4806F1D02046FFF700
:103CE000F8FCEDE7FFE794F89C020026022803D0D9
:103CF000032842D112E040E009B180293DD10806F5
:103D000001F07F0000EB800004EB800101D514314D
:103D100001E001F5AA7102220E602AE0080601F016
:103D20000F0000EB800004EB80000AD5806920B30F
:103D300001F07F0000EB800004EB800514350BE000
:103D40001FE0D0F85801C0B101F07F0000EB800007
:103D500004EB800505F5AA7541B1802906D02046FF
:103D6000FFF7B2FD10B10120286000E02E600222B2
:103D700029462046FFF767FB03E011462046FFF780
:103D80003DFB3846BDE8F08170B5054608780C4625
:103D900010F0600203D0202A01D0402A16D195F8F5
:103DA0009C22012A03D0022A01D0032A0ED12079B5
:103DB00001280BD8D5F8B402826828469047E188DC
:103DC000014306D12846FFF74BFB02E02846FFF7E8
:103DD00015FB002070BD704700487047F8090020AF
:103DE0002DE9F0470D78002630F8252048F68F138E
:103DF0001A40CB78002B79D0012B7DD0022B02D03A
:103E0000032B76D0012648F28004224320F8252097
:103E10000A7830F8223048F68F773B40134323432B
:103E200020F822300B7B48F2C00548F6BF724CF2F6
:103E3000800C4BF68F79E3B30B789A4630F82380E9
:103E400048F2801308EA070848EA030820F82A80A5
:103E5000B0F8503091F80080034403EB0813B1F838
:103E6000088028F00108A3F80084B0F8503091F8D9
:103E70000080034403EB0813B1F80A8028F001081E
:103E8000A3F808844B78002B0B7830F823804FEA96
:103E900048487DD0B8F1000F07DA30F8238008EAEF
:103EA000070848EA0C0820F823800B7830F823C074
:103EB00000E024E05FEA4C6C07D530F823C00CEA40
:103EC000070C4CEA050C20F823C0CB78012B0B78AB
:103ED00030F8235005EA02057ED085F02002224307
:103EE00020F82320AAE001E006E002E042F400729C
:103EF00089E742F4C06286E742F4806283E74B7848
:103F000063B3B0F8503091F800C0034403EB0C13D6
:103F1000B1F806C02CF0010CA3F800C40B7830F8FF
:103F200023C05FEA4C6C07D530F823C00CEA070CBD
:103F30004CEA050C20F823C0CB78012B06D0097879
:103F400030F82130134083F020027CE0097830F80B
:103F500021301340234320F8213077E0B0F850207F
:103F60000B78024402EB0312CB8823F00103A2F882
:103F70000834B0F850200B78024402EB03120B69AE
:103F800002F20C4263B13E2B12D85D08DB0700E061
:103F90002DE000D06D1C4FF6FF7303EA85230FE080
:103FA000138823F4F8431380138843F4004307E095
:103FB0005D09DB0600D16D1E4FF4004343EA852303
:103FC00013800A7830F822305B0408D530F82230AC
:103FD0003B4043EA0C0300E02DE020F82230097852
:103FE00030F8212002EA090282F440522BE0B8F1B5
:103FF000000F07DA30F8238008EA070848EA0C08BF
:1040000020F823800B7830F823C05FEA4C6C07D58A
:1040100030F823C00CEA070C4CEA050C20F823C04A
:104020000B7830F8235005EA090585F440552543FF
:1040300020F823508AE7254320F82350097830F8E8
:10404000212002EA0902224320F821203046BDE85F
:10405000F087002070472DE9F04391F80C804C78F0
:104060000A7848F6BF774BF68F7948F2800548F218
:10407000C0064CF2800C48F68F73B8F1000F29D0BF
:10408000002C30F822404FEA444448D0002C06DA95
:1040900030F822401C4044EA0C0420F822400A7800
:1040A00030F82240640605D530F822401C403443E5
:1040B00020F822400A7830F822401C4044EA0C04E0
:1040C00020F822400A7830F822303B402B4320F879
:1040D000223019E0002C30F822400CD0640605D5BF
:1040E00030F822401C40344320F82240097830F850
:1040F00021203A400DE0640406D530F822401C40EF
:1041000044EA0C0420F82240097830F8212002EA21
:1041100009022A4320F821200020BDE8F083002C6A
:1041200006DA30F822401C4044EA0C0420F8224011
:104130000A7830F82240640605D530F822401C4049
:10414000344320F822400A7830F822401C4034439F
:1041500020F822400A7830F8223003EA09032B4382
:1041600020F82230C2E7002070470020704701216C
:1041700020F8401F0021018081800182084670479D
:1041800030F8401F21F43F4101800020704700209B
:10419000704730B50A7BA2BB4A7848F68F75002A73
:1041A0000A7848F2800430F8223015D05B0607D533
:1041B00030F822302B4048F2C0052B4320F8223043
:1041C000CA78012A1DD0097830F8212048F6BF733B
:1041D0001A4082F0200211E05B0407D530F822304B
:1041E0002B404CF280052B4320F82230097830F820
:1041F00021204BF68F731A4082F44052224320F85C
:104200002120002030BD10B54A780978002A48F2F4
:10421000800330F8212005D048F6BF74224082F098
:10422000100204E04BF68F74224082F480521A434D
:1042300020F82120002010BD2DE9F0470C464B78D6
:10424000097B06464FF0000948F68F7248F2800A53
:104250004FF6FF774FF40048012B09D000296ED0AC
:10426000E07802286CD001286BD00120BDE8F087EF
:10427000A5692069854200D90546C9B1E17848F2AF
:104280008013022923D0207836F8201011401943DA
:1042900026F82010206A401B2062207836F8201073
:1042A000490661787ED500297DD001297CD03EE188
:1042B000ABB2E2883046616900F0F2FAB6F850001D
:1042C0002178304400EB0110A0F80454EAE0216AA0
:1042D0008142207869D936F820101140194326F818
:1042E0002010206A401B2062207836F820104906F2
:1042F00061786CD511B1012924D02AE0B6F85010AC
:10430000314401EB001000F20C404DB13E2D0FD8AE
:104310006908EA0700D0491C07EA8121018018E0FA
:10432000018821F4F8410180018841F40041F5E75A
:104330006909EA0600D1491E48EA8121EEE79BE1BE
:10434000BAE124E2B6F85020911901EB0010A0F870
:104350000C546289ABB23046616900F0A1FA606921
:10436000284460612169206A884202D9401B20628A
:1043700002E00546C4F82090607800287CD1B6F8A9
:1043800050002178304400EB011000F204406DB180
:104390003E2D13D86908EA0700D0491C07EA81219D
:1043A000018012E000E19AE0BAE084E0018821F4A3
:1043B000F8410180018841F40041F1E76909EA060A
:1043C00000D1491E48EA8121EAE7228965E011B15E
:1043D000012921D027E0B6F85010314401EB00103C
:1043E00000F204404DB13E2D0FD86908EA0700D015
:1043F000491C07EA8121018015E0018821F4F84178
:104400000180018841F40041F5E76909EA0600D11D
:10441000491E48EA8121EEE7B6F85010314401EB1D
:104420000010A0F804542289ABB23046616900F054
:1044300037FA6069284460612169206A884202D99C
:10444000401B206202E00546C4F8209060780028F6
:104450007DD1B6F850002178304400EB011000F215
:104460000C4055B13E2D10D86908EA0700D0491C10
:1044700007EA812101800FE071E0018821F4F84111
:104480000180018841F40041F4E76909EA0600D19E
:10449000491E48EA8121EDE76289ABB23046616985
:1044A00000F0FEF9207836F8201048F6BF7211406F
:1044B00081F03001BEE136F8202048F68F631A40C3
:1044C00042EA0A0226F82020B6F85000227830444A
:1044D00000EB02108BB2A0F804342289DEE7B6F8B4
:1044E0005010314401EB001000F20C404DB13E2D54
:1044F0000FD86908EA0700D0491C07EA812101802A
:1045000015E0018821F4F8410180018841F400415F
:10451000F5E76909EA0600D1491E48EA8121EEE77C
:10452000B6F85020911901EB0010A0F80C546289E4
:10453000ABB23046616900F0B3F96069284460614C
:104540002169206A884203D9401B206203E06EE0A3
:104550000546C4F82090002DA4D0607858B10128F9
:104560007FF41FAFB6F850002178304400EB011003
:10457000A0F8045429E7B6F850002178304400EB45
:10458000011101F204413E2D06D86808EA0700D067
:10459000401C07EA802005E06809EA0600D1401EB9
:1045A00048EA8020088010E711B1012921D027E0D6
:1045B000B6F85010314401EB001000F204404DB148
:1045C0003E2D0FD86908EA0700D0491C07EA81216F
:1045D000018015E0018821F4F8410180018841F44F
:1045E0000041F5E76909EA0600D1491E48EA812140
:1045F000EEE7B6F85010314401EB0010A0F8045477
:104600002289ABB23046616900F04AF960692844FA
:1046100060612169206A884202D9401B206202E061
:104620000546C4F82090002D96D0607858B1012836
:104630007FF421AFB6F850108819217800EB0110F3
:10464000A0F80C5428E7B6F850002178304400EB6D
:10465000011101F20C413E2D06D86808EA0700D08E
:10466000401C07EA802005E06809EA0600D1401EE8
:1046700048EA802008800FE7A1692069814202D9B9
:10468000091AA161B4E00846C4F81890B0E008889F
:1046900020F4F8400880088840F400400AE03E28F2
:1046A00074D84208C00700D0521C07EA822001E0FB
:1046B00048EA82200880B5E093B9B6F85000217826
:1046C000304400EB0110216900F2044069B13E2939
:1046D00013D84B08C90700D05B1C07EA832101806F
:1046E000607888B1012832D03AE0018821F4F8419D
:1046F0000180018841F40041F1E74B09C90600D16E
:104700005B1E48EA8321EAE7B6F85000217830447E
:1047100000EB0110216900F20C4049B13E290FD88D
:104720004B08C90700D05B1C07EA8321018017E012
:10473000018821F4F8410180018841F40041F5E746
:104740004B09C90600D15B1E48EA8321EEE7B6F8A3
:1047500050108819217800EB0110218AA0F80C1460
:10476000E069A8B3217836F82100430401D5430657
:1047700003D444F24003184254D136F821001040CB
:1047800048F2C002104326F821004BE03CE0A1694A
:104790002069814202D9091AA16102E00846C4F8E1
:1047A00018908BB9B6F850102278314401EB021101
:1047B00001F2044168B13E2813D84208C30700D073
:1047C000521C07EA82220A80617889B1012921D02E
:1047D00028E00A8822F4F8420A800A8842F400425B
:1047E000F1E74209C30600D1521E48EA8222EAE7F5
:1047F000B6F850102278314401EB021101F20C415D
:1048000000287FF44CAF42E74209C0067FF450AF66
:10481000521E4DE7B6F850209119227801EB021193
:10482000A1F80C04207836F820104BF68F72114056
:1048300081F4405141EA0A0126F82010002015E5D4
:104840000021A0F844104FF43F41A0F84010002090
:10485000704700000148FDF738B90000180C00202F
:10486000B0F84400704710B500EB42005C0800F55A
:10487000806008D030F8042B01F8012B120A01F8EF
:10488000012B641EF6D1DA0701D00088087010BD34
:104890000020704711B98021A0F84C10002070470B
:1048A00010B55B1C00EB42005B0800F5806009D08E
:1048B00011F8012B11F8014B42EA042220F8042BD5
:1048C0005B1EF5D110BD0000F8B52648D0F8A41144
:1048D00081F00101C0F8A411234C00250A26A0692B
:1048E000D8B13221214801F09BFA0090322814DA25
:1048F00001461E4801F010F8606104F114011B48E4
:10490000FBF746FC19480099084446700098801C43
:1049100081B21648FCF77CF8A5612069002820D0F8
:1049200012483221323801F07BFA0090322818DA2E
:1049300001460E48323800F0EFFF60610A490B482B
:1049400014313238FBF724FC084800993238084407
:1049500046700098801C81B204483238FCF758F841
:104960002561F8BD0080214200000020EA030020FC
:10497000064C4FF47A75D4F8A00180F00101C4F818
:10498000A0112846FCF7DCF8F5E700000080214282
:104990000FB47CB50C0009AD01D0611E00E0002110
:1049A000CDE90001064B6A462946089800F026FC2E
:1049B000002C02D0009A002111707CBC5DF814FB21
:1049C00003590008490050EAC12018BF04204A0DCD
:1049D00018BF40F0010040F2FF72B2EB515F08BF18
:1049E00040F00200012808BF052070470907090EA2
:1049F000002804DB00F1E02080F80014704700F08C
:104A00000F0000F1E02080F8141D70472DE9F74FEA
:104A1000144694B00021C4E902111599079121F0C0
:104A20000045C9498D4206DC1599C4E9000117B05B
:104A30000020BDE8F08FC549DFF814A3A9423CDD92
:104A40000799C44E0029C44FC44A1599534619DD2D
:104A5000FBF763FC554506D0C14AC24BFBF75DFC32
:104A6000C4E900010AE04FF0D352BE4BFBF755FCFE
:104A700032463B46FBF751FCC4E9000117B0012068
:104A8000BDE8F08FFBF7A8FB554506D0B44AB54BFF
:104A9000FBF7A2FBC4E900010AE04FF0D352B14B8F
:104AA000FBF79AFB32463B46FBF796FBC4E9000155
:104AB00017B04FF0FF30BDE8F08FAB49A942159910
:104AC00078DB21F0004183468846A84AA84BFBF7D3
:104AD0002AFC0022A74BFBF77FFBFBF742FE099065
:104AE000FBF719FD06460F469C4A5346FBF71BFC95
:104AF00043465A46FBF714FC80468A46984A994B2F
:104B000030463946FBF70FFC2A0D01250B92424631
:104B10005346FBF705FC032DC4E9000139D00B987F
:104B2000C1F30A51401A05EB45111139814230DABF
:104B30009148C346784400EB0510CDF80CA00C90CA
:104B4000D0E9002330463946FBF7EDFB02460B4621
:104B50000491069058460399FBF7DFFB80468A468E
:104B600002460B4658460399FBF7D7FB049B069A6F
:104B7000FBF7D3FB83460C9803913946D0E9022317
:104B80003046FBF7D0FB5A46039BFBF7C6FB6D1C78
:104B9000BDE707980028A2BF099817B0BDE8F08FBD
:104BA000616881F000416160099817B04042BDE83A
:104BB000F08FFFE784461598C1F31301C0F30A5044
:104BC000A0F2F5304FEA601800F01F06C6F1200091
:104BD000139000200690079041F4801E05206D463A
:104BE00076B1664A08EB00017A4452F8213002EBB4
:104BF0008101B3404A68139922FA01F1194305E093
:104C00005F4908EB0002794451F82210A1FB0E27FE
:104C1000A1FB0C131A449A4234BF0123002303EB77
:104C2000070A05EB8003D3E901B70F448F4234BF75
:104C30000121002193448B4411B1934502D903E033
:104C4000934501D2012100E00021C3E901B751449D
:104C500045F82010011EA0F10100C1DC0298059F5B
:104C600000F10050800F12900298DDE90356800099
:104C7000FBF751FC834628460D91FBF765FD6FF06D
:104C80001D02FBF731FCCDE90E013046FBF75CFD60
:104C90006FF03D02FBF728FC80468A463846FBF75A
:104CA00053FD6FF05D02FBF71FFC0746424653467B
:104CB0001191FBF791FADDE90E23FBF78DFA5A46C5
:104CC0000D9BFBF789FA00250E465A4628460D9B98
:104CD000FBF723FBDDE90E23FBF71FFB42465346A0
:104CE000FBF71BFB3A46119BFBF71AFBDFF898A07A
:104CF000244A5346FBF717FB07468846234A244BB2
:104D000031462846FBF70FFB3A464346FBF764FA69
:104D1000074688464FF0A842534631462846FBF7DF
:104D200002FB3A464346FBF757FA159A12F0004F3A
:104D300004D0129A81F0004152421292C4E900015B
:104D4000129817B0BDE8F08FFB21E93F7CD90240F3
:104D5000FB21F93F7370032E8A19A33B00004054D6
:104D60003163621A61B4D03DFB21394183C8C96DFA
:104D7000305FE43F0000E03F80140000FC130000BF
:104D8000DE130000182D4454FB21F93D3326A611F3
:104D9000460B113C2DE9FF4D21F0004807460C461B
:104DA000B8F1795F08DAFBF7DCFC002801BF0020CE
:104DB000324904B0BDE8F08D3A4623461046194604
:104DC000FBF7B1FA054602462D480E460B46062172
:104DD000784400F05DF82A463346FBF7A4FADDE993
:104DE000022382468B4638462146FBF79CFA04464E
:104DF0000F4652465B4628463146FBF794FA224658
:104E00003B46FBF78AFA07468A464FF0FF322846B0
:104E10003146FBF769FB1B4A90450ADA3A4653468E
:104E2000FBF77BFA04B00022BDE8F04D134BFBF713
:104E300077BA154A4245A8BFA8F500154FF00004FF
:104E4000B8BF124D22462B46FBF767FA0646884646
:104E500022462B4600200949FBF75FFA04460D461F
:104E60003A46534630464146FBF757FA04B02246CD
:104E70002B46BDE8F04DFBF753BA00000000F03FB1
:104E8000B41100003333D33F0000E93F0000D23FAC
:104E90002DE9F0414F1E00EBC7010446D1E90001A6
:104EA00015461E4637F006020DD02A463346FBF75C
:104EB0003AFA7F1E04EBC703D3E90023FBF78CF912
:104EC00037F00602F1D1022F25D0042F13D0062F80
:104ED00018BFBDE8F0812A463346FBF724FAD4E92F
:104EE0000A23FBF779F92A463346FBF71CFAD4E983
:104EF0000823FBF771F92A463346FBF714FAD4E985
:104F00000623FBF769F92A463346FBF70CFAD4E986
:104F10000423FBF761F92A463346FBF704FAD4E988
:104F20000223FBF759F92A463346FBF7FCF9D4E98B
:104F30000023BDE8F041FBF74FB900002DE9FF4D1C
:104F4000054621F0004084B00C46B0F1795F0BDAE1
:104F50002846FFF737FD042808BF00F06FF8284601
:104F600008B02146BDE8F08D2A460B461046FBF7F7
:104F7000DAF906460F462A462346FBF7D4F980465F
:104F800026488A4632463B4605217844FFF780FF93
:104F900083461098029160B3214A224B4046514605
:104FA000FBF7C1F9CDE900015A4640465146029B44
:104FB000FBF7B9F982468846DDE906014FF0FF327A
:104FC000FBF792FA52464346FBF7A7F932463B46B7
:104FD000FBF7A9F9DDE90623FBF79FF9DDE90023DB
:104FE000FBF79BF908B02A462346BDE8F04DFBF7D6
:104FF00097B90B465A4630463946FBF794F9084AAA
:10500000084BFBF7E9F842465346FBF78CF908B02A
:105010002A462346BDE8F04DFBF7DEB8F21000004B
:10502000495555555555C5BF0122FBF75DBA0022BC
:10503000134610461146FBF7E8B90000024A00206B
:105040001107FBF751BA000001FDFFFF02E008C89D
:10505000121F08C1002AFAD170477047002001E0F2
:1050600001C1121F002AFBD17047000001490860EE
:1050700070470000300200202DE9FF5F82B0002160
:10508000DDE90430020DDDF840B0034318D044F6EA
:105090001050A2F2FF3242431514119801281FD07C
:1050A000A5EB0B00401C5FEA000A4FF000064E4FD4
:1050B000DFF83891B046504615D5CAF1000413E028
:1050C000119801244AA3012801D16FEA0B0102982B
:1050D000119AC0E90031C0E9024206B0BDE8F09F74
:1050E000CBF10000DFE704460021404A491842EBBB
:1050F0000450CDE9001012E0E00707D032463B46ED
:1051000040464946FBF70FF98046894632463B4602
:1051100010461946FBF707F906460F466410002CA7
:10512000EAD1DDE90401DDE90023BAF1000F06DA76
:10513000FBF7F9F842464B46FBF7F5F805E0FBF7BD
:1051400064F942464B46FBF760F904460E460022DE
:10515000284BFBF7CFFA03D84FF0FF30014607E0AA
:105160000022254B20463146FBF736F8FBF7A9FA1B
:10517000102409E0002C0ADB0A220023FBF7F2F9D5
:10518000039B30321A55641E50EA0102F2D1641CAE
:10519000039AC4F111031444119A012A03D0012285
:1051A00008430DD10AE0084304D000204FF0110B52
:1051B000119072E7A3EB0B056D1E0DE05B4504DD5E
:1051C0004FF0000205F1010504E003DA4FF00002A0
:1051D000A5F10105002AECD002981199C0E902312D
:1051E000C0E9004579E70000000014400000F03FEE
:1051F000300000000000F0430000E03F2DE9FF4FC9
:1052000095B09A46884606460025EEE1252877D1D6
:1052100000242746F94A0121039400E0044316F8CC
:10522000013F203B01FA03F01042F7D130782A28E1
:1052300011D06FF02F033078A0F13002092A16D870
:10524000039A44F0020402EB820203EB4202104490
:10525000761C0390EFE758F8042B0392002A03DA38
:10526000504244F40054039044F00204761C307819
:105270002E2816D116F8010F44F004042A280DD068
:105280006FF02F023078A0F13003092B09D807EB1B
:10529000870302EB4303C718761CF3E758F8047B37
:1052A000761C30786C280FD006DC4C2817D0682884
:1052B0000DD06A2814D104E0742810D07A280FD1B8
:1052C0000DE044F400140AE044F4801401E044F4D6
:1052D00040147278824202D104F58014761C761C48
:1052E000307866280BD013DC582877D009DC0028EA
:1052F00075D04528F6D04628F4D047281AD193E136
:1053000018E0632835D0642879D0652812D18BE164
:10531000702873D008DC6728F1D069286FD06E2818
:105320000DD06F2806D1ACE073282CD0752874D02E
:10533000782853D05246179990476D1C54E1C4F316
:105340000250022809D003280DD0D8F800100428F4
:105350000DD00D6008F1040846E1D8F80010EA17F6
:10536000C1E90052F6E7D8F800100D80F2E70D70A1
:10537000F0E718F8041B8DF8001000208DF80100EC
:10538000EB46012003E058F804BB4FF0FF30610703
:105390004FF0000102D40DE009F101018946B94244
:1053A0000FDA8145F8DB1BF809100029F4D108E079
:1053B00009F1010189468142FADB1BF80910002935
:1053C000F6D103985346A0EB090721463846179AB1
:1053D00000F080FA284400EB090507E044E008E10A
:1053E0000DE01BF8010B524617999047B9F10109DE
:1053F000F7D2534621463846179AF2E039E00A219F
:10540000C4F302524FF0000B0091022A06D058F864
:10541000040BC117032A09D00AE023E008F10700B2
:1054200020F00702F2E80201904605E000B2C11741
:10543000042A01D140B2C117002906DA0A46002128
:10544000404261EB02012D2202E0220504D52B220D
:105450008DF80420012203E0E20701D02022F7E7C3
:10546000914657E00A2100E010214FF0000B009117
:105470000BE010214FF0000B44F0040408270091CA
:1054800003E008204FF0000B0090C4F30252022A00
:1054900005D058F8040B0021032A08D008E008F1D1
:1054A000070020F00702F2E80201904603E080B214
:1054B000042A00D1C0B24FF0000922072AD5327861
:1054C000702A07D0DDF800C08CF0100C5CEA0B0CE1
:1054D00005D00EE040228DF80420012208E050EAB9
:1054E000010306D030238DF804308DF80520022208
:1054F0009146009B83F0080353EA0B030AD150EA5C
:10550000010201D1620705D530228DF804204FF049
:1055100001097F1E3278582A04D039A20C920CAAB5
:1055200002920BE03BA2F9E75B46009AFBF71AF800
:105530000C9B9B5C029A521E0292137050EA01026D
:10554000F2D1029804A9081A00F1200B600702D5D5
:1055500024F4803400E001275F4502DDA7EB0B0057
:1055600000E0002000EB0B01009003984944401A32
:105570000390E00306D453462146179A039800F09F
:10558000A9F90544002706E001A85246C05D179915
:1055900090476D1C7F1C4F45F6DBE0030CD553464E
:1055A0002146179A039800F095F9054404E030204D
:1055B0005246179990476D1C0099481E009000298B
:1055C000F5DC08E00298029952460078491C0291E5
:1055D000179990476D1CBBF10001ABF1010BF1DC99
:1055E0005BE100F065F90544761C307800287FF413
:1055F0000DAE19B02846BDE8F08F00000928010063
:105600003031323334353637383961626364656638
:1056100000000000303132333435363738394142FA
:105620004344454600000000600700D4062708F107
:10563000070020F00700F0E80223804603F0004C4A
:105640005FEA0C0001D097A009E0200501D596A0E3
:1056500005E0E00701D095A001E0AFF24C00139007
:10566000307823F0004365280CD006DC452809D0AB
:1056700046281DD047287FD13BE0662818D06728F0
:105680007AD136E00021112F01DB112000E0781CD7
:10569000CDE9000104A90CA8FFF7EEFCDDE90D013E
:1056A0000C9A4FF0000B07F10109109200914EE0A7
:1056B0004FF000400097CDE9011004A90CA8FFF7B6
:1056C000DBFCDDE90D020C9B0F994FF0000B9146BE
:1056D0001093009211B9791C00EB0109B7EB090096
:1056E00003D4C0F1FF3B07F10109A9EB07000190CA
:1056F00042E0012F00DA01270021112F01DD1120E6
:1057000000E03846CDE9000104A90CA8FFF7B4FC7D
:10571000DDE90D010C9A00914FF0000BB946109293
:1057200021070FD4009A4A4503DA914601E0A9F116
:105730000109B9F1010F05DD109AA9F10101515CD0
:105740003029F4D0B84202DA10F1040F03DA012153
:10575000CDE9011010E0002803DC8344A9EB00012F
:1057600002E0411C494500DD8946A0EB0B00401CCE
:1057700001904FF000400290200705D40198484561
:1057800002DB4FF0FF30019000208DF84B000298B3
:105790000DF14B07B0F1004F25D002200C902B20CB
:1057A0000D90029800280CDA404202902D200D90B6
:1057B00007E00A210298FAF7BFFE3031029007F89D
:1057C000011D0C99481E0C900029F2DC029800285B
:1057D000EFD1791E0D980870307800F0200040F06D
:1057E000450007F8020D11A8C01BC01D02901398B8
:1057F000007800B1012000EB0901019801EBE07194
:10580000029801440398401A401E0390E00306D416
:1058100053462146179A039800F05CF80544139804
:10582000007818B15246179990476D1CE00323D5B4
:1058300053462146179A039800F04CF805441BE0A4
:10584000BBF1000F07DB0098584504DD109817994D
:1058500010F80B0001E0179930205246904701984C
:105860000BF1010B401E05F10105019004D12E2022
:105870005246179990476D1CB9F10001A9F1010931
:10588000DEDC05E017F8010B5246179990476D1CB6
:105890000299481E02900029F4DC53462146179ACB
:1058A00003989EE62D0000002B0000002000000061
:1058B0002DE9F041044600251E461746880404D40D
:1058C00005E039462020B0476D1C641EF9D52846F6
:1058D000BDE8F0812DE9F041044600251E469046C2
:1058E000C80301D5302700E02027880404D505E04F
:1058F00041463846B0476D1C641EF9D52846BDE8C0
:10590000F0814A68002A06D00A68531C0B601070A8
:105910004868401E4860704710B503460078012271
:1059200002E09C5C6040521C8A42FADB10BD000021
:1059300000B5244B21F0004287B09A42DCBF002220
:10594000134629DD204B9A4208D140B94FF001009F
:10595000FFF78CFBFFF76BFB07B000BD03DBFFF726
:1059600063FB07B000BD02AAFFF750F810F0030177
:1059700004BF0DF1080C9CE80F000DD00120012997
:105980000ED0022914D00DF1080C00909CE80F00F5
:10599000FFF7D4FA07B000BDFFF7FCF907B000BD70
:1059A0000DF1080C00909CE80F00FFF7C7FA05E026
:1059B0000DF1080C9CE80F00FFF7ECF907B081F03F
:1059C000004100BDFB21E93F0000F07F1CB5174CF2
:1059D000002032212061164800F0C0FA144832211C
:1059E000643000F0BBFA124924200870A06AE16A12
:1059F00010A221F00041CDE900010D4832216430B0
:105A0000FEF7C6FF15280FD20948643000782D280C
:105A10000AD0074906486431FAF7BAFB07A10448DF
:105A2000FAF7B6FB012020611CBD00000000002039
:105A3000B8030020252E3266000000002A00000076
:105A4000FBF73CFCFDF744FAFDF73CF8FDF790F856
:105A5000FDF770F82E482D49002501604FF4614193
:105A6000C0E901150C21C560C0E9045185612A46D1
:105A70002946C561FBF770FC08B1FAF7E1FF25A1E3
:105A80002548FAF785FB25A12348FAF781FB25A1D4
:105A90002148FAF77DFB244E244C4FF4FA77D6F8D0
:105AA000000150B9A06880F00100A0603846FBF703
:105AB00047F8D6F800010028FBD0D6F8040150B909
:105AC000206880F0010020603846FBF739F8D6F8EE
:105AD00004010128FBD000F02BF8E068401C03D043
